{
  "_format": "hh-sol-artifact-1",
  "contractName": "MyERC1155",
  "sourceName": "contracts/mocks/MyERC1155.sol",
  "abi": [
    {
      "inputs": [
        {
          "internalType": "address",
          "name": "initialOwner",
          "type": "address"
        }
      ],
      "stateMutability": "nonpayable",
      "type": "constructor"
    },
    {
      "inputs": [
        {
          "internalType": "address",
          "name": "sender",
          "type": "address"
        },
        {
          "internalType": "uint256",
          "name": "balance",
          "type": "uint256"
        },
        {
          "internalType": "uint256",
          "name": "needed",
          "type": "uint256"
        },
        {
          "internalType": "uint256",
          "name": "tokenId",
          "type": "uint256"
        }
      ],
      "name": "ERC1155InsufficientBalance",
      "type": "error"
    },
    {
      "inputs": [
        {
          "internalType": "address",
          "name": "approver",
          "type": "address"
        }
      ],
      "name": "ERC1155InvalidApprover",
      "type": "error"
    },
    {
      "inputs": [
        {
          "internalType": "uint256",
          "name": "idsLength",
          "type": "uint256"
        },
        {
          "internalType": "uint256",
          "name": "valuesLength",
          "type": "uint256"
        }
      ],
      "name": "ERC1155InvalidArrayLength",
      "type": "error"
    },
    {
      "inputs": [
        {
          "internalType": "address",
          "name": "operator",
          "type": "address"
        }
      ],
      "name": "ERC1155InvalidOperator",
      "type": "error"
    },
    {
      "inputs": [
        {
          "internalType": "address",
          "name": "receiver",
          "type": "address"
        }
      ],
      "name": "ERC1155InvalidReceiver",
      "type": "error"
    },
    {
      "inputs": [
        {
          "internalType": "address",
          "name": "sender",
          "type": "address"
        }
      ],
      "name": "ERC1155InvalidSender",
      "type": "error"
    },
    {
      "inputs": [
        {
          "internalType": "address",
          "name": "operator",
          "type": "address"
        },
        {
          "internalType": "address",
          "name": "owner",
          "type": "address"
        }
      ],
      "name": "ERC1155MissingApprovalForAll",
      "type": "error"
    },
    {
      "inputs": [
        {
          "internalType": "address",
          "name": "owner",
          "type": "address"
        }
      ],
      "name": "OwnableInvalidOwner",
      "type": "error"
    },
    {
      "inputs": [
        {
          "internalType": "address",
          "name": "account",
          "type": "address"
        }
      ],
      "name": "OwnableUnauthorizedAccount",
      "type": "error"
    },
    {
      "anonymous": false,
      "inputs": [
        {
          "indexed": true,
          "internalType": "address",
          "name": "account",
          "type": "address"
        },
        {
          "indexed": true,
          "internalType": "address",
          "name": "operator",
          "type": "address"
        },
        {
          "indexed": false,
          "internalType": "bool",
          "name": "approved",
          "type": "bool"
        }
      ],
      "name": "ApprovalForAll",
      "type": "event"
    },
    {
      "anonymous": false,
      "inputs": [
        {
          "indexed": true,
          "internalType": "address",
          "name": "previousOwner",
          "type": "address"
        },
        {
          "indexed": true,
          "internalType": "address",
          "name": "newOwner",
          "type": "address"
        }
      ],
      "name": "OwnershipTransferred",
      "type": "event"
    },
    {
      "anonymous": false,
      "inputs": [
        {
          "indexed": true,
          "internalType": "address",
          "name": "operator",
          "type": "address"
        },
        {
          "indexed": true,
          "internalType": "address",
          "name": "from",
          "type": "address"
        },
        {
          "indexed": true,
          "internalType": "address",
          "name": "to",
          "type": "address"
        },
        {
          "indexed": false,
          "internalType": "uint256[]",
          "name": "ids",
          "type": "uint256[]"
        },
        {
          "indexed": false,
          "internalType": "uint256[]",
          "name": "values",
          "type": "uint256[]"
        }
      ],
      "name": "TransferBatch",
      "type": "event"
    },
    {
      "anonymous": false,
      "inputs": [
        {
          "indexed": true,
          "internalType": "address",
          "name": "operator",
          "type": "address"
        },
        {
          "indexed": true,
          "internalType": "address",
          "name": "from",
          "type": "address"
        },
        {
          "indexed": true,
          "internalType": "address",
          "name": "to",
          "type": "address"
        },
        {
          "indexed": false,
          "internalType": "uint256",
          "name": "id",
          "type": "uint256"
        },
        {
          "indexed": false,
          "internalType": "uint256",
          "name": "value",
          "type": "uint256"
        }
      ],
      "name": "TransferSingle",
      "type": "event"
    },
    {
      "anonymous": false,
      "inputs": [
        {
          "indexed": false,
          "internalType": "string",
          "name": "value",
          "type": "string"
        },
        {
          "indexed": true,
          "internalType": "uint256",
          "name": "id",
          "type": "uint256"
        }
      ],
      "name": "URI",
      "type": "event"
    },
    {
      "inputs": [
        {
          "internalType": "address",
          "name": "account",
          "type": "address"
        },
        {
          "internalType": "uint256",
          "name": "id",
          "type": "uint256"
        }
      ],
      "name": "balanceOf",
      "outputs": [
        {
          "internalType": "uint256",
          "name": "",
          "type": "uint256"
        }
      ],
      "stateMutability": "view",
      "type": "function"
    },
    {
      "inputs": [
        {
          "internalType": "address[]",
          "name": "accounts",
          "type": "address[]"
        },
        {
          "internalType": "uint256[]",
          "name": "ids",
          "type": "uint256[]"
        }
      ],
      "name": "balanceOfBatch",
      "outputs": [
        {
          "internalType": "uint256[]",
          "name": "",
          "type": "uint256[]"
        }
      ],
      "stateMutability": "view",
      "type": "function"
    },
    {
      "inputs": [
        {
          "internalType": "address",
          "name": "account",
          "type": "address"
        },
        {
          "internalType": "address",
          "name": "operator",
          "type": "address"
        }
      ],
      "name": "isApprovedForAll",
      "outputs": [
        {
          "internalType": "bool",
          "name": "",
          "type": "bool"
        }
      ],
      "stateMutability": "view",
      "type": "function"
    },
    {
      "inputs": [
        {
          "internalType": "address",
          "name": "account",
          "type": "address"
        },
        {
          "internalType": "uint256",
          "name": "id",
          "type": "uint256"
        },
        {
          "internalType": "uint256",
          "name": "amount",
          "type": "uint256"
        },
        {
          "internalType": "bytes",
          "name": "data",
          "type": "bytes"
        }
      ],
      "name": "mint",
      "outputs": [],
      "stateMutability": "nonpayable",
      "type": "function"
    },
    {
      "inputs": [
        {
          "internalType": "address",
          "name": "to",
          "type": "address"
        },
        {
          "internalType": "uint256[]",
          "name": "ids",
          "type": "uint256[]"
        },
        {
          "internalType": "uint256[]",
          "name": "amounts",
          "type": "uint256[]"
        },
        {
          "internalType": "bytes",
          "name": "data",
          "type": "bytes"
        }
      ],
      "name": "mintBatch",
      "outputs": [],
      "stateMutability": "nonpayable",
      "type": "function"
    },
    {
      "inputs": [],
      "name": "owner",
      "outputs": [
        {
          "internalType": "address",
          "name": "",
          "type": "address"
        }
      ],
      "stateMutability": "view",
      "type": "function"
    },
    {
      "inputs": [],
      "name": "renounceOwnership",
      "outputs": [],
      "stateMutability": "nonpayable",
      "type": "function"
    },
    {
      "inputs": [
        {
          "internalType": "address",
          "name": "from",
          "type": "address"
        },
        {
          "internalType": "address",
          "name": "to",
          "type": "address"
        },
        {
          "internalType": "uint256[]",
          "name": "ids",
          "type": "uint256[]"
        },
        {
          "internalType": "uint256[]",
          "name": "values",
          "type": "uint256[]"
        },
        {
          "internalType": "bytes",
          "name": "data",
          "type": "bytes"
        }
      ],
      "name": "safeBatchTransferFrom",
      "outputs": [],
      "stateMutability": "nonpayable",
      "type": "function"
    },
    {
      "inputs": [
        {
          "internalType": "address",
          "name": "from",
          "type": "address"
        },
        {
          "internalType": "address",
          "name": "to",
          "type": "address"
        },
        {
          "internalType": "uint256",
          "name": "id",
          "type": "uint256"
        },
        {
          "internalType": "uint256",
          "name": "value",
          "type": "uint256"
        },
        {
          "internalType": "bytes",
          "name": "data",
          "type": "bytes"
        }
      ],
      "name": "safeTransferFrom",
      "outputs": [],
      "stateMutability": "nonpayable",
      "type": "function"
    },
    {
      "inputs": [
        {
          "internalType": "address",
          "name": "operator",
          "type": "address"
        },
        {
          "internalType": "bool",
          "name": "approved",
          "type": "bool"
        }
      ],
      "name": "setApprovalForAll",
      "outputs": [],
      "stateMutability": "nonpayable",
      "type": "function"
    },
    {
      "inputs": [
        {
          "internalType": "string",
          "name": "newuri",
          "type": "string"
        }
      ],
      "name": "setURI",
      "outputs": [],
      "stateMutability": "nonpayable",
      "type": "function"
    },
    {
      "inputs": [
        {
          "internalType": "bytes4",
          "name": "interfaceId",
          "type": "bytes4"
        }
      ],
      "name": "supportsInterface",
      "outputs": [
        {
          "internalType": "bool",
          "name": "",
          "type": "bool"
        }
      ],
      "stateMutability": "view",
      "type": "function"
    },
    {
      "inputs": [
        {
          "internalType": "address",
          "name": "newOwner",
          "type": "address"
        }
      ],
      "name": "transferOwnership",
      "outputs": [],
      "stateMutability": "nonpayable",
      "type": "function"
    },
    {
      "inputs": [
        {
          "internalType": "uint256",
          "name": "",
          "type": "uint256"
        }
      ],
      "name": "uri",
      "outputs": [
        {
          "internalType": "string",
          "name": "",
          "type": "string"
        }
      ],
      "stateMutability": "view",
      "type": "function"
    }
  ],
  "bytecode": "0x60806040523480156200001157600080fd5b5060405162001865380380620018658339810160408190526200003491620000f7565b6040805160208101909152600081528190620000508162000093565b506001600160a01b0381166200008057604051631e4fbdf760e01b81526000600482015260240160405180910390fd5b6200008b81620000a5565b50506200029a565b6002620000a18282620001ce565b5050565b600380546001600160a01b038381166001600160a01b0319831681179093556040519116919082907f8be0079c531659141344cd1fd0a4f28419497f9722a3daafe3b4186f6b6457e090600090a35050565b6000602082840312156200010a57600080fd5b81516001600160a01b03811681146200012257600080fd5b9392505050565b634e487b7160e01b600052604160045260246000fd5b600181811c908216806200015457607f821691505b6020821081036200017557634e487b7160e01b600052602260045260246000fd5b50919050565b601f821115620001c957600081815260208120601f850160051c81016020861015620001a45750805b601f850160051c820191505b81811015620001c557828155600101620001b0565b5050505b505050565b81516001600160401b03811115620001ea57620001ea62000129565b6200020281620001fb84546200013f565b846200017b565b602080601f8311600181146200023a5760008415620002215750858301515b600019600386901b1c1916600185901b178555620001c5565b600085815260208120601f198616915b828110156200026b578886015182559484019460019091019084016200024a565b50858210156200028a5787850151600019600388901b60f8161c191681555b5050505050600190811b01905550565b6115bb80620002aa6000396000f3fe608060405234801561001057600080fd5b50600436106100b95760003560e01c8062fdd58e146100be57806301ffc9a7146100e457806302fe5305146101075780630e89341c1461011c5780631f7fdffa1461013c5780632eb2c2d61461014f5780634e1273f414610162578063715018a614610182578063731133e91461018a5780638da5cb5b1461019d578063a22cb465146101b2578063e985e9c5146101c5578063f242432a146101d8578063f2fde38b146101eb575b600080fd5b6100d16100cc366004610ccc565b6101fe565b6040519081526020015b60405180910390f35b6100f76100f2366004610d0c565b610226565b60405190151581526020016100db565b61011a610115366004610dcd565b610276565b005b61012f61012a366004610e1d565b61028a565b6040516100db9190610e7c565b61011a61014a366004610f3d565b61031e565b61011a61015d366004610fd5565b610338565b61017561017036600461107e565b610399565b6040516100db9190611178565b61011a610469565b61011a61019836600461118b565b61047d565b6101a5610491565b6040516100db91906111df565b61011a6101c03660046111f3565b6104a0565b6100f76101d336600461122f565b6104af565b61011a6101e6366004611262565b6104dd565b61011a6101f93660046112c6565b61052d565b6000818152602081815260408083206001600160a01b03861684529091529020545b92915050565b60006001600160e01b03198216636cdb3d1360e11b148061025757506001600160e01b031982166303a24d0760e21b145b8061022057506301ffc9a760e01b6001600160e01b0319831614610220565b61027e610568565b6102878161059a565b50565b606060028054610299906112e1565b80601f01602080910402602001604051908101604052809291908181526020018280546102c5906112e1565b80156103125780601f106102e757610100808354040283529160200191610312565b820191906000526020600020905b8154815290600101906020018083116102f557829003601f168201915b50505050509050919050565b610326610568565b610332848484846105a6565b50505050565b336001600160a01b0386168114801590610359575061035786826104af565b155b1561038457808660405163711bec9160e11b815260040161037b92919061131b565b60405180910390fd5b61039186868686866105de565b505050505050565b606081518351146103ca5781518351604051635b05999160e01b81526004810192909252602482015260440161037b565b600083516001600160401b038111156103e5576103e5610d30565b60405190808252806020026020018201604052801561040e578160200160208202803683370190505b50905060005b84518110156104615761043461042a8683610645565b6100cc8684610645565b82828151811061044657610446611335565b602090810291909101015261045a81611361565b9050610414565b509392505050565b610471610568565b61047b6000610653565b565b610485610568565b610332848484846106a5565b6003546001600160a01b031690565b6104ab3383836106ee565b5050565b6001600160a01b03918216600090815260016020908152604080832093909416825291909152205460ff1690565b336001600160a01b03861681148015906104fe57506104fc86826104af565b155b1561052057808660405163711bec9160e11b815260040161037b92919061131b565b6103918686868686610784565b610535610568565b6001600160a01b03811661055f576000604051631e4fbdf760e01b815260040161037b91906111df565b61028781610653565b33610571610491565b6001600160a01b03161461047b573360405163118cdaa760e01b815260040161037b91906111df565b60026104ab82826113c5565b6001600160a01b0384166105d0576000604051632bfa23e760e11b815260040161037b91906111df565b6103326000858585856107fe565b6001600160a01b038416610608576000604051632bfa23e760e11b815260040161037b91906111df565b6001600160a01b038516610631576000604051626a0d4560e21b815260040161037b91906111df565b61063e85858585856107fe565b5050505050565b602090810291909101015190565b600380546001600160a01b038381166001600160a01b0319831681179093556040519116919082907f8be0079c531659141344cd1fd0a4f28419497f9722a3daafe3b4186f6b6457e090600090a35050565b6001600160a01b0384166106cf576000604051632bfa23e760e11b815260040161037b91906111df565b6000806106dc8585610863565b915091506103916000878484876107fe565b6001600160a01b03821661071757600060405162ced3e160e81b815260040161037b91906111df565b6001600160a01b03838116600081815260016020908152604080832094871680845294825291829020805460ff191686151590811790915591519182527f17307eab39ab6107e8899845ad3d59bd9653f200f220920489ca2b5937696c31910160405180910390a3505050565b6001600160a01b0384166107ae576000604051632bfa23e760e11b815260040161037b91906111df565b6001600160a01b0385166107d7576000604051626a0d4560e21b815260040161037b91906111df565b6000806107e48585610863565b915091506107f587878484876107fe565b50505050505050565b61080a8585858561088b565b6001600160a01b0384161561063e57825133906001036108555760006108308582610645565b9050600061083e8582610645565b905061084e838989858589610abe565b5050610391565b610391818787878787610bd0565b6040805160018082526020820194909452808201938452606081019290925260808201905291565b80518251146108ba5781518151604051635b05999160e01b81526004810192909252602482015260440161037b565b3360005b83518110156109d35760006108d38583610645565b905060006108e18584610645565b90506001600160a01b0388161561097b576000828152602081815260408083206001600160a01b038c16845290915290205481811015610954576040516303dee4c560e01b81526001600160a01b038a16600482015260248101829052604481018390526064810184905260840161037b565b6000838152602081815260408083206001600160a01b038d16845290915290209082900390555b6001600160a01b038716156109c0576000828152602081815260408083206001600160a01b038b168452909152812080548392906109ba908490611484565b90915550505b5050806109cc90611361565b90506108be565b508251600103610a605760006109e98482610645565b905060006109f78482610645565b9050856001600160a01b0316876001600160a01b0316846001600160a01b03167fc3d58168c5ae7397731d063d5bbf3d657854427343f4c083240f7aacaa2d0f628585604051610a51929190918252602082015260400190565b60405180910390a4505061063e565b836001600160a01b0316856001600160a01b0316826001600160a01b03167f4a39dc06d4c0dbc64b70af90fd698a233a518aa5d07e595d983b8c0526c8f7fb8686604051610aaf929190611497565b60405180910390a45050505050565b6001600160a01b0384163b156103915760405163f23a6e6160e01b81526001600160a01b0385169063f23a6e6190610b0290899089908890889088906004016114c5565b6020604051808303816000875af1925050508015610b3d575060408051601f3d908101601f19168201909252610b3a9181019061150a565b60015b610b9d573d808015610b6b576040519150601f19603f3d011682016040523d82523d6000602084013e610b70565b606091505b508051600003610b955784604051632bfa23e760e11b815260040161037b91906111df565b805181602001fd5b6001600160e01b0319811663f23a6e6160e01b146107f55784604051632bfa23e760e11b815260040161037b91906111df565b6001600160a01b0384163b156103915760405163bc197c8160e01b81526001600160a01b0385169063bc197c8190610c149089908990889088908890600401611527565b6020604051808303816000875af1925050508015610c4f575060408051601f3d908101601f19168201909252610c4c9181019061150a565b60015b610c7d573d808015610b6b576040519150601f19603f3d011682016040523d82523d6000602084013e610b70565b6001600160e01b0319811663bc197c8160e01b146107f55784604051632bfa23e760e11b815260040161037b91906111df565b80356001600160a01b0381168114610cc757600080fd5b919050565b60008060408385031215610cdf57600080fd5b610ce883610cb0565b946020939093013593505050565b6001600160e01b03198116811461028757600080fd5b600060208284031215610d1e57600080fd5b8135610d2981610cf6565b9392505050565b634e487b7160e01b600052604160045260246000fd5b604051601f8201601f191681016001600160401b0381118282101715610d6e57610d6e610d30565b604052919050565b60006001600160401b03831115610d8f57610d8f610d30565b610da2601f8401601f1916602001610d46565b9050828152838383011115610db657600080fd5b828260208301376000602084830101529392505050565b600060208284031215610ddf57600080fd5b81356001600160401b03811115610df557600080fd5b8201601f81018413610e0657600080fd5b610e1584823560208401610d76565b949350505050565b600060208284031215610e2f57600080fd5b5035919050565b6000815180845260005b81811015610e5c57602081850181015186830182015201610e40565b506000602082860101526020601f19601f83011685010191505092915050565b602081526000610d296020830184610e36565b60006001600160401b03821115610ea857610ea8610d30565b5060051b60200190565b600082601f830112610ec357600080fd5b81356020610ed8610ed383610e8f565b610d46565b82815260059290921b84018101918181019086841115610ef757600080fd5b8286015b84811015610f125780358352918301918301610efb565b509695505050505050565b600082601f830112610f2e57600080fd5b610d2983833560208501610d76565b60008060008060808587031215610f5357600080fd5b610f5c85610cb0565b935060208501356001600160401b0380821115610f7857600080fd5b610f8488838901610eb2565b94506040870135915080821115610f9a57600080fd5b610fa688838901610eb2565b93506060870135915080821115610fbc57600080fd5b50610fc987828801610f1d565b91505092959194509250565b600080600080600060a08688031215610fed57600080fd5b610ff686610cb0565b945061100460208701610cb0565b935060408601356001600160401b038082111561102057600080fd5b61102c89838a01610eb2565b9450606088013591508082111561104257600080fd5b61104e89838a01610eb2565b9350608088013591508082111561106457600080fd5b5061107188828901610f1d565b9150509295509295909350565b6000806040838503121561109157600080fd5b82356001600160401b03808211156110a857600080fd5b818501915085601f8301126110bc57600080fd5b813560206110cc610ed383610e8f565b82815260059290921b840181019181810190898411156110eb57600080fd5b948201945b838610156111105761110186610cb0565b825294820194908201906110f0565b9650508601359250508082111561112657600080fd5b5061113385828601610eb2565b9150509250929050565b600081518084526020808501945080840160005b8381101561116d57815187529582019590820190600101611151565b509495945050505050565b602081526000610d29602083018461113d565b600080600080608085870312156111a157600080fd5b6111aa85610cb0565b9350602085013592506040850135915060608501356001600160401b038111156111d357600080fd5b610fc987828801610f1d565b6001600160a01b0391909116815260200190565b6000806040838503121561120657600080fd5b61120f83610cb0565b91506020830135801515811461122457600080fd5b809150509250929050565b6000806040838503121561124257600080fd5b61124b83610cb0565b915061125960208401610cb0565b90509250929050565b600080600080600060a0868803121561127a57600080fd5b61128386610cb0565b945061129160208701610cb0565b9350604086013592506060860135915060808601356001600160401b038111156112ba57600080fd5b61107188828901610f1d565b6000602082840312156112d857600080fd5b610d2982610cb0565b600181811c908216806112f557607f821691505b60208210810361131557634e487b7160e01b600052602260045260246000fd5b50919050565b6001600160a01b0392831681529116602082015260400190565b634e487b7160e01b600052603260045260246000fd5b634e487b7160e01b600052601160045260246000fd5b6000600182016113735761137361134b565b5060010190565b601f8211156113c057600081815260208120601f850160051c810160208610156113a15750805b601f850160051c820191505b81811015610391578281556001016113ad565b505050565b81516001600160401b038111156113de576113de610d30565b6113f2816113ec84546112e1565b8461137a565b602080601f831160018114611427576000841561140f5750858301515b600019600386901b1c1916600185901b178555610391565b600085815260208120601f198616915b8281101561145657888601518255948401946001909101908401611437565b50858210156114745787850151600019600388901b60f8161c191681555b5050505050600190811b01905550565b808201808211156102205761022061134b565b6040815260006114aa604083018561113d565b82810360208401526114bc818561113d565b95945050505050565b6001600160a01b03868116825285166020820152604081018490526060810183905260a0608082018190526000906114ff90830184610e36565b979650505050505050565b60006020828403121561151c57600080fd5b8151610d2981610cf6565b6001600160a01b0386811682528516602082015260a0604082018190526000906115539083018661113d565b8281036060840152611565818661113d565b905082810360808401526115798185610e36565b9897505050505050505056fea26469706673582212201c03245f2b01e31099923909b1eab0587e066460fb970dc3395870f6eb03094e64736f6c63430008140033",
  "linkReferences": {},
  "deployedLinkReferences": {}
}