{
  "_format": "hh-sol-artifact-1",
  "contractName": "ClockAuction",
  "sourceName": "contracts/mocks/VechainNodes/auction/ClockAuction.sol",
  "abi": [
    {
      "inputs": [
        {
          "internalType": "address",
          "name": "_nftAddress",
          "type": "address"
        },
        {
          "internalType": "address",
          "name": "_feePool",
          "type": "address"
        }
      ],
      "stateMutability": "nonpayable",
      "type": "constructor"
    },
    {
      "anonymous": false,
      "inputs": [
        {
          "indexed": false,
          "internalType": "uint8",
          "name": "_newPercent",
          "type": "uint8"
        }
      ],
      "name": "FeePercentUpdated",
      "type": "event"
    },
    {
      "anonymous": false,
      "inputs": [
        {
          "indexed": false,
          "internalType": "address",
          "name": "_newFeePoolAddr",
          "type": "address"
        }
      ],
      "name": "FeePoolAddressUpdated",
      "type": "event"
    },
    {
      "anonymous": false,
      "inputs": [
        {
          "indexed": true,
          "internalType": "address",
          "name": "previousOwner",
          "type": "address"
        },
        {
          "indexed": true,
          "internalType": "address",
          "name": "newOwner",
          "type": "address"
        }
      ],
      "name": "OwnershipTransferred",
      "type": "event"
    },
    {
      "anonymous": false,
      "inputs": [],
      "name": "Pause",
      "type": "event"
    },
    {
      "anonymous": false,
      "inputs": [],
      "name": "Unpause",
      "type": "event"
    },
    {
      "inputs": [],
      "name": "VIP181",
      "outputs": [
        {
          "internalType": "contract IVIP181",
          "name": "",
          "type": "address"
        }
      ],
      "stateMutability": "view",
      "type": "function"
    },
    {
      "inputs": [
        {
          "internalType": "uint256",
          "name": "_tokenId",
          "type": "uint256"
        },
        {
          "internalType": "address",
          "name": "_address",
          "type": "address"
        }
      ],
      "name": "addAuctionWhiteList",
      "outputs": [],
      "stateMutability": "nonpayable",
      "type": "function"
    },
    {
      "inputs": [
        {
          "internalType": "address",
          "name": "_buyer",
          "type": "address"
        },
        {
          "internalType": "uint256",
          "name": "_tokenId",
          "type": "uint256"
        }
      ],
      "name": "bid",
      "outputs": [
        {
          "internalType": "uint256",
          "name": "",
          "type": "uint256"
        }
      ],
      "stateMutability": "payable",
      "type": "function"
    },
    {
      "inputs": [
        {
          "internalType": "uint256",
          "name": "_tokenId",
          "type": "uint256"
        }
      ],
      "name": "cancelAuction",
      "outputs": [],
      "stateMutability": "nonpayable",
      "type": "function"
    },
    {
      "inputs": [
        {
          "internalType": "uint256",
          "name": "_auctionId",
          "type": "uint256"
        },
        {
          "internalType": "uint256",
          "name": "_tokenId",
          "type": "uint256"
        },
        {
          "internalType": "uint128",
          "name": "_startingPrice",
          "type": "uint128"
        },
        {
          "internalType": "uint128",
          "name": "_endingPrice",
          "type": "uint128"
        },
        {
          "internalType": "uint64",
          "name": "_duration",
          "type": "uint64"
        },
        {
          "internalType": "uint64",
          "name": "_startedAt",
          "type": "uint64"
        },
        {
          "internalType": "address",
          "name": "_seller",
          "type": "address"
        }
      ],
      "name": "createAuction",
      "outputs": [],
      "stateMutability": "nonpayable",
      "type": "function"
    },
    {
      "inputs": [
        {
          "internalType": "uint256",
          "name": "_tokenId",
          "type": "uint256"
        }
      ],
      "name": "exist",
      "outputs": [
        {
          "internalType": "bool",
          "name": "",
          "type": "bool"
        }
      ],
      "stateMutability": "view",
      "type": "function"
    },
    {
      "inputs": [],
      "name": "feePercnt",
      "outputs": [
        {
          "internalType": "uint8",
          "name": "",
          "type": "uint8"
        }
      ],
      "stateMutability": "view",
      "type": "function"
    },
    {
      "inputs": [],
      "name": "feePool",
      "outputs": [
        {
          "internalType": "address payable",
          "name": "",
          "type": "address"
        }
      ],
      "stateMutability": "view",
      "type": "function"
    },
    {
      "inputs": [
        {
          "internalType": "uint256",
          "name": "_tokenId",
          "type": "uint256"
        }
      ],
      "name": "getAuction",
      "outputs": [
        {
          "internalType": "uint256",
          "name": "autionId",
          "type": "uint256"
        },
        {
          "internalType": "address",
          "name": "seller",
          "type": "address"
        },
        {
          "internalType": "uint256",
          "name": "startingPrice",
          "type": "uint256"
        },
        {
          "internalType": "uint256",
          "name": "endingPrice",
          "type": "uint256"
        },
        {
          "internalType": "uint64",
          "name": "duration",
          "type": "uint64"
        },
        {
          "internalType": "uint64",
          "name": "startedAt",
          "type": "uint64"
        }
      ],
      "stateMutability": "view",
      "type": "function"
    },
    {
      "inputs": [
        {
          "internalType": "uint256",
          "name": "_tokenId",
          "type": "uint256"
        }
      ],
      "name": "getCurrentPrice",
      "outputs": [
        {
          "internalType": "uint256",
          "name": "",
          "type": "uint256"
        }
      ],
      "stateMutability": "view",
      "type": "function"
    },
    {
      "inputs": [
        {
          "internalType": "uint256",
          "name": "_tokenId",
          "type": "uint256"
        }
      ],
      "name": "hasWhiteList",
      "outputs": [
        {
          "internalType": "bool",
          "name": "",
          "type": "bool"
        }
      ],
      "stateMutability": "view",
      "type": "function"
    },
    {
      "inputs": [
        {
          "internalType": "uint256",
          "name": "_tokenId",
          "type": "uint256"
        },
        {
          "internalType": "address",
          "name": "_address",
          "type": "address"
        }
      ],
      "name": "inWhiteList",
      "outputs": [
        {
          "internalType": "bool",
          "name": "",
          "type": "bool"
        }
      ],
      "stateMutability": "view",
      "type": "function"
    },
    {
      "inputs": [
        {
          "internalType": "uint256",
          "name": "_tokenId",
          "type": "uint256"
        }
      ],
      "name": "isOnAuction",
      "outputs": [
        {
          "internalType": "bool",
          "name": "",
          "type": "bool"
        }
      ],
      "stateMutability": "view",
      "type": "function"
    },
    {
      "inputs": [],
      "name": "owner",
      "outputs": [
        {
          "internalType": "address",
          "name": "",
          "type": "address"
        }
      ],
      "stateMutability": "view",
      "type": "function"
    },
    {
      "inputs": [],
      "name": "pause",
      "outputs": [
        {
          "internalType": "bool",
          "name": "",
          "type": "bool"
        }
      ],
      "stateMutability": "nonpayable",
      "type": "function"
    },
    {
      "inputs": [],
      "name": "paused",
      "outputs": [
        {
          "internalType": "bool",
          "name": "",
          "type": "bool"
        }
      ],
      "stateMutability": "view",
      "type": "function"
    },
    {
      "inputs": [
        {
          "internalType": "uint256",
          "name": "_tokenId",
          "type": "uint256"
        },
        {
          "internalType": "address",
          "name": "_address",
          "type": "address"
        }
      ],
      "name": "removeAuctionWhiteList",
      "outputs": [],
      "stateMutability": "nonpayable",
      "type": "function"
    },
    {
      "inputs": [
        {
          "internalType": "uint8",
          "name": "_newPercent",
          "type": "uint8"
        }
      ],
      "name": "setFeePercent",
      "outputs": [],
      "stateMutability": "nonpayable",
      "type": "function"
    },
    {
      "inputs": [
        {
          "internalType": "address payable",
          "name": "_newFeePoolAddr",
          "type": "address"
        }
      ],
      "name": "setFeePoolAddress",
      "outputs": [],
      "stateMutability": "nonpayable",
      "type": "function"
    },
    {
      "inputs": [
        {
          "internalType": "address",
          "name": "newOwner",
          "type": "address"
        }
      ],
      "name": "transferOwnership",
      "outputs": [],
      "stateMutability": "nonpayable",
      "type": "function"
    },
    {
      "inputs": [],
      "name": "unpause",
      "outputs": [
        {
          "internalType": "bool",
          "name": "",
          "type": "bool"
        }
      ],
      "stateMutability": "nonpayable",
      "type": "function"
    }
  ],
  "bytecode": "0x60806040526000805460ff60a01b199081169091556002805490911690553480156200002a57600080fd5b506040516200188e3803806200188e8339810160408190526200004d9162000109565b600080546001600160a01b031916331790556001600160a01b038216620000915760405162461bcd60e51b8152600401620000889062000141565b60405180910390fd5b6001600160a01b038116620000ba5760405162461bcd60e51b8152600401620000889062000141565b600180546001600160a01b039384166001600160a01b031991821617909155600280549290931691161790556200016a565b80516001600160a01b03811681146200010457600080fd5b919050565b600080604083850312156200011d57600080fd5b6200012883620000ec565b91506200013860208401620000ec565b90509250929050565b6020808252600f908201526e696e76616c6964206164647265737360881b604082015260600190565b611714806200017a6000396000f3fe6080604052600436106100fa5760003560e01c806301921197146100ff57806337e246ad146101215780633f4ba83a146101565780634ebbc92a1461016b57806359d667a51461019a5780635c975abb146101bb57806378bd7935146101dc57806379b2f3e21461029557806383cc0ef7146102c85780638456cb59146102e85780638da5cb5b146102fd57806396b5a7551461032a578063ae2e933b1461034a578063c55d0f561461036a578063cd5967db1461038a578063d94969ad146103aa578063e4f9dd2d146103ca578063e5bd23e0146103ea578063eaae34ac1461040a578063f2fde38b1461042a578063f48381761461044a575b600080fd5b34801561010b57600080fd5b5061011f61011a366004611373565b61046a565b005b34801561012d57600080fd5b5061014161013c3660046113a3565b6105bc565b60405190151581526020015b60405180910390f35b34801561016257600080fd5b5061014161063f565b34801561017757600080fd5b506101416101863660046113a3565b600090815260036020526040902054151590565b6101ad6101a83660046113bc565b6106f5565b60405190815260200161014d565b3480156101c757600080fd5b5060005461014190600160a01b900460ff1681565b3480156101e857600080fd5b506102546101f73660046113a3565b6000908152600360208190526040909120805460018201546002830154929093015490936001600160a01b03909316926001600160801b0380841693600160801b900416916001600160401b0380821692600160401b9092041690565b604080519687526001600160a01b0390951660208701529385019290925260608401526001600160401b0390811660808401521660a082015260c00161014d565b3480156102a157600080fd5b506002546102b690600160a01b900460ff1681565b60405160ff909116815260200161014d565b3480156102d457600080fd5b506101416102e33660046113a3565b610865565b3480156102f457600080fd5b50610141610892565b34801561030957600080fd5b5060005461031d906001600160a01b031681565b60405161014d91906113e8565b34801561033657600080fd5b5061011f6103453660046113a3565b610927565b34801561035657600080fd5b5060025461031d906001600160a01b031681565b34801561037657600080fd5b506101ad6103853660046113a3565b6109b2565b34801561039657600080fd5b5061011f6103a5366004611373565b6109e0565b3480156103b657600080fd5b5061011f6103c53660046113fc565b610b50565b3480156103d657600080fd5b5061011f6103e536600461144c565b610bf6565b3480156103f657600080fd5b50610141610405366004611373565b610e1b565b34801561041657600080fd5b5060015461031d906001600160a01b031681565b34801561043657600080fd5b5061011f6104453660046113fc565b610e50565b34801561045657600080fd5b5061011f6104653660046114c8565b610efb565b600054600160a01b900460ff161561049d5760405162461bcd60e51b8152600401610494906114eb565b60405180910390fd5b6001546001600160a01b031633146104c75760405162461bcd60e51b815260040161049490611518565b6104d0826105bc565b6104ec5760405162461bcd60e51b815260040161049490611543565b6104f68282610e1b565b6105345760405162461bcd60e51b815260206004820152600f60248201526e1b9bdd081a5b881d1a19481b1a5cdd608a1b6044820152606401610494565b60008281526003602090815260408083205480845260049092528220600101805491926001600160401b039092169161056c83611584565b82546001600160401b039182166101009390930a92830291909202199091161790555060009081526004602090815260408083206001600160a01b03909416835292905220805460ff1916905550565b6000818152600360208190526040822090810154600160401b90046001600160401b0316158015906106035750600381015442600160401b9091046001600160401b031611155b80156106385750600381015461062c906001600160401b0380821691600160401b9004166115a7565b6001600160401b031642105b9392505050565b600080546001600160a01b0316331461066a5760405162461bcd60e51b8152600401610494906115ce565b600054600160a01b900460ff166106bb5760405162461bcd60e51b81526020600482015260156024820152741b9959591cc81c1c9bdd1bd8dbdb081c185d5cd959605a1b6044820152606401610494565b6000805460ff60a01b191681556040517f7805862f689e2f13df9f062ff482ad3ad112aca9e0847911ed832e158c525b339190a150600190565b60008054600160a01b900460ff16156107205760405162461bcd60e51b8152600401610494906114eb565b6001546001600160a01b0316331461074a5760405162461bcd60e51b815260040161049490611518565b610753826105bc565b61076f5760405162461bcd60e51b815260040161049490611543565b61077882610865565b156107bd576107878284610e1b565b6107bd5760405162461bcd60e51b8152602060048201526007602482015266189b1bd8dad95960ca1b6044820152606401610494565b6000828152600360205260408120600181015490916001600160a01b03909116906107e9868634610fbb565b6001546040516323b872dd60e01b81526001600160a01b0385811660048301528981166024830152604482018990529293509116906323b872dd90606401600060405180830381600087803b15801561084157600080fd5b505af1158015610855573d6000803e3d6000fd5b5092955050505050505b92915050565b600090815260036020908152604080832054835260049091529020600101546001600160401b0316151590565b600080546001600160a01b031633146108bd5760405162461bcd60e51b8152600401610494906115ce565b600054600160a01b900460ff16156108e75760405162461bcd60e51b8152600401610494906114eb565b6000805460ff60a01b1916600160a01b1781556040517f6985a02210a168e66602d3235cb6db0e70f92b3ba4d376a33c0f3d9434bff6259190a150600190565b600054600160a01b900460ff16156109515760405162461bcd60e51b8152600401610494906114eb565b6001546001600160a01b0316331461097b5760405162461bcd60e51b815260040161049490611518565b6000818152600360205260409020546109a65760405162461bcd60e51b815260040161049490611543565b6109af81611132565b50565b60006109bd826105bc565b6109c957506000919050565b600082815260036020526040902061063881611195565b600054600160a01b900460ff1615610a0a5760405162461bcd60e51b8152600401610494906114eb565b6001546001600160a01b03163314610a345760405162461bcd60e51b815260040161049490611518565b610a3d826105bc565b610a595760405162461bcd60e51b815260040161049490611543565b610a638282610e1b565b15610a9e5760405162461bcd60e51b815260206004820152600b60248201526a1a5b881d1a19481b1a5cdd60aa1b6044820152606401610494565b60008281526003602090815260408083205480845260049092528220600101805491926001600160401b0390921691829190610ad9836115f2565b82546101009290920a6001600160401b038181021990931691831602179091556000848152600460205260409020600101548116908316109050610b1f57610b1f611620565b5060009081526004602090815260408083206001600160a01b03909416835292905220805460ff1916600117905550565b6000546001600160a01b03163314610b7a5760405162461bcd60e51b8152600401610494906115ce565b6001600160a01b038116610ba05760405162461bcd60e51b815260040161049490611636565b600280546001600160a01b0319166001600160a01b0383161790556040517f312fa19ef5a9485ab359ba34a61604a129b5985dd0e6244029a1f37b434ac03590610beb9083906113e8565b60405180910390a150565b600054600160a01b900460ff1615610c205760405162461bcd60e51b8152600401610494906114eb565b6001546001600160a01b03163314610c4a5760405162461bcd60e51b815260040161049490611518565b610c53866105bc565b15610c965760405162461bcd60e51b81526020600482015260136024820152723a37b5b2b71034b99037b71030bab1ba34b7b760691b6044820152606401610494565b611c20836001600160401b03161015610ce45760405162461bcd60e51b815260206004820152601060248201526f6174206c65617374203220686f75727360801b6044820152606401610494565b62093a80836001600160401b03161115610d315760405162461bcd60e51b815260206004820152600e60248201526d6174206d6f73742037206461797360901b6044820152606401610494565b610d3a86611132565b610e12878787878787876040805160c0810182529788526001600160a01b039182166020808a019182526001600160801b039788168a840190815296881660608b019081526001600160401b0396871660808c0190815295871660a08c0190815260009a8b526003928390529390992099518a55905160018a018054919094166001600160a01b031990911617909255935195518516600160801b0295909416949094176002860155925193909101805491518316600160401b026001600160801b0319929092169390921692909217919091179055565b50505050505050565b6000918252600360209081526040808420548452600482528084206001600160a01b0393909316845291905290205460ff1690565b6000546001600160a01b03163314610e7a5760405162461bcd60e51b8152600401610494906115ce565b6001600160a01b038116610ea05760405162461bcd60e51b815260040161049490611636565b600080546040516001600160a01b03808516939216917f8be0079c531659141344cd1fd0a4f28419497f9722a3daafe3b4186f6b6457e091a3600080546001600160a01b0319166001600160a01b0392909216919091179055565b6000546001600160a01b03163314610f255760405162461bcd60e51b8152600401610494906115ce565b60648160ff1610610f6d5760405162461bcd60e51b815260206004820152601260248201527106d757374206c657373207468616e203130360741b6044820152606401610494565b6002805460ff60a01b1916600160a01b60ff8416908102919091179091556040519081527fca5f0f3d67e5c9c5f03ff4d3f035bf42e7319f25f21258e214df338832a8941a90602001610beb565b600082815260036020526040812081610fd382611195565b9050808410156110175760405162461bcd60e51b815260206004820152600f60248201526e1c1d5c98da185cd94819985a5b1959608a1b6044820152606401610494565b60018201546001600160a01b031661102e86611132565b81156110e057600254600090606490611052908590600160a01b900460ff166112a0565b61105c919061165f565b9050600061106a848361130c565b6002546040519192506001600160a01b03169083156108fc029084906000818181858888f193505050501580156110a5573d6000803e3d6000fd5b506040516001600160a01b0384169082156108fc029083906000818181858888f193505050501580156110dc573d6000803e3d6000fd5b5050505b60006110ec868461130c565b6040519091506001600160a01b0389169082156108fc029083906000818181858888f19350505050158015611125573d6000803e3d6000fd5b5091979650505050505050565b60008181526003602081815260408084208054855260048352908420600190810180546001600160401b03191690559484529082905282815592830180546001600160a01b031916905560028301919091550180546001600160801b0319169055565b600381015460009081906111b990600160401b90046001600160401b031642611681565b60038401549091506001600160401b03908116908216106111ed57505060020154600160801b90046001600160801b031690565b600061012c61120660016001600160401b0385166116a1565b611210919061165f565b600385015490915060009061012c90611234906001906001600160401b03166116a1565b61123e919061165f565b60028601549091506000908290611268906001600160801b0380821691600160801b9004166116a1565b611272919061165f565b905061127e81846116b4565b600287015461129691906001600160801b03166116cb565b9695505050505050565b6000826000036112b25750600061085f565b6112bc82846116b4565b9050816112c9848361165f565b1461085f5760405162461bcd60e51b815260206004820152601360248201527214d8599953585d1a081b5d5b0819985a5b1959606a1b6044820152606401610494565b6000828211156113545760405162461bcd60e51b815260206004820152601360248201527214d8599953585d1a081cdd588819985a5b1959606a1b6044820152606401610494565b61063882846116a1565b6001600160a01b03811681146109af57600080fd5b6000806040838503121561138657600080fd5b8235915060208301356113988161135e565b809150509250929050565b6000602082840312156113b557600080fd5b5035919050565b600080604083850312156113cf57600080fd5b82356113da8161135e565b946020939093013593505050565b6001600160a01b0391909116815260200190565b60006020828403121561140e57600080fd5b81356106388161135e565b80356001600160801b038116811461143057600080fd5b919050565b80356001600160401b038116811461143057600080fd5b600080600080600080600060e0888a03121561146757600080fd5b873596506020880135955061147e60408901611419565b945061148c60608901611419565b935061149a60808901611435565b92506114a860a08901611435565b915060c08801356114b88161135e565b8091505092959891949750929550565b6000602082840312156114da57600080fd5b813560ff8116811461063857600080fd5b6020808252601390820152721c1c9bdd1bd8dbdb081a185cc81c185d5cd959606a1b604082015260600190565b6020808252601190820152701c195c9b5a5cdcda5bdb8819195b9a5959607a1b604082015260600190565b602080825260119082015270185d58dd1a5bdb881b9bdd08199bdd5b99607a1b604082015260600190565b634e487b7160e01b600052601160045260246000fd5b60006001600160401b0382168061159d5761159d61156e565b6000190192915050565b6001600160401b038181168382160190808211156115c7576115c761156e565b5092915050565b6020808252600a908201526937b7363c9037bbb732b960b11b604082015260600190565b60006001600160401b038281166002600160401b031981016116165761161661156e565b6001019392505050565b634e487b7160e01b600052600160045260246000fd5b6020808252600f908201526e696e76616c6964206164647265737360881b604082015260600190565b60008261167c57634e487b7160e01b600052601260045260246000fd5b500490565b6001600160401b038281168282160390808211156115c7576115c761156e565b8181038181111561085f5761085f61156e565b808202811582820484141761085f5761085f61156e565b8082018082111561085f5761085f61156e56fea2646970667358221220bd1c2d73a16eb3c2aee289b2c7e06b4d79b6ee6e62dca686d37c1b7aa94325a264736f6c63430008140033",
  "linkReferences": {},
  "deployedLinkReferences": {}
}