{
  "_format": "hh-sol-artifact-1",
  "contractName": "Treasury",
  "sourceName": "contracts/Treasury.sol",
  "abi": [
    {
      "inputs": [],
      "stateMutability": "nonpayable",
      "type": "constructor"
    },
    {
      "inputs": [],
      "name": "AccessControlBadConfirmation",
      "type": "error"
    },
    {
      "inputs": [
        {
          "internalType": "address",
          "name": "account",
          "type": "address"
        },
        {
          "internalType": "bytes32",
          "name": "neededRole",
          "type": "bytes32"
        }
      ],
      "name": "AccessControlUnauthorizedAccount",
      "type": "error"
    },
    {
      "inputs": [
        {
          "internalType": "address",
          "name": "target",
          "type": "address"
        }
      ],
      "name": "AddressEmptyCode",
      "type": "error"
    },
    {
      "inputs": [
        {
          "internalType": "address",
          "name": "implementation",
          "type": "address"
        }
      ],
      "name": "ERC1967InvalidImplementation",
      "type": "error"
    },
    {
      "inputs": [],
      "name": "ERC1967NonPayable",
      "type": "error"
    },
    {
      "inputs": [],
      "name": "EnforcedPause",
      "type": "error"
    },
    {
      "inputs": [],
      "name": "ExpectedPause",
      "type": "error"
    },
    {
      "inputs": [],
      "name": "FailedInnerCall",
      "type": "error"
    },
    {
      "inputs": [],
      "name": "InvalidInitialization",
      "type": "error"
    },
    {
      "inputs": [],
      "name": "NotInitializing",
      "type": "error"
    },
    {
      "inputs": [],
      "name": "ReentrancyGuardReentrantCall",
      "type": "error"
    },
    {
      "inputs": [],
      "name": "UUPSUnauthorizedCallContext",
      "type": "error"
    },
    {
      "inputs": [
        {
          "internalType": "bytes32",
          "name": "slot",
          "type": "bytes32"
        }
      ],
      "name": "UUPSUnsupportedProxiableUUID",
      "type": "error"
    },
    {
      "anonymous": false,
      "inputs": [
        {
          "indexed": false,
          "internalType": "uint64",
          "name": "version",
          "type": "uint64"
        }
      ],
      "name": "Initialized",
      "type": "event"
    },
    {
      "anonymous": false,
      "inputs": [
        {
          "indexed": false,
          "internalType": "address",
          "name": "account",
          "type": "address"
        }
      ],
      "name": "Paused",
      "type": "event"
    },
    {
      "anonymous": false,
      "inputs": [
        {
          "indexed": true,
          "internalType": "bytes32",
          "name": "role",
          "type": "bytes32"
        },
        {
          "indexed": true,
          "internalType": "bytes32",
          "name": "previousAdminRole",
          "type": "bytes32"
        },
        {
          "indexed": true,
          "internalType": "bytes32",
          "name": "newAdminRole",
          "type": "bytes32"
        }
      ],
      "name": "RoleAdminChanged",
      "type": "event"
    },
    {
      "anonymous": false,
      "inputs": [
        {
          "indexed": true,
          "internalType": "bytes32",
          "name": "role",
          "type": "bytes32"
        },
        {
          "indexed": true,
          "internalType": "address",
          "name": "account",
          "type": "address"
        },
        {
          "indexed": true,
          "internalType": "address",
          "name": "sender",
          "type": "address"
        }
      ],
      "name": "RoleGranted",
      "type": "event"
    },
    {
      "anonymous": false,
      "inputs": [
        {
          "indexed": true,
          "internalType": "bytes32",
          "name": "role",
          "type": "bytes32"
        },
        {
          "indexed": true,
          "internalType": "address",
          "name": "account",
          "type": "address"
        },
        {
          "indexed": true,
          "internalType": "address",
          "name": "sender",
          "type": "address"
        }
      ],
      "name": "RoleRevoked",
      "type": "event"
    },
    {
      "anonymous": false,
      "inputs": [
        {
          "indexed": true,
          "internalType": "address",
          "name": "token",
          "type": "address"
        },
        {
          "indexed": false,
          "internalType": "uint256",
          "name": "limit",
          "type": "uint256"
        }
      ],
      "name": "TransferLimitUpdated",
      "type": "event"
    },
    {
      "anonymous": false,
      "inputs": [
        {
          "indexed": false,
          "internalType": "uint256",
          "name": "limit",
          "type": "uint256"
        }
      ],
      "name": "TransferLimitVETUpdated",
      "type": "event"
    },
    {
      "anonymous": false,
      "inputs": [
        {
          "indexed": false,
          "internalType": "address",
          "name": "account",
          "type": "address"
        }
      ],
      "name": "Unpaused",
      "type": "event"
    },
    {
      "anonymous": false,
      "inputs": [
        {
          "indexed": true,
          "internalType": "address",
          "name": "implementation",
          "type": "address"
        }
      ],
      "name": "Upgraded",
      "type": "event"
    },
    {
      "stateMutability": "payable",
      "type": "fallback"
    },
    {
      "inputs": [],
      "name": "DEFAULT_ADMIN_ROLE",
      "outputs": [
        {
          "internalType": "bytes32",
          "name": "",
          "type": "bytes32"
        }
      ],
      "stateMutability": "view",
      "type": "function"
    },
    {
      "inputs": [],
      "name": "GOVERNANCE_ROLE",
      "outputs": [
        {
          "internalType": "bytes32",
          "name": "",
          "type": "bytes32"
        }
      ],
      "stateMutability": "view",
      "type": "function"
    },
    {
      "inputs": [],
      "name": "PAUSER_ROLE",
      "outputs": [
        {
          "internalType": "bytes32",
          "name": "",
          "type": "bytes32"
        }
      ],
      "stateMutability": "view",
      "type": "function"
    },
    {
      "inputs": [],
      "name": "UPGRADER_ROLE",
      "outputs": [
        {
          "internalType": "bytes32",
          "name": "",
          "type": "bytes32"
        }
      ],
      "stateMutability": "view",
      "type": "function"
    },
    {
      "inputs": [],
      "name": "UPGRADE_INTERFACE_VERSION",
      "outputs": [
        {
          "internalType": "string",
          "name": "",
          "type": "string"
        }
      ],
      "stateMutability": "view",
      "type": "function"
    },
    {
      "inputs": [],
      "name": "VTHO",
      "outputs": [
        {
          "internalType": "address",
          "name": "",
          "type": "address"
        }
      ],
      "stateMutability": "view",
      "type": "function"
    },
    {
      "inputs": [],
      "name": "b3trAddress",
      "outputs": [
        {
          "internalType": "address",
          "name": "",
          "type": "address"
        }
      ],
      "stateMutability": "view",
      "type": "function"
    },
    {
      "inputs": [
        {
          "internalType": "uint256",
          "name": "_b3trAmount",
          "type": "uint256"
        }
      ],
      "name": "convertB3TR",
      "outputs": [],
      "stateMutability": "nonpayable",
      "type": "function"
    },
    {
      "inputs": [
        {
          "internalType": "uint256",
          "name": "_vot3Amount",
          "type": "uint256"
        }
      ],
      "name": "convertVOT3",
      "outputs": [],
      "stateMutability": "nonpayable",
      "type": "function"
    },
    {
      "inputs": [],
      "name": "getB3TRBalance",
      "outputs": [
        {
          "internalType": "uint256",
          "name": "",
          "type": "uint256"
        }
      ],
      "stateMutability": "view",
      "type": "function"
    },
    {
      "inputs": [
        {
          "internalType": "address",
          "name": "_nft",
          "type": "address"
        }
      ],
      "name": "getCollectionNFTBalance",
      "outputs": [
        {
          "internalType": "uint256",
          "name": "",
          "type": "uint256"
        }
      ],
      "stateMutability": "view",
      "type": "function"
    },
    {
      "inputs": [
        {
          "internalType": "address",
          "name": "_token",
          "type": "address"
        },
        {
          "internalType": "uint256",
          "name": "_id",
          "type": "uint256"
        }
      ],
      "name": "getERC1155TokenBalance",
      "outputs": [
        {
          "internalType": "uint256",
          "name": "",
          "type": "uint256"
        }
      ],
      "stateMutability": "view",
      "type": "function"
    },
    {
      "inputs": [
        {
          "internalType": "bytes32",
          "name": "role",
          "type": "bytes32"
        }
      ],
      "name": "getRoleAdmin",
      "outputs": [
        {
          "internalType": "bytes32",
          "name": "",
          "type": "bytes32"
        }
      ],
      "stateMutability": "view",
      "type": "function"
    },
    {
      "inputs": [
        {
          "internalType": "address",
          "name": "_token",
          "type": "address"
        }
      ],
      "name": "getTokenBalance",
      "outputs": [
        {
          "internalType": "uint256",
          "name": "",
          "type": "uint256"
        }
      ],
      "stateMutability": "view",
      "type": "function"
    },
    {
      "inputs": [
        {
          "internalType": "address",
          "name": "_token",
          "type": "address"
        }
      ],
      "name": "getTransferLimitToken",
      "outputs": [
        {
          "internalType": "uint256",
          "name": "",
          "type": "uint256"
        }
      ],
      "stateMutability": "view",
      "type": "function"
    },
    {
      "inputs": [],
      "name": "getTransferLimitVET",
      "outputs": [
        {
          "internalType": "uint256",
          "name": "",
          "type": "uint256"
        }
      ],
      "stateMutability": "view",
      "type": "function"
    },
    {
      "inputs": [],
      "name": "getVETBalance",
      "outputs": [
        {
          "internalType": "uint256",
          "name": "",
          "type": "uint256"
        }
      ],
      "stateMutability": "view",
      "type": "function"
    },
    {
      "inputs": [],
      "name": "getVOT3Balance",
      "outputs": [
        {
          "internalType": "uint256",
          "name": "",
          "type": "uint256"
        }
      ],
      "stateMutability": "view",
      "type": "function"
    },
    {
      "inputs": [],
      "name": "getVTHOBalance",
      "outputs": [
        {
          "internalType": "uint256",
          "name": "",
          "type": "uint256"
        }
      ],
      "stateMutability": "view",
      "type": "function"
    },
    {
      "inputs": [
        {
          "internalType": "bytes32",
          "name": "role",
          "type": "bytes32"
        },
        {
          "internalType": "address",
          "name": "account",
          "type": "address"
        }
      ],
      "name": "grantRole",
      "outputs": [],
      "stateMutability": "nonpayable",
      "type": "function"
    },
    {
      "inputs": [
        {
          "internalType": "bytes32",
          "name": "role",
          "type": "bytes32"
        },
        {
          "internalType": "address",
          "name": "account",
          "type": "address"
        }
      ],
      "name": "hasRole",
      "outputs": [
        {
          "internalType": "bool",
          "name": "",
          "type": "bool"
        }
      ],
      "stateMutability": "view",
      "type": "function"
    },
    {
      "inputs": [
        {
          "internalType": "address",
          "name": "_b3tr",
          "type": "address"
        },
        {
          "internalType": "address",
          "name": "_vot3",
          "type": "address"
        },
        {
          "internalType": "address",
          "name": "_timeLock",
          "type": "address"
        },
        {
          "internalType": "address",
          "name": "_admin",
          "type": "address"
        },
        {
          "internalType": "address",
          "name": "_proxyAdmin",
          "type": "address"
        },
        {
          "internalType": "address",
          "name": "_pauser",
          "type": "address"
        },
        {
          "internalType": "uint256",
          "name": "_transferLimitVET",
          "type": "uint256"
        },
        {
          "internalType": "uint256",
          "name": "_transferLimitB3TR",
          "type": "uint256"
        },
        {
          "internalType": "uint256",
          "name": "_transferLimitVOT3",
          "type": "uint256"
        },
        {
          "internalType": "uint256",
          "name": "_transferLimitVTHO",
          "type": "uint256"
        }
      ],
      "name": "initialize",
      "outputs": [],
      "stateMutability": "nonpayable",
      "type": "function"
    },
    {
      "inputs": [
        {
          "internalType": "address",
          "name": "",
          "type": "address"
        },
        {
          "internalType": "address",
          "name": "",
          "type": "address"
        },
        {
          "internalType": "uint256[]",
          "name": "",
          "type": "uint256[]"
        },
        {
          "internalType": "uint256[]",
          "name": "",
          "type": "uint256[]"
        },
        {
          "internalType": "bytes",
          "name": "",
          "type": "bytes"
        }
      ],
      "name": "onERC1155BatchReceived",
      "outputs": [
        {
          "internalType": "bytes4",
          "name": "",
          "type": "bytes4"
        }
      ],
      "stateMutability": "nonpayable",
      "type": "function"
    },
    {
      "inputs": [
        {
          "internalType": "address",
          "name": "",
          "type": "address"
        },
        {
          "internalType": "address",
          "name": "",
          "type": "address"
        },
        {
          "internalType": "uint256",
          "name": "",
          "type": "uint256"
        },
        {
          "internalType": "uint256",
          "name": "",
          "type": "uint256"
        },
        {
          "internalType": "bytes",
          "name": "",
          "type": "bytes"
        }
      ],
      "name": "onERC1155Received",
      "outputs": [
        {
          "internalType": "bytes4",
          "name": "",
          "type": "bytes4"
        }
      ],
      "stateMutability": "nonpayable",
      "type": "function"
    },
    {
      "inputs": [
        {
          "internalType": "address",
          "name": "",
          "type": "address"
        },
        {
          "internalType": "address",
          "name": "",
          "type": "address"
        },
        {
          "internalType": "uint256",
          "name": "",
          "type": "uint256"
        },
        {
          "internalType": "bytes",
          "name": "",
          "type": "bytes"
        }
      ],
      "name": "onERC721Received",
      "outputs": [
        {
          "internalType": "bytes4",
          "name": "",
          "type": "bytes4"
        }
      ],
      "stateMutability": "pure",
      "type": "function"
    },
    {
      "inputs": [],
      "name": "pause",
      "outputs": [],
      "stateMutability": "nonpayable",
      "type": "function"
    },
    {
      "inputs": [],
      "name": "paused",
      "outputs": [
        {
          "internalType": "bool",
          "name": "",
          "type": "bool"
        }
      ],
      "stateMutability": "view",
      "type": "function"
    },
    {
      "inputs": [],
      "name": "proxiableUUID",
      "outputs": [
        {
          "internalType": "bytes32",
          "name": "",
          "type": "bytes32"
        }
      ],
      "stateMutability": "view",
      "type": "function"
    },
    {
      "inputs": [
        {
          "internalType": "bytes32",
          "name": "role",
          "type": "bytes32"
        },
        {
          "internalType": "address",
          "name": "callerConfirmation",
          "type": "address"
        }
      ],
      "name": "renounceRole",
      "outputs": [],
      "stateMutability": "nonpayable",
      "type": "function"
    },
    {
      "inputs": [
        {
          "internalType": "bytes32",
          "name": "role",
          "type": "bytes32"
        },
        {
          "internalType": "address",
          "name": "account",
          "type": "address"
        }
      ],
      "name": "revokeRole",
      "outputs": [],
      "stateMutability": "nonpayable",
      "type": "function"
    },
    {
      "inputs": [
        {
          "internalType": "address",
          "name": "_token",
          "type": "address"
        },
        {
          "internalType": "uint256",
          "name": "_transferLimit",
          "type": "uint256"
        }
      ],
      "name": "setTransferLimitToken",
      "outputs": [],
      "stateMutability": "nonpayable",
      "type": "function"
    },
    {
      "inputs": [
        {
          "internalType": "uint256",
          "name": "_transferLimitVET",
          "type": "uint256"
        }
      ],
      "name": "setTransferLimitVET",
      "outputs": [],
      "stateMutability": "nonpayable",
      "type": "function"
    },
    {
      "inputs": [
        {
          "internalType": "bytes4",
          "name": "interfaceId",
          "type": "bytes4"
        }
      ],
      "name": "supportsInterface",
      "outputs": [
        {
          "internalType": "bool",
          "name": "",
          "type": "bool"
        }
      ],
      "stateMutability": "view",
      "type": "function"
    },
    {
      "inputs": [
        {
          "internalType": "address",
          "name": "_to",
          "type": "address"
        },
        {
          "internalType": "uint256",
          "name": "_value",
          "type": "uint256"
        }
      ],
      "name": "transferB3TR",
      "outputs": [],
      "stateMutability": "nonpayable",
      "type": "function"
    },
    {
      "inputs": [
        {
          "internalType": "address",
          "name": "_tokenAddress",
          "type": "address"
        },
        {
          "internalType": "address",
          "name": "_to",
          "type": "address"
        },
        {
          "internalType": "uint256",
          "name": "_id",
          "type": "uint256"
        },
        {
          "internalType": "uint256",
          "name": "_value",
          "type": "uint256"
        },
        {
          "internalType": "bytes",
          "name": "_data",
          "type": "bytes"
        }
      ],
      "name": "transferERC1155Tokens",
      "outputs": [],
      "stateMutability": "nonpayable",
      "type": "function"
    },
    {
      "inputs": [
        {
          "internalType": "address",
          "name": "_nft",
          "type": "address"
        },
        {
          "internalType": "address",
          "name": "_to",
          "type": "address"
        },
        {
          "internalType": "uint256",
          "name": "_tokenId",
          "type": "uint256"
        }
      ],
      "name": "transferNFT",
      "outputs": [],
      "stateMutability": "nonpayable",
      "type": "function"
    },
    {
      "inputs": [
        {
          "internalType": "address",
          "name": "_token",
          "type": "address"
        },
        {
          "internalType": "address",
          "name": "_to",
          "type": "address"
        },
        {
          "internalType": "uint256",
          "name": "_value",
          "type": "uint256"
        }
      ],
      "name": "transferTokens",
      "outputs": [],
      "stateMutability": "nonpayable",
      "type": "function"
    },
    {
      "inputs": [
        {
          "internalType": "address",
          "name": "_to",
          "type": "address"
        },
        {
          "internalType": "uint256",
          "name": "_value",
          "type": "uint256"
        }
      ],
      "name": "transferVET",
      "outputs": [],
      "stateMutability": "nonpayable",
      "type": "function"
    },
    {
      "inputs": [
        {
          "internalType": "address",
          "name": "_to",
          "type": "address"
        },
        {
          "internalType": "uint256",
          "name": "_value",
          "type": "uint256"
        }
      ],
      "name": "transferVOT3",
      "outputs": [],
      "stateMutability": "nonpayable",
      "type": "function"
    },
    {
      "inputs": [
        {
          "internalType": "address",
          "name": "_to",
          "type": "address"
        },
        {
          "internalType": "uint256",
          "name": "_value",
          "type": "uint256"
        }
      ],
      "name": "transferVTHO",
      "outputs": [],
      "stateMutability": "nonpayable",
      "type": "function"
    },
    {
      "inputs": [],
      "name": "unpause",
      "outputs": [],
      "stateMutability": "nonpayable",
      "type": "function"
    },
    {
      "inputs": [
        {
          "internalType": "address",
          "name": "newImplementation",
          "type": "address"
        },
        {
          "internalType": "bytes",
          "name": "data",
          "type": "bytes"
        }
      ],
      "name": "upgradeToAndCall",
      "outputs": [],
      "stateMutability": "payable",
      "type": "function"
    },
    {
      "inputs": [],
      "name": "version",
      "outputs": [
        {
          "internalType": "string",
          "name": "",
          "type": "string"
        }
      ],
      "stateMutability": "pure",
      "type": "function"
    },
    {
      "inputs": [],
      "name": "vot3Address",
      "outputs": [
        {
          "internalType": "address",
          "name": "",
          "type": "address"
        }
      ],
      "stateMutability": "view",
      "type": "function"
    },
    {
      "stateMutability": "payable",
      "type": "receive"
    }
  ],
  "bytecode": "0x60a0604052306080523480156200001557600080fd5b506200002062000026565b620000da565b7ff0c57e16840df040f15088dc2f81fe391c3923bec73e23a9662efc9c229c6a00805468010000000000000000900460ff1615620000775760405163f92ee8a960e01b815260040160405180910390fd5b80546001600160401b0390811614620000d75780546001600160401b0319166001600160401b0390811782556040519081527fc7f505b2f371ae2175ee4913f4499e1f2633a7b5936321eed1cdaeb6115181d29060200160405180910390a15b50565b608051612f0b62000104600039600081816121120152818161213b01526122830152612f0b6000f3fe6080604052600436106101f85760003560e01c806301ffc9a7146102015780630f6a0b3714610236578063150b7a021461025657806320b443eb1461029b578063248a9ca3146102be5780632f2ff15d146102de57806336568abe146102fe5780633986de6a1461031e5780633aecd0e31461033e5780633c555f191461035e5780633f4ba83a14610371578063414dc27a14610386578063458857cc146103a8578063465b88f8146103c85780634a9e6645146103e85780634f1ef2861461040857806352d1902d1461041b57806353a4c7fa1461043057806354fd4d501461044557806358028923146104785780635c975abb1461048d57806369e9cae1146104a25780637c47f24b146104c25780637df3f411146104d75780638309bd03146104f75780638456cb591461051757806384c9fcad1461052c5780638e184b3f1461054657806391d14854146105665780639867cd19146105865780639e4f88c8146105a6578063a217fddf146105bb578063a64b6e5f146105d0578063ad3cb1cc146105f0578063bb180ec914610621578063bc197c8114610641578063d547741f1461066d578063e63ab1e91461068d578063ec1c617f146106af578063f23a6e61146106cf578063f36c8f5c146106fb578063f72c0d8b1461071d578063f7451ccf1461033e578063f802081f1461073f57005b366101ff57005b005b34801561020d57600080fd5b5061022161021c3660046125ed565b61075f565b60405190151581526020015b60405180910390f35b34801561024257600080fd5b506101ff610251366004612617565b610796565b34801561026257600080fd5b5061028261027136600461268d565b630a85bd0160e11b95945050505050565b6040516001600160e01b0319909116815260200161022d565b3480156102a757600080fd5b506102b06109d0565b60405190815260200161022d565b3480156102ca57600080fd5b506102b06102d9366004612617565b6109e5565b3480156102ea57600080fd5b506101ff6102f93660046126ff565b610a05565b34801561030a57600080fd5b506101ff6103193660046126ff565b610a27565b34801561032a57600080fd5b506101ff61033936600461272f565b610a5f565b34801561034a57600080fd5b506102b06103593660046127d9565b610c4a565b34801561036a57600080fd5b50476102b0565b34801561037d57600080fd5b506101ff610cc3565b34801561039257600080fd5b5061039b610ce6565b60405161022d91906127f6565b3480156103b457600080fd5b506101ff6103c3366004612617565b610d01565b3480156103d457600080fd5b506101ff6103e336600461280a565b610d91565b3480156103f457600080fd5b506101ff610403366004612885565b610f40565b6101ff610416366004612966565b6110d2565b34801561042757600080fd5b506102b06110ed565b34801561043c57600080fd5b506102b061110a565b34801561045157600080fd5b506040805180820190915260018152603160f81b60208201525b60405161022d91906129d9565b34801561048457600080fd5b506102b061118b565b34801561049957600080fd5b50610221611199565b3480156104ae57600080fd5b506101ff6104bd366004612a0c565b6111ae565b3480156104ce57600080fd5b5061039b611343565b3480156104e357600080fd5b506101ff6104f2366004612885565b611361565b34801561050357600080fd5b506102b06105123660046127d9565b611553565b34801561052357600080fd5b506101ff611580565b34801561053857600080fd5b5061039b65456e6572677981565b34801561055257600080fd5b506101ff610561366004612885565b6115a0565b34801561057257600080fd5b506102216105813660046126ff565b6116dc565b34801561059257600080fd5b506101ff6105a1366004612885565b611712565b3480156105b257600080fd5b506102b061188d565b3480156105c757600080fd5b506102b0600081565b3480156105dc57600080fd5b506101ff6105eb366004612a0c565b61189b565b3480156105fc57600080fd5b5061046b604051806040016040528060058152602001640352e302e360dc1b81525081565b34801561062d57600080fd5b506101ff61063c366004612617565b611a8e565b34801561064d57600080fd5b5061028261065c366004612acc565b63bc197c8160e01b95945050505050565b34801561067957600080fd5b506101ff6106883660046126ff565b611c13565b34801561069957600080fd5b506102b0600080516020612eb683398151915281565b3480156106bb57600080fd5b506101ff6106ca366004612885565b611c2f565b3480156106db57600080fd5b506102826106ea366004612b79565b63f23a6e6160e01b95945050505050565b34801561070757600080fd5b506102b0600080516020612e5683398151915281565b34801561072957600080fd5b506102b0600080516020612e7683398151915281565b34801561074b57600080fd5b506102b061075a366004612885565b611cde565b60006001600160e01b03198216637965db0b60e01b148061079057506301ffc9a760e01b6001600160e01b03198316145b92915050565b6107ae600080516020612e56833981519152336116dc565b6107d35760405162461bcd60e51b81526004016107ca90612be1565b60405180910390fd5b6107db611199565b156107f85760405162461bcd60e51b81526004016107ca90612c2b565b6000610808610805610ce6565b90565b90506000610814611343565b905082826001600160a01b03166370a08231306040518263ffffffff1660e01b815260040161084391906127f6565b602060405180830381865afa158015610860573d6000803e3d6000fd5b505050506040513d601f19601f820116820180604052508101906108849190612c61565b10156108a25760405162461bcd60e51b81526004016107ca90612c7a565b816001600160a01b031663095ea7b36108b9611343565b856040518363ffffffff1660e01b81526004016108d7929190612cbd565b6020604051808303816000875af11580156108f6573d6000803e3d6000fd5b505050506040513d601f19601f8201168201806040525081019061091a9190612cd6565b6109715760405162461bcd60e51b815260206004820152602260248201527f54726561737572793a20617070726f76616c20666f7220564f5433206661696c604482015261195960f21b60648201526084016107ca565b604051630711942d60e51b8152600481018490526001600160a01b0382169063e23285a090602401600060405180830381600087803b1580156109b357600080fd5b505af11580156109c7573d6000803e3d6000fd5b50505050505050565b6000806109db611d58565b6003015492915050565b6000806109f0611d7c565b60009384526020525050604090206001015490565b610a0e826109e5565b610a1781611da0565b610a218383611daa565b50505050565b6001600160a01b0381163314610a505760405163334bd91960e11b815260040160405180910390fd5b610a5a8282611e4b565b505050565b6000610a69611ec3565b805490915060ff600160401b82041615906001600160401b0316600081158015610a905750825b90506000826001600160401b03166001148015610aac5750303b155b905081158015610aba575080155b15610ad85760405163f92ee8a960e01b815260040160405180910390fd5b84546001600160401b03191660011785558315610b0157845460ff60401b1916600160401b1785555b610b0b8f8f611ee7565b610b13611fec565b610b1b611fec565b610b23611ff6565b610b2b612006565b610b3789898989612016565b6001600160a01b038c16610b9c5760405162461bcd60e51b815260206004820152602660248201527f54726561737572793a2061646d696e20616464726573732063616e6e6f74206260448201526565207a65726f60d01b60648201526084016107ca565b610ba760008d611daa565b50610bc0600080516020612e568339815191528e611daa565b50610bd9600080516020612e768339815191528c611daa565b50610bf2600080516020612eb68339815191528b611daa565b508315610c3957845460ff60401b19168555604051600181527fc7f505b2f371ae2175ee4913f4499e1f2633a7b5936321eed1cdaeb6115181d29060200160405180910390a15b505050505050505050505050505050565b6040516370a0823160e01b815260009082906001600160a01b038216906370a0823190610c7b9030906004016127f6565b602060405180830381865afa158015610c98573d6000803e3d6000fd5b505050506040513d601f19601f82011682018060405250810190610cbc9190612c61565b9392505050565b600080516020612eb6833981519152610cdb81611da0565b610ce3612069565b50565b600080610cf1611d58565b546001600160a01b031692915050565b610d0c6000336116dc565b80610d2a5750610d2a600080516020612e56833981519152336116dc565b610d465760405162461bcd60e51b81526004016107ca90612cf8565b6000610d50611d58565b600381018390556040518381529091507f3ba2e1f2b2d2ca79a662bcc58e129b5e6ed8d222fc2ad49176e9834a69139eb29060200160405180910390a15050565b610da9600080516020612e56833981519152336116dc565b610dc55760405162461bcd60e51b81526004016107ca90612be1565b610dcd611199565b15610dea5760405162461bcd60e51b81526004016107ca90612c2b565b610df26120c0565b604051627eeac760e11b815286906000906001600160a01b0383169062fdd58e90610e239030908a90600401612cbd565b602060405180830381865afa158015610e40573d6000803e3d6000fd5b505050506040513d601f19601f82011682018060405250810190610e649190612c61565b11610ec75760405162461bcd60e51b815260206004820152602d60248201527f54726561737572793a2044414f20646f6573206e6f74206f776e20746869732060448201526c22a92198989a9a903a37b5b2b760991b60648201526084016107ca565b604051637921219560e11b81526001600160a01b0382169063f242432a90610efd9030908a908a908a908a908a90600401612d4c565b600060405180830381600087803b158015610f1757600080fd5b505af1158015610f2b573d6000803e3d6000fd5b5050505050610f386120f6565b505050505050565b610f58600080516020612e56833981519152336116dc565b610f745760405162461bcd60e51b81526004016107ca90612be1565b610f7c611199565b15610f995760405162461bcd60e51b81526004016107ca90612c2b565b610fa16120c0565b6000610fab611d58565b90508181600301541015610fd15760405162461bcd60e51b81526004016107ca90612da8565b8147101561102c5760405162461bcd60e51b815260206004820152602260248201527f54726561737572793a20696e73756666696369656e74205645542062616c616e604482015261636560f01b60648201526084016107ca565b6000836001600160a01b03168360405160006040518083038185875af1925050503d8060008114611079576040519150601f19603f3d011682016040523d82523d6000602084013e61107e565b606091505b50509050806110c45760405162461bcd60e51b815260206004820152601260248201527111985a5b1959081d1bc81cd95b990815915560721b60448201526064016107ca565b50506110ce6120f6565b5050565b6110da612107565b6110e3826121ac565b6110ce82826121c4565b60006110f7612278565b50600080516020612e9683398151915290565b60008065456e657267795b6040516370a0823160e01b81529091506001600160a01b038216906370a08231906111449030906004016127f6565b602060405180830381865afa158015611161573d6000803e3d6000fd5b505050506040513d601f19601f820116820180604052508101906111859190612c61565b91505090565b600080611115610805610ce6565b6000806111a46122c1565b5460ff1692915050565b6111c6600080516020612e56833981519152336116dc565b6111e25760405162461bcd60e51b81526004016107ca90612be1565b6111ea611199565b156112075760405162461bcd60e51b81526004016107ca90612c2b565b6040516331a9108f60e11b815260048101829052839030906001600160a01b03831690636352211e90602401602060405180830381865afa158015611250573d6000803e3d6000fd5b505050506040513d601f19601f820116820180604052508101906112749190612de9565b6001600160a01b0316146112d55760405162461bcd60e51b815260206004820152602260248201527f54726561737572793a2044414f20646f6573206e6f74206f776e20746865204e604482015261119560f21b60648201526084016107ca565b604051632142170760e11b81523060048201526001600160a01b038481166024830152604482018490528216906342842e0e90606401600060405180830381600087803b15801561132557600080fd5b505af1158015611339573d6000803e3d6000fd5b5050505050505050565b60008061134e611d58565b600101546001600160a01b031692915050565b611379600080516020612e56833981519152336116dc565b6113955760405162461bcd60e51b81526004016107ca90612be1565b61139d611199565b156113ba5760405162461bcd60e51b81526004016107ca90612c2b565b60006113c4611d58565b65456e6572677960009081526002820160205260409020549091508211156113fe5760405162461bcd60e51b81526004016107ca90612da8565b6040516370a0823160e01b815265456e6572677990839082906370a082319061142b9030906004016127f6565b602060405180830381865afa158015611448573d6000803e3d6000fd5b505050506040513d601f19601f8201168201806040525081019061146c9190612c61565b10156114c65760405162461bcd60e51b815260206004820152602360248201527f54726561737572793a20696e73756666696369656e74205654484f2062616c616044820152626e636560e81b60648201526084016107ca565b60405163a9059cbb60e01b81526001600160a01b0382169063a9059cbb906114f49087908790600401612cbd565b6020604051808303816000875af1158015611513573d6000803e3d6000fd5b505050506040513d601f19601f820116820180604052508101906115379190612cd6565b610a215760405162461bcd60e51b81526004016107ca90612e06565b60008061155e611d58565b6001600160a01b03909316600090815260029093016020525050604090205490565b600080516020612eb683398151915261159881611da0565b610ce36122e5565b6115b8600080516020612e56833981519152336116dc565b6115d45760405162461bcd60e51b81526004016107ca90612be1565b6115dc611199565b156115f95760405162461bcd60e51b81526004016107ca90612c2b565b6000611603611d58565b80546001600160a01b031660009081526002820160205260409020549091508211156116415760405162461bcd60e51b81526004016107ca90612da8565b600061164e610805610ce6565b905082816001600160a01b03166370a08231306040518263ffffffff1660e01b815260040161167d91906127f6565b602060405180830381865afa15801561169a573d6000803e3d6000fd5b505050506040513d601f19601f820116820180604052508101906116be9190612c61565b10156114c65760405162461bcd60e51b81526004016107ca90612c7a565b6000806116e7611d7c565b6000948552602090815260408086206001600160a01b03959095168652939052505090205460ff1690565b61172a600080516020612e56833981519152336116dc565b6117465760405162461bcd60e51b81526004016107ca90612be1565b61174e611199565b1561176b5760405162461bcd60e51b81526004016107ca90612c2b565b6000611775611d58565b60018101546001600160a01b031660009081526002820160205260409020549091508211156117b65760405162461bcd60e51b81526004016107ca90612da8565b60006117c3610805611343565b905082816001600160a01b03166370a08231306040518263ffffffff1660e01b81526004016117f291906127f6565b602060405180830381865afa15801561180f573d6000803e3d6000fd5b505050506040513d601f19601f820116820180604052508101906118339190612c61565b10156114c65760405162461bcd60e51b815260206004820152602360248201527f54726561737572793a20696e73756666696369656e7420564f54332062616c616044820152626e636560e81b60648201526084016107ca565b600080611115610805611343565b6118b3600080516020612e56833981519152336116dc565b6118cf5760405162461bcd60e51b81526004016107ca90612be1565b6118d7611199565b156118f45760405162461bcd60e51b81526004016107ca90612c2b565b60006118fe611d58565b6001600160a01b038516600090815260028201602052604090205490915082111561193b5760405162461bcd60e51b81526004016107ca90612da8565b6040516370a0823160e01b8152849083906001600160a01b038316906370a082319061196b9030906004016127f6565b602060405180830381865afa158015611988573d6000803e3d6000fd5b505050506040513d601f19601f820116820180604052508101906119ac9190612c61565b10156119fa5760405162461bcd60e51b815260206004820152601e60248201527f54726561737572793a20696e73756666696369656e742062616c616e6365000060448201526064016107ca565b60405163a9059cbb60e01b81526001600160a01b0382169063a9059cbb90611a289087908790600401612cbd565b6020604051808303816000875af1158015611a47573d6000803e3d6000fd5b505050506040513d601f19601f82011682018060405250810190611a6b9190612cd6565b611a875760405162461bcd60e51b81526004016107ca90612e06565b5050505050565b611aa6600080516020612e56833981519152336116dc565b611ac25760405162461bcd60e51b81526004016107ca90612be1565b611aca611199565b15611ae75760405162461bcd60e51b81526004016107ca90612c2b565b6000611af1611343565b905081816001600160a01b031663c731790a306040518263ffffffff1660e01b8152600401611b2091906127f6565b602060405180830381865afa158015611b3d573d6000803e3d6000fd5b505050506040513d601f19601f82011682018060405250810190611b619190612c61565b1015611bbd5760405162461bcd60e51b815260206004820152602560248201527f54726561737572793a20696e73756666696369656e74204233545220636f6e76604482015264195c9d195960da1b60648201526084016107ca565b604051639ae05c3560e01b8152600481018390526001600160a01b03821690639ae05c3590602401600060405180830381600087803b158015611bff57600080fd5b505af1158015610f38573d6000803e3d6000fd5b611c1c826109e5565b611c2581611da0565b610a218383611e4b565b611c3a6000336116dc565b80611c585750611c58600080516020612e56833981519152336116dc565b611c745760405162461bcd60e51b81526004016107ca90612cf8565b6000611c7e611d58565b6001600160a01b03841660008181526002830160205260409081902085905551919250907f19fba008e9d79eb8a8325333a2a40c0eeb1cad9d3db2e3751def35008bc9f78f90611cd19085815260200190565b60405180910390a2505050565b604051627eeac760e11b815260009083906001600160a01b0382169062fdd58e90611d0f9030908790600401612cbd565b602060405180830381865afa158015611d2c573d6000803e3d6000fd5b505050506040513d601f19601f82011682018060405250810190611d509190612c61565b949350505050565b7fe0cc5742fa27b7db7d28941bcd9e29ed370469b1c96f6a96a9544ba871b50f0090565b7f02dd7bc7dec4dceedda775e58dd541e08a116c6c53815c0bd028192f7b62680090565b610ce3813361232c565b600080611db5611d7c565b9050611dc184846116dc565b611e41576000848152602082815260408083206001600160a01b03871684529091529020805460ff19166001179055611df73390565b6001600160a01b0316836001600160a01b0316857f2f8788117e7eff1d82e926ec794901d17c78024a50270940304540a733656f0d60405160405180910390a46001915050610790565b6000915050610790565b600080611e56611d7c565b9050611e6284846116dc565b15611e41576000848152602082815260408083206001600160a01b0387168085529252808320805460ff1916905551339287917ff6391f5c32d9c69d2a47ea670b442974b53935d1edc7fd64eb21e047a839171b9190a46001915050610790565b7ff0c57e16840df040f15088dc2f81fe391c3923bec73e23a9662efc9c229c6a0090565b6001600160a01b038216611f4b5760405162461bcd60e51b815260206004820152602560248201527f54726561737572793a204233545220616464726573732063616e6e6f74206265604482015264207a65726f60d81b60648201526084016107ca565b6001600160a01b038116611faf5760405162461bcd60e51b815260206004820152602560248201527f54726561737572793a20564f543320616464726573732063616e6e6f74206265604482015264207a65726f60d81b60648201526084016107ca565b6000611fb9611d58565b80546001600160a01b039485166001600160a01b0319918216178255600190910180549390941692169190911790915550565b611ff4612357565b565b611ffe612357565b611ff461237c565b61200e612357565b611ff4612399565b6000612020611d58565b60038101959095555083546001600160a01b039081166000908152600286016020526040808220959095556001909501541684528284209190915565456e657267798352912055565b6120716123a1565b600061207b6122c1565b805460ff1916815590507f5db9ee0a495bf2e6ff9c91a7834c1ba4fdd244a5e8aa4e537bd38aeae4b073aa335b6040516120b591906127f6565b60405180910390a150565b60006120ca6123c6565b8054909150600119016120f057604051633ee5aeb560e01b815260040160405180910390fd5b60029055565b60006121006123c6565b6001905550565b306001600160a01b037f000000000000000000000000000000000000000000000000000000000000000016148061218e57507f00000000000000000000000000000000000000000000000000000000000000006001600160a01b0316612182600080516020612e96833981519152546001600160a01b031690565b6001600160a01b031614155b15611ff45760405163703e46dd60e11b815260040160405180910390fd5b600080516020612e768339815191526110ce81611da0565b816001600160a01b03166352d1902d6040518163ffffffff1660e01b8152600401602060405180830381865afa92505050801561221e575060408051601f3d908101601f1916820190925261221b91810190612c61565b60015b61223d5781604051634c9c8ce360e01b81526004016107ca91906127f6565b600080516020612e96833981519152811461226e57604051632a87526960e21b8152600481018290526024016107ca565b610a5a83836123ea565b306001600160a01b037f00000000000000000000000000000000000000000000000000000000000000001614611ff45760405163703e46dd60e11b815260040160405180910390fd5b7fcd5ed15c6e187e77e9aee88184c21f4f2182ab5827cb3b7e07fbedcd63f0330090565b6122ed612440565b60006122f76122c1565b805460ff1916600117815590507f62e78cea01bee320cd4e420270b5ea74000d11b0c9f74754ebdbfc544b05a2586120a83390565b61233682826116dc565b6110ce57808260405163e2517d3f60e01b81526004016107ca929190612cbd565b61235f612466565b611ff457604051631afcd79f60e31b815260040160405180910390fd5b612384612357565b600061238e6122c1565b805460ff1916905550565b6120f6612357565b6123a9611199565b611ff457604051638dfc202b60e01b815260040160405180910390fd5b7f9b779b17422d0df92223018b32b4d1fa46e071723d6817e2486d003becc55f0090565b6123f382612480565b6040516001600160a01b038316907fbc7cd75a20ee27fd9adebab32041f755214dbc6bffa90cc0225b39da2e5c2d3b90600090a280511561243857610a5a82826124dc565b6110ce612552565b612448611199565b15611ff45760405163d93c066560e01b815260040160405180910390fd5b6000612470611ec3565b54600160401b900460ff16919050565b806001600160a01b03163b6000036124ad5780604051634c9c8ce360e01b81526004016107ca91906127f6565b600080516020612e9683398151915280546001600160a01b0319166001600160a01b0392909216919091179055565b6060600080846001600160a01b0316846040516124f99190612e39565b600060405180830381855af49150503d8060008114612534576040519150601f19603f3d011682016040523d82523d6000602084013e612539565b606091505b5091509150612549858383612571565b95945050505050565b3415611ff45760405163b398979f60e01b815260040160405180910390fd5b60608261258657612581826125c4565b610cbc565b815115801561259d57506001600160a01b0384163b155b156125bd5783604051639996b31560e01b81526004016107ca91906127f6565b5092915050565b8051156125d45780518082602001fd5b604051630a12f52160e11b815260040160405180910390fd5b6000602082840312156125ff57600080fd5b81356001600160e01b031981168114610cbc57600080fd5b60006020828403121561262957600080fd5b5035919050565b6001600160a01b0381168114610ce357600080fd5b60008083601f84011261265757600080fd5b5081356001600160401b0381111561266e57600080fd5b60208301915083602082850101111561268657600080fd5b9250929050565b6000806000806000608086880312156126a557600080fd5b85356126b081612630565b945060208601356126c081612630565b93506040860135925060608601356001600160401b038111156126e257600080fd5b6126ee88828901612645565b969995985093965092949392505050565b6000806040838503121561271257600080fd5b82359150602083013561272481612630565b809150509250929050565b6000806000806000806000806000806101408b8d03121561274f57600080fd5b8a3561275a81612630565b995060208b013561276a81612630565b985060408b013561277a81612630565b975060608b013561278a81612630565b965060808b013561279a81612630565b955060a08b01356127aa81612630565b999c989b5096999598949794965050505060c08301359260e08101359261010082013592506101209091013590565b6000602082840312156127eb57600080fd5b8135610cbc81612630565b6001600160a01b0391909116815260200190565b60008060008060008060a0878903121561282357600080fd5b863561282e81612630565b9550602087013561283e81612630565b9450604087013593506060870135925060808701356001600160401b0381111561286757600080fd5b61287389828a01612645565b979a9699509497509295939492505050565b6000806040838503121561289857600080fd5b82356128a381612630565b946020939093013593505050565b634e487b7160e01b600052604160045260246000fd5b604051601f8201601f191681016001600160401b03811182821017156128ef576128ef6128b1565b604052919050565b600082601f83011261290857600080fd5b81356001600160401b03811115612921576129216128b1565b612934601f8201601f19166020016128c7565b81815284602083860101111561294957600080fd5b816020850160208301376000918101602001919091529392505050565b6000806040838503121561297957600080fd5b823561298481612630565b915060208301356001600160401b0381111561299f57600080fd5b6129ab858286016128f7565b9150509250929050565b60005b838110156129d05781810151838201526020016129b8565b50506000910152565b60208152600082518060208401526129f88160408501602087016129b5565b601f01601f19169190910160400192915050565b600080600060608486031215612a2157600080fd5b8335612a2c81612630565b92506020840135612a3c81612630565b929592945050506040919091013590565b600082601f830112612a5e57600080fd5b813560206001600160401b03821115612a7957612a796128b1565b8160051b612a888282016128c7565b9283528481018201928281019087851115612aa257600080fd5b83870192505b84831015612ac157823582529183019190830190612aa8565b979650505050505050565b600080600080600060a08688031215612ae457600080fd5b8535612aef81612630565b94506020860135612aff81612630565b935060408601356001600160401b0380821115612b1b57600080fd5b612b2789838a01612a4d565b94506060880135915080821115612b3d57600080fd5b612b4989838a01612a4d565b93506080880135915080821115612b5f57600080fd5b50612b6c888289016128f7565b9150509295509295909350565b600080600080600060a08688031215612b9157600080fd5b8535612b9c81612630565b94506020860135612bac81612630565b9350604086013592506060860135915060808601356001600160401b03811115612bd557600080fd5b612b6c888289016128f7565b6020808252602a908201527f54726561737572793a2063616c6c6572206973206e6f74206120676f7665726e60408201526930b731b29030b1ba37b960b11b606082015260800190565b6020808252601c908201527b151c99585cdd5c9e4e8818dbdb9d1c9858dd081a5cc81c185d5cd95960221b604082015260600190565b600060208284031215612c7357600080fd5b5051919050565b60208082526023908201527f54726561737572793a20696e73756666696369656e7420423354522062616c616040820152626e636560e81b606082015260800190565b6001600160a01b03929092168252602082015260400190565b600060208284031215612ce857600080fd5b81518015158114610cbc57600080fd5b60208082526034908201527f54726561737572793a2063616c6c6572206973206e6f7420616e2061646d696e6040820152731037b91033b7bb32b93730b731b29030b1ba37b960611b606082015260800190565b6001600160a01b03878116825286166020820152604081018590526060810184905260a06080820181905281018290526000828460c0840137600060c0848401015260c0601f19601f8501168301019050979650505050505050565b60208082526021908201527f54726561737572793a207472616e73666572206c696d697420657863656564656040820152601960fa1b606082015260800190565b600060208284031215612dfb57600080fd5b8151610cbc81612630565b602080825260199082015278151c99585cdd5c9e4e881d1c985b9cd9995c8819985a5b1959603a1b604082015260600190565b60008251612e4b8184602087016129b5565b919091019291505056fe71840dc4906352362b0cdaf79870196c8e42acafade72d5d5a6d59291253ceb1189ab7a9244df0848122154315af71fe140f3db0fe014031783b0946b8c9d2e3360894a13ba1a3210667c828492db98dca3e2076cc3735a920a3ca505d382bbc65d7a28e3265b37a6474929f336521b332c1681b933f6cb9f3376673440d862aa26469706673582212207d7ff5bfbd114f3e3610b49b6e9a6131ec062394e26e67f2c8cfcfc7ba8a29c164736f6c63430008140033",
  "linkReferences": {},
  "deployedLinkReferences": {}
}