{
  "_format": "hh-sol-artifact-1",
  "contractName": "VoterRewards",
  "sourceName": "contracts/VoterRewards.sol",
  "abi": [
    {
      "inputs": [],
      "stateMutability": "nonpayable",
      "type": "constructor"
    },
    {
      "inputs": [],
      "name": "AccessControlBadConfirmation",
      "type": "error"
    },
    {
      "inputs": [
        {
          "internalType": "address",
          "name": "account",
          "type": "address"
        },
        {
          "internalType": "bytes32",
          "name": "neededRole",
          "type": "bytes32"
        }
      ],
      "name": "AccessControlUnauthorizedAccount",
      "type": "error"
    },
    {
      "inputs": [
        {
          "internalType": "address",
          "name": "target",
          "type": "address"
        }
      ],
      "name": "AddressEmptyCode",
      "type": "error"
    },
    {
      "inputs": [],
      "name": "CheckpointUnorderedInsertion",
      "type": "error"
    },
    {
      "inputs": [
        {
          "internalType": "address",
          "name": "implementation",
          "type": "address"
        }
      ],
      "name": "ERC1967InvalidImplementation",
      "type": "error"
    },
    {
      "inputs": [],
      "name": "ERC1967NonPayable",
      "type": "error"
    },
    {
      "inputs": [],
      "name": "FailedInnerCall",
      "type": "error"
    },
    {
      "inputs": [],
      "name": "InvalidInitialization",
      "type": "error"
    },
    {
      "inputs": [],
      "name": "NotInitializing",
      "type": "error"
    },
    {
      "inputs": [],
      "name": "ReentrancyGuardReentrantCall",
      "type": "error"
    },
    {
      "inputs": [
        {
          "internalType": "uint8",
          "name": "bits",
          "type": "uint8"
        },
        {
          "internalType": "uint256",
          "name": "value",
          "type": "uint256"
        }
      ],
      "name": "SafeCastOverflowedUintDowncast",
      "type": "error"
    },
    {
      "inputs": [],
      "name": "UUPSUnauthorizedCallContext",
      "type": "error"
    },
    {
      "inputs": [
        {
          "internalType": "bytes32",
          "name": "slot",
          "type": "bytes32"
        }
      ],
      "name": "UUPSUnsupportedProxiableUUID",
      "type": "error"
    },
    {
      "anonymous": false,
      "inputs": [
        {
          "indexed": true,
          "internalType": "address",
          "name": "newAddress",
          "type": "address"
        },
        {
          "indexed": true,
          "internalType": "address",
          "name": "oldAddress",
          "type": "address"
        }
      ],
      "name": "EmissionsAddressUpdated",
      "type": "event"
    },
    {
      "anonymous": false,
      "inputs": [
        {
          "indexed": true,
          "internalType": "address",
          "name": "newAddress",
          "type": "address"
        },
        {
          "indexed": true,
          "internalType": "address",
          "name": "oldAddress",
          "type": "address"
        }
      ],
      "name": "GalaxyMemberAddressUpdated",
      "type": "event"
    },
    {
      "anonymous": false,
      "inputs": [
        {
          "indexed": false,
          "internalType": "uint64",
          "name": "version",
          "type": "uint64"
        }
      ],
      "name": "Initialized",
      "type": "event"
    },
    {
      "anonymous": false,
      "inputs": [
        {
          "indexed": true,
          "internalType": "uint256",
          "name": "level",
          "type": "uint256"
        },
        {
          "indexed": false,
          "internalType": "uint256",
          "name": "multiplier",
          "type": "uint256"
        }
      ],
      "name": "LevelToMultiplierSet",
      "type": "event"
    },
    {
      "anonymous": false,
      "inputs": [
        {
          "indexed": true,
          "internalType": "bool",
          "name": "disabled",
          "type": "bool"
        }
      ],
      "name": "QuadraticRewardingToggled",
      "type": "event"
    },
    {
      "anonymous": false,
      "inputs": [
        {
          "indexed": true,
          "internalType": "uint256",
          "name": "cycle",
          "type": "uint256"
        },
        {
          "indexed": true,
          "internalType": "address",
          "name": "voter",
          "type": "address"
        },
        {
          "indexed": false,
          "internalType": "uint256",
          "name": "reward",
          "type": "uint256"
        }
      ],
      "name": "RewardClaimed",
      "type": "event"
    },
    {
      "anonymous": false,
      "inputs": [
        {
          "indexed": true,
          "internalType": "bytes32",
          "name": "role",
          "type": "bytes32"
        },
        {
          "indexed": true,
          "internalType": "bytes32",
          "name": "previousAdminRole",
          "type": "bytes32"
        },
        {
          "indexed": true,
          "internalType": "bytes32",
          "name": "newAdminRole",
          "type": "bytes32"
        }
      ],
      "name": "RoleAdminChanged",
      "type": "event"
    },
    {
      "anonymous": false,
      "inputs": [
        {
          "indexed": true,
          "internalType": "bytes32",
          "name": "role",
          "type": "bytes32"
        },
        {
          "indexed": true,
          "internalType": "address",
          "name": "account",
          "type": "address"
        },
        {
          "indexed": true,
          "internalType": "address",
          "name": "sender",
          "type": "address"
        }
      ],
      "name": "RoleGranted",
      "type": "event"
    },
    {
      "anonymous": false,
      "inputs": [
        {
          "indexed": true,
          "internalType": "bytes32",
          "name": "role",
          "type": "bytes32"
        },
        {
          "indexed": true,
          "internalType": "address",
          "name": "account",
          "type": "address"
        },
        {
          "indexed": true,
          "internalType": "address",
          "name": "sender",
          "type": "address"
        }
      ],
      "name": "RoleRevoked",
      "type": "event"
    },
    {
      "anonymous": false,
      "inputs": [
        {
          "indexed": true,
          "internalType": "address",
          "name": "implementation",
          "type": "address"
        }
      ],
      "name": "Upgraded",
      "type": "event"
    },
    {
      "anonymous": false,
      "inputs": [
        {
          "indexed": true,
          "internalType": "uint256",
          "name": "cycle",
          "type": "uint256"
        },
        {
          "indexed": true,
          "internalType": "address",
          "name": "voter",
          "type": "address"
        },
        {
          "indexed": false,
          "internalType": "uint256",
          "name": "votes",
          "type": "uint256"
        },
        {
          "indexed": false,
          "internalType": "uint256",
          "name": "rewardWeightedVote",
          "type": "uint256"
        }
      ],
      "name": "VoteRegistered",
      "type": "event"
    },
    {
      "inputs": [],
      "name": "CONTRACTS_ADDRESS_MANAGER_ROLE",
      "outputs": [
        {
          "internalType": "bytes32",
          "name": "",
          "type": "bytes32"
        }
      ],
      "stateMutability": "view",
      "type": "function"
    },
    {
      "inputs": [],
      "name": "DEFAULT_ADMIN_ROLE",
      "outputs": [
        {
          "internalType": "bytes32",
          "name": "",
          "type": "bytes32"
        }
      ],
      "stateMutability": "view",
      "type": "function"
    },
    {
      "inputs": [],
      "name": "SCALING_FACTOR",
      "outputs": [
        {
          "internalType": "uint256",
          "name": "",
          "type": "uint256"
        }
      ],
      "stateMutability": "view",
      "type": "function"
    },
    {
      "inputs": [],
      "name": "UPGRADER_ROLE",
      "outputs": [
        {
          "internalType": "bytes32",
          "name": "",
          "type": "bytes32"
        }
      ],
      "stateMutability": "view",
      "type": "function"
    },
    {
      "inputs": [],
      "name": "UPGRADE_INTERFACE_VERSION",
      "outputs": [
        {
          "internalType": "string",
          "name": "",
          "type": "string"
        }
      ],
      "stateMutability": "view",
      "type": "function"
    },
    {
      "inputs": [],
      "name": "VOTE_REGISTRAR_ROLE",
      "outputs": [
        {
          "internalType": "bytes32",
          "name": "",
          "type": "bytes32"
        }
      ],
      "stateMutability": "view",
      "type": "function"
    },
    {
      "inputs": [],
      "name": "b3tr",
      "outputs": [
        {
          "internalType": "contract IB3TR",
          "name": "",
          "type": "address"
        }
      ],
      "stateMutability": "view",
      "type": "function"
    },
    {
      "inputs": [
        {
          "internalType": "uint256",
          "name": "cycle",
          "type": "uint256"
        },
        {
          "internalType": "address",
          "name": "voter",
          "type": "address"
        }
      ],
      "name": "claimReward",
      "outputs": [],
      "stateMutability": "nonpayable",
      "type": "function"
    },
    {
      "inputs": [],
      "name": "clock",
      "outputs": [
        {
          "internalType": "uint48",
          "name": "",
          "type": "uint48"
        }
      ],
      "stateMutability": "view",
      "type": "function"
    },
    {
      "inputs": [
        {
          "internalType": "uint256",
          "name": "cycle",
          "type": "uint256"
        }
      ],
      "name": "cycleToTotal",
      "outputs": [
        {
          "internalType": "uint256",
          "name": "",
          "type": "uint256"
        }
      ],
      "stateMutability": "view",
      "type": "function"
    },
    {
      "inputs": [
        {
          "internalType": "uint256",
          "name": "cycle",
          "type": "uint256"
        },
        {
          "internalType": "address",
          "name": "voter",
          "type": "address"
        }
      ],
      "name": "cycleToVoterToTotal",
      "outputs": [
        {
          "internalType": "uint256",
          "name": "",
          "type": "uint256"
        }
      ],
      "stateMutability": "view",
      "type": "function"
    },
    {
      "inputs": [],
      "name": "emissions",
      "outputs": [
        {
          "internalType": "contract IEmissions",
          "name": "",
          "type": "address"
        }
      ],
      "stateMutability": "view",
      "type": "function"
    },
    {
      "inputs": [],
      "name": "galaxyMember",
      "outputs": [
        {
          "internalType": "contract IGalaxyMember",
          "name": "",
          "type": "address"
        }
      ],
      "stateMutability": "view",
      "type": "function"
    },
    {
      "inputs": [
        {
          "internalType": "uint256",
          "name": "tokenId",
          "type": "uint256"
        },
        {
          "internalType": "uint256",
          "name": "proposalId",
          "type": "uint256"
        }
      ],
      "name": "getMultiplier",
      "outputs": [
        {
          "internalType": "uint256",
          "name": "",
          "type": "uint256"
        }
      ],
      "stateMutability": "view",
      "type": "function"
    },
    {
      "inputs": [
        {
          "internalType": "uint256",
          "name": "cycle",
          "type": "uint256"
        },
        {
          "internalType": "address",
          "name": "voter",
          "type": "address"
        }
      ],
      "name": "getReward",
      "outputs": [
        {
          "internalType": "uint256",
          "name": "",
          "type": "uint256"
        }
      ],
      "stateMutability": "view",
      "type": "function"
    },
    {
      "inputs": [
        {
          "internalType": "bytes32",
          "name": "role",
          "type": "bytes32"
        }
      ],
      "name": "getRoleAdmin",
      "outputs": [
        {
          "internalType": "bytes32",
          "name": "",
          "type": "bytes32"
        }
      ],
      "stateMutability": "view",
      "type": "function"
    },
    {
      "inputs": [
        {
          "internalType": "bytes32",
          "name": "role",
          "type": "bytes32"
        },
        {
          "internalType": "address",
          "name": "account",
          "type": "address"
        }
      ],
      "name": "grantRole",
      "outputs": [],
      "stateMutability": "nonpayable",
      "type": "function"
    },
    {
      "inputs": [
        {
          "internalType": "uint256",
          "name": "nodeId",
          "type": "uint256"
        },
        {
          "internalType": "uint256",
          "name": "proposalId",
          "type": "uint256"
        }
      ],
      "name": "hasNodeVoted",
      "outputs": [
        {
          "internalType": "bool",
          "name": "",
          "type": "bool"
        }
      ],
      "stateMutability": "view",
      "type": "function"
    },
    {
      "inputs": [
        {
          "internalType": "bytes32",
          "name": "role",
          "type": "bytes32"
        },
        {
          "internalType": "address",
          "name": "account",
          "type": "address"
        }
      ],
      "name": "hasRole",
      "outputs": [
        {
          "internalType": "bool",
          "name": "",
          "type": "bool"
        }
      ],
      "stateMutability": "view",
      "type": "function"
    },
    {
      "inputs": [
        {
          "internalType": "uint256",
          "name": "tokenId",
          "type": "uint256"
        },
        {
          "internalType": "uint256",
          "name": "proposalId",
          "type": "uint256"
        }
      ],
      "name": "hasTokenVoted",
      "outputs": [
        {
          "internalType": "bool",
          "name": "",
          "type": "bool"
        }
      ],
      "stateMutability": "view",
      "type": "function"
    },
    {
      "inputs": [
        {
          "internalType": "address",
          "name": "admin",
          "type": "address"
        },
        {
          "internalType": "address",
          "name": "upgrader",
          "type": "address"
        },
        {
          "internalType": "address",
          "name": "contractsAddressManager",
          "type": "address"
        },
        {
          "internalType": "address",
          "name": "_emissions",
          "type": "address"
        },
        {
          "internalType": "address",
          "name": "_galaxyMember",
          "type": "address"
        },
        {
          "internalType": "address",
          "name": "_b3tr",
          "type": "address"
        },
        {
          "internalType": "uint256[]",
          "name": "levels",
          "type": "uint256[]"
        },
        {
          "internalType": "uint256[]",
          "name": "multipliers",
          "type": "uint256[]"
        }
      ],
      "name": "initialize",
      "outputs": [],
      "stateMutability": "nonpayable",
      "type": "function"
    },
    {
      "inputs": [
        {
          "internalType": "uint48",
          "name": "blockNumber",
          "type": "uint48"
        }
      ],
      "name": "isQuadraticRewardingDisabledAtBlock",
      "outputs": [
        {
          "internalType": "bool",
          "name": "",
          "type": "bool"
        }
      ],
      "stateMutability": "view",
      "type": "function"
    },
    {
      "inputs": [],
      "name": "isQuadraticRewardingDisabledForCurrentCycle",
      "outputs": [
        {
          "internalType": "bool",
          "name": "",
          "type": "bool"
        }
      ],
      "stateMutability": "view",
      "type": "function"
    },
    {
      "inputs": [
        {
          "internalType": "uint256",
          "name": "level",
          "type": "uint256"
        }
      ],
      "name": "levelToMultiplier",
      "outputs": [
        {
          "internalType": "uint256",
          "name": "",
          "type": "uint256"
        }
      ],
      "stateMutability": "view",
      "type": "function"
    },
    {
      "inputs": [],
      "name": "proxiableUUID",
      "outputs": [
        {
          "internalType": "bytes32",
          "name": "",
          "type": "bytes32"
        }
      ],
      "stateMutability": "view",
      "type": "function"
    },
    {
      "inputs": [
        {
          "internalType": "uint256",
          "name": "proposalId",
          "type": "uint256"
        },
        {
          "internalType": "address",
          "name": "voter",
          "type": "address"
        },
        {
          "internalType": "uint256",
          "name": "votes",
          "type": "uint256"
        },
        {
          "internalType": "uint256",
          "name": "votePower",
          "type": "uint256"
        }
      ],
      "name": "registerVote",
      "outputs": [],
      "stateMutability": "nonpayable",
      "type": "function"
    },
    {
      "inputs": [
        {
          "internalType": "bytes32",
          "name": "role",
          "type": "bytes32"
        },
        {
          "internalType": "address",
          "name": "callerConfirmation",
          "type": "address"
        }
      ],
      "name": "renounceRole",
      "outputs": [],
      "stateMutability": "nonpayable",
      "type": "function"
    },
    {
      "inputs": [
        {
          "internalType": "bytes32",
          "name": "role",
          "type": "bytes32"
        },
        {
          "internalType": "address",
          "name": "account",
          "type": "address"
        }
      ],
      "name": "revokeRole",
      "outputs": [],
      "stateMutability": "nonpayable",
      "type": "function"
    },
    {
      "inputs": [
        {
          "internalType": "address",
          "name": "_emissions",
          "type": "address"
        }
      ],
      "name": "setEmissions",
      "outputs": [],
      "stateMutability": "nonpayable",
      "type": "function"
    },
    {
      "inputs": [
        {
          "internalType": "address",
          "name": "_galaxyMember",
          "type": "address"
        }
      ],
      "name": "setGalaxyMember",
      "outputs": [],
      "stateMutability": "nonpayable",
      "type": "function"
    },
    {
      "inputs": [
        {
          "internalType": "uint256",
          "name": "level",
          "type": "uint256"
        },
        {
          "internalType": "uint256",
          "name": "multiplier",
          "type": "uint256"
        }
      ],
      "name": "setLevelToMultiplier",
      "outputs": [],
      "stateMutability": "nonpayable",
      "type": "function"
    },
    {
      "inputs": [
        {
          "internalType": "bytes4",
          "name": "interfaceId",
          "type": "bytes4"
        }
      ],
      "name": "supportsInterface",
      "outputs": [
        {
          "internalType": "bool",
          "name": "",
          "type": "bool"
        }
      ],
      "stateMutability": "view",
      "type": "function"
    },
    {
      "inputs": [],
      "name": "toggleQuadraticRewarding",
      "outputs": [],
      "stateMutability": "nonpayable",
      "type": "function"
    },
    {
      "inputs": [
        {
          "internalType": "address",
          "name": "newImplementation",
          "type": "address"
        },
        {
          "internalType": "bytes",
          "name": "data",
          "type": "bytes"
        }
      ],
      "name": "upgradeToAndCall",
      "outputs": [],
      "stateMutability": "payable",
      "type": "function"
    },
    {
      "inputs": [],
      "name": "version",
      "outputs": [
        {
          "internalType": "string",
          "name": "",
          "type": "string"
        }
      ],
      "stateMutability": "pure",
      "type": "function"
    }
  ],
  "bytecode": "0x60a0604052306080523480156200001557600080fd5b506200002062000026565b620000da565b7ff0c57e16840df040f15088dc2f81fe391c3923bec73e23a9662efc9c229c6a00805468010000000000000000900460ff1615620000775760405163f92ee8a960e01b815260040160405180910390fd5b80546001600160401b0390811614620000d75780546001600160401b0319166001600160401b0390811782556040519081527fc7f505b2f371ae2175ee4913f4499e1f2633a7b5936321eed1cdaeb6115181d29060200160405180910390a15b50565b608051612c116200010460003960008181611d7a01528181611da30152611eeb0152612c116000f3fe6080604052600436106101935760003560e01c80628f33d71461019857806301ffc9a7146101cb57806308834ee7146101fb5780630dd3729c1461021d578063105fe5001461023d5780632267716c1461025d5780632325e4b91461027f578063248a9ca3146102945780632f18339d146102b45780632f2ff15d146102d457806336568abe146102f45780634f1ef2861461031457806352d1902d1461032757806354fd4d501461033c578063582a486a1461036f5780635fdc17521461038457806371057f75146103a45780638dbb1e3a146103b957806391d14854146103d957806391ddadf4146103f9578063952f213314610425578063a217fddf14610447578063ad3cb1cc1461045c578063ae075b071461048d578063ae0b8da8146104ad578063b0b3de89146104cd578063be64bad8146104ed578063c208b4e714610502578063d547741f14610522578063de7fd13314610542578063e70eb39214610564578063ee80e93214610584578063eea41608146105a4578063ef4cadc5146105c4578063f72c0d8b146105db575b600080fd5b3480156101a457600080fd5b506101b86101b336600461259b565b6105fd565b6040519081526020015b60405180910390f35b3480156101d757600080fd5b506101eb6101e63660046125c7565b610734565b60405190151581526020016101c2565b34801561020757600080fd5b5061021b6102163660046125f1565b610769565b005b34801561022957600080fd5b5061021b6102383660046126c6565b610820565b34801561024957600080fd5b506101b861025836600461259b565b610c2b565b34801561026957600080fd5b50610272610c61565b6040516101c2919061278d565b34801561028b57600080fd5b50610272610c7f565b3480156102a057600080fd5b506101b86102af3660046127a1565b610c9a565b3480156102c057600080fd5b5061021b6102cf3660046127ba565b610cba565b3480156102e057600080fd5b5061021b6102ef36600461259b565b6110c5565b34801561030057600080fd5b5061021b61030f36600461259b565b6110e7565b61021b6103223660046127f5565b61111f565b34801561033357600080fd5b506101b861113e565b34801561034857600080fd5b506040805180820190915260018152603360f81b60208201525b6040516101c291906128be565b34801561037b57600080fd5b5061027261115b565b34801561039057600080fd5b506101b861039f3660046127a1565b611179565b3480156103b057600080fd5b506101eb611199565b3480156103c557600080fd5b506101b86103d43660046128f1565b61124f565b3480156103e557600080fd5b506101eb6103f436600461259b565b611387565b34801561040557600080fd5b5061040e6113bd565b60405165ffffffffffff90911681526020016101c2565b34801561043157600080fd5b506101b8600080516020612b9c83398151915281565b34801561045357600080fd5b506101b8600081565b34801561046857600080fd5b50610362604051806040016040528060058152602001640352e302e360dc1b81525081565b34801561049957600080fd5b506101eb6104a83660046128f1565b6113cc565b3480156104b957600080fd5b5061021b6104c83660046125f1565b6113f9565b3480156104d957600080fd5b5061021b6104e83660046128f1565b6114a1565b3480156104f957600080fd5b5061021b6115d9565b34801561050e57600080fd5b506101b861051d3660046127a1565b611657565b34801561052e57600080fd5b5061021b61053d36600461259b565b611677565b34801561054e57600080fd5b506101b8600080516020612bbc83398151915281565b34801561057057600080fd5b5061021b61057f36600461259b565b611693565b34801561059057600080fd5b506101eb61059f366004612913565b611a7b565b3480156105b057600080fd5b506101eb6105bf3660046128f1565b611aa9565b3480156105d057600080fd5b506101b8620f424081565b3480156105e757600080fd5b506101b8600080516020612b5c83398151915281565b600080610608611ad6565b600085815260058201602090815260408083206001600160a01b03881684529091528120549192508190036106425760009250505061072e565b600085815260048301602052604081205490819003610667576000935050505061072e565b6002830154604051633542e90360e01b8152600481018890526000916001600160a01b031690633542e90390602401602060405180830381865afa1580156106b3573d6000803e3d6000fd5b505050506040513d601f19601f820116820180604052508101906106d7919061293b565b9050806000036106ee57600094505050505061072e565b6000620f42406106fe838661296a565b610708919061296a565b905060006107168483612997565b9050610725620f424082612997565b96505050505050505b92915050565b60006001600160e01b03198216637965db0b60e01b148061072e57506301ffc9a760e01b6001600160e01b031983161461072e565b600080516020612b9c83398151915261078181611afa565b6001600160a01b0382166107b05760405162461bcd60e51b81526004016107a7906129b9565b60405180910390fd5b60006107ba611ad6565b60028101546040519192506001600160a01b0390811691908516907fee0bb99897b3f409686cb6e56601a38cea38e9e00d9b28752b3be7b28ea8b0ad90600090a360020180546001600160a01b0319166001600160a01b03939093169290921790915550565b600061082a611b07565b805490915060ff600160401b82041615906001600160401b03166000811580156108515750825b90506000826001600160401b0316600114801561086d5750303b155b90508115801561087b575080155b156108995760405163f92ee8a960e01b815260040160405180910390fd5b84546001600160401b031916600117855583156108c257845460ff60401b1916600160401b1785555b6001600160a01b0389166108e85760405162461bcd60e51b81526004016107a790612a0b565b6001600160a01b038a1661090e5760405162461bcd60e51b81526004016107a7906129b9565b6001600160a01b03881661097b5760405162461bcd60e51b815260206004820152602e60248201527f566f746572526577617264733a205f623374722063616e6e6f7420626520746860448201526d65207a65726f206164647265737360901b60648201526084016107a7565b60008751116109e85760405162461bcd60e51b815260206004820152603360248201527f566f746572526577617264733a206c6576656c73206d757374206861766520616044820152721d081b19585cdd081bdb9948195b195b595b9d606a1b60648201526084016107a7565b8551875114610a5f5760405162461bcd60e51b815260206004820152603e60248201527f566f746572526577617264733a206c6576656c7320616e64206d756c7469706c60448201527f69657273206d7573742068617665207468652073616d65206c656e677468000060648201526084016107a7565b610a67611b2b565b610a6f611b35565b610a77611b2b565b6000610a81611ad6565b80546001600160a01b03808d166001600160a01b03199283161783556001830180548d8316908416179055600283018054918f1691909216179055905060005b8851811015610b2957878181518110610adc57610adc612a61565b60200260200101518260030160008b8481518110610afc57610afc612a61565b60200260200101518152602001908152602001600020819055508080610b2190612a77565b915050610ac1565b506001600160a01b038e16610b975760405162461bcd60e51b815260206004820152602e60248201527f566f746572526577617264733a2061646d696e2063616e6e6f7420626520746860448201526d65207a65726f206164647265737360901b60648201526084016107a7565b610ba260008f611b45565b50610bbb600080516020612b5c8339815191528e611b45565b50610bd4600080516020612b9c8339815191528d611b45565b50508315610c1c57845460ff60401b19168555604051600181527fc7f505b2f371ae2175ee4913f4499e1f2633a7b5936321eed1cdaeb6115181d29060200160405180910390a15b50505050505050505050505050565b600080610c36611ad6565b6000948552600501602090815260408086206001600160a01b03959095168652939052505090205490565b600080610c6c611ad6565b600201546001600160a01b031692915050565b600080610c8a611ad6565b546001600160a01b031692915050565b600080610ca5611be6565b60009384526020525050604090206001015490565b600080516020612bbc833981519152610cd281611afa565b81156110be5784600003610d345760405162461bcd60e51b8152602060048201526024808201527f566f746572526577617264733a2070726f706f73616c49642063616e6e6f74206044820152630626520360e41b60648201526084016107a7565b6001600160a01b038416610d5a5760405162461bcd60e51b81526004016107a790612a90565b6000610d64611ad6565b805460405163d206885d60e01b81529192506000916001600160a01b039091169063d206885d90610d9990899060040161278d565b602060405180830381865afa158015610db6573d6000803e3d6000fd5b505050506040513d601f19601f82011682018060405250810190610dda919061293b565b905060008260020160009054906101000a90046001600160a01b03166001600160a01b031663be26ed7f6040518163ffffffff1660e01b8152600401602060405180830381865afa158015610e33573d6000803e3d6000fd5b505050506040513d601f19601f82011682018060405250810190610e57919061293b565b90506000610e65838a61124f565b905060008790506000610eef8660020160009054906101000a90046001600160a01b03166001600160a01b031663c66966b76040518163ffffffff1660e01b8152600401602060405180830381865afa158015610ec6573d6000803e3d6000fd5b505050506040513d601f19601f82011682018060405250810190610eea919061293b565b611c0a565b9050610efe6006870182611c41565b6001600160d01b0316600003610f1f57610f1c88633b9aca0061296a565b91505b60006064610f2d858561296a565b610f379190612997565b610f419084612ade565b9050808760040160008781526020019081526020016000206000828254610f689190612ade565b9091555050600085815260058801602090815260408083206001600160a01b038f16845290915281208054839290610fa1908490612ade565b90915550508515610fd35760008c815260078801602090815260408083208984529091529020805460ff191660011790555b865460405163958fc97d60e01b8152600481018890526000916001600160a01b03169063958fc97d90602401602060405180830381865afa15801561101c573d6000803e3d6000fd5b505050506040513d601f19601f82011682018060405250810190611040919061293b565b9050801561106f5760008d815260088901602090815260408083208484529091529020805460ff191660011790555b604080518c8152602081018490526001600160a01b038e169188917fac45cfd9cf13dd2e8b216503a1ca26d9f2a35e9a6b4b1b5cecc415db06ddf63f910160405180910390a350505050505050505b5050505050565b6110ce82610c9a565b6110d781611afa565b6110e18383611b45565b50505050565b6001600160a01b03811633146111105760405163334bd91960e11b815260040160405180910390fd5b61111a8282611cf7565b505050565b611127611d6f565b61113082611e14565b61113a8282611e2c565b5050565b6000611148611ee0565b50600080516020612b7c83398151915290565b600080611166611ad6565b600101546001600160a01b031692915050565b600080611184611ad6565b60009384526003016020525050604090205490565b6000806111a4611ad6565b905060008160020160009054906101000a90046001600160a01b03166001600160a01b031663c66966b76040518163ffffffff1660e01b8152600401602060405180830381865afa1580156111fd573d6000803e3d6000fd5b505050506040513d601f19601f82011682018060405250810190611221919061293b565b9050600061123b61123183611c0a565b6006850190611c41565b6001600160d01b0316600114949350505050565b60008061125a611ad6565b905061126684846113cc565b1561127557600091505061072e565b805460405163958fc97d60e01b8152600481018690526000916001600160a01b03169063958fc97d90602401602060405180830381865afa1580156112be573d6000803e3d6000fd5b505050506040513d601f19601f820116820180604052508101906112e2919061293b565b90506112ee8185611aa9565b156112fe5760009250505061072e565b81546040516336af181960e11b8152600481018790526000916001600160a01b031690636d5e303290602401602060405180830381865afa158015611347573d6000803e3d6000fd5b505050506040513d601f19601f8201168201806040525081019061136b919061293b565b6000908152600390930160205250506040902054905092915050565b600080611392611be6565b6000948552602090815260408086206001600160a01b03959095168652939052505090205460ff1690565b60006113c7611f29565b905090565b6000806113d7611ad6565b6000938452600701602090815260408085209585529490525050205460ff1690565b600080516020612b9c83398151915261141181611afa565b6001600160a01b0382166114375760405162461bcd60e51b81526004016107a790612a0b565b6000611441611ad6565b80546040519192506001600160a01b0390811691908516907f3e9cacccd727006bc0e1f6b190b46b34090f490cd3ab7e45f3ac7a9cfeda63ff90600090a380546001600160a01b0319166001600160a01b03939093169290921790915550565b60006114ac81611afa565b6000831161150f5760405162461bcd60e51b815260206004820152602a60248201527f566f746572526577617264733a206c6576656c206d75737420626520677265616044820152690746572207468616e20360b41b60648201526084016107a7565b600082116115775760405162461bcd60e51b815260206004820152602f60248201527f566f746572526577617264733a206d756c7469706c696572206d75737420626560448201526e02067726561746572207468616e203608c1b60648201526084016107a7565b6000611581611ad6565b6000858152600382016020526040908190208590555190915084907fcc259987543a764767934b4d714760c68fdeb2ba8318210d9802cf66ae854001906115cb9086815260200190565b60405180910390a250505050565b60006115e481611afa565b60006115ee611ad6565b905060006115fa611199565b90506116246116076113bd565b82611613576001611616565b60005b60068501919060ff16611f34565b50506040518115907f541dc5534ac80f8161f980a8975bec206aee2363c8fa3c54a4709ee3b0cbe99f90600090a2505050565b600080611662611ad6565b60009384526004016020525050604090205490565b61168082610c9a565b61168981611afa565b6110e18383611cf7565b61169b611f4f565b600082116116fe5760405162461bcd60e51b815260206004820152602a60248201527f566f746572526577617264733a206379636c65206d75737420626520677265616044820152690746572207468616e20360b41b60648201526084016107a7565b6001600160a01b0381166117245760405162461bcd60e51b81526004016107a790612a90565b600061172e611ad6565b600281015460405163e52ef17f60e01b8152600481018690529192506001600160a01b03169063e52ef17f90602401602060405180830381865afa15801561177a573d6000803e3d6000fd5b505050506040513d601f19601f8201168201806040525081019061179e9190612af1565b6117f45760405162461bcd60e51b815260206004820152602160248201527f566f746572526577617264733a206379636c65206d75737420626520656e64656044820152601960fa1b60648201526084016107a7565b600061180084846105fd565b9050600081116118665760405162461bcd60e51b815260206004820152602b60248201527f566f746572526577617264733a20726577617264206d7573742062652067726560448201526a061746572207468616e20360ac1b60648201526084016107a7565b60018201546040516370a0823160e01b815282916001600160a01b0316906370a082319061189890309060040161278d565b602060405180830381865afa1580156118b5573d6000803e3d6000fd5b505050506040513d601f19601f820116820180604052508101906118d9919061293b565b101561194b5760405162461bcd60e51b815260206004820152603b60248201527f566f746572526577617264733a206e6f7420656e6f756768204233545220696e60448201527a081d1a194818dbdb9d1c9858dd081d1bc81c185e481c995dd85c99602a1b60648201526084016107a7565b600084815260058301602090815260408083206001600160a01b0380881685529252808320929092556001840154915163a9059cbb60e01b815291169063a9059cbb9061199e9086908590600401612b13565b6020604051808303816000875af11580156119bd573d6000803e3d6000fd5b505050506040513d601f19601f820116820180604052508101906119e19190612af1565b611a2d5760405162461bcd60e51b815260206004820152601d60248201527f566f746572526577617264733a207472616e73666572206661696c656400000060448201526064016107a7565b826001600160a01b0316847f24b5efa61dd1cfc659205a97fb8ed868f3cb8c81922bab2b96423e5de1de2cb783604051611a6991815260200190565b60405180910390a3505061113a611f85565b600080611a86611ad6565b9050611a956006820184611c41565b6001600160d01b0316600114915050919050565b600080611ab4611ad6565b6000938452600801602090815260408085209585529490525050205460ff1690565b7f114e7ffaaf205d38cd05b17b56f3357806ef2ce889cb4748445ae91cdfc37c0090565b611b048133611f96565b50565b7ff0c57e16840df040f15088dc2f81fe391c3923bec73e23a9662efc9c229c6a0090565b611b33611fc1565b565b611b3d611fc1565b611b33611fe6565b600080611b50611be6565b9050611b5c8484611387565b611bdc576000848152602082815260408083206001600160a01b03871684529091529020805460ff19166001179055611b923390565b6001600160a01b0316836001600160a01b0316857f2f8788117e7eff1d82e926ec794901d17c78024a50270940304540a733656f0d60405160405180910390a4600191505061072e565b600091505061072e565b7f02dd7bc7dec4dceedda775e58dd541e08a116c6c53815c0bd028192f7b62680090565b600065ffffffffffff821115611c3d576040516306dfcc6560e41b815260306004820152602481018390526044016107a7565b5090565b815460009081816005811115611ca0576000611c5c84611fee565b611c669085612b2c565b60008881526020902090915081015465ffffffffffff9081169087161015611c9057809150611c9e565b611c9b816001612ade565b92505b505b6000611cae878785856120dd565b90508015611ce957611cd387611cc5600184612b2c565b600091825260209091200190565b54600160301b90046001600160d01b0316611cec565b60005b979650505050505050565b600080611d02611be6565b9050611d0e8484611387565b15611bdc576000848152602082815260408083206001600160a01b0387168085529252808320805460ff1916905551339287917ff6391f5c32d9c69d2a47ea670b442974b53935d1edc7fd64eb21e047a839171b9190a4600191505061072e565b306001600160a01b037f0000000000000000000000000000000000000000000000000000000000000000161480611df657507f00000000000000000000000000000000000000000000000000000000000000006001600160a01b0316611dea600080516020612b7c833981519152546001600160a01b031690565b6001600160a01b031614155b15611b335760405163703e46dd60e11b815260040160405180910390fd5b600080516020612b5c83398151915261113a81611afa565b816001600160a01b03166352d1902d6040518163ffffffff1660e01b8152600401602060405180830381865afa925050508015611e86575060408051601f3d908101601f19168201909252611e839181019061293b565b60015b611ea55781604051634c9c8ce360e01b81526004016107a7919061278d565b600080516020612b7c8339815191528114611ed657604051632a87526960e21b8152600481018290526024016107a7565b61111a838361213f565b306001600160a01b037f00000000000000000000000000000000000000000000000000000000000000001614611b335760405163703e46dd60e11b815260040160405180910390fd5b60006113c743611c0a565b600080611f42858585612195565b915091505b935093915050565b6000611f5961230f565b805490915060011901611f7f57604051633ee5aeb560e01b815260040160405180910390fd5b60029055565b6000611f8f61230f565b6001905550565b611fa08282611387565b61113a57808260405163e2517d3f60e01b81526004016107a7929190612b13565b611fc9612333565b611b3357604051631afcd79f60e31b815260040160405180910390fd5b611f85611fc1565b60008160000361200057506000919050565b6000600161200d8461234d565b901c6001901b9050600181848161202657612026612981565b048201901c9050600181848161203e5761203e612981565b048201901c9050600181848161205657612056612981565b048201901c9050600181848161206e5761206e612981565b048201901c9050600181848161208657612086612981565b048201901c9050600181848161209e5761209e612981565b048201901c905060018184816120b6576120b6612981565b048201901c90506120d6818285816120d0576120d0612981565b046123e1565b9392505050565b60005b818310156121375760006120f484846123f7565b60008781526020902090915065ffffffffffff86169082015465ffffffffffff16111561212357809250612131565b61212e816001612ade565b93505b506120e0565b509392505050565b61214882612412565b6040516001600160a01b038316907fbc7cd75a20ee27fd9adebab32041f755214dbc6bffa90cc0225b39da2e5c2d3b90600090a280511561218d5761111a828261246e565b61113a6124e4565b8254600090819080156122b45760006121b387611cc5600185612b2c565b60408051808201909152905465ffffffffffff808216808452600160301b9092046001600160d01b03166020840152919250908716101561220757604051632520601d60e01b815260040160405180910390fd5b805165ffffffffffff808816911603612253578461222a88611cc5600186612b2c565b80546001600160d01b0392909216600160301b0265ffffffffffff9092169190911790556122a4565b6040805180820190915265ffffffffffff80881682526001600160d01b0380881660208085019182528b54600181018d5560008d81529190912094519151909216600160301b029216919091179101555b602001519250839150611f479050565b50506040805180820190915265ffffffffffff80851682526001600160d01b0380851660208085019182528854600181018a5560008a815291822095519251909316600160301b029190931617920191909155905081611f47565b7f9b779b17422d0df92223018b32b4d1fa46e071723d6817e2486d003becc55f0090565b600061233d611b07565b54600160401b900460ff16919050565b600080608083901c1561236257608092831c92015b604083901c1561237457604092831c92015b602083901c1561238657602092831c92015b601083901c1561239857601092831c92015b600883901c156123aa57600892831c92015b600483901c156123bc57600492831c92015b600283901c156123ce57600292831c92015b600183901c1561072e5760010192915050565b60008183106123f057816120d6565b5090919050565b60006124066002848418612997565b6120d690848416612ade565b806001600160a01b03163b60000361243f5780604051634c9c8ce360e01b81526004016107a7919061278d565b600080516020612b7c83398151915280546001600160a01b0319166001600160a01b0392909216919091179055565b6060600080846001600160a01b03168460405161248b9190612b3f565b600060405180830381855af49150503d80600081146124c6576040519150601f19603f3d011682016040523d82523d6000602084013e6124cb565b606091505b50915091506124db858383612503565b95945050505050565b3415611b335760405163b398979f60e01b815260040160405180910390fd5b6060826125185761251382612556565b6120d6565b815115801561252f57506001600160a01b0384163b155b1561254f5783604051639996b31560e01b81526004016107a7919061278d565b5092915050565b8051156125665780518082602001fd5b604051630a12f52160e11b815260040160405180910390fd5b80356001600160a01b038116811461259657600080fd5b919050565b600080604083850312156125ae57600080fd5b823591506125be6020840161257f565b90509250929050565b6000602082840312156125d957600080fd5b81356001600160e01b0319811681146120d657600080fd5b60006020828403121561260357600080fd5b6120d68261257f565b634e487b7160e01b600052604160045260246000fd5b604051601f8201601f191681016001600160401b038111828210171561264a5761264a61260c565b604052919050565b600082601f83011261266357600080fd5b813560206001600160401b0382111561267e5761267e61260c565b8160051b61268d828201612622565b92835284810182019282810190878511156126a757600080fd5b83870192505b84831015611cec578235825291830191908301906126ad565b600080600080600080600080610100898b0312156126e357600080fd5b6126ec8961257f565b97506126fa60208a0161257f565b965061270860408a0161257f565b955061271660608a0161257f565b945061272460808a0161257f565b935061273260a08a0161257f565b925060c08901356001600160401b038082111561274e57600080fd5b61275a8c838d01612652565b935060e08b013591508082111561277057600080fd5b5061277d8b828c01612652565b9150509295985092959890939650565b6001600160a01b0391909116815260200190565b6000602082840312156127b357600080fd5b5035919050565b600080600080608085870312156127d057600080fd5b843593506127e06020860161257f565b93969395505050506040820135916060013590565b6000806040838503121561280857600080fd5b6128118361257f565b91506020838101356001600160401b038082111561282e57600080fd5b818601915086601f83011261284257600080fd5b8135818111156128545761285461260c565b612866601f8201601f19168501612622565b9150808252878482850101111561287c57600080fd5b80848401858401376000848284010152508093505050509250929050565b60005b838110156128b557818101518382015260200161289d565b50506000910152565b60208152600082518060208401526128dd81604085016020870161289a565b601f01601f19169190910160400192915050565b6000806040838503121561290457600080fd5b50508035926020909101359150565b60006020828403121561292557600080fd5b813565ffffffffffff811681146120d657600080fd5b60006020828403121561294d57600080fd5b5051919050565b634e487b7160e01b600052601160045260246000fd5b808202811582820484141761072e5761072e612954565b634e487b7160e01b600052601260045260246000fd5b6000826129b457634e487b7160e01b600052601260045260246000fd5b500490565b60208082526032908201527f566f746572526577617264733a20656d697373696f6e732063616e6e6f7420626040820152716520746865207a65726f206164647265737360701b606082015260800190565b60208082526036908201527f566f746572526577617264733a205f67616c6178794d656d6265722063616e6e6040820152756f7420626520746865207a65726f206164647265737360501b606082015260800190565b634e487b7160e01b600052603260045260246000fd5b600060018201612a8957612a89612954565b5060010190565b6020808252602e908201527f566f746572526577617264733a20766f7465722063616e6e6f7420626520746860408201526d65207a65726f206164647265737360901b606082015260800190565b8082018082111561072e5761072e612954565b600060208284031215612b0357600080fd5b815180151581146120d657600080fd5b6001600160a01b03929092168252602082015260400190565b8181038181111561072e5761072e612954565b60008251612b5181846020870161289a565b919091019291505056fe189ab7a9244df0848122154315af71fe140f3db0fe014031783b0946b8c9d2e3360894a13ba1a3210667c828492db98dca3e2076cc3735a920a3ca505d382bbc56af926aa3845d4dc63a6c773ed36f51794728c97ebcd1bf845bcecb16eeb6b779e0a786be046868ec7a47625dff81941dbb889bcb3efd61d7ece9a9b92e2279a264697066735822122009dea82a3a4646cad3efb5a5e4bd0bbe16747955ad41866a18d5883a46157f0864736f6c63430008140033",
  "linkReferences": {},
  "deployedLinkReferences": {}
}