{
  "_format": "hh-sol-artifact-1",
  "contractName": "VoterRewardsV2",
  "sourceName": "contracts/deprecated/V2/VoterRewardsV2.sol",
  "abi": [
    {
      "inputs": [],
      "stateMutability": "nonpayable",
      "type": "constructor"
    },
    {
      "inputs": [],
      "name": "AccessControlBadConfirmation",
      "type": "error"
    },
    {
      "inputs": [
        {
          "internalType": "address",
          "name": "account",
          "type": "address"
        },
        {
          "internalType": "bytes32",
          "name": "neededRole",
          "type": "bytes32"
        }
      ],
      "name": "AccessControlUnauthorizedAccount",
      "type": "error"
    },
    {
      "inputs": [
        {
          "internalType": "address",
          "name": "target",
          "type": "address"
        }
      ],
      "name": "AddressEmptyCode",
      "type": "error"
    },
    {
      "inputs": [],
      "name": "CheckpointUnorderedInsertion",
      "type": "error"
    },
    {
      "inputs": [
        {
          "internalType": "address",
          "name": "implementation",
          "type": "address"
        }
      ],
      "name": "ERC1967InvalidImplementation",
      "type": "error"
    },
    {
      "inputs": [],
      "name": "ERC1967NonPayable",
      "type": "error"
    },
    {
      "inputs": [],
      "name": "FailedInnerCall",
      "type": "error"
    },
    {
      "inputs": [],
      "name": "InvalidInitialization",
      "type": "error"
    },
    {
      "inputs": [],
      "name": "NotInitializing",
      "type": "error"
    },
    {
      "inputs": [],
      "name": "ReentrancyGuardReentrantCall",
      "type": "error"
    },
    {
      "inputs": [
        {
          "internalType": "uint8",
          "name": "bits",
          "type": "uint8"
        },
        {
          "internalType": "uint256",
          "name": "value",
          "type": "uint256"
        }
      ],
      "name": "SafeCastOverflowedUintDowncast",
      "type": "error"
    },
    {
      "inputs": [],
      "name": "UUPSUnauthorizedCallContext",
      "type": "error"
    },
    {
      "inputs": [
        {
          "internalType": "bytes32",
          "name": "slot",
          "type": "bytes32"
        }
      ],
      "name": "UUPSUnsupportedProxiableUUID",
      "type": "error"
    },
    {
      "anonymous": false,
      "inputs": [
        {
          "indexed": true,
          "internalType": "address",
          "name": "newAddress",
          "type": "address"
        },
        {
          "indexed": true,
          "internalType": "address",
          "name": "oldAddress",
          "type": "address"
        }
      ],
      "name": "EmissionsAddressUpdated",
      "type": "event"
    },
    {
      "anonymous": false,
      "inputs": [
        {
          "indexed": true,
          "internalType": "address",
          "name": "newAddress",
          "type": "address"
        },
        {
          "indexed": true,
          "internalType": "address",
          "name": "oldAddress",
          "type": "address"
        }
      ],
      "name": "GalaxyMemberAddressUpdated",
      "type": "event"
    },
    {
      "anonymous": false,
      "inputs": [
        {
          "indexed": false,
          "internalType": "uint64",
          "name": "version",
          "type": "uint64"
        }
      ],
      "name": "Initialized",
      "type": "event"
    },
    {
      "anonymous": false,
      "inputs": [
        {
          "indexed": true,
          "internalType": "uint256",
          "name": "level",
          "type": "uint256"
        },
        {
          "indexed": false,
          "internalType": "uint256",
          "name": "multiplier",
          "type": "uint256"
        }
      ],
      "name": "LevelToMultiplierSet",
      "type": "event"
    },
    {
      "anonymous": false,
      "inputs": [
        {
          "indexed": true,
          "internalType": "bool",
          "name": "disabled",
          "type": "bool"
        }
      ],
      "name": "QuadraticRewardingToggled",
      "type": "event"
    },
    {
      "anonymous": false,
      "inputs": [
        {
          "indexed": true,
          "internalType": "uint256",
          "name": "cycle",
          "type": "uint256"
        },
        {
          "indexed": true,
          "internalType": "address",
          "name": "voter",
          "type": "address"
        },
        {
          "indexed": false,
          "internalType": "uint256",
          "name": "reward",
          "type": "uint256"
        }
      ],
      "name": "RewardClaimed",
      "type": "event"
    },
    {
      "anonymous": false,
      "inputs": [
        {
          "indexed": true,
          "internalType": "bytes32",
          "name": "role",
          "type": "bytes32"
        },
        {
          "indexed": true,
          "internalType": "bytes32",
          "name": "previousAdminRole",
          "type": "bytes32"
        },
        {
          "indexed": true,
          "internalType": "bytes32",
          "name": "newAdminRole",
          "type": "bytes32"
        }
      ],
      "name": "RoleAdminChanged",
      "type": "event"
    },
    {
      "anonymous": false,
      "inputs": [
        {
          "indexed": true,
          "internalType": "bytes32",
          "name": "role",
          "type": "bytes32"
        },
        {
          "indexed": true,
          "internalType": "address",
          "name": "account",
          "type": "address"
        },
        {
          "indexed": true,
          "internalType": "address",
          "name": "sender",
          "type": "address"
        }
      ],
      "name": "RoleGranted",
      "type": "event"
    },
    {
      "anonymous": false,
      "inputs": [
        {
          "indexed": true,
          "internalType": "bytes32",
          "name": "role",
          "type": "bytes32"
        },
        {
          "indexed": true,
          "internalType": "address",
          "name": "account",
          "type": "address"
        },
        {
          "indexed": true,
          "internalType": "address",
          "name": "sender",
          "type": "address"
        }
      ],
      "name": "RoleRevoked",
      "type": "event"
    },
    {
      "anonymous": false,
      "inputs": [
        {
          "indexed": true,
          "internalType": "address",
          "name": "implementation",
          "type": "address"
        }
      ],
      "name": "Upgraded",
      "type": "event"
    },
    {
      "anonymous": false,
      "inputs": [
        {
          "indexed": true,
          "internalType": "uint256",
          "name": "cycle",
          "type": "uint256"
        },
        {
          "indexed": true,
          "internalType": "address",
          "name": "voter",
          "type": "address"
        },
        {
          "indexed": false,
          "internalType": "uint256",
          "name": "votes",
          "type": "uint256"
        },
        {
          "indexed": false,
          "internalType": "uint256",
          "name": "rewardWeightedVote",
          "type": "uint256"
        }
      ],
      "name": "VoteRegistered",
      "type": "event"
    },
    {
      "inputs": [],
      "name": "CONTRACTS_ADDRESS_MANAGER_ROLE",
      "outputs": [
        {
          "internalType": "bytes32",
          "name": "",
          "type": "bytes32"
        }
      ],
      "stateMutability": "view",
      "type": "function"
    },
    {
      "inputs": [],
      "name": "DEFAULT_ADMIN_ROLE",
      "outputs": [
        {
          "internalType": "bytes32",
          "name": "",
          "type": "bytes32"
        }
      ],
      "stateMutability": "view",
      "type": "function"
    },
    {
      "inputs": [],
      "name": "SCALING_FACTOR",
      "outputs": [
        {
          "internalType": "uint256",
          "name": "",
          "type": "uint256"
        }
      ],
      "stateMutability": "view",
      "type": "function"
    },
    {
      "inputs": [],
      "name": "UPGRADER_ROLE",
      "outputs": [
        {
          "internalType": "bytes32",
          "name": "",
          "type": "bytes32"
        }
      ],
      "stateMutability": "view",
      "type": "function"
    },
    {
      "inputs": [],
      "name": "UPGRADE_INTERFACE_VERSION",
      "outputs": [
        {
          "internalType": "string",
          "name": "",
          "type": "string"
        }
      ],
      "stateMutability": "view",
      "type": "function"
    },
    {
      "inputs": [],
      "name": "VOTE_REGISTRAR_ROLE",
      "outputs": [
        {
          "internalType": "bytes32",
          "name": "",
          "type": "bytes32"
        }
      ],
      "stateMutability": "view",
      "type": "function"
    },
    {
      "inputs": [],
      "name": "b3tr",
      "outputs": [
        {
          "internalType": "contract IB3TR",
          "name": "",
          "type": "address"
        }
      ],
      "stateMutability": "view",
      "type": "function"
    },
    {
      "inputs": [
        {
          "internalType": "uint256",
          "name": "cycle",
          "type": "uint256"
        },
        {
          "internalType": "address",
          "name": "voter",
          "type": "address"
        }
      ],
      "name": "claimReward",
      "outputs": [],
      "stateMutability": "nonpayable",
      "type": "function"
    },
    {
      "inputs": [],
      "name": "clock",
      "outputs": [
        {
          "internalType": "uint48",
          "name": "",
          "type": "uint48"
        }
      ],
      "stateMutability": "view",
      "type": "function"
    },
    {
      "inputs": [
        {
          "internalType": "uint256",
          "name": "cycle",
          "type": "uint256"
        }
      ],
      "name": "cycleToTotal",
      "outputs": [
        {
          "internalType": "uint256",
          "name": "",
          "type": "uint256"
        }
      ],
      "stateMutability": "view",
      "type": "function"
    },
    {
      "inputs": [
        {
          "internalType": "uint256",
          "name": "cycle",
          "type": "uint256"
        },
        {
          "internalType": "address",
          "name": "voter",
          "type": "address"
        }
      ],
      "name": "cycleToVoterToTotal",
      "outputs": [
        {
          "internalType": "uint256",
          "name": "",
          "type": "uint256"
        }
      ],
      "stateMutability": "view",
      "type": "function"
    },
    {
      "inputs": [],
      "name": "emissions",
      "outputs": [
        {
          "internalType": "contract IEmissions",
          "name": "",
          "type": "address"
        }
      ],
      "stateMutability": "view",
      "type": "function"
    },
    {
      "inputs": [],
      "name": "galaxyMember",
      "outputs": [
        {
          "internalType": "contract IGalaxyMemberV1",
          "name": "",
          "type": "address"
        }
      ],
      "stateMutability": "view",
      "type": "function"
    },
    {
      "inputs": [
        {
          "internalType": "uint256",
          "name": "cycle",
          "type": "uint256"
        },
        {
          "internalType": "address",
          "name": "voter",
          "type": "address"
        }
      ],
      "name": "getReward",
      "outputs": [
        {
          "internalType": "uint256",
          "name": "",
          "type": "uint256"
        }
      ],
      "stateMutability": "view",
      "type": "function"
    },
    {
      "inputs": [
        {
          "internalType": "bytes32",
          "name": "role",
          "type": "bytes32"
        }
      ],
      "name": "getRoleAdmin",
      "outputs": [
        {
          "internalType": "bytes32",
          "name": "",
          "type": "bytes32"
        }
      ],
      "stateMutability": "view",
      "type": "function"
    },
    {
      "inputs": [
        {
          "internalType": "bytes32",
          "name": "role",
          "type": "bytes32"
        },
        {
          "internalType": "address",
          "name": "account",
          "type": "address"
        }
      ],
      "name": "grantRole",
      "outputs": [],
      "stateMutability": "nonpayable",
      "type": "function"
    },
    {
      "inputs": [
        {
          "internalType": "bytes32",
          "name": "role",
          "type": "bytes32"
        },
        {
          "internalType": "address",
          "name": "account",
          "type": "address"
        }
      ],
      "name": "hasRole",
      "outputs": [
        {
          "internalType": "bool",
          "name": "",
          "type": "bool"
        }
      ],
      "stateMutability": "view",
      "type": "function"
    },
    {
      "inputs": [
        {
          "internalType": "address",
          "name": "admin",
          "type": "address"
        },
        {
          "internalType": "address",
          "name": "upgrader",
          "type": "address"
        },
        {
          "internalType": "address",
          "name": "contractsAddressManager",
          "type": "address"
        },
        {
          "internalType": "address",
          "name": "_emissions",
          "type": "address"
        },
        {
          "internalType": "address",
          "name": "_galaxyMember",
          "type": "address"
        },
        {
          "internalType": "address",
          "name": "_b3tr",
          "type": "address"
        },
        {
          "internalType": "uint256[]",
          "name": "levels",
          "type": "uint256[]"
        },
        {
          "internalType": "uint256[]",
          "name": "multipliers",
          "type": "uint256[]"
        }
      ],
      "name": "initialize",
      "outputs": [],
      "stateMutability": "nonpayable",
      "type": "function"
    },
    {
      "inputs": [
        {
          "internalType": "uint48",
          "name": "blockNumber",
          "type": "uint48"
        }
      ],
      "name": "isQuadraticRewardingDisabledAtBlock",
      "outputs": [
        {
          "internalType": "bool",
          "name": "",
          "type": "bool"
        }
      ],
      "stateMutability": "view",
      "type": "function"
    },
    {
      "inputs": [],
      "name": "isQuadraticRewardingDisabledForCurrentCycle",
      "outputs": [
        {
          "internalType": "bool",
          "name": "",
          "type": "bool"
        }
      ],
      "stateMutability": "view",
      "type": "function"
    },
    {
      "inputs": [
        {
          "internalType": "uint256",
          "name": "level",
          "type": "uint256"
        }
      ],
      "name": "levelToMultiplier",
      "outputs": [
        {
          "internalType": "uint256",
          "name": "",
          "type": "uint256"
        }
      ],
      "stateMutability": "view",
      "type": "function"
    },
    {
      "inputs": [],
      "name": "proxiableUUID",
      "outputs": [
        {
          "internalType": "bytes32",
          "name": "",
          "type": "bytes32"
        }
      ],
      "stateMutability": "view",
      "type": "function"
    },
    {
      "inputs": [
        {
          "internalType": "uint256",
          "name": "proposalStart",
          "type": "uint256"
        },
        {
          "internalType": "address",
          "name": "voter",
          "type": "address"
        },
        {
          "internalType": "uint256",
          "name": "votes",
          "type": "uint256"
        },
        {
          "internalType": "uint256",
          "name": "votePower",
          "type": "uint256"
        }
      ],
      "name": "registerVote",
      "outputs": [],
      "stateMutability": "nonpayable",
      "type": "function"
    },
    {
      "inputs": [
        {
          "internalType": "bytes32",
          "name": "role",
          "type": "bytes32"
        },
        {
          "internalType": "address",
          "name": "callerConfirmation",
          "type": "address"
        }
      ],
      "name": "renounceRole",
      "outputs": [],
      "stateMutability": "nonpayable",
      "type": "function"
    },
    {
      "inputs": [
        {
          "internalType": "bytes32",
          "name": "role",
          "type": "bytes32"
        },
        {
          "internalType": "address",
          "name": "account",
          "type": "address"
        }
      ],
      "name": "revokeRole",
      "outputs": [],
      "stateMutability": "nonpayable",
      "type": "function"
    },
    {
      "inputs": [
        {
          "internalType": "address",
          "name": "_emissions",
          "type": "address"
        }
      ],
      "name": "setEmissions",
      "outputs": [],
      "stateMutability": "nonpayable",
      "type": "function"
    },
    {
      "inputs": [
        {
          "internalType": "address",
          "name": "_galaxyMember",
          "type": "address"
        }
      ],
      "name": "setGalaxyMember",
      "outputs": [],
      "stateMutability": "nonpayable",
      "type": "function"
    },
    {
      "inputs": [
        {
          "internalType": "uint256",
          "name": "level",
          "type": "uint256"
        },
        {
          "internalType": "uint256",
          "name": "multiplier",
          "type": "uint256"
        }
      ],
      "name": "setLevelToMultiplier",
      "outputs": [],
      "stateMutability": "nonpayable",
      "type": "function"
    },
    {
      "inputs": [
        {
          "internalType": "bytes4",
          "name": "interfaceId",
          "type": "bytes4"
        }
      ],
      "name": "supportsInterface",
      "outputs": [
        {
          "internalType": "bool",
          "name": "",
          "type": "bool"
        }
      ],
      "stateMutability": "view",
      "type": "function"
    },
    {
      "inputs": [],
      "name": "toggleQuadraticRewarding",
      "outputs": [],
      "stateMutability": "nonpayable",
      "type": "function"
    },
    {
      "inputs": [
        {
          "internalType": "address",
          "name": "newImplementation",
          "type": "address"
        },
        {
          "internalType": "bytes",
          "name": "data",
          "type": "bytes"
        }
      ],
      "name": "upgradeToAndCall",
      "outputs": [],
      "stateMutability": "payable",
      "type": "function"
    },
    {
      "inputs": [],
      "name": "version",
      "outputs": [
        {
          "internalType": "string",
          "name": "",
          "type": "string"
        }
      ],
      "stateMutability": "pure",
      "type": "function"
    }
  ],
  "bytecode": "0x60a0604052306080523480156200001557600080fd5b506200002062000026565b620000da565b7ff0c57e16840df040f15088dc2f81fe391c3923bec73e23a9662efc9c229c6a00805468010000000000000000900460ff1615620000775760405163f92ee8a960e01b815260040160405180910390fd5b80546001600160401b0390811614620000d75780546001600160401b0319166001600160401b0390811782556040519081527fc7f505b2f371ae2175ee4913f4499e1f2633a7b5936321eed1cdaeb6115181d29060200160405180910390a15b50565b6080516129606200010460003960008181611ac901528181611af20152611c3a01526129606000f3fe6080604052600436106101725760003560e01c80628f33d71461017757806301ffc9a7146101aa57806308834ee7146101da5780630dd3729c146101fc578063105fe5001461021c5780632267716c1461023c5780632325e4b91461025e578063248a9ca3146102735780632f18339d146102935780632f2ff15d146102b357806336568abe146102d35780634f1ef286146102f357806352d1902d1461030657806354fd4d501461031b578063582a486a1461034e5780635fdc17521461036357806371057f751461038357806391d148541461039857806391ddadf4146103b8578063952f2133146103e4578063a217fddf14610406578063ad3cb1cc1461041b578063ae0b8da81461044c578063b0b3de891461046c578063be64bad81461048c578063c208b4e7146104a1578063d547741f146104c1578063de7fd133146104e1578063e70eb39214610503578063ee80e93214610523578063ef4cadc514610543578063f72c0d8b1461055a575b600080fd5b34801561018357600080fd5b506101976101923660046122ea565b61057c565b6040519081526020015b60405180910390f35b3480156101b657600080fd5b506101ca6101c5366004612316565b6106e1565b60405190151581526020016101a1565b3480156101e657600080fd5b506101fa6101f5366004612340565b610716565b005b34801561020857600080fd5b506101fa610217366004612415565b6107c4565b34801561022857600080fd5b506101976102373660046122ea565b610bcf565b34801561024857600080fd5b50610251610c05565b6040516101a191906124dc565b34801561026a57600080fd5b50610251610c23565b34801561027f57600080fd5b5061019761028e3660046124f0565b610c3e565b34801561029f57600080fd5b506101fa6102ae366004612509565b610c5e565b3480156102bf57600080fd5b506101fa6102ce3660046122ea565b610fa6565b3480156102df57600080fd5b506101fa6102ee3660046122ea565b610fc8565b6101fa610301366004612544565b611000565b34801561031257600080fd5b5061019761101f565b34801561032757600080fd5b506040805180820190915260018152601960f91b60208201525b6040516101a1919061260d565b34801561035a57600080fd5b5061025161103c565b34801561036f57600080fd5b5061019761037e3660046124f0565b61105a565b34801561038f57600080fd5b506101ca61107a565b3480156103a457600080fd5b506101ca6103b33660046122ea565b611130565b3480156103c457600080fd5b506103cd611166565b60405165ffffffffffff90911681526020016101a1565b3480156103f057600080fd5b506101976000805160206128eb83398151915281565b34801561041257600080fd5b50610197600081565b34801561042757600080fd5b50610341604051806040016040528060058152602001640352e302e360dc1b81525081565b34801561045857600080fd5b506101fa610467366004612340565b611175565b34801561047857600080fd5b506101fa610487366004612640565b61121d565b34801561049857600080fd5b506101fa611355565b3480156104ad57600080fd5b506101976104bc3660046124f0565b6113d3565b3480156104cd57600080fd5b506101fa6104dc3660046122ea565b6113f3565b3480156104ed57600080fd5b5061019760008051602061290b83398151915281565b34801561050f57600080fd5b506101fa61051e3660046122ea565b61140f565b34801561052f57600080fd5b506101ca61053e366004612662565b6117f7565b34801561054f57600080fd5b50610197620f424081565b34801561056657600080fd5b506101976000805160206128ab83398151915281565b600080610587611825565b600085815260058201602090815260408083206001600160a01b0388811685529083528184205489855260048087019094528285205460028701549351633542e90360e01b81529485018b9052959650949392911690633542e90390602401602060405180830381865afa158015610603573d6000803e3d6000fd5b505050506040513d601f19601f82011682018060405250810190610627919061268a565b90506000811161069b5760405162461bcd60e51b815260206004820152603460248201527f566f746572526577617264733a20656d697373696f6e73416d6f756e74206d75604482015273073742062652067726561746572207468616e20360641b60648201526084015b60405180910390fd5b6000620f42406106ab83866126b9565b6106b591906126b9565b905060006106c384836126e6565b90506106d2620f4240826126e6565b96505050505050505b92915050565b60006001600160e01b03198216637965db0b60e01b14806106db57506301ffc9a760e01b6001600160e01b03198316146106db565b6000805160206128eb83398151915261072e81611849565b6001600160a01b0382166107545760405162461bcd60e51b815260040161069290612708565b600061075e611825565b60028101546040519192506001600160a01b0390811691908516907fee0bb99897b3f409686cb6e56601a38cea38e9e00d9b28752b3be7b28ea8b0ad90600090a360020180546001600160a01b0319166001600160a01b03939093169290921790915550565b60006107ce611856565b805490915060ff600160401b82041615906001600160401b03166000811580156107f55750825b90506000826001600160401b031660011480156108115750303b155b90508115801561081f575080155b1561083d5760405163f92ee8a960e01b815260040160405180910390fd5b84546001600160401b0319166001178555831561086657845460ff60401b1916600160401b1785555b6001600160a01b03891661088c5760405162461bcd60e51b81526004016106929061275a565b6001600160a01b038a166108b25760405162461bcd60e51b815260040161069290612708565b6001600160a01b03881661091f5760405162461bcd60e51b815260206004820152602e60248201527f566f746572526577617264733a205f623374722063616e6e6f7420626520746860448201526d65207a65726f206164647265737360901b6064820152608401610692565b600087511161098c5760405162461bcd60e51b815260206004820152603360248201527f566f746572526577617264733a206c6576656c73206d757374206861766520616044820152721d081b19585cdd081bdb9948195b195b595b9d606a1b6064820152608401610692565b8551875114610a035760405162461bcd60e51b815260206004820152603e60248201527f566f746572526577617264733a206c6576656c7320616e64206d756c7469706c60448201527f69657273206d7573742068617665207468652073616d65206c656e67746800006064820152608401610692565b610a0b61187a565b610a13611884565b610a1b61187a565b6000610a25611825565b80546001600160a01b03808d166001600160a01b03199283161783556001830180548d8316908416179055600283018054918f1691909216179055905060005b8851811015610acd57878181518110610a8057610a806127b0565b60200260200101518260030160008b8481518110610aa057610aa06127b0565b60200260200101518152602001908152602001600020819055508080610ac5906127c6565b915050610a65565b506001600160a01b038e16610b3b5760405162461bcd60e51b815260206004820152602e60248201527f566f746572526577617264733a2061646d696e2063616e6e6f7420626520746860448201526d65207a65726f206164647265737360901b6064820152608401610692565b610b4660008f611894565b50610b5f6000805160206128ab8339815191528e611894565b50610b786000805160206128eb8339815191528d611894565b50508315610bc057845460ff60401b19168555604051600181527fc7f505b2f371ae2175ee4913f4499e1f2633a7b5936321eed1cdaeb6115181d29060200160405180910390a15b50505050505050505050505050565b600080610bda611825565b6000948552600501602090815260408086206001600160a01b03959095168652939052505090205490565b600080610c10611825565b600201546001600160a01b031692915050565b600080610c2e611825565b546001600160a01b031692915050565b600080610c49611935565b60009384526020525050604090206001015490565b60008051602061290b833981519152610c7681611849565b8115610f9f5760008511610ce75760405162461bcd60e51b815260206004820152603260248201527f566f746572526577617264733a2070726f706f73616c5374617274206d75737460448201527102062652067726561746572207468616e20360741b6064820152608401610692565b6001600160a01b038416610d0d5760405162461bcd60e51b8152600401610692906127df565b6000610d17611825565b905060008160020160009054906101000a90046001600160a01b03166001600160a01b031663be26ed7f6040518163ffffffff1660e01b8152600401602060405180830381865afa158015610d70573d6000803e3d6000fd5b505050506040513d601f19601f82011682018060405250810190610d94919061268a565b825460405163d325d4ed60e01b81529192506000916001600160a01b039091169063d325d4ed90610dcb908a908c9060040161282d565b602060405180830381865afa158015610de8573d6000803e3d6000fd5b505050506040513d601f19601f82011682018060405250810190610e0c919061268a565b60008181526003850160209081526040808320546002880154825163c66966b760e01b8152925195965090948b9493610e9a936001600160a01b039093169263c66966b792600480830193928290030181865afa158015610e71573d6000803e3d6000fd5b505050506040513d601f19601f82011682018060405250810190610e95919061268a565b611959565b9050610ea96006870182611990565b6001600160d01b0316600003610eca57610ec788633b9aca006126b9565b91505b60006064610ed885856126b9565b610ee291906126e6565b610eec9084612846565b9050808760040160008881526020019081526020016000206000828254610f139190612846565b9091555050600086815260058801602090815260408083206001600160a01b038f16845290915281208054839290610f4c908490612846565b9091555050604080518b8152602081018390526001600160a01b038d169188917fac45cfd9cf13dd2e8b216503a1ca26d9f2a35e9a6b4b1b5cecc415db06ddf63f910160405180910390a3505050505050505b5050505050565b610faf82610c3e565b610fb881611849565b610fc28383611894565b50505050565b6001600160a01b0381163314610ff15760405163334bd91960e11b815260040160405180910390fd5b610ffb8282611a46565b505050565b611008611abe565b61101182611b63565b61101b8282611b7b565b5050565b6000611029611c2f565b506000805160206128cb83398151915290565b600080611047611825565b600101546001600160a01b031692915050565b600080611065611825565b60009384526003016020525050604090205490565b600080611085611825565b905060008160020160009054906101000a90046001600160a01b03166001600160a01b031663c66966b76040518163ffffffff1660e01b8152600401602060405180830381865afa1580156110de573d6000803e3d6000fd5b505050506040513d601f19601f82011682018060405250810190611102919061268a565b9050600061111c61111283611959565b6006850190611990565b6001600160d01b0316600114949350505050565b60008061113b611935565b6000948552602090815260408086206001600160a01b03959095168652939052505090205460ff1690565b6000611170611c78565b905090565b6000805160206128eb83398151915261118d81611849565b6001600160a01b0382166111b35760405162461bcd60e51b81526004016106929061275a565b60006111bd611825565b80546040519192506001600160a01b0390811691908516907f3e9cacccd727006bc0e1f6b190b46b34090f490cd3ab7e45f3ac7a9cfeda63ff90600090a380546001600160a01b0319166001600160a01b03939093169290921790915550565b600061122881611849565b6000831161128b5760405162461bcd60e51b815260206004820152602a60248201527f566f746572526577617264733a206c6576656c206d75737420626520677265616044820152690746572207468616e20360b41b6064820152608401610692565b600082116112f35760405162461bcd60e51b815260206004820152602f60248201527f566f746572526577617264733a206d756c7469706c696572206d75737420626560448201526e02067726561746572207468616e203608c1b6064820152608401610692565b60006112fd611825565b6000858152600382016020526040908190208590555190915084907fcc259987543a764767934b4d714760c68fdeb2ba8318210d9802cf66ae854001906113479086815260200190565b60405180910390a250505050565b600061136081611849565b600061136a611825565b9050600061137661107a565b90506113a0611383611166565b8261138f576001611392565b60005b60068501919060ff16611c83565b50506040518115907f541dc5534ac80f8161f980a8975bec206aee2363c8fa3c54a4709ee3b0cbe99f90600090a2505050565b6000806113de611825565b60009384526004016020525050604090205490565b6113fc82610c3e565b61140581611849565b610fc28383611a46565b611417611c9e565b6000821161147a5760405162461bcd60e51b815260206004820152602a60248201527f566f746572526577617264733a206379636c65206d75737420626520677265616044820152690746572207468616e20360b41b6064820152608401610692565b6001600160a01b0381166114a05760405162461bcd60e51b8152600401610692906127df565b60006114aa611825565b600281015460405163e52ef17f60e01b8152600481018690529192506001600160a01b03169063e52ef17f90602401602060405180830381865afa1580156114f6573d6000803e3d6000fd5b505050506040513d601f19601f8201168201806040525081019061151a9190612859565b6115705760405162461bcd60e51b815260206004820152602160248201527f566f746572526577617264733a206379636c65206d75737420626520656e64656044820152601960fa1b6064820152608401610692565b600061157c848461057c565b9050600081116115e25760405162461bcd60e51b815260206004820152602b60248201527f566f746572526577617264733a20726577617264206d7573742062652067726560448201526a061746572207468616e20360ac1b6064820152608401610692565b60018201546040516370a0823160e01b815282916001600160a01b0316906370a08231906116149030906004016124dc565b602060405180830381865afa158015611631573d6000803e3d6000fd5b505050506040513d601f19601f82011682018060405250810190611655919061268a565b10156116c75760405162461bcd60e51b815260206004820152603b60248201527f566f746572526577617264733a206e6f7420656e6f756768204233545220696e60448201527a081d1a194818dbdb9d1c9858dd081d1bc81c185e481c995dd85c99602a1b6064820152608401610692565b600084815260058301602090815260408083206001600160a01b0380881685529252808320929092556001840154915163a9059cbb60e01b815291169063a9059cbb9061171a908690859060040161282d565b6020604051808303816000875af1158015611739573d6000803e3d6000fd5b505050506040513d601f19601f8201168201806040525081019061175d9190612859565b6117a95760405162461bcd60e51b815260206004820152601d60248201527f566f746572526577617264733a207472616e73666572206661696c65640000006044820152606401610692565b826001600160a01b0316847f24b5efa61dd1cfc659205a97fb8ed868f3cb8c81922bab2b96423e5de1de2cb7836040516117e591815260200190565b60405180910390a3505061101b611cd4565b600080611802611825565b90506118116006820184611990565b6001600160d01b0316600114915050919050565b7f114e7ffaaf205d38cd05b17b56f3357806ef2ce889cb4748445ae91cdfc37c0090565b6118538133611ce5565b50565b7ff0c57e16840df040f15088dc2f81fe391c3923bec73e23a9662efc9c229c6a0090565b611882611d10565b565b61188c611d10565b611882611d35565b60008061189f611935565b90506118ab8484611130565b61192b576000848152602082815260408083206001600160a01b03871684529091529020805460ff191660011790556118e13390565b6001600160a01b0316836001600160a01b0316857f2f8788117e7eff1d82e926ec794901d17c78024a50270940304540a733656f0d60405160405180910390a460019150506106db565b60009150506106db565b7f02dd7bc7dec4dceedda775e58dd541e08a116c6c53815c0bd028192f7b62680090565b600065ffffffffffff82111561198c576040516306dfcc6560e41b81526030600482015260248101839052604401610692565b5090565b8154600090818160058111156119ef5760006119ab84611d3d565b6119b5908561287b565b60008881526020902090915081015465ffffffffffff90811690871610156119df578091506119ed565b6119ea816001612846565b92505b505b60006119fd87878585611e2c565b90508015611a3857611a2287611a1460018461287b565b600091825260209091200190565b54600160301b90046001600160d01b0316611a3b565b60005b979650505050505050565b600080611a51611935565b9050611a5d8484611130565b1561192b576000848152602082815260408083206001600160a01b0387168085529252808320805460ff1916905551339287917ff6391f5c32d9c69d2a47ea670b442974b53935d1edc7fd64eb21e047a839171b9190a460019150506106db565b306001600160a01b037f0000000000000000000000000000000000000000000000000000000000000000161480611b4557507f00000000000000000000000000000000000000000000000000000000000000006001600160a01b0316611b396000805160206128cb833981519152546001600160a01b031690565b6001600160a01b031614155b156118825760405163703e46dd60e11b815260040160405180910390fd5b6000805160206128ab83398151915261101b81611849565b816001600160a01b03166352d1902d6040518163ffffffff1660e01b8152600401602060405180830381865afa925050508015611bd5575060408051601f3d908101601f19168201909252611bd29181019061268a565b60015b611bf45781604051634c9c8ce360e01b815260040161069291906124dc565b6000805160206128cb8339815191528114611c2557604051632a87526960e21b815260048101829052602401610692565b610ffb8383611e8e565b306001600160a01b037f000000000000000000000000000000000000000000000000000000000000000016146118825760405163703e46dd60e11b815260040160405180910390fd5b600061117043611959565b600080611c91858585611ee4565b915091505b935093915050565b6000611ca861205e565b805490915060011901611cce57604051633ee5aeb560e01b815260040160405180910390fd5b60029055565b6000611cde61205e565b6001905550565b611cef8282611130565b61101b57808260405163e2517d3f60e01b815260040161069292919061282d565b611d18612082565b61188257604051631afcd79f60e31b815260040160405180910390fd5b611cd4611d10565b600081600003611d4f57506000919050565b60006001611d5c8461209c565b901c6001901b90506001818481611d7557611d756126d0565b048201901c90506001818481611d8d57611d8d6126d0565b048201901c90506001818481611da557611da56126d0565b048201901c90506001818481611dbd57611dbd6126d0565b048201901c90506001818481611dd557611dd56126d0565b048201901c90506001818481611ded57611ded6126d0565b048201901c90506001818481611e0557611e056126d0565b048201901c9050611e2581828581611e1f57611e1f6126d0565b04612130565b9392505050565b60005b81831015611e86576000611e438484612146565b60008781526020902090915065ffffffffffff86169082015465ffffffffffff161115611e7257809250611e80565b611e7d816001612846565b93505b50611e2f565b509392505050565b611e9782612161565b6040516001600160a01b038316907fbc7cd75a20ee27fd9adebab32041f755214dbc6bffa90cc0225b39da2e5c2d3b90600090a2805115611edc57610ffb82826121bd565b61101b612233565b825460009081908015612003576000611f0287611a1460018561287b565b60408051808201909152905465ffffffffffff808216808452600160301b9092046001600160d01b031660208401529192509087161015611f5657604051632520601d60e01b815260040160405180910390fd5b805165ffffffffffff808816911603611fa25784611f7988611a1460018661287b565b80546001600160d01b0392909216600160301b0265ffffffffffff909216919091179055611ff3565b6040805180820190915265ffffffffffff80881682526001600160d01b0380881660208085019182528b54600181018d5560008d81529190912094519151909216600160301b029216919091179101555b602001519250839150611c969050565b50506040805180820190915265ffffffffffff80851682526001600160d01b0380851660208085019182528854600181018a5560008a815291822095519251909316600160301b029190931617920191909155905081611c96565b7f9b779b17422d0df92223018b32b4d1fa46e071723d6817e2486d003becc55f0090565b600061208c611856565b54600160401b900460ff16919050565b600080608083901c156120b157608092831c92015b604083901c156120c357604092831c92015b602083901c156120d557602092831c92015b601083901c156120e757601092831c92015b600883901c156120f957600892831c92015b600483901c1561210b57600492831c92015b600283901c1561211d57600292831c92015b600183901c156106db5760010192915050565b600081831061213f5781611e25565b5090919050565b600061215560028484186126e6565b611e2590848416612846565b806001600160a01b03163b60000361218e5780604051634c9c8ce360e01b815260040161069291906124dc565b6000805160206128cb83398151915280546001600160a01b0319166001600160a01b0392909216919091179055565b6060600080846001600160a01b0316846040516121da919061288e565b600060405180830381855af49150503d8060008114612215576040519150601f19603f3d011682016040523d82523d6000602084013e61221a565b606091505b509150915061222a858383612252565b95945050505050565b34156118825760405163b398979f60e01b815260040160405180910390fd5b60608261226757612262826122a5565b611e25565b815115801561227e57506001600160a01b0384163b155b1561229e5783604051639996b31560e01b815260040161069291906124dc565b5092915050565b8051156122b55780518082602001fd5b604051630a12f52160e11b815260040160405180910390fd5b80356001600160a01b03811681146122e557600080fd5b919050565b600080604083850312156122fd57600080fd5b8235915061230d602084016122ce565b90509250929050565b60006020828403121561232857600080fd5b81356001600160e01b031981168114611e2557600080fd5b60006020828403121561235257600080fd5b611e25826122ce565b634e487b7160e01b600052604160045260246000fd5b604051601f8201601f191681016001600160401b03811182821017156123995761239961235b565b604052919050565b600082601f8301126123b257600080fd5b813560206001600160401b038211156123cd576123cd61235b565b8160051b6123dc828201612371565b92835284810182019282810190878511156123f657600080fd5b83870192505b84831015611a3b578235825291830191908301906123fc565b600080600080600080600080610100898b03121561243257600080fd5b61243b896122ce565b975061244960208a016122ce565b965061245760408a016122ce565b955061246560608a016122ce565b945061247360808a016122ce565b935061248160a08a016122ce565b925060c08901356001600160401b038082111561249d57600080fd5b6124a98c838d016123a1565b935060e08b01359150808211156124bf57600080fd5b506124cc8b828c016123a1565b9150509295985092959890939650565b6001600160a01b0391909116815260200190565b60006020828403121561250257600080fd5b5035919050565b6000806000806080858703121561251f57600080fd5b8435935061252f602086016122ce565b93969395505050506040820135916060013590565b6000806040838503121561255757600080fd5b612560836122ce565b91506020838101356001600160401b038082111561257d57600080fd5b818601915086601f83011261259157600080fd5b8135818111156125a3576125a361235b565b6125b5601f8201601f19168501612371565b915080825287848285010111156125cb57600080fd5b80848401858401376000848284010152508093505050509250929050565b60005b838110156126045781810151838201526020016125ec565b50506000910152565b602081526000825180602084015261262c8160408501602087016125e9565b601f01601f19169190910160400192915050565b6000806040838503121561265357600080fd5b50508035926020909101359150565b60006020828403121561267457600080fd5b813565ffffffffffff81168114611e2557600080fd5b60006020828403121561269c57600080fd5b5051919050565b634e487b7160e01b600052601160045260246000fd5b80820281158282048414176106db576106db6126a3565b634e487b7160e01b600052601260045260246000fd5b60008261270357634e487b7160e01b600052601260045260246000fd5b500490565b60208082526032908201527f566f746572526577617264733a20656d697373696f6e732063616e6e6f7420626040820152716520746865207a65726f206164647265737360701b606082015260800190565b60208082526036908201527f566f746572526577617264733a205f67616c6178794d656d6265722063616e6e6040820152756f7420626520746865207a65726f206164647265737360501b606082015260800190565b634e487b7160e01b600052603260045260246000fd5b6000600182016127d8576127d86126a3565b5060010190565b6020808252602e908201527f566f746572526577617264733a20766f7465722063616e6e6f7420626520746860408201526d65207a65726f206164647265737360901b606082015260800190565b6001600160a01b03929092168252602082015260400190565b808201808211156106db576106db6126a3565b60006020828403121561286b57600080fd5b81518015158114611e2557600080fd5b818103818111156106db576106db6126a3565b600082516128a08184602087016125e9565b919091019291505056fe189ab7a9244df0848122154315af71fe140f3db0fe014031783b0946b8c9d2e3360894a13ba1a3210667c828492db98dca3e2076cc3735a920a3ca505d382bbc56af926aa3845d4dc63a6c773ed36f51794728c97ebcd1bf845bcecb16eeb6b779e0a786be046868ec7a47625dff81941dbb889bcb3efd61d7ece9a9b92e2279a2646970667358221220febd6546bf9fae585ebfdbb6396b103005c70a3b32d8f5f6fd8588ea3005e46764736f6c63430008140033",
  "linkReferences": {},
  "deployedLinkReferences": {}
}