{
  "_format": "hh-sol-artifact-1",
  "contractName": "VoterRewardsV1",
  "sourceName": "contracts/deprecated/V1/VoterRewardsV1.sol",
  "abi": [
    {
      "inputs": [],
      "stateMutability": "nonpayable",
      "type": "constructor"
    },
    {
      "inputs": [],
      "name": "AccessControlBadConfirmation",
      "type": "error"
    },
    {
      "inputs": [
        {
          "internalType": "address",
          "name": "account",
          "type": "address"
        },
        {
          "internalType": "bytes32",
          "name": "neededRole",
          "type": "bytes32"
        }
      ],
      "name": "AccessControlUnauthorizedAccount",
      "type": "error"
    },
    {
      "inputs": [
        {
          "internalType": "address",
          "name": "target",
          "type": "address"
        }
      ],
      "name": "AddressEmptyCode",
      "type": "error"
    },
    {
      "inputs": [
        {
          "internalType": "address",
          "name": "implementation",
          "type": "address"
        }
      ],
      "name": "ERC1967InvalidImplementation",
      "type": "error"
    },
    {
      "inputs": [],
      "name": "ERC1967NonPayable",
      "type": "error"
    },
    {
      "inputs": [],
      "name": "FailedInnerCall",
      "type": "error"
    },
    {
      "inputs": [],
      "name": "InvalidInitialization",
      "type": "error"
    },
    {
      "inputs": [],
      "name": "NotInitializing",
      "type": "error"
    },
    {
      "inputs": [],
      "name": "ReentrancyGuardReentrantCall",
      "type": "error"
    },
    {
      "inputs": [],
      "name": "UUPSUnauthorizedCallContext",
      "type": "error"
    },
    {
      "inputs": [
        {
          "internalType": "bytes32",
          "name": "slot",
          "type": "bytes32"
        }
      ],
      "name": "UUPSUnsupportedProxiableUUID",
      "type": "error"
    },
    {
      "anonymous": false,
      "inputs": [
        {
          "indexed": true,
          "internalType": "address",
          "name": "newAddress",
          "type": "address"
        },
        {
          "indexed": true,
          "internalType": "address",
          "name": "oldAddress",
          "type": "address"
        }
      ],
      "name": "EmissionsAddressUpdated",
      "type": "event"
    },
    {
      "anonymous": false,
      "inputs": [
        {
          "indexed": true,
          "internalType": "address",
          "name": "newAddress",
          "type": "address"
        },
        {
          "indexed": true,
          "internalType": "address",
          "name": "oldAddress",
          "type": "address"
        }
      ],
      "name": "GalaxyMemberAddressUpdated",
      "type": "event"
    },
    {
      "anonymous": false,
      "inputs": [
        {
          "indexed": false,
          "internalType": "uint64",
          "name": "version",
          "type": "uint64"
        }
      ],
      "name": "Initialized",
      "type": "event"
    },
    {
      "anonymous": false,
      "inputs": [
        {
          "indexed": true,
          "internalType": "uint256",
          "name": "level",
          "type": "uint256"
        },
        {
          "indexed": false,
          "internalType": "uint256",
          "name": "multiplier",
          "type": "uint256"
        }
      ],
      "name": "LevelToMultiplierSet",
      "type": "event"
    },
    {
      "anonymous": false,
      "inputs": [
        {
          "indexed": true,
          "internalType": "uint256",
          "name": "cycle",
          "type": "uint256"
        },
        {
          "indexed": true,
          "internalType": "address",
          "name": "voter",
          "type": "address"
        },
        {
          "indexed": false,
          "internalType": "uint256",
          "name": "reward",
          "type": "uint256"
        }
      ],
      "name": "RewardClaimed",
      "type": "event"
    },
    {
      "anonymous": false,
      "inputs": [
        {
          "indexed": true,
          "internalType": "bytes32",
          "name": "role",
          "type": "bytes32"
        },
        {
          "indexed": true,
          "internalType": "bytes32",
          "name": "previousAdminRole",
          "type": "bytes32"
        },
        {
          "indexed": true,
          "internalType": "bytes32",
          "name": "newAdminRole",
          "type": "bytes32"
        }
      ],
      "name": "RoleAdminChanged",
      "type": "event"
    },
    {
      "anonymous": false,
      "inputs": [
        {
          "indexed": true,
          "internalType": "bytes32",
          "name": "role",
          "type": "bytes32"
        },
        {
          "indexed": true,
          "internalType": "address",
          "name": "account",
          "type": "address"
        },
        {
          "indexed": true,
          "internalType": "address",
          "name": "sender",
          "type": "address"
        }
      ],
      "name": "RoleGranted",
      "type": "event"
    },
    {
      "anonymous": false,
      "inputs": [
        {
          "indexed": true,
          "internalType": "bytes32",
          "name": "role",
          "type": "bytes32"
        },
        {
          "indexed": true,
          "internalType": "address",
          "name": "account",
          "type": "address"
        },
        {
          "indexed": true,
          "internalType": "address",
          "name": "sender",
          "type": "address"
        }
      ],
      "name": "RoleRevoked",
      "type": "event"
    },
    {
      "anonymous": false,
      "inputs": [
        {
          "indexed": true,
          "internalType": "address",
          "name": "implementation",
          "type": "address"
        }
      ],
      "name": "Upgraded",
      "type": "event"
    },
    {
      "anonymous": false,
      "inputs": [
        {
          "indexed": true,
          "internalType": "uint256",
          "name": "cycle",
          "type": "uint256"
        },
        {
          "indexed": true,
          "internalType": "address",
          "name": "voter",
          "type": "address"
        },
        {
          "indexed": false,
          "internalType": "uint256",
          "name": "votes",
          "type": "uint256"
        },
        {
          "indexed": false,
          "internalType": "uint256",
          "name": "rewardWeightedVote",
          "type": "uint256"
        }
      ],
      "name": "VoteRegistered",
      "type": "event"
    },
    {
      "inputs": [],
      "name": "CONTRACTS_ADDRESS_MANAGER_ROLE",
      "outputs": [
        {
          "internalType": "bytes32",
          "name": "",
          "type": "bytes32"
        }
      ],
      "stateMutability": "view",
      "type": "function"
    },
    {
      "inputs": [],
      "name": "DEFAULT_ADMIN_ROLE",
      "outputs": [
        {
          "internalType": "bytes32",
          "name": "",
          "type": "bytes32"
        }
      ],
      "stateMutability": "view",
      "type": "function"
    },
    {
      "inputs": [],
      "name": "SCALING_FACTOR",
      "outputs": [
        {
          "internalType": "uint256",
          "name": "",
          "type": "uint256"
        }
      ],
      "stateMutability": "view",
      "type": "function"
    },
    {
      "inputs": [],
      "name": "UPGRADER_ROLE",
      "outputs": [
        {
          "internalType": "bytes32",
          "name": "",
          "type": "bytes32"
        }
      ],
      "stateMutability": "view",
      "type": "function"
    },
    {
      "inputs": [],
      "name": "UPGRADE_INTERFACE_VERSION",
      "outputs": [
        {
          "internalType": "string",
          "name": "",
          "type": "string"
        }
      ],
      "stateMutability": "view",
      "type": "function"
    },
    {
      "inputs": [],
      "name": "VOTE_REGISTRAR_ROLE",
      "outputs": [
        {
          "internalType": "bytes32",
          "name": "",
          "type": "bytes32"
        }
      ],
      "stateMutability": "view",
      "type": "function"
    },
    {
      "inputs": [],
      "name": "b3tr",
      "outputs": [
        {
          "internalType": "contract IB3TR",
          "name": "",
          "type": "address"
        }
      ],
      "stateMutability": "view",
      "type": "function"
    },
    {
      "inputs": [
        {
          "internalType": "uint256",
          "name": "cycle",
          "type": "uint256"
        },
        {
          "internalType": "address",
          "name": "voter",
          "type": "address"
        }
      ],
      "name": "claimReward",
      "outputs": [],
      "stateMutability": "nonpayable",
      "type": "function"
    },
    {
      "inputs": [
        {
          "internalType": "uint256",
          "name": "cycle",
          "type": "uint256"
        }
      ],
      "name": "cycleToTotal",
      "outputs": [
        {
          "internalType": "uint256",
          "name": "",
          "type": "uint256"
        }
      ],
      "stateMutability": "view",
      "type": "function"
    },
    {
      "inputs": [
        {
          "internalType": "uint256",
          "name": "cycle",
          "type": "uint256"
        },
        {
          "internalType": "address",
          "name": "voter",
          "type": "address"
        }
      ],
      "name": "cycleToVoterToTotal",
      "outputs": [
        {
          "internalType": "uint256",
          "name": "",
          "type": "uint256"
        }
      ],
      "stateMutability": "view",
      "type": "function"
    },
    {
      "inputs": [],
      "name": "emissions",
      "outputs": [
        {
          "internalType": "contract IEmissions",
          "name": "",
          "type": "address"
        }
      ],
      "stateMutability": "view",
      "type": "function"
    },
    {
      "inputs": [],
      "name": "galaxyMember",
      "outputs": [
        {
          "internalType": "contract IGalaxyMemberV1",
          "name": "",
          "type": "address"
        }
      ],
      "stateMutability": "view",
      "type": "function"
    },
    {
      "inputs": [
        {
          "internalType": "uint256",
          "name": "cycle",
          "type": "uint256"
        },
        {
          "internalType": "address",
          "name": "voter",
          "type": "address"
        }
      ],
      "name": "getReward",
      "outputs": [
        {
          "internalType": "uint256",
          "name": "",
          "type": "uint256"
        }
      ],
      "stateMutability": "view",
      "type": "function"
    },
    {
      "inputs": [
        {
          "internalType": "bytes32",
          "name": "role",
          "type": "bytes32"
        }
      ],
      "name": "getRoleAdmin",
      "outputs": [
        {
          "internalType": "bytes32",
          "name": "",
          "type": "bytes32"
        }
      ],
      "stateMutability": "view",
      "type": "function"
    },
    {
      "inputs": [
        {
          "internalType": "bytes32",
          "name": "role",
          "type": "bytes32"
        },
        {
          "internalType": "address",
          "name": "account",
          "type": "address"
        }
      ],
      "name": "grantRole",
      "outputs": [],
      "stateMutability": "nonpayable",
      "type": "function"
    },
    {
      "inputs": [
        {
          "internalType": "bytes32",
          "name": "role",
          "type": "bytes32"
        },
        {
          "internalType": "address",
          "name": "account",
          "type": "address"
        }
      ],
      "name": "hasRole",
      "outputs": [
        {
          "internalType": "bool",
          "name": "",
          "type": "bool"
        }
      ],
      "stateMutability": "view",
      "type": "function"
    },
    {
      "inputs": [
        {
          "internalType": "address",
          "name": "admin",
          "type": "address"
        },
        {
          "internalType": "address",
          "name": "upgrader",
          "type": "address"
        },
        {
          "internalType": "address",
          "name": "contractsAddressManager",
          "type": "address"
        },
        {
          "internalType": "address",
          "name": "_emissions",
          "type": "address"
        },
        {
          "internalType": "address",
          "name": "_galaxyMember",
          "type": "address"
        },
        {
          "internalType": "address",
          "name": "_b3tr",
          "type": "address"
        },
        {
          "internalType": "uint256[]",
          "name": "levels",
          "type": "uint256[]"
        },
        {
          "internalType": "uint256[]",
          "name": "multipliers",
          "type": "uint256[]"
        }
      ],
      "name": "initialize",
      "outputs": [],
      "stateMutability": "nonpayable",
      "type": "function"
    },
    {
      "inputs": [
        {
          "internalType": "uint256",
          "name": "level",
          "type": "uint256"
        }
      ],
      "name": "levelToMultiplier",
      "outputs": [
        {
          "internalType": "uint256",
          "name": "",
          "type": "uint256"
        }
      ],
      "stateMutability": "view",
      "type": "function"
    },
    {
      "inputs": [],
      "name": "proxiableUUID",
      "outputs": [
        {
          "internalType": "bytes32",
          "name": "",
          "type": "bytes32"
        }
      ],
      "stateMutability": "view",
      "type": "function"
    },
    {
      "inputs": [
        {
          "internalType": "uint256",
          "name": "proposalStart",
          "type": "uint256"
        },
        {
          "internalType": "address",
          "name": "voter",
          "type": "address"
        },
        {
          "internalType": "uint256",
          "name": "votes",
          "type": "uint256"
        },
        {
          "internalType": "uint256",
          "name": "votePower",
          "type": "uint256"
        }
      ],
      "name": "registerVote",
      "outputs": [],
      "stateMutability": "nonpayable",
      "type": "function"
    },
    {
      "inputs": [
        {
          "internalType": "bytes32",
          "name": "role",
          "type": "bytes32"
        },
        {
          "internalType": "address",
          "name": "callerConfirmation",
          "type": "address"
        }
      ],
      "name": "renounceRole",
      "outputs": [],
      "stateMutability": "nonpayable",
      "type": "function"
    },
    {
      "inputs": [
        {
          "internalType": "bytes32",
          "name": "role",
          "type": "bytes32"
        },
        {
          "internalType": "address",
          "name": "account",
          "type": "address"
        }
      ],
      "name": "revokeRole",
      "outputs": [],
      "stateMutability": "nonpayable",
      "type": "function"
    },
    {
      "inputs": [
        {
          "internalType": "address",
          "name": "_emissions",
          "type": "address"
        }
      ],
      "name": "setEmissions",
      "outputs": [],
      "stateMutability": "nonpayable",
      "type": "function"
    },
    {
      "inputs": [
        {
          "internalType": "address",
          "name": "_galaxyMember",
          "type": "address"
        }
      ],
      "name": "setGalaxyMember",
      "outputs": [],
      "stateMutability": "nonpayable",
      "type": "function"
    },
    {
      "inputs": [
        {
          "internalType": "uint256",
          "name": "level",
          "type": "uint256"
        },
        {
          "internalType": "uint256",
          "name": "multiplier",
          "type": "uint256"
        }
      ],
      "name": "setLevelToMultiplier",
      "outputs": [],
      "stateMutability": "nonpayable",
      "type": "function"
    },
    {
      "inputs": [
        {
          "internalType": "bytes4",
          "name": "interfaceId",
          "type": "bytes4"
        }
      ],
      "name": "supportsInterface",
      "outputs": [
        {
          "internalType": "bool",
          "name": "",
          "type": "bool"
        }
      ],
      "stateMutability": "view",
      "type": "function"
    },
    {
      "inputs": [
        {
          "internalType": "address",
          "name": "newImplementation",
          "type": "address"
        },
        {
          "internalType": "bytes",
          "name": "data",
          "type": "bytes"
        }
      ],
      "name": "upgradeToAndCall",
      "outputs": [],
      "stateMutability": "payable",
      "type": "function"
    },
    {
      "inputs": [],
      "name": "version",
      "outputs": [
        {
          "internalType": "string",
          "name": "",
          "type": "string"
        }
      ],
      "stateMutability": "pure",
      "type": "function"
    }
  ],
  "bytecode": "0x60a06040523060805234801561001457600080fd5b5061001d610022565b6100d4565b7ff0c57e16840df040f15088dc2f81fe391c3923bec73e23a9662efc9c229c6a00805468010000000000000000900460ff16156100725760405163f92ee8a960e01b815260040160405180910390fd5b80546001600160401b03908116146100d15780546001600160401b0319166001600160401b0390811782556040519081527fc7f505b2f371ae2175ee4913f4499e1f2633a7b5936321eed1cdaeb6115181d29060200160405180910390a15b50565b6080516121cc620000fe6000396000818161172e01528181611757015261189f01526121cc6000f3fe6080604052600436106101465760003560e01c80628f33d71461014b57806301ffc9a71461017e57806308834ee7146101ae5780630dd3729c146101d0578063105fe500146101f05780632267716c146102105780632325e4b914610232578063248a9ca3146102475780632f18339d146102675780632f2ff15d1461028757806336568abe146102a75780634f1ef286146102c757806352d1902d146102da57806354fd4d50146102ef578063582a486a146103225780635fdc17521461033757806391d1485414610357578063952f213314610377578063a217fddf14610399578063ad3cb1cc146103ae578063ae0b8da8146103df578063b0b3de89146103ff578063c208b4e71461041f578063d547741f1461043f578063de7fd1331461045f578063e70eb39214610481578063ef4cadc5146104a1578063f72c0d8b146104b8575b600080fd5b34801561015757600080fd5b5061016b610166366004611b9c565b6104da565b6040519081526020015b60405180910390f35b34801561018a57600080fd5b5061019e610199366004611bc8565b61063f565b6040519015158152602001610175565b3480156101ba57600080fd5b506101ce6101c9366004611bf2565b610674565b005b3480156101dc57600080fd5b506101ce6101eb366004611cd2565b610722565b3480156101fc57600080fd5b5061016b61020b366004611b9c565b610b2d565b34801561021c57600080fd5b50610225610b63565b6040516101759190611d99565b34801561023e57600080fd5b50610225610b81565b34801561025357600080fd5b5061016b610262366004611dad565b610b9c565b34801561027357600080fd5b506101ce610282366004611dc6565b610bbc565b34801561029357600080fd5b506101ce6102a2366004611b9c565b610e69565b3480156102b357600080fd5b506101ce6102c2366004611b9c565b610e8b565b6101ce6102d5366004611e01565b610ec3565b3480156102e657600080fd5b5061016b610ee2565b3480156102fb57600080fd5b506040805180820190915260018152603160f81b60208201525b6040516101759190611eca565b34801561032e57600080fd5b50610225610eff565b34801561034357600080fd5b5061016b610352366004611dad565b610f1d565b34801561036357600080fd5b5061019e610372366004611b9c565b610f3d565b34801561038357600080fd5b5061016b60008051602061215783398151915281565b3480156103a557600080fd5b5061016b600081565b3480156103ba57600080fd5b50610315604051806040016040528060058152602001640352e302e360dc1b81525081565b3480156103eb57600080fd5b506101ce6103fa366004611bf2565b610f73565b34801561040b57600080fd5b506101ce61041a366004611efd565b61101b565b34801561042b57600080fd5b5061016b61043a366004611dad565b611153565b34801561044b57600080fd5b506101ce61045a366004611b9c565b611173565b34801561046b57600080fd5b5061016b60008051602061217783398151915281565b34801561048d57600080fd5b506101ce61049c366004611b9c565b61118f565b3480156104ad57600080fd5b5061016b620f424081565b3480156104c457600080fd5b5061016b60008051602061211783398151915281565b6000806104e5611577565b600085815260058201602090815260408083206001600160a01b0388811685529083528184205489855260048087019094528285205460028701549351633542e90360e01b81529485018b9052959650949392911690633542e90390602401602060405180830381865afa158015610561573d6000803e3d6000fd5b505050506040513d601f19601f820116820180604052508101906105859190611f1f565b9050600081116105f95760405162461bcd60e51b815260206004820152603460248201527f566f746572526577617264733a20656d697373696f6e73416d6f756e74206d75604482015273073742062652067726561746572207468616e20360641b60648201526084015b60405180910390fd5b6000620f42406106098386611f4e565b6106139190611f4e565b905060006106218483611f65565b9050610630620f424082611f65565b96505050505050505b92915050565b60006001600160e01b03198216637965db0b60e01b148061063957506301ffc9a760e01b6001600160e01b0319831614610639565b60008051602061215783398151915261068c8161159b565b6001600160a01b0382166106b25760405162461bcd60e51b81526004016105f090611f87565b60006106bc611577565b60028101546040519192506001600160a01b0390811691908516907fee0bb99897b3f409686cb6e56601a38cea38e9e00d9b28752b3be7b28ea8b0ad90600090a360020180546001600160a01b0319166001600160a01b03939093169290921790915550565b600061072c6115a8565b805490915060ff600160401b82041615906001600160401b03166000811580156107535750825b90506000826001600160401b0316600114801561076f5750303b155b90508115801561077d575080155b1561079b5760405163f92ee8a960e01b815260040160405180910390fd5b84546001600160401b031916600117855583156107c457845460ff60401b1916600160401b1785555b6001600160a01b0389166107ea5760405162461bcd60e51b81526004016105f090611fd9565b6001600160a01b038a166108105760405162461bcd60e51b81526004016105f090611f87565b6001600160a01b03881661087d5760405162461bcd60e51b815260206004820152602e60248201527f566f746572526577617264733a205f623374722063616e6e6f7420626520746860448201526d65207a65726f206164647265737360901b60648201526084016105f0565b60008751116108ea5760405162461bcd60e51b815260206004820152603360248201527f566f746572526577617264733a206c6576656c73206d757374206861766520616044820152721d081b19585cdd081bdb9948195b195b595b9d606a1b60648201526084016105f0565b85518751146109615760405162461bcd60e51b815260206004820152603e60248201527f566f746572526577617264733a206c6576656c7320616e64206d756c7469706c60448201527f69657273206d7573742068617665207468652073616d65206c656e677468000060648201526084016105f0565b6109696115cc565b6109716115d6565b6109796115cc565b6000610983611577565b80546001600160a01b03808d166001600160a01b03199283161783556001830180548d8316908416179055600283018054918f1691909216179055905060005b8851811015610a2b578781815181106109de576109de61202f565b60200260200101518260030160008b84815181106109fe576109fe61202f565b60200260200101518152602001908152602001600020819055508080610a2390612045565b9150506109c3565b506001600160a01b038e16610a995760405162461bcd60e51b815260206004820152602e60248201527f566f746572526577617264733a2061646d696e2063616e6e6f7420626520746860448201526d65207a65726f206164647265737360901b60648201526084016105f0565b610aa460008f6115e6565b50610abd6000805160206121178339815191528e6115e6565b50610ad66000805160206121578339815191528d6115e6565b50508315610b1e57845460ff60401b19168555604051600181527fc7f505b2f371ae2175ee4913f4499e1f2633a7b5936321eed1cdaeb6115181d29060200160405180910390a15b50505050505050505050505050565b600080610b38611577565b6000948552600501602090815260408086206001600160a01b03959095168652939052505090205490565b600080610b6e611577565b600201546001600160a01b031692915050565b600080610b8c611577565b546001600160a01b031692915050565b600080610ba7611687565b60009384526020525050604090206001015490565b600080516020612177833981519152610bd48161159b565b8115610e625760008511610c455760405162461bcd60e51b815260206004820152603260248201527f566f746572526577617264733a2070726f706f73616c5374617274206d75737460448201527102062652067726561746572207468616e20360741b60648201526084016105f0565b6001600160a01b038416610c6b5760405162461bcd60e51b81526004016105f09061205e565b6000610c75611577565b905060008160020160009054906101000a90046001600160a01b03166001600160a01b031663be26ed7f6040518163ffffffff1660e01b8152600401602060405180830381865afa158015610cce573d6000803e3d6000fd5b505050506040513d601f19601f82011682018060405250810190610cf29190611f1f565b825460405163d325d4ed60e01b81529192506000916001600160a01b039091169063d325d4ed90610d29908a908c906004016120ac565b602060405180830381865afa158015610d46573d6000803e3d6000fd5b505050506040513d601f19601f82011682018060405250810190610d6a9190611f1f565b6000818152600385016020526040812054919250610d8c87633b9aca00611f4e565b905060006064610d9c8484611f4e565b610da69190611f65565b610db090836120c5565b9050808660040160008781526020019081526020016000206000828254610dd791906120c5565b9091555050600085815260058701602090815260408083206001600160a01b038e16845290915281208054839290610e109084906120c5565b9091555050604080518a8152602081018390526001600160a01b038c169187917fac45cfd9cf13dd2e8b216503a1ca26d9f2a35e9a6b4b1b5cecc415db06ddf63f910160405180910390a35050505050505b5050505050565b610e7282610b9c565b610e7b8161159b565b610e8583836115e6565b50505050565b6001600160a01b0381163314610eb45760405163334bd91960e11b815260040160405180910390fd5b610ebe82826116ab565b505050565b610ecb611723565b610ed4826117c8565b610ede82826117e0565b5050565b6000610eec611894565b5060008051602061213783398151915290565b600080610f0a611577565b600101546001600160a01b031692915050565b600080610f28611577565b60009384526003016020525050604090205490565b600080610f48611687565b6000948552602090815260408086206001600160a01b03959095168652939052505090205460ff1690565b600080516020612157833981519152610f8b8161159b565b6001600160a01b038216610fb15760405162461bcd60e51b81526004016105f090611fd9565b6000610fbb611577565b80546040519192506001600160a01b0390811691908516907f3e9cacccd727006bc0e1f6b190b46b34090f490cd3ab7e45f3ac7a9cfeda63ff90600090a380546001600160a01b0319166001600160a01b03939093169290921790915550565b60006110268161159b565b600083116110895760405162461bcd60e51b815260206004820152602a60248201527f566f746572526577617264733a206c6576656c206d75737420626520677265616044820152690746572207468616e20360b41b60648201526084016105f0565b600082116110f15760405162461bcd60e51b815260206004820152602f60248201527f566f746572526577617264733a206d756c7469706c696572206d75737420626560448201526e02067726561746572207468616e203608c1b60648201526084016105f0565b60006110fb611577565b6000858152600382016020526040908190208590555190915084907fcc259987543a764767934b4d714760c68fdeb2ba8318210d9802cf66ae854001906111459086815260200190565b60405180910390a250505050565b60008061115e611577565b60009384526004016020525050604090205490565b61117c82610b9c565b6111858161159b565b610e8583836116ab565b6111976118dd565b600082116111fa5760405162461bcd60e51b815260206004820152602a60248201527f566f746572526577617264733a206379636c65206d75737420626520677265616044820152690746572207468616e20360b41b60648201526084016105f0565b6001600160a01b0381166112205760405162461bcd60e51b81526004016105f09061205e565b600061122a611577565b600281015460405163e52ef17f60e01b8152600481018690529192506001600160a01b03169063e52ef17f90602401602060405180830381865afa158015611276573d6000803e3d6000fd5b505050506040513d601f19601f8201168201806040525081019061129a91906120d8565b6112f05760405162461bcd60e51b815260206004820152602160248201527f566f746572526577617264733a206379636c65206d75737420626520656e64656044820152601960fa1b60648201526084016105f0565b60006112fc84846104da565b9050600081116113625760405162461bcd60e51b815260206004820152602b60248201527f566f746572526577617264733a20726577617264206d7573742062652067726560448201526a061746572207468616e20360ac1b60648201526084016105f0565b60018201546040516370a0823160e01b815282916001600160a01b0316906370a0823190611394903090600401611d99565b602060405180830381865afa1580156113b1573d6000803e3d6000fd5b505050506040513d601f19601f820116820180604052508101906113d59190611f1f565b10156114475760405162461bcd60e51b815260206004820152603b60248201527f566f746572526577617264733a206e6f7420656e6f756768204233545220696e60448201527a081d1a194818dbdb9d1c9858dd081d1bc81c185e481c995dd85c99602a1b60648201526084016105f0565b600084815260058301602090815260408083206001600160a01b0380881685529252808320929092556001840154915163a9059cbb60e01b815291169063a9059cbb9061149a90869085906004016120ac565b6020604051808303816000875af11580156114b9573d6000803e3d6000fd5b505050506040513d601f19601f820116820180604052508101906114dd91906120d8565b6115295760405162461bcd60e51b815260206004820152601d60248201527f566f746572526577617264733a207472616e73666572206661696c656400000060448201526064016105f0565b826001600160a01b0316847f24b5efa61dd1cfc659205a97fb8ed868f3cb8c81922bab2b96423e5de1de2cb78360405161156591815260200190565b60405180910390a35050610ede611913565b7f114e7ffaaf205d38cd05b17b56f3357806ef2ce889cb4748445ae91cdfc37c0090565b6115a58133611924565b50565b7ff0c57e16840df040f15088dc2f81fe391c3923bec73e23a9662efc9c229c6a0090565b6115d461194f565b565b6115de61194f565b6115d4611974565b6000806115f1611687565b90506115fd8484610f3d565b61167d576000848152602082815260408083206001600160a01b03871684529091529020805460ff191660011790556116333390565b6001600160a01b0316836001600160a01b0316857f2f8788117e7eff1d82e926ec794901d17c78024a50270940304540a733656f0d60405160405180910390a46001915050610639565b6000915050610639565b7f02dd7bc7dec4dceedda775e58dd541e08a116c6c53815c0bd028192f7b62680090565b6000806116b6611687565b90506116c28484610f3d565b1561167d576000848152602082815260408083206001600160a01b0387168085529252808320805460ff1916905551339287917ff6391f5c32d9c69d2a47ea670b442974b53935d1edc7fd64eb21e047a839171b9190a46001915050610639565b306001600160a01b037f00000000000000000000000000000000000000000000000000000000000000001614806117aa57507f00000000000000000000000000000000000000000000000000000000000000006001600160a01b031661179e600080516020612137833981519152546001600160a01b031690565b6001600160a01b031614155b156115d45760405163703e46dd60e11b815260040160405180910390fd5b600080516020612117833981519152610ede8161159b565b816001600160a01b03166352d1902d6040518163ffffffff1660e01b8152600401602060405180830381865afa92505050801561183a575060408051601f3d908101601f1916820190925261183791810190611f1f565b60015b6118595781604051634c9c8ce360e01b81526004016105f09190611d99565b600080516020612137833981519152811461188a57604051632a87526960e21b8152600481018290526024016105f0565b610ebe838361197c565b306001600160a01b037f000000000000000000000000000000000000000000000000000000000000000016146115d45760405163703e46dd60e11b815260040160405180910390fd5b60006118e76119d2565b80549091506001190161190d57604051633ee5aeb560e01b815260040160405180910390fd5b60029055565b600061191d6119d2565b6001905550565b61192e8282610f3d565b610ede57808260405163e2517d3f60e01b81526004016105f09291906120ac565b6119576119f6565b6115d457604051631afcd79f60e31b815260040160405180910390fd5b61191361194f565b61198582611a10565b6040516001600160a01b038316907fbc7cd75a20ee27fd9adebab32041f755214dbc6bffa90cc0225b39da2e5c2d3b90600090a28051156119ca57610ebe8282611a6c565b610ede611ae2565b7f9b779b17422d0df92223018b32b4d1fa46e071723d6817e2486d003becc55f0090565b6000611a006115a8565b54600160401b900460ff16919050565b806001600160a01b03163b600003611a3d5780604051634c9c8ce360e01b81526004016105f09190611d99565b60008051602061213783398151915280546001600160a01b0319166001600160a01b0392909216919091179055565b6060600080846001600160a01b031684604051611a8991906120fa565b600060405180830381855af49150503d8060008114611ac4576040519150601f19603f3d011682016040523d82523d6000602084013e611ac9565b606091505b5091509150611ad9858383611b01565b95945050505050565b34156115d45760405163b398979f60e01b815260040160405180910390fd5b606082611b1657611b1182611b57565b611b50565b8151158015611b2d57506001600160a01b0384163b155b15611b4d5783604051639996b31560e01b81526004016105f09190611d99565b50805b9392505050565b805115611b675780518082602001fd5b604051630a12f52160e11b815260040160405180910390fd5b80356001600160a01b0381168114611b9757600080fd5b919050565b60008060408385031215611baf57600080fd5b82359150611bbf60208401611b80565b90509250929050565b600060208284031215611bda57600080fd5b81356001600160e01b031981168114611b5057600080fd5b600060208284031215611c0457600080fd5b611b5082611b80565b634e487b7160e01b600052604160045260246000fd5b604051601f8201601f191681016001600160401b0381118282101715611c4b57611c4b611c0d565b604052919050565b600082601f830112611c6457600080fd5b813560206001600160401b03821115611c7f57611c7f611c0d565b8160051b611c8e828201611c23565b9283528481018201928281019087851115611ca857600080fd5b83870192505b84831015611cc757823582529183019190830190611cae565b979650505050505050565b600080600080600080600080610100898b031215611cef57600080fd5b611cf889611b80565b9750611d0660208a01611b80565b9650611d1460408a01611b80565b9550611d2260608a01611b80565b9450611d3060808a01611b80565b9350611d3e60a08a01611b80565b925060c08901356001600160401b0380821115611d5a57600080fd5b611d668c838d01611c53565b935060e08b0135915080821115611d7c57600080fd5b50611d898b828c01611c53565b9150509295985092959890939650565b6001600160a01b0391909116815260200190565b600060208284031215611dbf57600080fd5b5035919050565b60008060008060808587031215611ddc57600080fd5b84359350611dec60208601611b80565b93969395505050506040820135916060013590565b60008060408385031215611e1457600080fd5b611e1d83611b80565b91506020838101356001600160401b0380821115611e3a57600080fd5b818601915086601f830112611e4e57600080fd5b813581811115611e6057611e60611c0d565b611e72601f8201601f19168501611c23565b91508082528784828501011115611e8857600080fd5b80848401858401376000848284010152508093505050509250929050565b60005b83811015611ec1578181015183820152602001611ea9565b50506000910152565b6020815260008251806020840152611ee9816040850160208701611ea6565b601f01601f19169190910160400192915050565b60008060408385031215611f1057600080fd5b50508035926020909101359150565b600060208284031215611f3157600080fd5b5051919050565b634e487b7160e01b600052601160045260246000fd5b808202811582820484141761063957610639611f38565b600082611f8257634e487b7160e01b600052601260045260246000fd5b500490565b60208082526032908201527f566f746572526577617264733a20656d697373696f6e732063616e6e6f7420626040820152716520746865207a65726f206164647265737360701b606082015260800190565b60208082526036908201527f566f746572526577617264733a205f67616c6178794d656d6265722063616e6e6040820152756f7420626520746865207a65726f206164647265737360501b606082015260800190565b634e487b7160e01b600052603260045260246000fd5b60006001820161205757612057611f38565b5060010190565b6020808252602e908201527f566f746572526577617264733a20766f7465722063616e6e6f7420626520746860408201526d65207a65726f206164647265737360901b606082015260800190565b6001600160a01b03929092168252602082015260400190565b8082018082111561063957610639611f38565b6000602082840312156120ea57600080fd5b81518015158114611b5057600080fd5b6000825161210c818460208701611ea6565b919091019291505056fe189ab7a9244df0848122154315af71fe140f3db0fe014031783b0946b8c9d2e3360894a13ba1a3210667c828492db98dca3e2076cc3735a920a3ca505d382bbc56af926aa3845d4dc63a6c773ed36f51794728c97ebcd1bf845bcecb16eeb6b779e0a786be046868ec7a47625dff81941dbb889bcb3efd61d7ece9a9b92e2279a26469706673582212201985de950996c5cc9fd304c7f4fb650b6c16dacf5ca8cd09a82041343475e7e764736f6c63430008140033",
  "linkReferences": {},
  "deployedLinkReferences": {}
}