{
  "_format": "hh-sol-artifact-1",
  "contractName": "X2EarnRewardsPoolV1",
  "sourceName": "contracts/deprecated/V1/X2EarnRewardsPoolV1.sol",
  "abi": [
    {
      "inputs": [],
      "stateMutability": "nonpayable",
      "type": "constructor"
    },
    {
      "inputs": [],
      "name": "AccessControlBadConfirmation",
      "type": "error"
    },
    {
      "inputs": [
        {
          "internalType": "address",
          "name": "account",
          "type": "address"
        },
        {
          "internalType": "bytes32",
          "name": "neededRole",
          "type": "bytes32"
        }
      ],
      "name": "AccessControlUnauthorizedAccount",
      "type": "error"
    },
    {
      "inputs": [
        {
          "internalType": "address",
          "name": "target",
          "type": "address"
        }
      ],
      "name": "AddressEmptyCode",
      "type": "error"
    },
    {
      "inputs": [
        {
          "internalType": "address",
          "name": "implementation",
          "type": "address"
        }
      ],
      "name": "ERC1967InvalidImplementation",
      "type": "error"
    },
    {
      "inputs": [],
      "name": "ERC1967NonPayable",
      "type": "error"
    },
    {
      "inputs": [],
      "name": "FailedInnerCall",
      "type": "error"
    },
    {
      "inputs": [],
      "name": "InvalidInitialization",
      "type": "error"
    },
    {
      "inputs": [],
      "name": "NotInitializing",
      "type": "error"
    },
    {
      "inputs": [],
      "name": "ReentrancyGuardReentrantCall",
      "type": "error"
    },
    {
      "inputs": [],
      "name": "UUPSUnauthorizedCallContext",
      "type": "error"
    },
    {
      "inputs": [
        {
          "internalType": "bytes32",
          "name": "slot",
          "type": "bytes32"
        }
      ],
      "name": "UUPSUnsupportedProxiableUUID",
      "type": "error"
    },
    {
      "anonymous": false,
      "inputs": [
        {
          "indexed": false,
          "internalType": "uint64",
          "name": "version",
          "type": "uint64"
        }
      ],
      "name": "Initialized",
      "type": "event"
    },
    {
      "anonymous": false,
      "inputs": [
        {
          "indexed": false,
          "internalType": "uint256",
          "name": "amount",
          "type": "uint256"
        },
        {
          "indexed": true,
          "internalType": "bytes32",
          "name": "appId",
          "type": "bytes32"
        },
        {
          "indexed": true,
          "internalType": "address",
          "name": "depositor",
          "type": "address"
        }
      ],
      "name": "NewDeposit",
      "type": "event"
    },
    {
      "anonymous": false,
      "inputs": [
        {
          "indexed": false,
          "internalType": "uint256",
          "name": "amount",
          "type": "uint256"
        },
        {
          "indexed": true,
          "internalType": "bytes32",
          "name": "appId",
          "type": "bytes32"
        },
        {
          "indexed": true,
          "internalType": "address",
          "name": "receiver",
          "type": "address"
        },
        {
          "indexed": false,
          "internalType": "string",
          "name": "proof",
          "type": "string"
        },
        {
          "indexed": true,
          "internalType": "address",
          "name": "distributor",
          "type": "address"
        }
      ],
      "name": "RewardDistributed",
      "type": "event"
    },
    {
      "anonymous": false,
      "inputs": [
        {
          "indexed": true,
          "internalType": "bytes32",
          "name": "role",
          "type": "bytes32"
        },
        {
          "indexed": true,
          "internalType": "bytes32",
          "name": "previousAdminRole",
          "type": "bytes32"
        },
        {
          "indexed": true,
          "internalType": "bytes32",
          "name": "newAdminRole",
          "type": "bytes32"
        }
      ],
      "name": "RoleAdminChanged",
      "type": "event"
    },
    {
      "anonymous": false,
      "inputs": [
        {
          "indexed": true,
          "internalType": "bytes32",
          "name": "role",
          "type": "bytes32"
        },
        {
          "indexed": true,
          "internalType": "address",
          "name": "account",
          "type": "address"
        },
        {
          "indexed": true,
          "internalType": "address",
          "name": "sender",
          "type": "address"
        }
      ],
      "name": "RoleGranted",
      "type": "event"
    },
    {
      "anonymous": false,
      "inputs": [
        {
          "indexed": true,
          "internalType": "bytes32",
          "name": "role",
          "type": "bytes32"
        },
        {
          "indexed": true,
          "internalType": "address",
          "name": "account",
          "type": "address"
        },
        {
          "indexed": true,
          "internalType": "address",
          "name": "sender",
          "type": "address"
        }
      ],
      "name": "RoleRevoked",
      "type": "event"
    },
    {
      "anonymous": false,
      "inputs": [
        {
          "indexed": false,
          "internalType": "uint256",
          "name": "amount",
          "type": "uint256"
        },
        {
          "indexed": true,
          "internalType": "bytes32",
          "name": "appId",
          "type": "bytes32"
        },
        {
          "indexed": true,
          "internalType": "address",
          "name": "teamWallet",
          "type": "address"
        },
        {
          "indexed": false,
          "internalType": "address",
          "name": "withdrawer",
          "type": "address"
        },
        {
          "indexed": false,
          "internalType": "string",
          "name": "reason",
          "type": "string"
        }
      ],
      "name": "TeamWithdrawal",
      "type": "event"
    },
    {
      "anonymous": false,
      "inputs": [
        {
          "indexed": true,
          "internalType": "address",
          "name": "implementation",
          "type": "address"
        }
      ],
      "name": "Upgraded",
      "type": "event"
    },
    {
      "stateMutability": "payable",
      "type": "fallback"
    },
    {
      "inputs": [],
      "name": "CONTRACTS_ADDRESS_MANAGER_ROLE",
      "outputs": [
        {
          "internalType": "bytes32",
          "name": "",
          "type": "bytes32"
        }
      ],
      "stateMutability": "view",
      "type": "function"
    },
    {
      "inputs": [],
      "name": "DEFAULT_ADMIN_ROLE",
      "outputs": [
        {
          "internalType": "bytes32",
          "name": "",
          "type": "bytes32"
        }
      ],
      "stateMutability": "view",
      "type": "function"
    },
    {
      "inputs": [],
      "name": "UPGRADER_ROLE",
      "outputs": [
        {
          "internalType": "bytes32",
          "name": "",
          "type": "bytes32"
        }
      ],
      "stateMutability": "view",
      "type": "function"
    },
    {
      "inputs": [],
      "name": "UPGRADE_INTERFACE_VERSION",
      "outputs": [
        {
          "internalType": "string",
          "name": "",
          "type": "string"
        }
      ],
      "stateMutability": "view",
      "type": "function"
    },
    {
      "inputs": [
        {
          "internalType": "bytes32",
          "name": "appId",
          "type": "bytes32"
        }
      ],
      "name": "availableFunds",
      "outputs": [
        {
          "internalType": "uint256",
          "name": "",
          "type": "uint256"
        }
      ],
      "stateMutability": "view",
      "type": "function"
    },
    {
      "inputs": [],
      "name": "b3tr",
      "outputs": [
        {
          "internalType": "contract IB3TR",
          "name": "",
          "type": "address"
        }
      ],
      "stateMutability": "view",
      "type": "function"
    },
    {
      "inputs": [
        {
          "internalType": "uint256",
          "name": "amount",
          "type": "uint256"
        },
        {
          "internalType": "bytes32",
          "name": "appId",
          "type": "bytes32"
        }
      ],
      "name": "deposit",
      "outputs": [
        {
          "internalType": "bool",
          "name": "",
          "type": "bool"
        }
      ],
      "stateMutability": "nonpayable",
      "type": "function"
    },
    {
      "inputs": [
        {
          "internalType": "bytes32",
          "name": "appId",
          "type": "bytes32"
        },
        {
          "internalType": "uint256",
          "name": "amount",
          "type": "uint256"
        },
        {
          "internalType": "address",
          "name": "receiver",
          "type": "address"
        },
        {
          "internalType": "string",
          "name": "proof",
          "type": "string"
        }
      ],
      "name": "distributeReward",
      "outputs": [],
      "stateMutability": "nonpayable",
      "type": "function"
    },
    {
      "inputs": [
        {
          "internalType": "bytes32",
          "name": "role",
          "type": "bytes32"
        }
      ],
      "name": "getRoleAdmin",
      "outputs": [
        {
          "internalType": "bytes32",
          "name": "",
          "type": "bytes32"
        }
      ],
      "stateMutability": "view",
      "type": "function"
    },
    {
      "inputs": [
        {
          "internalType": "bytes32",
          "name": "role",
          "type": "bytes32"
        },
        {
          "internalType": "address",
          "name": "account",
          "type": "address"
        }
      ],
      "name": "grantRole",
      "outputs": [],
      "stateMutability": "nonpayable",
      "type": "function"
    },
    {
      "inputs": [
        {
          "internalType": "bytes32",
          "name": "role",
          "type": "bytes32"
        },
        {
          "internalType": "address",
          "name": "account",
          "type": "address"
        }
      ],
      "name": "hasRole",
      "outputs": [
        {
          "internalType": "bool",
          "name": "",
          "type": "bool"
        }
      ],
      "stateMutability": "view",
      "type": "function"
    },
    {
      "inputs": [
        {
          "internalType": "address",
          "name": "_admin",
          "type": "address"
        },
        {
          "internalType": "address",
          "name": "_contractsManagerAdmin",
          "type": "address"
        },
        {
          "internalType": "address",
          "name": "_upgrader",
          "type": "address"
        },
        {
          "internalType": "contract IB3TR",
          "name": "_b3tr",
          "type": "address"
        },
        {
          "internalType": "contract IX2EarnApps",
          "name": "_x2EarnApps",
          "type": "address"
        }
      ],
      "name": "initialize",
      "outputs": [],
      "stateMutability": "nonpayable",
      "type": "function"
    },
    {
      "inputs": [
        {
          "internalType": "address",
          "name": "",
          "type": "address"
        },
        {
          "internalType": "address",
          "name": "",
          "type": "address"
        },
        {
          "internalType": "uint256[]",
          "name": "",
          "type": "uint256[]"
        },
        {
          "internalType": "uint256[]",
          "name": "",
          "type": "uint256[]"
        },
        {
          "internalType": "bytes",
          "name": "",
          "type": "bytes"
        }
      ],
      "name": "onERC1155BatchReceived",
      "outputs": [
        {
          "internalType": "bytes4",
          "name": "",
          "type": "bytes4"
        }
      ],
      "stateMutability": "nonpayable",
      "type": "function"
    },
    {
      "inputs": [
        {
          "internalType": "address",
          "name": "",
          "type": "address"
        },
        {
          "internalType": "address",
          "name": "",
          "type": "address"
        },
        {
          "internalType": "uint256",
          "name": "",
          "type": "uint256"
        },
        {
          "internalType": "uint256",
          "name": "",
          "type": "uint256"
        },
        {
          "internalType": "bytes",
          "name": "",
          "type": "bytes"
        }
      ],
      "name": "onERC1155Received",
      "outputs": [
        {
          "internalType": "bytes4",
          "name": "",
          "type": "bytes4"
        }
      ],
      "stateMutability": "nonpayable",
      "type": "function"
    },
    {
      "inputs": [
        {
          "internalType": "address",
          "name": "",
          "type": "address"
        },
        {
          "internalType": "address",
          "name": "",
          "type": "address"
        },
        {
          "internalType": "uint256",
          "name": "",
          "type": "uint256"
        },
        {
          "internalType": "bytes",
          "name": "",
          "type": "bytes"
        }
      ],
      "name": "onERC721Received",
      "outputs": [
        {
          "internalType": "bytes4",
          "name": "",
          "type": "bytes4"
        }
      ],
      "stateMutability": "nonpayable",
      "type": "function"
    },
    {
      "inputs": [],
      "name": "proxiableUUID",
      "outputs": [
        {
          "internalType": "bytes32",
          "name": "",
          "type": "bytes32"
        }
      ],
      "stateMutability": "view",
      "type": "function"
    },
    {
      "inputs": [
        {
          "internalType": "bytes32",
          "name": "role",
          "type": "bytes32"
        },
        {
          "internalType": "address",
          "name": "callerConfirmation",
          "type": "address"
        }
      ],
      "name": "renounceRole",
      "outputs": [],
      "stateMutability": "nonpayable",
      "type": "function"
    },
    {
      "inputs": [
        {
          "internalType": "bytes32",
          "name": "role",
          "type": "bytes32"
        },
        {
          "internalType": "address",
          "name": "account",
          "type": "address"
        }
      ],
      "name": "revokeRole",
      "outputs": [],
      "stateMutability": "nonpayable",
      "type": "function"
    },
    {
      "inputs": [
        {
          "internalType": "contract IX2EarnApps",
          "name": "_x2EarnApps",
          "type": "address"
        }
      ],
      "name": "setX2EarnApps",
      "outputs": [],
      "stateMutability": "nonpayable",
      "type": "function"
    },
    {
      "inputs": [
        {
          "internalType": "bytes4",
          "name": "interfaceId",
          "type": "bytes4"
        }
      ],
      "name": "supportsInterface",
      "outputs": [
        {
          "internalType": "bool",
          "name": "",
          "type": "bool"
        }
      ],
      "stateMutability": "view",
      "type": "function"
    },
    {
      "inputs": [
        {
          "internalType": "address",
          "name": "newImplementation",
          "type": "address"
        },
        {
          "internalType": "bytes",
          "name": "data",
          "type": "bytes"
        }
      ],
      "name": "upgradeToAndCall",
      "outputs": [],
      "stateMutability": "payable",
      "type": "function"
    },
    {
      "inputs": [],
      "name": "version",
      "outputs": [
        {
          "internalType": "string",
          "name": "",
          "type": "string"
        }
      ],
      "stateMutability": "pure",
      "type": "function"
    },
    {
      "inputs": [
        {
          "internalType": "uint256",
          "name": "amount",
          "type": "uint256"
        },
        {
          "internalType": "bytes32",
          "name": "appId",
          "type": "bytes32"
        },
        {
          "internalType": "string",
          "name": "reason",
          "type": "string"
        }
      ],
      "name": "withdraw",
      "outputs": [],
      "stateMutability": "nonpayable",
      "type": "function"
    },
    {
      "inputs": [],
      "name": "x2EarnApps",
      "outputs": [
        {
          "internalType": "contract IX2EarnApps",
          "name": "",
          "type": "address"
        }
      ],
      "stateMutability": "view",
      "type": "function"
    },
    {
      "stateMutability": "payable",
      "type": "receive"
    }
  ],
  "bytecode": "0x60a06040523060805234801561001457600080fd5b5061001d610022565b6100d4565b7ff0c57e16840df040f15088dc2f81fe391c3923bec73e23a9662efc9c229c6a00805468010000000000000000900460ff16156100725760405163f92ee8a960e01b815260040160405180910390fd5b80546001600160401b03908116146100d15780546001600160401b0319166001600160401b0390811782556040519081527fc7f505b2f371ae2175ee4913f4499e1f2633a7b5936321eed1cdaeb6115181d29060200160405180910390a15b50565b6080516123ab620000fe600039600081816116a5015281816116ce015261181601526123ab6000f3fe60806040526004361061011f5760003560e01c806301ffc9a7146101cc5780631459457a14610201578063150b7a0214610223578063248a9ca31461025c5780632f2ff15d1461028a57806333653f5d146102aa57806336568abe146102cc57806340a6fc0b146102ec5780634f1ef2861461030c57806352d1902d1461031f57806354fd4d5014610334578063582a486a1461036757806391d148541461037c578063952f21331461039c578063a217fddf146103be578063ad3cb1cc146103d3578063bc197c8114610404578063c9630cb014610424578063cfe706b314610444578063d547741f14610464578063f23a6e6114610484578063f2744334146104a4578063f72c0d8b146104c4578063f7335f11146104e657610177565b366101775760405162461bcd60e51b815260206004820152602f602482015260008051602061235683398151915260448201526e081b9bdd081858d8d95c1d08159155608a1b60648201526084015b60405180910390fd5b60405162461bcd60e51b81526020600482015260366024820152600080516020612356833981519152604482015275206e6f74206163636570742063616c6c732f6461746160501b606482015260840161016e565b3480156101d857600080fd5b506101ec6101e7366004611af7565b610506565b60405190151581526020015b60405180910390f35b34801561020d57600080fd5b5061022161021c366004611b36565b61053d565b005b34801561022f57600080fd5b5061024361023e366004611c5c565b6108a7565b6040516001600160e01b031990911681526020016101f8565b34801561026857600080fd5b5061027c610277366004611cc7565b610902565b6040519081526020016101f8565b34801561029657600080fd5b506102216102a5366004611ce0565b610922565b3480156102b657600080fd5b506102bf610944565b6040516101f89190611d10565b3480156102d857600080fd5b506102216102e7366004611ce0565b610962565b3480156102f857600080fd5b50610221610307366004611d24565b61099a565b61022161031a366004611d41565b610a08565b34801561032b57600080fd5b5061027c610a27565b34801561034057600080fd5b506040805180820190915260018152603160f81b60208201525b6040516101f89190611de0565b34801561037357600080fd5b506102bf610a44565b34801561038857600080fd5b506101ec610397366004611ce0565b610a5f565b3480156103a857600080fd5b5061027c60008051602061233683398151915281565b3480156103ca57600080fd5b5061027c600081565b3480156103df57600080fd5b5061035a604051806040016040528060058152602001640352e302e360dc1b81525081565b34801561041057600080fd5b5061024361041f366004611e72565b610a95565b34801561043057600080fd5b506101ec61043f366004611f1f565b610b0a565b34801561045057600080fd5b5061022161045f366004611f41565b610ce0565b34801561047057600080fd5b5061022161047f366004611ce0565b611119565b34801561049057600080fd5b5061024361049f366004611f90565b611135565b3480156104b057600080fd5b5061027c6104bf366004611cc7565b611191565b3480156104d057600080fd5b5061027c6000805160206122f683398151915281565b3480156104f257600080fd5b50610221610501366004611ff8565b6111b1565b60006001600160e01b03198216637965db0b60e01b148061053757506301ffc9a760e01b6001600160e01b03198316145b92915050565b60006105476114ee565b805490915060ff600160401b82041615906001600160401b031660008115801561056e5750825b90506000826001600160401b0316600114801561058a5750303b155b905081158015610598575080155b156105b65760405163f92ee8a960e01b815260040160405180910390fd5b84546001600160401b031916600117855583156105df57845460ff60401b1916600160401b1785555b6001600160a01b038a1661064a5760405162461bcd60e51b815260206004820152602c60248201527f58324561726e52657761726473506f6f6c3a2061646d696e206973207468652060448201526b7a65726f206164647265737360a01b606482015260840161016e565b6001600160a01b0389166106c65760405162461bcd60e51b815260206004820152603e60248201527f58324561726e52657761726473506f6f6c3a20636f6e747261637473206d616e60448201527f616765722061646d696e20697320746865207a65726f20616464726573730000606482015260840161016e565b6001600160a01b0388166107345760405162461bcd60e51b815260206004820152602f60248201527f58324561726e52657761726473506f6f6c3a207570677261646572206973207460448201526e6865207a65726f206164647265737360881b606482015260840161016e565b6001600160a01b03871661079e5760405162461bcd60e51b815260206004820152602b60248201527f58324561726e52657761726473506f6f6c3a206233747220697320746865207a60448201526a65726f206164647265737360a81b606482015260840161016e565b6001600160a01b0386166107c45760405162461bcd60e51b815260040161016e90612042565b6107cc611512565b6107d4611512565b6107dc61151c565b6107e760008b61152c565b506108006000805160206122f68339815191528961152c565b506108196000805160206123368339815191528a61152c565b5060006108246115cd565b80546001600160a01b03808b166001600160a01b031992831617835560019092018054928a169290911691909117905550831561089b57845460ff60401b19168555604051600181527fc7f505b2f371ae2175ee4913f4499e1f2633a7b5936321eed1cdaeb6115181d29060200160405180910390a15b50505050505050505050565b60405162461bcd60e51b81526020600482015260396024820152600080516020612356833981519152604482015278206e6f74206163636570742045524337323120746f6b656e7360381b606482015260009060840161016e565b60008061090d6115f1565b60009384526020525050604090206001015490565b61092b82610902565b61093481611615565b61093e838361152c565b50505050565b60008061094f6115cd565b600101546001600160a01b031692915050565b6001600160a01b038116331461098b5760405163334bd91960e11b815260040160405180910390fd5b6109958282611622565b505050565b6000805160206123368339815191526109b281611615565b6001600160a01b0382166109d85760405162461bcd60e51b815260040161016e90612042565b60006109e26115cd565b60010180546001600160a01b0319166001600160a01b0394909416939093179092555050565b610a1061169a565b610a198261173f565b610a238282611757565b5050565b6000610a3161180b565b5060008051602061231683398151915290565b600080610a4f6115cd565b546001600160a01b031692915050565b600080610a6a6115f1565b6000948552602090815260408086206001600160a01b03959095168652939052505090205460ff1690565b60405162461bcd60e51b815260206004820152604d602482015260008051602061235683398151915260448201527f206e6f7420616363657074206261746368207472616e7366657273206f66204560648201526c52433131353520746f6b656e7360981b608482015260009060a40161016e565b600080610b156115cd565b600181015460405163181efec960e21b8152600481018690529192506001600160a01b03169063607bfb2490602401602060405180830381865afa158015610b61573d6000803e3d6000fd5b505050506040513d601f19601f82011682018060405250810190610b859190612093565b610ba15760405162461bcd60e51b815260040161016e906120b5565b600083815260028201602052604081208054869290610bc1908490612110565b909155505080546040516323b872dd60e01b8152336004820152306024820152604481018690526001600160a01b03909116906323b872dd906064016020604051808303816000875af1158015610c1c573d6000803e3d6000fd5b505050506040513d601f19601f82011682018060405250810190610c409190612093565b610c9f5760405162461bcd60e51b815260206004820152602a60248201527f58324561726e52657761726473506f6f6c3a206465706f736974207472616e7360448201526919995c8819985a5b195960b21b606482015260840161016e565b604051848152339084907fb129470ed4a80566812579bd667bb40c9cc246b5470797f9291f8a27cd3d16309060200160405180910390a35060019392505050565b610ce8611854565b6000610cf26115cd565b600181015460405163181efec960e21b8152600481018690529192506001600160a01b03169063607bfb2490602401602060405180830381865afa158015610d3e573d6000803e3d6000fd5b505050506040513d601f19601f82011682018060405250810190610d629190612093565b610d7e5760405162461bcd60e51b815260040161016e906120b5565b600181015460405163238e8a7760e21b81526001600160a01b0390911690638e3a29dc90610db29086903390600401612123565b602060405180830381865afa158015610dcf573d6000803e3d6000fd5b505050506040513d601f19601f82011682018060405250810190610df39190612093565b80610e6e5750600181015460405163b58a754760e01b81526001600160a01b039091169063b58a754790610e2d9086903390600401612123565b602060405180830381865afa158015610e4a573d6000803e3d6000fd5b505050506040513d601f19601f82011682018060405250810190610e6e9190612093565b610edf5760405162461bcd60e51b815260206004820152603c60248201527f58324561726e52657761726473506f6f6c3a206e6f7420616e2061707020616460448201527b36b4b7103737b91030903932bbb0b932103234b9ba3934b13aba37b960211b606482015260840161016e565b6000838152600282016020526040902054841115610f0f5760405162461bcd60e51b815260040161016e9061213a565b80546040516370a0823160e01b815285916001600160a01b0316906370a0823190610f3e903090600401611d10565b602060405180830381865afa158015610f5b573d6000803e3d6000fd5b505050506040513d601f19601f82011682018060405250810190610f7f9190612187565b1015610f9d5760405162461bcd60e51b815260040161016e906121a0565b6001810154604051631772503b60e01b8152600481018590526000916001600160a01b031690631772503b90602401602060405180830381865afa158015610fe9573d6000803e3d6000fd5b505050506040513d601f19601f8201168201806040525081019061100d91906121f1565b9050848260020160008681526020019081526020016000206000828254611034919061220e565b9091555050815460405163a9059cbb60e01b81526001600160a01b039091169063a9059cbb9061106a9084908990600401612221565b6020604051808303816000875af1158015611089573d6000803e3d6000fd5b505050506040513d601f19601f820116820180604052508101906110ad9190612093565b6110c95760405162461bcd60e51b815260040161016e9061223a565b806001600160a01b0316847fd9ffa9a1a748d0d5a7264f97f319a08a8d4925854093354e05965ff93e46d8048733876040516111079392919061228e565b60405180910390a3505061099561188a565b61112282610902565b61112b81611615565b61093e8383611622565b60405162461bcd60e51b815260206004820152603a6024820152600080516020612356833981519152604482015279206e6f7420616363657074204552433131353520746f6b656e7360301b606482015260009060840161016e565b60008061119c6115cd565b60009384526002016020525050604090205490565b6111b9611854565b60006111c36115cd565b600181015460405163181efec960e21b8152600481018890529192506001600160a01b03169063607bfb2490602401602060405180830381865afa15801561120f573d6000803e3d6000fd5b505050506040513d601f19601f820116820180604052508101906112339190612093565b61124f5760405162461bcd60e51b815260040161016e906120b5565b600181015460405163b58a754760e01b81526001600160a01b039091169063b58a7547906112839088903390600401612123565b602060405180830381865afa1580156112a0573d6000803e3d6000fd5b505050506040513d601f19601f820116820180604052508101906112c49190612093565b6113245760405162461bcd60e51b815260206004820152602b60248201527f58324561726e52657761726473506f6f6c3a206e6f742061207265776172642060448201526a3234b9ba3934b13aba37b960a91b606482015260840161016e565b60008581526002820160205260409020548411156113545760405162461bcd60e51b815260040161016e9061213a565b80546040516370a0823160e01b815285916001600160a01b0316906370a0823190611383903090600401611d10565b602060405180830381865afa1580156113a0573d6000803e3d6000fd5b505050506040513d601f19601f820116820180604052508101906113c49190612187565b10156113e25760405162461bcd60e51b815260040161016e906121a0565b60008581526002820160205260408120805486929061140290849061220e565b9091555050805460405163a9059cbb60e01b81526001600160a01b039091169063a9059cbb906114389086908890600401612221565b6020604051808303816000875af1158015611457573d6000803e3d6000fd5b505050506040513d601f19601f8201168201806040525081019061147b9190612093565b6114975760405162461bcd60e51b815260040161016e9061223a565b336001600160a01b0316836001600160a01b0316867f4811710b0c25cc7e05baf214b3a939cf893f1cbff4d0b219e680f069a4f204a287866040516114dd9291906122b8565b60405180910390a45061093e61188a565b7ff0c57e16840df040f15088dc2f81fe391c3923bec73e23a9662efc9c229c6a0090565b61151a61189b565b565b61152461189b565b61151a6118c0565b6000806115376115f1565b90506115438484610a5f565b6115c3576000848152602082815260408083206001600160a01b03871684529091529020805460ff191660011790556115793390565b6001600160a01b0316836001600160a01b0316857f2f8788117e7eff1d82e926ec794901d17c78024a50270940304540a733656f0d60405160405180910390a46001915050610537565b6000915050610537565b7f7c0dcc5654efea34bf150fefe2d7f927494d4026026590e81037cb4c7a9cdc0090565b7f02dd7bc7dec4dceedda775e58dd541e08a116c6c53815c0bd028192f7b62680090565b61161f81336118c8565b50565b60008061162d6115f1565b90506116398484610a5f565b156115c3576000848152602082815260408083206001600160a01b0387168085529252808320805460ff1916905551339287917ff6391f5c32d9c69d2a47ea670b442974b53935d1edc7fd64eb21e047a839171b9190a46001915050610537565b306001600160a01b037f000000000000000000000000000000000000000000000000000000000000000016148061172157507f00000000000000000000000000000000000000000000000000000000000000006001600160a01b0316611715600080516020612316833981519152546001600160a01b031690565b6001600160a01b031614155b1561151a5760405163703e46dd60e11b815260040160405180910390fd5b6000805160206122f6833981519152610a2381611615565b816001600160a01b03166352d1902d6040518163ffffffff1660e01b8152600401602060405180830381865afa9250505080156117b1575060408051601f3d908101601f191682019092526117ae91810190612187565b60015b6117d05781604051634c9c8ce360e01b815260040161016e9190611d10565b600080516020612316833981519152811461180157604051632a87526960e21b81526004810182905260240161016e565b61099583836118f3565b306001600160a01b037f0000000000000000000000000000000000000000000000000000000000000000161461151a5760405163703e46dd60e11b815260040160405180910390fd5b600061185e611949565b80549091506001190161188457604051633ee5aeb560e01b815260040160405180910390fd5b60029055565b6000611894611949565b6001905550565b6118a361196d565b61151a57604051631afcd79f60e31b815260040160405180910390fd5b61188a61189b565b6118d28282610a5f565b610a2357808260405163e2517d3f60e01b815260040161016e929190612221565b6118fc82611987565b6040516001600160a01b038316907fbc7cd75a20ee27fd9adebab32041f755214dbc6bffa90cc0225b39da2e5c2d3b90600090a28051156119415761099582826119e3565b610a23611a59565b7f9b779b17422d0df92223018b32b4d1fa46e071723d6817e2486d003becc55f0090565b60006119776114ee565b54600160401b900460ff16919050565b806001600160a01b03163b6000036119b45780604051634c9c8ce360e01b815260040161016e9190611d10565b60008051602061231683398151915280546001600160a01b0319166001600160a01b0392909216919091179055565b6060600080846001600160a01b031684604051611a0091906122d9565b600060405180830381855af49150503d8060008114611a3b576040519150601f19603f3d011682016040523d82523d6000602084013e611a40565b606091505b5091509150611a50858383611a78565b95945050505050565b341561151a5760405163b398979f60e01b815260040160405180910390fd5b606082611a8d57611a8882611ace565b611ac7565b8151158015611aa457506001600160a01b0384163b155b15611ac45783604051639996b31560e01b815260040161016e9190611d10565b50805b9392505050565b805115611ade5780518082602001fd5b604051630a12f52160e11b815260040160405180910390fd5b600060208284031215611b0957600080fd5b81356001600160e01b031981168114611ac757600080fd5b6001600160a01b038116811461161f57600080fd5b600080600080600060a08688031215611b4e57600080fd5b8535611b5981611b21565b94506020860135611b6981611b21565b93506040860135611b7981611b21565b92506060860135611b8981611b21565b91506080860135611b9981611b21565b809150509295509295909350565b634e487b7160e01b600052604160045260246000fd5b604051601f8201601f191681016001600160401b0381118282101715611be557611be5611ba7565b604052919050565b600082601f830112611bfe57600080fd5b81356001600160401b03811115611c1757611c17611ba7565b611c2a601f8201601f1916602001611bbd565b818152846020838601011115611c3f57600080fd5b816020850160208301376000918101602001919091529392505050565b60008060008060808587031215611c7257600080fd5b8435611c7d81611b21565b93506020850135611c8d81611b21565b92506040850135915060608501356001600160401b03811115611caf57600080fd5b611cbb87828801611bed565b91505092959194509250565b600060208284031215611cd957600080fd5b5035919050565b60008060408385031215611cf357600080fd5b823591506020830135611d0581611b21565b809150509250929050565b6001600160a01b0391909116815260200190565b600060208284031215611d3657600080fd5b8135611ac781611b21565b60008060408385031215611d5457600080fd5b8235611d5f81611b21565b915060208301356001600160401b03811115611d7a57600080fd5b611d8685828601611bed565b9150509250929050565b60005b83811015611dab578181015183820152602001611d93565b50506000910152565b60008151808452611dcc816020860160208601611d90565b601f01601f19169290920160200192915050565b602081526000611ac76020830184611db4565b600082601f830112611e0457600080fd5b813560206001600160401b03821115611e1f57611e1f611ba7565b8160051b611e2e828201611bbd565b9283528481018201928281019087851115611e4857600080fd5b83870192505b84831015611e6757823582529183019190830190611e4e565b979650505050505050565b600080600080600060a08688031215611e8a57600080fd5b8535611e9581611b21565b94506020860135611ea581611b21565b935060408601356001600160401b0380821115611ec157600080fd5b611ecd89838a01611df3565b94506060880135915080821115611ee357600080fd5b611eef89838a01611df3565b93506080880135915080821115611f0557600080fd5b50611f1288828901611bed565b9150509295509295909350565b60008060408385031215611f3257600080fd5b50508035926020909101359150565b600080600060608486031215611f5657600080fd5b833592506020840135915060408401356001600160401b03811115611f7a57600080fd5b611f8686828701611bed565b9150509250925092565b600080600080600060a08688031215611fa857600080fd5b8535611fb381611b21565b94506020860135611fc381611b21565b9350604086013592506060860135915060808601356001600160401b03811115611fec57600080fd5b611f1288828901611bed565b6000806000806080858703121561200e57600080fd5b8435935060208501359250604085013561202781611b21565b915060608501356001600160401b03811115611caf57600080fd5b60208082526031908201527f58324561726e52657761726473506f6f6c3a2078324561726e4170707320697360408201527020746865207a65726f206164647265737360781b606082015260800190565b6000602082840312156120a557600080fd5b81518015158114611ac757600080fd5b60208082526025908201527f58324561726e52657761726473506f6f6c3a2061707020646f6573206e6f7420604082015264195e1a5cdd60da1b606082015260800190565b634e487b7160e01b600052601160045260246000fd5b80820180821115610537576105376120fa565b9182526001600160a01b0316602082015260400190565b6020808252602d908201527f58324561726e52657761726473506f6f6c3a206170702068617320696e73756660408201526c66696369656e742066756e647360981b606082015260800190565b60006020828403121561219957600080fd5b5051919050565b60208082526031908201527f58324561726e52657761726473506f6f6c3a20696e73756666696369656e7420604082015270199d5b991cc81bdb8818dbdb9d1c9858dd607a1b606082015260800190565b60006020828403121561220357600080fd5b8151611ac781611b21565b81810381811115610537576105376120fa565b6001600160a01b03929092168252602082015260400190565b60208082526034908201527f58324561726e52657761726473506f6f6c3a20416c6c6f636174696f6e207472604082015273185b9cd9995c881d1bc8185c1c0819985a5b195960621b606082015260800190565b8381526001600160a01b0383166020820152606060408201819052600090611a5090830184611db4565b8281526040602082015260006122d16040830184611db4565b949350505050565b600082516122eb818460208701611d90565b919091019291505056fe189ab7a9244df0848122154315af71fe140f3db0fe014031783b0946b8c9d2e3360894a13ba1a3210667c828492db98dca3e2076cc3735a920a3ca505d382bbc56af926aa3845d4dc63a6c773ed36f51794728c97ebcd1bf845bcecb16eeb6b758324561726e52657761726473506f6f6c3a20636f6e747261637420646f6573a26469706673582212204262e42cbaad0a419ba6e5038790e26af40645d43cf27f061d83718a9ad4b69764736f6c63430008140033",
  "linkReferences": {},
  "deployedLinkReferences": {}
}