{
  "_format": "hh-sol-artifact-1",
  "contractName": "NodeManagement",
  "sourceName": "contracts/NodeManagement.sol",
  "abi": [
    {
      "inputs": [],
      "stateMutability": "nonpayable",
      "type": "constructor"
    },
    {
      "inputs": [],
      "name": "AccessControlBadConfirmation",
      "type": "error"
    },
    {
      "inputs": [
        {
          "internalType": "address",
          "name": "account",
          "type": "address"
        },
        {
          "internalType": "bytes32",
          "name": "neededRole",
          "type": "bytes32"
        }
      ],
      "name": "AccessControlUnauthorizedAccount",
      "type": "error"
    },
    {
      "inputs": [
        {
          "internalType": "address",
          "name": "target",
          "type": "address"
        }
      ],
      "name": "AddressEmptyCode",
      "type": "error"
    },
    {
      "inputs": [
        {
          "internalType": "address",
          "name": "implementation",
          "type": "address"
        }
      ],
      "name": "ERC1967InvalidImplementation",
      "type": "error"
    },
    {
      "inputs": [],
      "name": "ERC1967NonPayable",
      "type": "error"
    },
    {
      "inputs": [],
      "name": "FailedInnerCall",
      "type": "error"
    },
    {
      "inputs": [],
      "name": "InvalidInitialization",
      "type": "error"
    },
    {
      "inputs": [
        {
          "internalType": "uint256",
          "name": "nodeId",
          "type": "uint256"
        },
        {
          "internalType": "address",
          "name": "delegatee",
          "type": "address"
        }
      ],
      "name": "NodeManagementNodeAlreadyDelegated",
      "type": "error"
    },
    {
      "inputs": [],
      "name": "NodeManagementNodeNotDelegated",
      "type": "error"
    },
    {
      "inputs": [],
      "name": "NodeManagementNonNodeHolder",
      "type": "error"
    },
    {
      "inputs": [],
      "name": "NodeManagementSelfDelegation",
      "type": "error"
    },
    {
      "inputs": [],
      "name": "NodeManagementZeroAddress",
      "type": "error"
    },
    {
      "inputs": [],
      "name": "NotInitializing",
      "type": "error"
    },
    {
      "inputs": [],
      "name": "UUPSUnauthorizedCallContext",
      "type": "error"
    },
    {
      "inputs": [
        {
          "internalType": "bytes32",
          "name": "slot",
          "type": "bytes32"
        }
      ],
      "name": "UUPSUnsupportedProxiableUUID",
      "type": "error"
    },
    {
      "anonymous": false,
      "inputs": [
        {
          "indexed": false,
          "internalType": "uint64",
          "name": "version",
          "type": "uint64"
        }
      ],
      "name": "Initialized",
      "type": "event"
    },
    {
      "anonymous": false,
      "inputs": [
        {
          "indexed": true,
          "internalType": "uint256",
          "name": "nodeId",
          "type": "uint256"
        },
        {
          "indexed": true,
          "internalType": "address",
          "name": "delegatee",
          "type": "address"
        },
        {
          "indexed": false,
          "internalType": "bool",
          "name": "delegated",
          "type": "bool"
        }
      ],
      "name": "NodeDelegated",
      "type": "event"
    },
    {
      "anonymous": false,
      "inputs": [
        {
          "indexed": true,
          "internalType": "bytes32",
          "name": "role",
          "type": "bytes32"
        },
        {
          "indexed": true,
          "internalType": "bytes32",
          "name": "previousAdminRole",
          "type": "bytes32"
        },
        {
          "indexed": true,
          "internalType": "bytes32",
          "name": "newAdminRole",
          "type": "bytes32"
        }
      ],
      "name": "RoleAdminChanged",
      "type": "event"
    },
    {
      "anonymous": false,
      "inputs": [
        {
          "indexed": true,
          "internalType": "bytes32",
          "name": "role",
          "type": "bytes32"
        },
        {
          "indexed": true,
          "internalType": "address",
          "name": "account",
          "type": "address"
        },
        {
          "indexed": true,
          "internalType": "address",
          "name": "sender",
          "type": "address"
        }
      ],
      "name": "RoleGranted",
      "type": "event"
    },
    {
      "anonymous": false,
      "inputs": [
        {
          "indexed": true,
          "internalType": "bytes32",
          "name": "role",
          "type": "bytes32"
        },
        {
          "indexed": true,
          "internalType": "address",
          "name": "account",
          "type": "address"
        },
        {
          "indexed": true,
          "internalType": "address",
          "name": "sender",
          "type": "address"
        }
      ],
      "name": "RoleRevoked",
      "type": "event"
    },
    {
      "anonymous": false,
      "inputs": [
        {
          "indexed": true,
          "internalType": "address",
          "name": "implementation",
          "type": "address"
        }
      ],
      "name": "Upgraded",
      "type": "event"
    },
    {
      "anonymous": false,
      "inputs": [
        {
          "indexed": false,
          "internalType": "address",
          "name": "oldContractAddress",
          "type": "address"
        },
        {
          "indexed": false,
          "internalType": "address",
          "name": "newContractAddress",
          "type": "address"
        }
      ],
      "name": "VechainNodeContractSet",
      "type": "event"
    },
    {
      "inputs": [],
      "name": "DEFAULT_ADMIN_ROLE",
      "outputs": [
        {
          "internalType": "bytes32",
          "name": "",
          "type": "bytes32"
        }
      ],
      "stateMutability": "view",
      "type": "function"
    },
    {
      "inputs": [],
      "name": "UPGRADER_ROLE",
      "outputs": [
        {
          "internalType": "bytes32",
          "name": "",
          "type": "bytes32"
        }
      ],
      "stateMutability": "view",
      "type": "function"
    },
    {
      "inputs": [],
      "name": "UPGRADE_INTERFACE_VERSION",
      "outputs": [
        {
          "internalType": "string",
          "name": "",
          "type": "string"
        }
      ],
      "stateMutability": "view",
      "type": "function"
    },
    {
      "inputs": [
        {
          "internalType": "address",
          "name": "delegatee",
          "type": "address"
        }
      ],
      "name": "delegateNode",
      "outputs": [],
      "stateMutability": "nonpayable",
      "type": "function"
    },
    {
      "inputs": [
        {
          "internalType": "address",
          "name": "user",
          "type": "address"
        }
      ],
      "name": "getNodeIds",
      "outputs": [
        {
          "internalType": "uint256[]",
          "name": "",
          "type": "uint256[]"
        }
      ],
      "stateMutability": "view",
      "type": "function"
    },
    {
      "inputs": [
        {
          "internalType": "uint256",
          "name": "nodeId",
          "type": "uint256"
        }
      ],
      "name": "getNodeLevel",
      "outputs": [
        {
          "internalType": "enum VechainNodesDataTypes.NodeStrengthLevel",
          "name": "",
          "type": "uint8"
        }
      ],
      "stateMutability": "view",
      "type": "function"
    },
    {
      "inputs": [
        {
          "internalType": "uint256",
          "name": "nodeId",
          "type": "uint256"
        }
      ],
      "name": "getNodeManager",
      "outputs": [
        {
          "internalType": "address",
          "name": "",
          "type": "address"
        }
      ],
      "stateMutability": "view",
      "type": "function"
    },
    {
      "inputs": [
        {
          "internalType": "bytes32",
          "name": "role",
          "type": "bytes32"
        }
      ],
      "name": "getRoleAdmin",
      "outputs": [
        {
          "internalType": "bytes32",
          "name": "",
          "type": "bytes32"
        }
      ],
      "stateMutability": "view",
      "type": "function"
    },
    {
      "inputs": [
        {
          "internalType": "address",
          "name": "user",
          "type": "address"
        }
      ],
      "name": "getUsersNodeLevels",
      "outputs": [
        {
          "internalType": "enum VechainNodesDataTypes.NodeStrengthLevel[]",
          "name": "",
          "type": "uint8[]"
        }
      ],
      "stateMutability": "view",
      "type": "function"
    },
    {
      "inputs": [],
      "name": "getVechainNodesContract",
      "outputs": [
        {
          "internalType": "contract ITokenAuction",
          "name": "",
          "type": "address"
        }
      ],
      "stateMutability": "view",
      "type": "function"
    },
    {
      "inputs": [
        {
          "internalType": "bytes32",
          "name": "role",
          "type": "bytes32"
        },
        {
          "internalType": "address",
          "name": "account",
          "type": "address"
        }
      ],
      "name": "grantRole",
      "outputs": [],
      "stateMutability": "nonpayable",
      "type": "function"
    },
    {
      "inputs": [
        {
          "internalType": "bytes32",
          "name": "role",
          "type": "bytes32"
        },
        {
          "internalType": "address",
          "name": "account",
          "type": "address"
        }
      ],
      "name": "hasRole",
      "outputs": [
        {
          "internalType": "bool",
          "name": "",
          "type": "bool"
        }
      ],
      "stateMutability": "view",
      "type": "function"
    },
    {
      "inputs": [
        {
          "internalType": "address",
          "name": "_vechainNodesContract",
          "type": "address"
        },
        {
          "internalType": "address",
          "name": "_admin",
          "type": "address"
        },
        {
          "internalType": "address",
          "name": "_upgrader",
          "type": "address"
        }
      ],
      "name": "initialize",
      "outputs": [],
      "stateMutability": "nonpayable",
      "type": "function"
    },
    {
      "inputs": [
        {
          "internalType": "address",
          "name": "user",
          "type": "address"
        },
        {
          "internalType": "uint256",
          "name": "nodeId",
          "type": "uint256"
        }
      ],
      "name": "isNodeManager",
      "outputs": [
        {
          "internalType": "bool",
          "name": "",
          "type": "bool"
        }
      ],
      "stateMutability": "view",
      "type": "function"
    },
    {
      "inputs": [],
      "name": "proxiableUUID",
      "outputs": [
        {
          "internalType": "bytes32",
          "name": "",
          "type": "bytes32"
        }
      ],
      "stateMutability": "view",
      "type": "function"
    },
    {
      "inputs": [],
      "name": "removeNodeDelegation",
      "outputs": [],
      "stateMutability": "nonpayable",
      "type": "function"
    },
    {
      "inputs": [
        {
          "internalType": "bytes32",
          "name": "role",
          "type": "bytes32"
        },
        {
          "internalType": "address",
          "name": "callerConfirmation",
          "type": "address"
        }
      ],
      "name": "renounceRole",
      "outputs": [],
      "stateMutability": "nonpayable",
      "type": "function"
    },
    {
      "inputs": [
        {
          "internalType": "bytes32",
          "name": "role",
          "type": "bytes32"
        },
        {
          "internalType": "address",
          "name": "account",
          "type": "address"
        }
      ],
      "name": "revokeRole",
      "outputs": [],
      "stateMutability": "nonpayable",
      "type": "function"
    },
    {
      "inputs": [
        {
          "internalType": "address",
          "name": "vechainNodesContract",
          "type": "address"
        }
      ],
      "name": "setVechainNodesContract",
      "outputs": [],
      "stateMutability": "nonpayable",
      "type": "function"
    },
    {
      "inputs": [
        {
          "internalType": "bytes4",
          "name": "interfaceId",
          "type": "bytes4"
        }
      ],
      "name": "supportsInterface",
      "outputs": [
        {
          "internalType": "bool",
          "name": "",
          "type": "bool"
        }
      ],
      "stateMutability": "view",
      "type": "function"
    },
    {
      "inputs": [
        {
          "internalType": "address",
          "name": "newImplementation",
          "type": "address"
        },
        {
          "internalType": "bytes",
          "name": "data",
          "type": "bytes"
        }
      ],
      "name": "upgradeToAndCall",
      "outputs": [],
      "stateMutability": "payable",
      "type": "function"
    },
    {
      "inputs": [],
      "name": "version",
      "outputs": [
        {
          "internalType": "string",
          "name": "",
          "type": "string"
        }
      ],
      "stateMutability": "pure",
      "type": "function"
    }
  ],
  "bytecode": "0x60a06040523060805234801561001457600080fd5b5061001d610022565b6100d4565b7ff0c57e16840df040f15088dc2f81fe391c3923bec73e23a9662efc9c229c6a00805468010000000000000000900460ff16156100725760405163f92ee8a960e01b815260040160405180910390fd5b80546001600160401b03908116146100d15780546001600160401b0319166001600160401b0390811782556040519081527fc7f505b2f371ae2175ee4913f4499e1f2633a7b5936321eed1cdaeb6115181d29060200160405180910390a15b50565b608051611ddf6100fd600039600081816112d0015281816112f901526114430152611ddf6000f3fe6080604052600436106101055760003560e01c806301ffc9a71461010a57806309fe15cd1461013f5780630df9dff8146101565780631ceae42f14610176578063248a9ca3146101a35780632e4e2531146101d15780632f2ff15d146101fe5780633258cc2f1461021e57806336568abe1461023e5780634f1ef2861461025e57806352d1902d14610271578063539010a21461028657806354fd4d50146102a857806357409f6a146102db57806391d14854146102fb5780639e2c2f3e1461031b578063a217fddf1461033b578063ad3cb1cc14610350578063c0c53b8b14610381578063d466d80b146103a1578063d547741f146103ce578063f72c0d8b146103ee575b600080fd5b34801561011657600080fd5b5061012a610125366004611856565b610410565b60405190151581526020015b60405180910390f35b34801561014b57600080fd5b50610154610447565b005b34801561016257600080fd5b50610154610171366004611895565b610598565b34801561018257600080fd5b506101966101913660046118b2565b610685565b6040516101369190611903565b3480156101af57600080fd5b506101c36101be3660046118b2565b610727565b604051908152602001610136565b3480156101dd57600080fd5b506101f16101ec366004611895565b610747565b6040516101369190611911565b34801561020a57600080fd5b50610154610219366004611955565b6108bb565b34801561022a57600080fd5b5061012a610239366004611985565b6108dd565b34801561024a57600080fd5b50610154610259366004611955565b610a37565b61015461026c3660046119c7565b610a6f565b34801561027d57600080fd5b506101c3610a8e565b34801561029257600080fd5b5061029b610aab565b6040516101369190611a8a565b3480156102b457600080fd5b506040805180820190915260018152603160f81b60208201525b6040516101369190611ac2565b3480156102e757600080fd5b506101546102f6366004611895565b610ac6565b34801561030757600080fd5b5061012a610316366004611955565b610cac565b34801561032757600080fd5b5061029b6103363660046118b2565b610ce2565b34801561034757600080fd5b506101c3600081565b34801561035c57600080fd5b506102ce604051806040016040528060058152602001640352e302e360dc1b81525081565b34801561038d57600080fd5b5061015461039c366004611af5565b610d87565b3480156103ad57600080fd5b506103c16103bc366004611895565b610f69565b6040516101369190611b40565b3480156103da57600080fd5b506101546103e9366004611955565b611048565b3480156103fa57600080fd5b506101c3600080516020611d6a83398151915281565b60006001600160e01b03198216637965db0b60e01b148061044157506301ffc9a760e01b6001600160e01b03198316145b92915050565b6000610451611064565b80546040516339ca78e960e21b81529192506000916001600160a01b039091169063e729e3a490610486903390600401611a8a565b602060405180830381865afa1580156104a3573d6000803e3d6000fd5b505050506040513d601f19601f820116820180604052508101906104c79190611b7f565b9050806000036104ea5760405163fec8382d60e01b815260040160405180910390fd5b60008181526002830160205260409020546001600160a01b0316806105225760405163dfdadbf360e01b815260040160405180910390fd5b6001600160a01b038116600090815260018401602052604090206105469083611088565b506000828152600284016020908152604080832080546001600160a01b0319169055519182526001600160a01b038316918491600080516020611d4a83398151915291015b60405180910390a3505050565b60006105a381611094565b6001600160a01b0382166106245760405162461bcd60e51b815260206004820152603f60248201527f4e6f64654d616e6167656d656e743a207665636861696e4e6f646573436f6e7460448201527f726163742063616e6e6f7420626520746865207a65726f20616464726573730060648201526084015b60405180910390fd5b600061062e611064565b8054604051919250600080516020611d2a8339815191529161065b916001600160a01b0316908690611b98565b60405180910390a180546001600160a01b0319166001600160a01b03939093169290921790915550565b600080610690611064565b805460405163295d33a960e21b8152600481018690529192506000916001600160a01b039091169063a574cea49060240160e060405180830381865afa1580156106de573d6000803e3d6000fd5b505050506040513d601f19601f820116820180604052508101906107029190611bde565b50505050509150508060ff16600781111561071f5761071f6118cb565b949350505050565b6000806107326110a1565b60009384526020525050604090206001015490565b60606000610753611064565b6001600160a01b03841660009081526001820160205260408120919250610779826110c5565b90506000816001600160401b03811115610795576107956119b1565b6040519080825280602002602001820160405280156107be578160200160208202803683370190505b50905060005b82811015610805576107d684826110cf565b8282815181106107e8576107e8611c6f565b6020908102919091010152806107fd81611c9b565b9150506107c4565b5083546040516339ca78e960e21b81526000916001600160a01b03169063e729e3a490610836908a90600401611a8a565b602060405180830381865afa158015610853573d6000803e3d6000fd5b505050506040513d601f19601f820116820180604052508101906108779190611b7f565b9050801580159061089f575060008181526002860160205260409020546001600160a01b0316155b156108b1576108ae82826110db565b91505b5095945050505050565b6108c482610727565b6108cd81611094565b6108d783836111ac565b50505050565b6000806108e8611064565b60008481526002820160205260409020549091506001600160a01b0380861691160361098e57805460405163bfc206ed60e01b8152600481018590526000916001600160a01b03169063bfc206ed90602401602060405180830381865afa158015610957573d6000803e3d6000fd5b505050506040513d601f19601f8201168201806040525081019061097b9190611cb4565b6001600160a01b03161415915050610441565b60008381526002820160205260409020546001600160a01b0316156109b7576000915050610441565b805460405163bfc206ed60e01b8152600481018590526001600160a01b0386811692169063bfc206ed90602401602060405180830381865afa158015610a01573d6000803e3d6000fd5b505050506040513d601f19601f82011682018060405250810190610a259190611cb4565b6001600160a01b031614949350505050565b6001600160a01b0381163314610a605760405163334bd91960e11b815260040160405180910390fd5b610a6a828261124d565b505050565b610a776112c5565b610a808261136c565b610a8a8282611384565b5050565b6000610a98611438565b50600080516020611d8a83398151915290565b600080610ab6611064565b546001600160a01b031692915050565b6000610ad0611064565b90506001600160a01b038216610af95760405163b772cd5b60e01b815260040160405180910390fd5b80546040516339ca78e960e21b81526000916001600160a01b03169063e729e3a490610b29903390600401611a8a565b602060405180830381865afa158015610b46573d6000803e3d6000fd5b505050506040513d601f19601f82011682018060405250810190610b6a9190611b7f565b905080600003610b8d5760405163fec8382d60e01b815260040160405180910390fd5b6001600160a01b0383163303610bb6576040516375b7888760e11b815260040160405180910390fd5b60008181526002830160205260409020546001600160a01b031615610c3957600081815260028301602090815260408083205490519283526001600160a01b0316918391600080516020611d4a833981519152910160405180910390a36001600160a01b03831660009081526001830160205260409020610c379082611088565b505b6001600160a01b03831660009081526001830160205260409020610c5d9082611481565b50600081815260028301602090815260409182902080546001600160a01b0319166001600160a01b0387169081179091559151600181528391600080516020611d4a833981519152910161058b565b600080610cb76110a1565b6000948552602090815260408086206001600160a01b03959095168652939052505090205460ff1690565b600080610ced611064565b60008481526002820160205260409020549091506001600160a01b031680610d8057815460405163bfc206ed60e01b8152600481018690526001600160a01b039091169063bfc206ed90602401602060405180830381865afa158015610d57573d6000803e3d6000fd5b505050506040513d601f19601f82011682018060405250810190610d7b9190611cb4565b61071f565b9392505050565b6000610d9161148d565b805490915060ff600160401b82041615906001600160401b0316600081158015610db85750825b90506000826001600160401b03166001148015610dd45750303b155b905081158015610de2575080155b15610e005760405163f92ee8a960e01b815260040160405180910390fd5b84546001600160401b03191660011785558315610e2957845460ff60401b1916600160401b1785555b610e316114b1565b610e396114b1565b6001600160a01b038716610ea45760405162461bcd60e51b815260206004820152602c60248201527f4e6f64654d616e6167656d656e743a2061646d696e206164647265737320636160448201526b6e6e6f74206265207a65726f60a01b606482015260840161061b565b610eaf6000886111ac565b50610ec8600080516020611d6a833981519152876111ac565b506000610ed3611064565b80546001600160a01b0319166001600160a01b038b16178155604051909150600080516020611d2a83398151915290610f10906000908c90611b98565b60405180910390a1508315610f5f57845460ff60401b19168555604051600181527fc7f505b2f371ae2175ee4913f4499e1f2633a7b5936321eed1cdaeb6115181d29060200160405180910390a15b5050505050505050565b60606000610f7683610747565b9050600081516001600160401b03811115610f9357610f936119b1565b604051908082528060200260200182016040528015610fbc578160200160208202803683370190505b50905060005b825181101561104057610fed838281518110610fe057610fe0611c6f565b6020026020010151610685565b828281518110610fff57610fff611c6f565b60200260200101906007811115611018576110186118cb565b9081600781111561102b5761102b6118cb565b9052508061103881611c9b565b915050610fc2565b509392505050565b61105182610727565b61105a81611094565b6108d7838361124d565b7f895b04a03424f581b1c6717e3715bbb5ceb9c40a4e5b61a13e84096251cf8f0090565b6000610d8083836114b9565b61109e81336115a2565b50565b7f02dd7bc7dec4dceedda775e58dd541e08a116c6c53815c0bd028192f7b62680090565b6000610441825490565b6000610d8083836115db565b60606000835160016110ed9190611cd1565b6001600160401b03811115611104576111046119b1565b60405190808252806020026020018201604052801561112d578160200160208202803683370190505b50905060005b84518110156111855784818151811061114e5761114e611c6f565b602002602001015182828151811061116857611168611c6f565b60209081029190910101528061117d81611c9b565b915050611133565b50828185518151811061119a5761119a611c6f565b60209081029190910101529392505050565b6000806111b76110a1565b90506111c38484610cac565b611243576000848152602082815260408083206001600160a01b03871684529091529020805460ff191660011790556111f93390565b6001600160a01b0316836001600160a01b0316857f2f8788117e7eff1d82e926ec794901d17c78024a50270940304540a733656f0d60405160405180910390a46001915050610441565b6000915050610441565b6000806112586110a1565b90506112648484610cac565b15611243576000848152602082815260408083206001600160a01b0387168085529252808320805460ff1916905551339287917ff6391f5c32d9c69d2a47ea670b442974b53935d1edc7fd64eb21e047a839171b9190a46001915050610441565b306001600160a01b037f000000000000000000000000000000000000000000000000000000000000000016148061134c57507f00000000000000000000000000000000000000000000000000000000000000006001600160a01b0316611340600080516020611d8a833981519152546001600160a01b031690565b6001600160a01b031614155b1561136a5760405163703e46dd60e11b815260040160405180910390fd5b565b600080516020611d6a833981519152610a8a81611094565b816001600160a01b03166352d1902d6040518163ffffffff1660e01b8152600401602060405180830381865afa9250505080156113de575060408051601f3d908101601f191682019092526113db91810190611b7f565b60015b6113fd5781604051634c9c8ce360e01b815260040161061b9190611a8a565b600080516020611d8a833981519152811461142e57604051632a87526960e21b81526004810182905260240161061b565b610a6a8383611605565b306001600160a01b037f0000000000000000000000000000000000000000000000000000000000000000161461136a5760405163703e46dd60e11b815260040160405180910390fd5b6000610d80838361165b565b7ff0c57e16840df040f15088dc2f81fe391c3923bec73e23a9662efc9c229c6a0090565b61136a6116aa565b600081815260018301602052604081205480156112435760006114dd600183611ce4565b85549091506000906114f190600190611ce4565b905080821461155657600086600001828154811061151157611511611c6f565b906000526020600020015490508087600001848154811061153457611534611c6f565b6000918252602080832090910192909255918252600188019052604090208390555b855486908061156757611567611cf7565b600190038181906000526020600020016000905590558560010160008681526020019081526020016000206000905560019350505050610441565b6115ac8282610cac565b610a8a5760405163e2517d3f60e01b81526001600160a01b03821660048201526024810183905260440161061b565b60008260000182815481106115f2576115f2611c6f565b9060005260206000200154905092915050565b61160e826116cf565b6040516001600160a01b038316907fbc7cd75a20ee27fd9adebab32041f755214dbc6bffa90cc0225b39da2e5c2d3b90600090a280511561165357610a6a828261172b565b610a8a6117a1565b60008181526001830160205260408120546116a257508154600181810184556000848152602080822090930184905584548482528286019093526040902091909155610441565b506000610441565b6116b26117c0565b61136a57604051631afcd79f60e31b815260040160405180910390fd5b806001600160a01b03163b6000036116fc5780604051634c9c8ce360e01b815260040161061b9190611a8a565b600080516020611d8a83398151915280546001600160a01b0319166001600160a01b0392909216919091179055565b6060600080846001600160a01b0316846040516117489190611d0d565b600060405180830381855af49150503d8060008114611783576040519150601f19603f3d011682016040523d82523d6000602084013e611788565b606091505b50915091506117988583836117da565b95945050505050565b341561136a5760405163b398979f60e01b815260040160405180910390fd5b60006117ca61148d565b54600160401b900460ff16919050565b6060826117ef576117ea8261182d565b610d80565b815115801561180657506001600160a01b0384163b155b156118265783604051639996b31560e01b815260040161061b9190611a8a565b5092915050565b80511561183d5780518082602001fd5b604051630a12f52160e11b815260040160405180910390fd5b60006020828403121561186857600080fd5b81356001600160e01b031981168114610d8057600080fd5b6001600160a01b038116811461109e57600080fd5b6000602082840312156118a757600080fd5b8135610d8081611880565b6000602082840312156118c457600080fd5b5035919050565b634e487b7160e01b600052602160045260246000fd5b600881106118ff57634e487b7160e01b600052602160045260246000fd5b9052565b6020810161044182846118e1565b6020808252825182820181905260009190848201906040850190845b818110156119495783518352928401929184019160010161192d565b50909695505050505050565b6000806040838503121561196857600080fd5b82359150602083013561197a81611880565b809150509250929050565b6000806040838503121561199857600080fd5b82356119a381611880565b946020939093013593505050565b634e487b7160e01b600052604160045260246000fd5b600080604083850312156119da57600080fd5b82356119e581611880565b915060208301356001600160401b0380821115611a0157600080fd5b818501915085601f830112611a1557600080fd5b813581811115611a2757611a276119b1565b604051601f8201601f19908116603f01168101908382118183101715611a4f57611a4f6119b1565b81604052828152886020848701011115611a6857600080fd5b8260208601602083013760006020848301015280955050505050509250929050565b6001600160a01b0391909116815260200190565b60005b83811015611ab9578181015183820152602001611aa1565b50506000910152565b6020815260008251806020840152611ae1816040850160208701611a9e565b601f01601f19169190910160400192915050565b600080600060608486031215611b0a57600080fd5b8335611b1581611880565b92506020840135611b2581611880565b91506040840135611b3581611880565b809150509250925092565b6020808252825182820181905260009190848201906040850190845b8181101561194957611b6f8385516118e1565b9284019291840191600101611b5c565b600060208284031215611b9157600080fd5b5051919050565b6001600160a01b0392831681529116602082015260400190565b80518015158114611bc257600080fd5b919050565b80516001600160401b0381168114611bc257600080fd5b600080600080600080600060e0888a031215611bf957600080fd5b8751611c0481611880565b602089015190975060ff81168114611c1b57600080fd5b9550611c2960408901611bb2565b9450611c3760608901611bb2565b9350611c4560808901611bc7565b9250611c5360a08901611bc7565b9150611c6160c08901611bc7565b905092959891949750929550565b634e487b7160e01b600052603260045260246000fd5b634e487b7160e01b600052601160045260246000fd5b600060018201611cad57611cad611c85565b5060010190565b600060208284031215611cc657600080fd5b8151610d8081611880565b8082018082111561044157610441611c85565b8181038181111561044157610441611c85565b634e487b7160e01b600052603160045260246000fd5b60008251611d1f818460208701611a9e565b919091019291505056fe74dd84f988c93e13e3e1c4bc4661d03c04b202314e983cf17537bfe04b86fdf29d779bef74377ebed4cc811ab6a0971e9f183847056487e78a11882694d53cec189ab7a9244df0848122154315af71fe140f3db0fe014031783b0946b8c9d2e3360894a13ba1a3210667c828492db98dca3e2076cc3735a920a3ca505d382bbca2646970667358221220ac387f1b2a3f63caa28205a9a1de5d892c5f6addcf61deee4458e51ec9cbf90664736f6c63430008140033",
  "linkReferences": {},
  "deployedLinkReferences": {}
}