{
  "_format": "hh-sol-artifact-1",
  "contractName": "TimeLock",
  "sourceName": "contracts/TimeLock.sol",
  "abi": [
    {
      "inputs": [],
      "stateMutability": "nonpayable",
      "type": "constructor"
    },
    {
      "inputs": [],
      "name": "AccessControlBadConfirmation",
      "type": "error"
    },
    {
      "inputs": [
        {
          "internalType": "address",
          "name": "account",
          "type": "address"
        },
        {
          "internalType": "bytes32",
          "name": "neededRole",
          "type": "bytes32"
        }
      ],
      "name": "AccessControlUnauthorizedAccount",
      "type": "error"
    },
    {
      "inputs": [
        {
          "internalType": "address",
          "name": "target",
          "type": "address"
        }
      ],
      "name": "AddressEmptyCode",
      "type": "error"
    },
    {
      "inputs": [
        {
          "internalType": "address",
          "name": "implementation",
          "type": "address"
        }
      ],
      "name": "ERC1967InvalidImplementation",
      "type": "error"
    },
    {
      "inputs": [],
      "name": "ERC1967NonPayable",
      "type": "error"
    },
    {
      "inputs": [],
      "name": "FailedInnerCall",
      "type": "error"
    },
    {
      "inputs": [],
      "name": "InvalidInitialization",
      "type": "error"
    },
    {
      "inputs": [],
      "name": "NotInitializing",
      "type": "error"
    },
    {
      "inputs": [
        {
          "internalType": "uint256",
          "name": "delay",
          "type": "uint256"
        },
        {
          "internalType": "uint256",
          "name": "minDelay",
          "type": "uint256"
        }
      ],
      "name": "TimelockInsufficientDelay",
      "type": "error"
    },
    {
      "inputs": [
        {
          "internalType": "uint256",
          "name": "targets",
          "type": "uint256"
        },
        {
          "internalType": "uint256",
          "name": "payloads",
          "type": "uint256"
        },
        {
          "internalType": "uint256",
          "name": "values",
          "type": "uint256"
        }
      ],
      "name": "TimelockInvalidOperationLength",
      "type": "error"
    },
    {
      "inputs": [
        {
          "internalType": "address",
          "name": "caller",
          "type": "address"
        }
      ],
      "name": "TimelockUnauthorizedCaller",
      "type": "error"
    },
    {
      "inputs": [
        {
          "internalType": "bytes32",
          "name": "predecessorId",
          "type": "bytes32"
        }
      ],
      "name": "TimelockUnexecutedPredecessor",
      "type": "error"
    },
    {
      "inputs": [
        {
          "internalType": "bytes32",
          "name": "operationId",
          "type": "bytes32"
        },
        {
          "internalType": "bytes32",
          "name": "expectedStates",
          "type": "bytes32"
        }
      ],
      "name": "TimelockUnexpectedOperationState",
      "type": "error"
    },
    {
      "inputs": [],
      "name": "UUPSUnauthorizedCallContext",
      "type": "error"
    },
    {
      "inputs": [
        {
          "internalType": "bytes32",
          "name": "slot",
          "type": "bytes32"
        }
      ],
      "name": "UUPSUnsupportedProxiableUUID",
      "type": "error"
    },
    {
      "anonymous": false,
      "inputs": [
        {
          "indexed": true,
          "internalType": "bytes32",
          "name": "id",
          "type": "bytes32"
        },
        {
          "indexed": true,
          "internalType": "uint256",
          "name": "index",
          "type": "uint256"
        },
        {
          "indexed": false,
          "internalType": "address",
          "name": "target",
          "type": "address"
        },
        {
          "indexed": false,
          "internalType": "uint256",
          "name": "value",
          "type": "uint256"
        },
        {
          "indexed": false,
          "internalType": "bytes",
          "name": "data",
          "type": "bytes"
        }
      ],
      "name": "CallExecuted",
      "type": "event"
    },
    {
      "anonymous": false,
      "inputs": [
        {
          "indexed": true,
          "internalType": "bytes32",
          "name": "id",
          "type": "bytes32"
        },
        {
          "indexed": false,
          "internalType": "bytes32",
          "name": "salt",
          "type": "bytes32"
        }
      ],
      "name": "CallSalt",
      "type": "event"
    },
    {
      "anonymous": false,
      "inputs": [
        {
          "indexed": true,
          "internalType": "bytes32",
          "name": "id",
          "type": "bytes32"
        },
        {
          "indexed": true,
          "internalType": "uint256",
          "name": "index",
          "type": "uint256"
        },
        {
          "indexed": false,
          "internalType": "address",
          "name": "target",
          "type": "address"
        },
        {
          "indexed": false,
          "internalType": "uint256",
          "name": "value",
          "type": "uint256"
        },
        {
          "indexed": false,
          "internalType": "bytes",
          "name": "data",
          "type": "bytes"
        },
        {
          "indexed": false,
          "internalType": "bytes32",
          "name": "predecessor",
          "type": "bytes32"
        },
        {
          "indexed": false,
          "internalType": "uint256",
          "name": "delay",
          "type": "uint256"
        }
      ],
      "name": "CallScheduled",
      "type": "event"
    },
    {
      "anonymous": false,
      "inputs": [
        {
          "indexed": true,
          "internalType": "bytes32",
          "name": "id",
          "type": "bytes32"
        }
      ],
      "name": "Cancelled",
      "type": "event"
    },
    {
      "anonymous": false,
      "inputs": [
        {
          "indexed": false,
          "internalType": "uint64",
          "name": "version",
          "type": "uint64"
        }
      ],
      "name": "Initialized",
      "type": "event"
    },
    {
      "anonymous": false,
      "inputs": [
        {
          "indexed": false,
          "internalType": "uint256",
          "name": "oldDuration",
          "type": "uint256"
        },
        {
          "indexed": false,
          "internalType": "uint256",
          "name": "newDuration",
          "type": "uint256"
        }
      ],
      "name": "MinDelayChange",
      "type": "event"
    },
    {
      "anonymous": false,
      "inputs": [
        {
          "indexed": true,
          "internalType": "bytes32",
          "name": "role",
          "type": "bytes32"
        },
        {
          "indexed": true,
          "internalType": "bytes32",
          "name": "previousAdminRole",
          "type": "bytes32"
        },
        {
          "indexed": true,
          "internalType": "bytes32",
          "name": "newAdminRole",
          "type": "bytes32"
        }
      ],
      "name": "RoleAdminChanged",
      "type": "event"
    },
    {
      "anonymous": false,
      "inputs": [
        {
          "indexed": true,
          "internalType": "bytes32",
          "name": "role",
          "type": "bytes32"
        },
        {
          "indexed": true,
          "internalType": "address",
          "name": "account",
          "type": "address"
        },
        {
          "indexed": true,
          "internalType": "address",
          "name": "sender",
          "type": "address"
        }
      ],
      "name": "RoleGranted",
      "type": "event"
    },
    {
      "anonymous": false,
      "inputs": [
        {
          "indexed": true,
          "internalType": "bytes32",
          "name": "role",
          "type": "bytes32"
        },
        {
          "indexed": true,
          "internalType": "address",
          "name": "account",
          "type": "address"
        },
        {
          "indexed": true,
          "internalType": "address",
          "name": "sender",
          "type": "address"
        }
      ],
      "name": "RoleRevoked",
      "type": "event"
    },
    {
      "anonymous": false,
      "inputs": [
        {
          "indexed": true,
          "internalType": "address",
          "name": "implementation",
          "type": "address"
        }
      ],
      "name": "Upgraded",
      "type": "event"
    },
    {
      "inputs": [],
      "name": "CANCELLER_ROLE",
      "outputs": [
        {
          "internalType": "bytes32",
          "name": "",
          "type": "bytes32"
        }
      ],
      "stateMutability": "view",
      "type": "function"
    },
    {
      "inputs": [],
      "name": "DEFAULT_ADMIN_ROLE",
      "outputs": [
        {
          "internalType": "bytes32",
          "name": "",
          "type": "bytes32"
        }
      ],
      "stateMutability": "view",
      "type": "function"
    },
    {
      "inputs": [],
      "name": "EXECUTOR_ROLE",
      "outputs": [
        {
          "internalType": "bytes32",
          "name": "",
          "type": "bytes32"
        }
      ],
      "stateMutability": "view",
      "type": "function"
    },
    {
      "inputs": [],
      "name": "PROPOSER_ROLE",
      "outputs": [
        {
          "internalType": "bytes32",
          "name": "",
          "type": "bytes32"
        }
      ],
      "stateMutability": "view",
      "type": "function"
    },
    {
      "inputs": [],
      "name": "UPGRADER_ROLE",
      "outputs": [
        {
          "internalType": "bytes32",
          "name": "",
          "type": "bytes32"
        }
      ],
      "stateMutability": "view",
      "type": "function"
    },
    {
      "inputs": [],
      "name": "UPGRADE_INTERFACE_VERSION",
      "outputs": [
        {
          "internalType": "string",
          "name": "",
          "type": "string"
        }
      ],
      "stateMutability": "view",
      "type": "function"
    },
    {
      "inputs": [
        {
          "internalType": "bytes32",
          "name": "id",
          "type": "bytes32"
        }
      ],
      "name": "cancel",
      "outputs": [],
      "stateMutability": "nonpayable",
      "type": "function"
    },
    {
      "inputs": [
        {
          "internalType": "address",
          "name": "target",
          "type": "address"
        },
        {
          "internalType": "uint256",
          "name": "value",
          "type": "uint256"
        },
        {
          "internalType": "bytes",
          "name": "payload",
          "type": "bytes"
        },
        {
          "internalType": "bytes32",
          "name": "predecessor",
          "type": "bytes32"
        },
        {
          "internalType": "bytes32",
          "name": "salt",
          "type": "bytes32"
        }
      ],
      "name": "execute",
      "outputs": [],
      "stateMutability": "payable",
      "type": "function"
    },
    {
      "inputs": [
        {
          "internalType": "address[]",
          "name": "targets",
          "type": "address[]"
        },
        {
          "internalType": "uint256[]",
          "name": "values",
          "type": "uint256[]"
        },
        {
          "internalType": "bytes[]",
          "name": "payloads",
          "type": "bytes[]"
        },
        {
          "internalType": "bytes32",
          "name": "predecessor",
          "type": "bytes32"
        },
        {
          "internalType": "bytes32",
          "name": "salt",
          "type": "bytes32"
        }
      ],
      "name": "executeBatch",
      "outputs": [],
      "stateMutability": "payable",
      "type": "function"
    },
    {
      "inputs": [],
      "name": "getMinDelay",
      "outputs": [
        {
          "internalType": "uint256",
          "name": "",
          "type": "uint256"
        }
      ],
      "stateMutability": "view",
      "type": "function"
    },
    {
      "inputs": [
        {
          "internalType": "bytes32",
          "name": "id",
          "type": "bytes32"
        }
      ],
      "name": "getOperationState",
      "outputs": [
        {
          "internalType": "enum TimelockControllerUpgradeable.OperationState",
          "name": "",
          "type": "uint8"
        }
      ],
      "stateMutability": "view",
      "type": "function"
    },
    {
      "inputs": [
        {
          "internalType": "bytes32",
          "name": "role",
          "type": "bytes32"
        }
      ],
      "name": "getRoleAdmin",
      "outputs": [
        {
          "internalType": "bytes32",
          "name": "",
          "type": "bytes32"
        }
      ],
      "stateMutability": "view",
      "type": "function"
    },
    {
      "inputs": [
        {
          "internalType": "bytes32",
          "name": "id",
          "type": "bytes32"
        }
      ],
      "name": "getTimestamp",
      "outputs": [
        {
          "internalType": "uint256",
          "name": "",
          "type": "uint256"
        }
      ],
      "stateMutability": "view",
      "type": "function"
    },
    {
      "inputs": [
        {
          "internalType": "bytes32",
          "name": "role",
          "type": "bytes32"
        },
        {
          "internalType": "address",
          "name": "account",
          "type": "address"
        }
      ],
      "name": "grantRole",
      "outputs": [],
      "stateMutability": "nonpayable",
      "type": "function"
    },
    {
      "inputs": [
        {
          "internalType": "bytes32",
          "name": "role",
          "type": "bytes32"
        },
        {
          "internalType": "address",
          "name": "account",
          "type": "address"
        }
      ],
      "name": "hasRole",
      "outputs": [
        {
          "internalType": "bool",
          "name": "",
          "type": "bool"
        }
      ],
      "stateMutability": "view",
      "type": "function"
    },
    {
      "inputs": [
        {
          "internalType": "address",
          "name": "target",
          "type": "address"
        },
        {
          "internalType": "uint256",
          "name": "value",
          "type": "uint256"
        },
        {
          "internalType": "bytes",
          "name": "data",
          "type": "bytes"
        },
        {
          "internalType": "bytes32",
          "name": "predecessor",
          "type": "bytes32"
        },
        {
          "internalType": "bytes32",
          "name": "salt",
          "type": "bytes32"
        }
      ],
      "name": "hashOperation",
      "outputs": [
        {
          "internalType": "bytes32",
          "name": "",
          "type": "bytes32"
        }
      ],
      "stateMutability": "pure",
      "type": "function"
    },
    {
      "inputs": [
        {
          "internalType": "address[]",
          "name": "targets",
          "type": "address[]"
        },
        {
          "internalType": "uint256[]",
          "name": "values",
          "type": "uint256[]"
        },
        {
          "internalType": "bytes[]",
          "name": "payloads",
          "type": "bytes[]"
        },
        {
          "internalType": "bytes32",
          "name": "predecessor",
          "type": "bytes32"
        },
        {
          "internalType": "bytes32",
          "name": "salt",
          "type": "bytes32"
        }
      ],
      "name": "hashOperationBatch",
      "outputs": [
        {
          "internalType": "bytes32",
          "name": "",
          "type": "bytes32"
        }
      ],
      "stateMutability": "pure",
      "type": "function"
    },
    {
      "inputs": [
        {
          "internalType": "uint256",
          "name": "minDelay",
          "type": "uint256"
        },
        {
          "internalType": "address[]",
          "name": "proposers",
          "type": "address[]"
        },
        {
          "internalType": "address[]",
          "name": "executors",
          "type": "address[]"
        },
        {
          "internalType": "address",
          "name": "admin",
          "type": "address"
        },
        {
          "internalType": "address",
          "name": "upgrader",
          "type": "address"
        }
      ],
      "name": "initialize",
      "outputs": [],
      "stateMutability": "nonpayable",
      "type": "function"
    },
    {
      "inputs": [
        {
          "internalType": "bytes32",
          "name": "id",
          "type": "bytes32"
        }
      ],
      "name": "isOperation",
      "outputs": [
        {
          "internalType": "bool",
          "name": "",
          "type": "bool"
        }
      ],
      "stateMutability": "view",
      "type": "function"
    },
    {
      "inputs": [
        {
          "internalType": "bytes32",
          "name": "id",
          "type": "bytes32"
        }
      ],
      "name": "isOperationDone",
      "outputs": [
        {
          "internalType": "bool",
          "name": "",
          "type": "bool"
        }
      ],
      "stateMutability": "view",
      "type": "function"
    },
    {
      "inputs": [
        {
          "internalType": "bytes32",
          "name": "id",
          "type": "bytes32"
        }
      ],
      "name": "isOperationPending",
      "outputs": [
        {
          "internalType": "bool",
          "name": "",
          "type": "bool"
        }
      ],
      "stateMutability": "view",
      "type": "function"
    },
    {
      "inputs": [
        {
          "internalType": "bytes32",
          "name": "id",
          "type": "bytes32"
        }
      ],
      "name": "isOperationReady",
      "outputs": [
        {
          "internalType": "bool",
          "name": "",
          "type": "bool"
        }
      ],
      "stateMutability": "view",
      "type": "function"
    },
    {
      "inputs": [
        {
          "internalType": "address",
          "name": "",
          "type": "address"
        },
        {
          "internalType": "address",
          "name": "",
          "type": "address"
        },
        {
          "internalType": "uint256[]",
          "name": "",
          "type": "uint256[]"
        },
        {
          "internalType": "uint256[]",
          "name": "",
          "type": "uint256[]"
        },
        {
          "internalType": "bytes",
          "name": "",
          "type": "bytes"
        }
      ],
      "name": "onERC1155BatchReceived",
      "outputs": [
        {
          "internalType": "bytes4",
          "name": "",
          "type": "bytes4"
        }
      ],
      "stateMutability": "nonpayable",
      "type": "function"
    },
    {
      "inputs": [
        {
          "internalType": "address",
          "name": "",
          "type": "address"
        },
        {
          "internalType": "address",
          "name": "",
          "type": "address"
        },
        {
          "internalType": "uint256",
          "name": "",
          "type": "uint256"
        },
        {
          "internalType": "uint256",
          "name": "",
          "type": "uint256"
        },
        {
          "internalType": "bytes",
          "name": "",
          "type": "bytes"
        }
      ],
      "name": "onERC1155Received",
      "outputs": [
        {
          "internalType": "bytes4",
          "name": "",
          "type": "bytes4"
        }
      ],
      "stateMutability": "nonpayable",
      "type": "function"
    },
    {
      "inputs": [
        {
          "internalType": "address",
          "name": "",
          "type": "address"
        },
        {
          "internalType": "address",
          "name": "",
          "type": "address"
        },
        {
          "internalType": "uint256",
          "name": "",
          "type": "uint256"
        },
        {
          "internalType": "bytes",
          "name": "",
          "type": "bytes"
        }
      ],
      "name": "onERC721Received",
      "outputs": [
        {
          "internalType": "bytes4",
          "name": "",
          "type": "bytes4"
        }
      ],
      "stateMutability": "nonpayable",
      "type": "function"
    },
    {
      "inputs": [],
      "name": "proxiableUUID",
      "outputs": [
        {
          "internalType": "bytes32",
          "name": "",
          "type": "bytes32"
        }
      ],
      "stateMutability": "view",
      "type": "function"
    },
    {
      "inputs": [
        {
          "internalType": "bytes32",
          "name": "role",
          "type": "bytes32"
        },
        {
          "internalType": "address",
          "name": "callerConfirmation",
          "type": "address"
        }
      ],
      "name": "renounceRole",
      "outputs": [],
      "stateMutability": "nonpayable",
      "type": "function"
    },
    {
      "inputs": [
        {
          "internalType": "bytes32",
          "name": "role",
          "type": "bytes32"
        },
        {
          "internalType": "address",
          "name": "account",
          "type": "address"
        }
      ],
      "name": "revokeRole",
      "outputs": [],
      "stateMutability": "nonpayable",
      "type": "function"
    },
    {
      "inputs": [
        {
          "internalType": "address",
          "name": "target",
          "type": "address"
        },
        {
          "internalType": "uint256",
          "name": "value",
          "type": "uint256"
        },
        {
          "internalType": "bytes",
          "name": "data",
          "type": "bytes"
        },
        {
          "internalType": "bytes32",
          "name": "predecessor",
          "type": "bytes32"
        },
        {
          "internalType": "bytes32",
          "name": "salt",
          "type": "bytes32"
        },
        {
          "internalType": "uint256",
          "name": "delay",
          "type": "uint256"
        }
      ],
      "name": "schedule",
      "outputs": [],
      "stateMutability": "nonpayable",
      "type": "function"
    },
    {
      "inputs": [
        {
          "internalType": "address[]",
          "name": "targets",
          "type": "address[]"
        },
        {
          "internalType": "uint256[]",
          "name": "values",
          "type": "uint256[]"
        },
        {
          "internalType": "bytes[]",
          "name": "payloads",
          "type": "bytes[]"
        },
        {
          "internalType": "bytes32",
          "name": "predecessor",
          "type": "bytes32"
        },
        {
          "internalType": "bytes32",
          "name": "salt",
          "type": "bytes32"
        },
        {
          "internalType": "uint256",
          "name": "delay",
          "type": "uint256"
        }
      ],
      "name": "scheduleBatch",
      "outputs": [],
      "stateMutability": "nonpayable",
      "type": "function"
    },
    {
      "inputs": [
        {
          "internalType": "bytes4",
          "name": "interfaceId",
          "type": "bytes4"
        }
      ],
      "name": "supportsInterface",
      "outputs": [
        {
          "internalType": "bool",
          "name": "",
          "type": "bool"
        }
      ],
      "stateMutability": "view",
      "type": "function"
    },
    {
      "inputs": [
        {
          "internalType": "uint256",
          "name": "newDelay",
          "type": "uint256"
        }
      ],
      "name": "updateDelay",
      "outputs": [],
      "stateMutability": "nonpayable",
      "type": "function"
    },
    {
      "inputs": [
        {
          "internalType": "address",
          "name": "newImplementation",
          "type": "address"
        },
        {
          "internalType": "bytes",
          "name": "data",
          "type": "bytes"
        }
      ],
      "name": "upgradeToAndCall",
      "outputs": [],
      "stateMutability": "payable",
      "type": "function"
    },
    {
      "inputs": [],
      "name": "version",
      "outputs": [
        {
          "internalType": "string",
          "name": "",
          "type": "string"
        }
      ],
      "stateMutability": "pure",
      "type": "function"
    },
    {
      "stateMutability": "payable",
      "type": "receive"
    }
  ],
  "bytecode": "0x60a06040523060805234801561001457600080fd5b5061001d610022565b6100d4565b7ff0c57e16840df040f15088dc2f81fe391c3923bec73e23a9662efc9c229c6a00805468010000000000000000900460ff16156100725760405163f92ee8a960e01b815260040160405180910390fd5b80546001600160401b03908116146100d15780546001600160401b0319166001600160401b0390811782556040519081527fc7f505b2f371ae2175ee4913f4499e1f2633a7b5936321eed1cdaeb6115181d29060200160405180910390a15b50565b608051612404620000fe600039600081816112220152818161124b015261139501526124046000f3fe60806040526004361061018d5760003560e01c806301d5062a1461019957806301ffc9a7146101bb57806307bd0265146101f0578063134008d31461022057806313bc9f2014610233578063150b7a0214610253578063248a9ca3146102975780632ab0f529146102b75780632f2ff15d146102d757806331d50750146102f757806336568abe146103175780634f1ef2861461033757806352d1902d1461034a57806354fd4d501461035f578063584b153e1461039257806364d62353146103b25780637958004c146103d25780638065657f146103ff5780638f2a0bb01461041f5780638f61f4f51461043f57806391d1485414610461578063a217fddf14610481578063ad3cb1cc14610496578063b08e51c0146104c7578063b1c5f427146104e9578063bc197c8114610509578063c2fd31a414610535578063c4d252f514610555578063d45c443514610575578063d547741f14610595578063e38335e5146105b5578063f23a6e61146105c8578063f27a0c92146105f4578063f72c0d8b1461060957600080fd5b3661019457005b600080fd5b3480156101a557600080fd5b506101b96101b436600461183a565b61062b565b005b3480156101c757600080fd5b506101db6101d63660046118ae565b6106cb565b60405190151581526020015b60405180910390f35b3480156101fc57600080fd5b5061021260008051602061232f83398151915281565b6040519081526020016101e7565b6101b961022e3660046118d8565b6106dc565b34801561023f57600080fd5b506101db61024e366004611943565b61076d565b34801561025f57600080fd5b5061027e61026e366004611a11565b630a85bd0160e11b949350505050565b6040516001600160e01b031990911681526020016101e7565b3480156102a357600080fd5b506102126102b2366004611943565b610793565b3480156102c357600080fd5b506101db6102d2366004611943565b6107b3565b3480156102e357600080fd5b506101b96102f2366004611a78565b6107bc565b34801561030357600080fd5b506101db610312366004611943565b6107de565b34801561032357600080fd5b506101b9610332366004611a78565b610803565b6101b9610345366004611aa4565b61083b565b34801561035657600080fd5b5061021261085a565b34801561036b57600080fd5b506040805180820190915260018152603160f81b60208201525b6040516101e79190611b15565b34801561039e57600080fd5b506101db6103ad366004611943565b610877565b3480156103be57600080fd5b506101b96103cd366004611943565b6108bd565b3480156103de57600080fd5b506103f26103ed366004611943565b610927565b6040516101e79190611b5e565b34801561040b57600080fd5b5061021261041a3660046118d8565b610971565b34801561042b57600080fd5b506101b961043a366004611bca565b6109b0565b34801561044b57600080fd5b5061021260008051602061230f83398151915281565b34801561046d57600080fd5b506101db61047c366004611a78565b610b05565b34801561048d57600080fd5b50610212600081565b3480156104a257600080fd5b50610385604051806040016040528060058152602001640352e302e360dc1b81525081565b3480156104d357600080fd5b5061021260008051602061236f83398151915281565b3480156104f557600080fd5b50610212610504366004611c7b565b610b3b565b34801561051557600080fd5b5061027e610524366004611db1565b63bc197c8160e01b95945050505050565b34801561054157600080fd5b506101b9610550366004611ebc565b610b80565b34801561056157600080fd5b506101b9610570366004611943565b610ca1565b34801561058157600080fd5b50610212610590366004611943565b610d40565b3480156105a157600080fd5b506101b96105b0366004611a78565b610d5d565b6101b96105c3366004611c7b565b610d79565b3480156105d457600080fd5b5061027e6105e3366004611f4a565b63f23a6e6160e01b95945050505050565b34801561060057600080fd5b50610212610ecb565b34801561061557600080fd5b506102126000805160206122cf83398151915281565b60008051602061230f83398151915261064381610ee0565b6000610653898989898989610971565b905061065f8184610eed565b60008160008051602061234f8339815191528b8b8b8b8b8a60405161068996959493929190611fd7565b60405180910390a383156106c057806000805160206123af833981519152856040516106b791815260200190565b60405180910390a25b505050505050505050565b60006106d682610f80565b92915050565b60008051602061232f8339815191526106f6816000610b05565b610704576107048133610fa5565b6000610714888888888888610971565b90506107208185610fde565b61072c8888888861102c565b6000816000805160206122af8339815191528a8a8a8a6040516107529493929190612014565b60405180910390a3610763816110a4565b5050505050505050565b600060025b61077b83610927565b600381111561078c5761078c611b48565b1492915050565b60008061079e6110da565b60009384526020525050604090206001015490565b60006003610772565b6107c582610793565b6107ce81610ee0565b6107d883836110fe565b50505050565b6000806107ea83610927565b60038111156107fb576107fb611b48565b141592915050565b6001600160a01b038116331461082c5760405163334bd91960e11b815260040160405180910390fd5b610836828261119f565b505050565b610843611217565b61084c826112be565b61085682826112d6565b5050565b600061086461138a565b506000805160206122ef83398151915290565b60008061088383610927565b9050600181600381111561089957610899611b48565b14806108b6575060028160038111156108b4576108b4611b48565b145b9392505050565b60006108c76113d3565b9050333081146108f5578060405163e2850c5960e01b81526004016108ec9190612046565b60405180910390fd5b60008051602061238f83398151915282600101548460405161091892919061205a565b60405180910390a15060010155565b60008061093383610d40565b9050806000036109465750600092915050565b600181036109575750600392915050565b428111156109685750600192915050565b50600292915050565b600086868686868660405160200161098e96959493929190611fd7565b6040516020818303038152906040528051906020012090509695505050505050565b60008051602061230f8339815191526109c881610ee0565b88871415806109d75750888514155b156109fe576040516001624fcdef60e01b031981526108ec908a9087908a90600401612068565b6000610a108b8b8b8b8b8b8b8b610b3b565b9050610a1c8184610eed565b60005b8a811015610ac857808260008051602061234f8339815191528e8e85818110610a4a57610a4a61207e565b9050602002016020810190610a5f9190612094565b8d8d86818110610a7157610a7161207e565b905060200201358c8c87818110610a8a57610a8a61207e565b9050602002810190610a9c91906120af565b8c8b604051610ab096959493929190611fd7565b60405180910390a3610ac18161210b565b9050610a1f565b508315610af857806000805160206123af83398151915285604051610aef91815260200190565b60405180910390a25b5050505050505050505050565b600080610b106110da565b6000948552602090815260408086206001600160a01b03959095168652939052505090205460ff1690565b60008888888888888888604051602001610b5c9897969594939291906121b5565b60405160208183030381529060405280519060200120905098975050505050505050565b6000610b8a6113f7565b805490915060ff600160401b82041615906001600160401b0316600081158015610bb15750825b90506000826001600160401b03166001148015610bcd5750303b155b905081158015610bdb575080155b15610bf95760405163f92ee8a960e01b815260040160405180910390fd5b84546001600160401b03191660011785558315610c2257845460ff60401b1916600160401b1785555b610c2e8a8a8a8a61141b565b610c3661142f565b610c4e6000805160206122cf833981519152876110fe565b508315610c9557845460ff60401b19168555604051600181527fc7f505b2f371ae2175ee4913f4499e1f2633a7b5936321eed1cdaeb6115181d29060200160405180910390a15b50505050505050505050565b60008051602061236f833981519152610cb981610ee0565b6000610cc36113d3565b9050610cce83610877565b610d035782610cdd6002611437565b610ce76001611437565b17604051635ead8eb560e01b81526004016108ec92919061205a565b6000838152602082905260408082208290555184917fbaa1eb22f2a492ba1a5fea61b8df4d27c6c8b5f3971e63bb58fa14ff72eedb7091a2505050565b600080610d4b6113d3565b60009384526020525050604090205490565b610d6682610793565b610d6f81610ee0565b6107d8838361119f565b60008051602061232f833981519152610d93816000610b05565b610da157610da18133610fa5565b8786141580610db05750878414155b15610dd7576040516001624fcdef60e01b031981526108ec90899086908990600401612068565b6000610de98a8a8a8a8a8a8a8a610b3b565b9050610df58185610fde565b60005b89811015610ec15760008b8b83818110610e1457610e1461207e565b9050602002016020810190610e299190612094565b905060008a8a84818110610e3f57610e3f61207e565b9050602002013590503660008a8a86818110610e5d57610e5d61207e565b9050602002810190610e6f91906120af565b91509150610e7f8484848461102c565b84866000805160206122af83398151915286868686604051610ea49493929190612014565b60405180910390a35050505080610eba9061210b565b9050610df8565b50610c95816110a4565b600080610ed66113d3565b6001015492915050565b610eea8133610fa5565b50565b6000610ef76113d3565b9050610f02836107de565b15610f2d5782610f126000611437565b604051635ead8eb560e01b81526004016108ec92919061205a565b6000610f37610ecb565b905080831015610f5e578281604051635433660960e01b81526004016108ec92919061205a565b610f688342612256565b60009485526020929092525060409092209190915550565b60006001600160e01b03198216630271189760e51b14806106d657506106d68261145a565b610faf8282610b05565b6108565760405163e2517d3f60e01b81526001600160a01b0382166004820152602481018390526044016108ec565b610fe78261076d565b610ff65781610f126002611437565b801580159061100b5750611009816107b3565b155b156108565760405163121534c360e31b8152600481018290526024016108ec565b600080856001600160a01b031685858560405161104a929190612269565b60006040518083038185875af1925050503d8060008114611087576040519150601f19603f3d011682016040523d82523d6000602084013e61108c565b606091505b509150915061109b828261148f565b50505050505050565b60006110ae6113d3565b90506110b98261076d565b6110c85781610f126002611437565b60009182526020526040902060019055565b7f02dd7bc7dec4dceedda775e58dd541e08a116c6c53815c0bd028192f7b62680090565b6000806111096110da565b90506111158484610b05565b611195576000848152602082815260408083206001600160a01b03871684529091529020805460ff1916600117905561114b3390565b6001600160a01b0316836001600160a01b0316857f2f8788117e7eff1d82e926ec794901d17c78024a50270940304540a733656f0d60405160405180910390a460019150506106d6565b60009150506106d6565b6000806111aa6110da565b90506111b68484610b05565b15611195576000848152602082815260408083206001600160a01b0387168085529252808320805460ff1916905551339287917ff6391f5c32d9c69d2a47ea670b442974b53935d1edc7fd64eb21e047a839171b9190a460019150506106d6565b306001600160a01b037f000000000000000000000000000000000000000000000000000000000000000016148061129e57507f00000000000000000000000000000000000000000000000000000000000000006001600160a01b03166112926000805160206122ef833981519152546001600160a01b031690565b6001600160a01b031614155b156112bc5760405163703e46dd60e11b815260040160405180910390fd5b565b6000805160206122cf83398151915261085681610ee0565b816001600160a01b03166352d1902d6040518163ffffffff1660e01b8152600401602060405180830381865afa925050508015611330575060408051601f3d908101601f1916820190925261132d91810190612279565b60015b61134f5781604051634c9c8ce360e01b81526004016108ec9190612046565b6000805160206122ef833981519152811461138057604051632a87526960e21b8152600481018290526024016108ec565b61083683836114ab565b306001600160a01b037f000000000000000000000000000000000000000000000000000000000000000016146112bc5760405163703e46dd60e11b815260040160405180910390fd5b7f9a37c2aa9d186a0969ff8a8267bf4e07e864c2f2768f5040949e28a624fb360090565b7ff0c57e16840df040f15088dc2f81fe391c3923bec73e23a9662efc9c229c6a0090565b611423611501565b6107d884848484611526565b6112bc611501565b600081600381111561144b5761144b611b48565b600160ff919091161b92915050565b60006001600160e01b03198216637965db0b60e01b14806106d657506301ffc9a760e01b6001600160e01b03198316146106d6565b6060826114a45761149f8261164f565b6106d6565b50806106d6565b6114b482611678565b6040516001600160a01b038316907fbc7cd75a20ee27fd9adebab32041f755214dbc6bffa90cc0225b39da2e5c2d3b90600090a28051156114f95761083682826116d4565b61085661174a565b611509611769565b6112bc57604051631afcd79f60e31b815260040160405180910390fd5b61152e611501565b60006115386113d3565b90506115456000306110fe565b506001600160a01b03821615611562576115606000836110fe565b505b60005b84518110156115d55761159f60008051602061230f8339815191528683815181106115925761159261207e565b60200260200101516110fe565b506115c460008051602061236f8339815191528683815181106115925761159261207e565b506115ce8161210b565b9050611565565b5060005b83518110156116175761160660008051602061232f8339815191528583815181106115925761159261207e565b506116108161210b565b90506115d9565b506001810185905560405160008051602061238f8339815191529061164090600090889061205a565b60405180910390a15050505050565b80511561165f5780518082602001fd5b604051630a12f52160e11b815260040160405180910390fd5b806001600160a01b03163b6000036116a55780604051634c9c8ce360e01b81526004016108ec9190612046565b6000805160206122ef83398151915280546001600160a01b0319166001600160a01b0392909216919091179055565b6060600080846001600160a01b0316846040516116f19190612292565b600060405180830381855af49150503d806000811461172c576040519150601f19603f3d011682016040523d82523d6000602084013e611731565b606091505b5091509150611741858383611783565b95945050505050565b34156112bc5760405163b398979f60e01b815260040160405180910390fd5b60006117736113f7565b54600160401b900460ff16919050565b606082611798576117938261164f565b6108b6565b81511580156117af57506001600160a01b0384163b155b156117cf5783604051639996b31560e01b81526004016108ec9190612046565b5092915050565b80356001600160a01b03811681146117ed57600080fd5b919050565b60008083601f84011261180457600080fd5b5081356001600160401b0381111561181b57600080fd5b60208301915083602082850101111561183357600080fd5b9250929050565b600080600080600080600060c0888a03121561185557600080fd5b61185e886117d6565b96506020880135955060408801356001600160401b0381111561188057600080fd5b61188c8a828b016117f2565b989b979a50986060810135976080820135975060a09091013595509350505050565b6000602082840312156118c057600080fd5b81356001600160e01b0319811681146108b657600080fd5b60008060008060008060a087890312156118f157600080fd5b6118fa876117d6565b95506020870135945060408701356001600160401b0381111561191c57600080fd5b61192889828a016117f2565b979a9699509760608101359660809091013595509350505050565b60006020828403121561195557600080fd5b5035919050565b634e487b7160e01b600052604160045260246000fd5b604051601f8201601f191681016001600160401b038111828210171561199a5761199a61195c565b604052919050565b600082601f8301126119b357600080fd5b81356001600160401b038111156119cc576119cc61195c565b6119df601f8201601f1916602001611972565b8181528460208386010111156119f457600080fd5b816020850160208301376000918101602001919091529392505050565b60008060008060808587031215611a2757600080fd5b611a30856117d6565b9350611a3e602086016117d6565b92506040850135915060608501356001600160401b03811115611a6057600080fd5b611a6c878288016119a2565b91505092959194509250565b60008060408385031215611a8b57600080fd5b82359150611a9b602084016117d6565b90509250929050565b60008060408385031215611ab757600080fd5b611ac0836117d6565b915060208301356001600160401b03811115611adb57600080fd5b611ae7858286016119a2565b9150509250929050565b60005b83811015611b0c578181015183820152602001611af4565b50506000910152565b6020815260008251806020840152611b34816040850160208701611af1565b601f01601f19169190910160400192915050565b634e487b7160e01b600052602160045260246000fd5b6020810160048310611b8057634e487b7160e01b600052602160045260246000fd5b91905290565b60008083601f840112611b9857600080fd5b5081356001600160401b03811115611baf57600080fd5b6020830191508360208260051b850101111561183357600080fd5b600080600080600080600080600060c08a8c031215611be857600080fd5b89356001600160401b0380821115611bff57600080fd5b611c0b8d838e01611b86565b909b50995060208c0135915080821115611c2457600080fd5b611c308d838e01611b86565b909950975060408c0135915080821115611c4957600080fd5b50611c568c828d01611b86565b9a9d999c50979a969997986060880135976080810135975060a0013595509350505050565b60008060008060008060008060a0898b031215611c9757600080fd5b88356001600160401b0380821115611cae57600080fd5b611cba8c838d01611b86565b909a50985060208b0135915080821115611cd357600080fd5b611cdf8c838d01611b86565b909850965060408b0135915080821115611cf857600080fd5b50611d058b828c01611b86565b999c989b509699959896976060870135966080013595509350505050565b60006001600160401b03821115611d3c57611d3c61195c565b5060051b60200190565b600082601f830112611d5757600080fd5b81356020611d6c611d6783611d23565b611972565b82815260059290921b84018101918181019086841115611d8b57600080fd5b8286015b84811015611da65780358352918301918301611d8f565b509695505050505050565b600080600080600060a08688031215611dc957600080fd5b611dd2866117d6565b9450611de0602087016117d6565b935060408601356001600160401b0380821115611dfc57600080fd5b611e0889838a01611d46565b94506060880135915080821115611e1e57600080fd5b611e2a89838a01611d46565b93506080880135915080821115611e4057600080fd5b50611e4d888289016119a2565b9150509295509295909350565b600082601f830112611e6b57600080fd5b81356020611e7b611d6783611d23565b82815260059290921b84018101918181019086841115611e9a57600080fd5b8286015b84811015611da657611eaf816117d6565b8352918301918301611e9e565b600080600080600060a08688031215611ed457600080fd5b8535945060208601356001600160401b0380821115611ef257600080fd5b611efe89838a01611e5a565b95506040880135915080821115611f1457600080fd5b50611f2188828901611e5a565b935050611f30606087016117d6565b9150611f3e608087016117d6565b90509295509295909350565b600080600080600060a08688031215611f6257600080fd5b611f6b866117d6565b9450611f79602087016117d6565b9350604086013592506060860135915060808601356001600160401b03811115611fa257600080fd5b611e4d888289016119a2565b81835281816020850137506000828201602090810191909152601f909101601f19169091010190565b60018060a01b038716815285602082015260a060408201526000611fff60a083018688611fae565b60608301949094525060800152949350505050565b60018060a01b038516815283602082015260606040820152600061203c606083018486611fae565b9695505050505050565b6001600160a01b0391909116815260200190565b918252602082015260400190565b9283526020830191909152604082015260600190565b634e487b7160e01b600052603260045260246000fd5b6000602082840312156120a657600080fd5b6108b6826117d6565b6000808335601e198436030181126120c657600080fd5b8301803591506001600160401b038211156120e057600080fd5b60200191503681900382131561183357600080fd5b634e487b7160e01b600052601160045260246000fd5b60006001820161211d5761211d6120f5565b5060010190565b81835260006020808501808196508560051b810191508460005b878110156121a85782840389528135601e1988360301811261215f57600080fd5b870185810190356001600160401b0381111561217a57600080fd5b80360382131561218957600080fd5b612194868284611fae565b9a87019a955050509084019060010161213e565b5091979650505050505050565b60a0808252810188905260008960c08301825b8b8110156121f6576001600160a01b036121e1846117d6565b168252602092830192909101906001016121c8565b5083810360208501528881526001600160fb1b0389111561221657600080fd5b8860051b9150818a6020830137018281036020908101604085015261223e9082018789612124565b60608401959095525050608001529695505050505050565b808201808211156106d6576106d66120f5565b8183823760009101908152919050565b60006020828403121561228b57600080fd5b5051919050565b600082516122a4818460208701611af1565b919091019291505056fec2617efa69bab66782fa219543714338489c4e9e178271560a91b82c3f612b58189ab7a9244df0848122154315af71fe140f3db0fe014031783b0946b8c9d2e3360894a13ba1a3210667c828492db98dca3e2076cc3735a920a3ca505d382bbcb09aa5aeb3702cfd50b6b62bc4532604938f21248a27a1d5ca736082b6819cc1d8aa0f3194971a2a116679f7c2090f6939c8d4e01a2a8d7e41d55e5351469e634cf4410cc57040e44862ef0f45f3dd5a5e02db8eb8add648d4b0e236f1d07dcafd643c72710c63c0180259aba6b2d05451e3591a24e58b62239378085726f78311c24f4ead16507c69ac467fbd5e4eed5fb5c699626d2cc6d66421df253886d520fda5fd27a1ea7bf5b9567f143ac5470bb059374a27e8f67cb44f946f6d0387a26469706673582212203f73d49373b7f1a8d4a9c61aab9d1ceadd7d01000d10f3a3fd8d19d30e501b0e64736f6c63430008140033",
  "linkReferences": {},
  "deployedLinkReferences": {}
}