{
  "_format": "hh-sol-artifact-1",
  "contractName": "X2EarnCreator",
  "sourceName": "contracts/X2EarnCreator.sol",
  "abi": [
    {
      "inputs": [],
      "stateMutability": "nonpayable",
      "type": "constructor"
    },
    {
      "inputs": [],
      "name": "AccessControlBadConfirmation",
      "type": "error"
    },
    {
      "inputs": [
        {
          "internalType": "address",
          "name": "account",
          "type": "address"
        },
        {
          "internalType": "bytes32",
          "name": "neededRole",
          "type": "bytes32"
        }
      ],
      "name": "AccessControlUnauthorizedAccount",
      "type": "error"
    },
    {
      "inputs": [
        {
          "internalType": "address",
          "name": "target",
          "type": "address"
        }
      ],
      "name": "AddressEmptyCode",
      "type": "error"
    },
    {
      "inputs": [
        {
          "internalType": "address",
          "name": "owner",
          "type": "address"
        }
      ],
      "name": "AlreadyOwnsNFT",
      "type": "error"
    },
    {
      "inputs": [
        {
          "internalType": "address",
          "name": "implementation",
          "type": "address"
        }
      ],
      "name": "ERC1967InvalidImplementation",
      "type": "error"
    },
    {
      "inputs": [],
      "name": "ERC1967NonPayable",
      "type": "error"
    },
    {
      "inputs": [],
      "name": "ERC721EnumerableForbiddenBatchMint",
      "type": "error"
    },
    {
      "inputs": [
        {
          "internalType": "address",
          "name": "sender",
          "type": "address"
        },
        {
          "internalType": "uint256",
          "name": "tokenId",
          "type": "uint256"
        },
        {
          "internalType": "address",
          "name": "owner",
          "type": "address"
        }
      ],
      "name": "ERC721IncorrectOwner",
      "type": "error"
    },
    {
      "inputs": [
        {
          "internalType": "address",
          "name": "operator",
          "type": "address"
        },
        {
          "internalType": "uint256",
          "name": "tokenId",
          "type": "uint256"
        }
      ],
      "name": "ERC721InsufficientApproval",
      "type": "error"
    },
    {
      "inputs": [
        {
          "internalType": "address",
          "name": "approver",
          "type": "address"
        }
      ],
      "name": "ERC721InvalidApprover",
      "type": "error"
    },
    {
      "inputs": [
        {
          "internalType": "address",
          "name": "operator",
          "type": "address"
        }
      ],
      "name": "ERC721InvalidOperator",
      "type": "error"
    },
    {
      "inputs": [
        {
          "internalType": "address",
          "name": "owner",
          "type": "address"
        }
      ],
      "name": "ERC721InvalidOwner",
      "type": "error"
    },
    {
      "inputs": [
        {
          "internalType": "address",
          "name": "receiver",
          "type": "address"
        }
      ],
      "name": "ERC721InvalidReceiver",
      "type": "error"
    },
    {
      "inputs": [
        {
          "internalType": "address",
          "name": "sender",
          "type": "address"
        }
      ],
      "name": "ERC721InvalidSender",
      "type": "error"
    },
    {
      "inputs": [
        {
          "internalType": "uint256",
          "name": "tokenId",
          "type": "uint256"
        }
      ],
      "name": "ERC721NonexistentToken",
      "type": "error"
    },
    {
      "inputs": [
        {
          "internalType": "address",
          "name": "owner",
          "type": "address"
        },
        {
          "internalType": "uint256",
          "name": "index",
          "type": "uint256"
        }
      ],
      "name": "ERC721OutOfBoundsIndex",
      "type": "error"
    },
    {
      "inputs": [],
      "name": "EnforcedPause",
      "type": "error"
    },
    {
      "inputs": [],
      "name": "ExpectedPause",
      "type": "error"
    },
    {
      "inputs": [],
      "name": "FailedInnerCall",
      "type": "error"
    },
    {
      "inputs": [],
      "name": "InvalidInitialization",
      "type": "error"
    },
    {
      "inputs": [],
      "name": "NotInitializing",
      "type": "error"
    },
    {
      "inputs": [],
      "name": "TransfersDisabled",
      "type": "error"
    },
    {
      "inputs": [],
      "name": "UUPSUnauthorizedCallContext",
      "type": "error"
    },
    {
      "inputs": [
        {
          "internalType": "bytes32",
          "name": "slot",
          "type": "bytes32"
        }
      ],
      "name": "UUPSUnsupportedProxiableUUID",
      "type": "error"
    },
    {
      "inputs": [
        {
          "internalType": "address",
          "name": "user",
          "type": "address"
        }
      ],
      "name": "X2EarnCreatorUnauthorizedUser",
      "type": "error"
    },
    {
      "anonymous": false,
      "inputs": [
        {
          "indexed": true,
          "internalType": "address",
          "name": "owner",
          "type": "address"
        },
        {
          "indexed": true,
          "internalType": "address",
          "name": "approved",
          "type": "address"
        },
        {
          "indexed": true,
          "internalType": "uint256",
          "name": "tokenId",
          "type": "uint256"
        }
      ],
      "name": "Approval",
      "type": "event"
    },
    {
      "anonymous": false,
      "inputs": [
        {
          "indexed": true,
          "internalType": "address",
          "name": "owner",
          "type": "address"
        },
        {
          "indexed": true,
          "internalType": "address",
          "name": "operator",
          "type": "address"
        },
        {
          "indexed": false,
          "internalType": "bool",
          "name": "approved",
          "type": "bool"
        }
      ],
      "name": "ApprovalForAll",
      "type": "event"
    },
    {
      "anonymous": false,
      "inputs": [
        {
          "indexed": false,
          "internalType": "uint64",
          "name": "version",
          "type": "uint64"
        }
      ],
      "name": "Initialized",
      "type": "event"
    },
    {
      "anonymous": false,
      "inputs": [
        {
          "indexed": false,
          "internalType": "address",
          "name": "account",
          "type": "address"
        }
      ],
      "name": "Paused",
      "type": "event"
    },
    {
      "anonymous": false,
      "inputs": [
        {
          "indexed": true,
          "internalType": "bytes32",
          "name": "role",
          "type": "bytes32"
        },
        {
          "indexed": true,
          "internalType": "bytes32",
          "name": "previousAdminRole",
          "type": "bytes32"
        },
        {
          "indexed": true,
          "internalType": "bytes32",
          "name": "newAdminRole",
          "type": "bytes32"
        }
      ],
      "name": "RoleAdminChanged",
      "type": "event"
    },
    {
      "anonymous": false,
      "inputs": [
        {
          "indexed": true,
          "internalType": "bytes32",
          "name": "role",
          "type": "bytes32"
        },
        {
          "indexed": true,
          "internalType": "address",
          "name": "account",
          "type": "address"
        },
        {
          "indexed": true,
          "internalType": "address",
          "name": "sender",
          "type": "address"
        }
      ],
      "name": "RoleGranted",
      "type": "event"
    },
    {
      "anonymous": false,
      "inputs": [
        {
          "indexed": true,
          "internalType": "bytes32",
          "name": "role",
          "type": "bytes32"
        },
        {
          "indexed": true,
          "internalType": "address",
          "name": "account",
          "type": "address"
        },
        {
          "indexed": true,
          "internalType": "address",
          "name": "sender",
          "type": "address"
        }
      ],
      "name": "RoleRevoked",
      "type": "event"
    },
    {
      "anonymous": false,
      "inputs": [
        {
          "indexed": true,
          "internalType": "address",
          "name": "from",
          "type": "address"
        },
        {
          "indexed": true,
          "internalType": "address",
          "name": "to",
          "type": "address"
        },
        {
          "indexed": true,
          "internalType": "uint256",
          "name": "tokenId",
          "type": "uint256"
        }
      ],
      "name": "Transfer",
      "type": "event"
    },
    {
      "anonymous": false,
      "inputs": [
        {
          "indexed": false,
          "internalType": "address",
          "name": "account",
          "type": "address"
        }
      ],
      "name": "Unpaused",
      "type": "event"
    },
    {
      "anonymous": false,
      "inputs": [
        {
          "indexed": true,
          "internalType": "address",
          "name": "implementation",
          "type": "address"
        }
      ],
      "name": "Upgraded",
      "type": "event"
    },
    {
      "inputs": [],
      "name": "BURNER_ROLE",
      "outputs": [
        {
          "internalType": "bytes32",
          "name": "",
          "type": "bytes32"
        }
      ],
      "stateMutability": "view",
      "type": "function"
    },
    {
      "inputs": [],
      "name": "DEFAULT_ADMIN_ROLE",
      "outputs": [
        {
          "internalType": "bytes32",
          "name": "",
          "type": "bytes32"
        }
      ],
      "stateMutability": "view",
      "type": "function"
    },
    {
      "inputs": [],
      "name": "MINTER_ROLE",
      "outputs": [
        {
          "internalType": "bytes32",
          "name": "",
          "type": "bytes32"
        }
      ],
      "stateMutability": "view",
      "type": "function"
    },
    {
      "inputs": [],
      "name": "PAUSER_ROLE",
      "outputs": [
        {
          "internalType": "bytes32",
          "name": "",
          "type": "bytes32"
        }
      ],
      "stateMutability": "view",
      "type": "function"
    },
    {
      "inputs": [],
      "name": "UPGRADER_ROLE",
      "outputs": [
        {
          "internalType": "bytes32",
          "name": "",
          "type": "bytes32"
        }
      ],
      "stateMutability": "view",
      "type": "function"
    },
    {
      "inputs": [],
      "name": "UPGRADE_INTERFACE_VERSION",
      "outputs": [
        {
          "internalType": "string",
          "name": "",
          "type": "string"
        }
      ],
      "stateMutability": "view",
      "type": "function"
    },
    {
      "inputs": [
        {
          "internalType": "address",
          "name": "",
          "type": "address"
        },
        {
          "internalType": "uint256",
          "name": "",
          "type": "uint256"
        }
      ],
      "name": "approve",
      "outputs": [],
      "stateMutability": "pure",
      "type": "function"
    },
    {
      "inputs": [
        {
          "internalType": "address",
          "name": "owner",
          "type": "address"
        }
      ],
      "name": "balanceOf",
      "outputs": [
        {
          "internalType": "uint256",
          "name": "",
          "type": "uint256"
        }
      ],
      "stateMutability": "view",
      "type": "function"
    },
    {
      "inputs": [],
      "name": "baseURI",
      "outputs": [
        {
          "internalType": "string",
          "name": "",
          "type": "string"
        }
      ],
      "stateMutability": "view",
      "type": "function"
    },
    {
      "inputs": [
        {
          "internalType": "uint256",
          "name": "tokenId",
          "type": "uint256"
        }
      ],
      "name": "burn",
      "outputs": [],
      "stateMutability": "nonpayable",
      "type": "function"
    },
    {
      "inputs": [
        {
          "internalType": "uint256",
          "name": "tokenId",
          "type": "uint256"
        }
      ],
      "name": "getApproved",
      "outputs": [
        {
          "internalType": "address",
          "name": "",
          "type": "address"
        }
      ],
      "stateMutability": "view",
      "type": "function"
    },
    {
      "inputs": [
        {
          "internalType": "bytes32",
          "name": "role",
          "type": "bytes32"
        }
      ],
      "name": "getRoleAdmin",
      "outputs": [
        {
          "internalType": "bytes32",
          "name": "",
          "type": "bytes32"
        }
      ],
      "stateMutability": "view",
      "type": "function"
    },
    {
      "inputs": [
        {
          "internalType": "bytes32",
          "name": "role",
          "type": "bytes32"
        },
        {
          "internalType": "address",
          "name": "account",
          "type": "address"
        }
      ],
      "name": "grantRole",
      "outputs": [],
      "stateMutability": "nonpayable",
      "type": "function"
    },
    {
      "inputs": [
        {
          "internalType": "bytes32",
          "name": "role",
          "type": "bytes32"
        },
        {
          "internalType": "address",
          "name": "account",
          "type": "address"
        }
      ],
      "name": "hasRole",
      "outputs": [
        {
          "internalType": "bool",
          "name": "",
          "type": "bool"
        }
      ],
      "stateMutability": "view",
      "type": "function"
    },
    {
      "inputs": [
        {
          "internalType": "string",
          "name": "baseURI",
          "type": "string"
        },
        {
          "internalType": "address",
          "name": "defaultAdmin",
          "type": "address"
        }
      ],
      "name": "initialize",
      "outputs": [],
      "stateMutability": "nonpayable",
      "type": "function"
    },
    {
      "inputs": [
        {
          "internalType": "address",
          "name": "owner",
          "type": "address"
        },
        {
          "internalType": "address",
          "name": "operator",
          "type": "address"
        }
      ],
      "name": "isApprovedForAll",
      "outputs": [
        {
          "internalType": "bool",
          "name": "",
          "type": "bool"
        }
      ],
      "stateMutability": "view",
      "type": "function"
    },
    {
      "inputs": [],
      "name": "name",
      "outputs": [
        {
          "internalType": "string",
          "name": "",
          "type": "string"
        }
      ],
      "stateMutability": "view",
      "type": "function"
    },
    {
      "inputs": [
        {
          "internalType": "uint256",
          "name": "tokenId",
          "type": "uint256"
        }
      ],
      "name": "ownerOf",
      "outputs": [
        {
          "internalType": "address",
          "name": "",
          "type": "address"
        }
      ],
      "stateMutability": "view",
      "type": "function"
    },
    {
      "inputs": [],
      "name": "pause",
      "outputs": [],
      "stateMutability": "nonpayable",
      "type": "function"
    },
    {
      "inputs": [],
      "name": "paused",
      "outputs": [
        {
          "internalType": "bool",
          "name": "",
          "type": "bool"
        }
      ],
      "stateMutability": "view",
      "type": "function"
    },
    {
      "inputs": [],
      "name": "proxiableUUID",
      "outputs": [
        {
          "internalType": "bytes32",
          "name": "",
          "type": "bytes32"
        }
      ],
      "stateMutability": "view",
      "type": "function"
    },
    {
      "inputs": [
        {
          "internalType": "bytes32",
          "name": "role",
          "type": "bytes32"
        },
        {
          "internalType": "address",
          "name": "callerConfirmation",
          "type": "address"
        }
      ],
      "name": "renounceRole",
      "outputs": [],
      "stateMutability": "nonpayable",
      "type": "function"
    },
    {
      "inputs": [
        {
          "internalType": "bytes32",
          "name": "role",
          "type": "bytes32"
        },
        {
          "internalType": "address",
          "name": "account",
          "type": "address"
        }
      ],
      "name": "revokeRole",
      "outputs": [],
      "stateMutability": "nonpayable",
      "type": "function"
    },
    {
      "inputs": [
        {
          "internalType": "address",
          "name": "to",
          "type": "address"
        }
      ],
      "name": "safeMint",
      "outputs": [],
      "stateMutability": "nonpayable",
      "type": "function"
    },
    {
      "inputs": [
        {
          "internalType": "address",
          "name": "from",
          "type": "address"
        },
        {
          "internalType": "address",
          "name": "to",
          "type": "address"
        },
        {
          "internalType": "uint256",
          "name": "tokenId",
          "type": "uint256"
        }
      ],
      "name": "safeTransferFrom",
      "outputs": [],
      "stateMutability": "nonpayable",
      "type": "function"
    },
    {
      "inputs": [
        {
          "internalType": "address",
          "name": "",
          "type": "address"
        },
        {
          "internalType": "address",
          "name": "",
          "type": "address"
        },
        {
          "internalType": "uint256",
          "name": "",
          "type": "uint256"
        },
        {
          "internalType": "bytes",
          "name": "",
          "type": "bytes"
        }
      ],
      "name": "safeTransferFrom",
      "outputs": [],
      "stateMutability": "pure",
      "type": "function"
    },
    {
      "inputs": [
        {
          "internalType": "address",
          "name": "",
          "type": "address"
        },
        {
          "internalType": "bool",
          "name": "",
          "type": "bool"
        }
      ],
      "name": "setApprovalForAll",
      "outputs": [],
      "stateMutability": "pure",
      "type": "function"
    },
    {
      "inputs": [
        {
          "internalType": "string",
          "name": "newBaseURI",
          "type": "string"
        }
      ],
      "name": "setBaseURI",
      "outputs": [],
      "stateMutability": "nonpayable",
      "type": "function"
    },
    {
      "inputs": [
        {
          "internalType": "bytes4",
          "name": "interfaceId",
          "type": "bytes4"
        }
      ],
      "name": "supportsInterface",
      "outputs": [
        {
          "internalType": "bool",
          "name": "",
          "type": "bool"
        }
      ],
      "stateMutability": "view",
      "type": "function"
    },
    {
      "inputs": [],
      "name": "symbol",
      "outputs": [
        {
          "internalType": "string",
          "name": "",
          "type": "string"
        }
      ],
      "stateMutability": "view",
      "type": "function"
    },
    {
      "inputs": [
        {
          "internalType": "uint256",
          "name": "index",
          "type": "uint256"
        }
      ],
      "name": "tokenByIndex",
      "outputs": [
        {
          "internalType": "uint256",
          "name": "",
          "type": "uint256"
        }
      ],
      "stateMutability": "view",
      "type": "function"
    },
    {
      "inputs": [
        {
          "internalType": "address",
          "name": "owner",
          "type": "address"
        },
        {
          "internalType": "uint256",
          "name": "index",
          "type": "uint256"
        }
      ],
      "name": "tokenOfOwnerByIndex",
      "outputs": [
        {
          "internalType": "uint256",
          "name": "",
          "type": "uint256"
        }
      ],
      "stateMutability": "view",
      "type": "function"
    },
    {
      "inputs": [
        {
          "internalType": "uint256",
          "name": "tokenId",
          "type": "uint256"
        }
      ],
      "name": "tokenURI",
      "outputs": [
        {
          "internalType": "string",
          "name": "",
          "type": "string"
        }
      ],
      "stateMutability": "view",
      "type": "function"
    },
    {
      "inputs": [],
      "name": "totalSupply",
      "outputs": [
        {
          "internalType": "uint256",
          "name": "",
          "type": "uint256"
        }
      ],
      "stateMutability": "view",
      "type": "function"
    },
    {
      "inputs": [
        {
          "internalType": "address",
          "name": "",
          "type": "address"
        },
        {
          "internalType": "address",
          "name": "",
          "type": "address"
        },
        {
          "internalType": "uint256",
          "name": "",
          "type": "uint256"
        }
      ],
      "name": "transferFrom",
      "outputs": [],
      "stateMutability": "pure",
      "type": "function"
    },
    {
      "inputs": [],
      "name": "unpause",
      "outputs": [],
      "stateMutability": "nonpayable",
      "type": "function"
    },
    {
      "inputs": [
        {
          "internalType": "address",
          "name": "newImplementation",
          "type": "address"
        },
        {
          "internalType": "bytes",
          "name": "data",
          "type": "bytes"
        }
      ],
      "name": "upgradeToAndCall",
      "outputs": [],
      "stateMutability": "payable",
      "type": "function"
    },
    {
      "inputs": [],
      "name": "version",
      "outputs": [
        {
          "internalType": "string",
          "name": "",
          "type": "string"
        }
      ],
      "stateMutability": "pure",
      "type": "function"
    }
  ],
  "bytecode": "0x60a0604052306080523480156200001557600080fd5b506200002062000026565b620000da565b7ff0c57e16840df040f15088dc2f81fe391c3923bec73e23a9662efc9c229c6a00805468010000000000000000900460ff1615620000775760405163f92ee8a960e01b815260040160405180910390fd5b80546001600160401b0390811614620000d75780546001600160401b0319166001600160401b0390811782556040519081527fc7f505b2f371ae2175ee4913f4499e1f2633a7b5936321eed1cdaeb6115181d29060200160405180910390a15b50565b60805161266c6200010460003960008181611169015281816111920152611310015261266c6000f3fe6080604052600436106101b55760003560e01c806301ffc9a7146101ba57806306fdde03146101ef578063081812fc14610211578063095ea7b31461023e57806318160ddd1461026057806323b872dd14610283578063248a9ca31461029e578063282c51f3146102be5780632f2ff15d146102e05780632f745c591461030057806336568abe146103205780633f4ba83a1461034057806340d097c31461035557806342842e0e1461037557806342966c68146103955780634f1ef286146103b55780634f6ccce7146103c857806352d1902d146103e857806354fd4d50146103fd57806355f804b3146104275780635c975abb146104475780636352211e1461045c5780636c0360eb1461047c57806370a08231146104915780637ab4339d146104b15780638456cb59146104d157806391d14854146104e657806395d89b4114610506578063a217fddf1461051b578063a22cb46514610530578063ad3cb1cc1461054b578063b88d4fde1461057c578063c87b56dd14610597578063d5391393146105b7578063d547741f146105d9578063e63ab1e9146105f9578063e985e9c51461061b578063f72c0d8b1461063b575b600080fd5b3480156101c657600080fd5b506101da6101d5366004611e63565b61065d565b60405190151581526020015b60405180910390f35b3480156101fb57600080fd5b5061020461066e565b6040516101e69190611ed0565b34801561021d57600080fd5b5061023161022c366004611ee3565b61070f565b6040516101e69190611efc565b34801561024a57600080fd5b5061025e610259366004611f2c565b610724565b005b34801561026c57600080fd5b5061027561073d565b6040519081526020016101e6565b34801561028f57600080fd5b5061025e610259366004611f56565b3480156102aa57600080fd5b506102756102b9366004611ee3565b610752565b3480156102ca57600080fd5b5061027560008051602061259783398151915281565b3480156102ec57600080fd5b5061025e6102fb366004611f92565b610772565b34801561030c57600080fd5b5061027561031b366004611f2c565b610794565b34801561032c57600080fd5b5061025e61033b366004611f92565b6107ff565b34801561034c57600080fd5b5061025e610837565b34801561036157600080fd5b5061025e610370366004611fbe565b610890565b34801561038157600080fd5b5061025e610390366004611f56565b61093f565b3480156103a157600080fd5b5061025e6103b0366004611ee3565b61095a565b61025e6103c336600461207b565b6109bd565b3480156103d457600080fd5b506102756103e3366004611ee3565b6109d8565b3480156103f457600080fd5b50610275610a39565b34801561040957600080fd5b506040805180820190915260018152603160f81b6020820152610204565b34801561043357600080fd5b5061025e610442366004612110565b610a56565b34801561045357600080fd5b506101da610a83565b34801561046857600080fd5b50610231610477366004611ee3565b610a98565b34801561048857600080fd5b50610204610aa3565b34801561049d57600080fd5b506102756104ac366004611fbe565b610ac0565b3480156104bd57600080fd5b5061025e6104cc366004612151565b610b18565b3480156104dd57600080fd5b5061025e610d41565b3480156104f257600080fd5b506101da610501366004611f92565b610d97565b34801561051257600080fd5b50610204610dcd565b34801561052757600080fd5b50610275600081565b34801561053c57600080fd5b5061025e6102593660046121a4565b34801561055757600080fd5b50610204604051806040016040528060058152602001640352e302e360dc1b81525081565b34801561058857600080fd5b5061025e6102593660046121e0565b3480156105a357600080fd5b506102046105b2366004611ee3565b610dd9565b3480156105c357600080fd5b5061027560008051602061261783398151915281565b3480156105e557600080fd5b5061025e6105f4366004611f92565b610df6565b34801561060557600080fd5b506102756000805160206125f783398151915281565b34801561062757600080fd5b506101da610636366004612247565b610e12565b34801561064757600080fd5b506102756000805160206125b783398151915281565b600061066882610e51565b92915050565b6060600061067a610e76565b905080600001805461068b90612271565b80601f01602080910402602001604051908101604052809291908181526020018280546106b790612271565b80156107045780601f106106d957610100808354040283529160200191610704565b820191906000526020600020905b8154815290600101906020018083116106e757829003601f168201915b505050505091505090565b600061071a82610e9a565b5061066882610ed2565b604051638574adcf60e01b815260040160405180910390fd5b600080610748610efb565b6002015492915050565b60008061075d610f1f565b60009384526020525050604090206001015490565b61077b82610752565b61078481610f43565b61078e8383610f4d565b50505050565b60008061079f610efb565b90506107aa84610ac0565b83106107d657838360405163295f44f760e21b81526004016107cd9291906122ab565b60405180910390fd5b6001600160a01b0384166000908152602091825260408082208583529092522054905092915050565b6001600160a01b03811633146108285760405163334bd91960e11b815260040160405180910390fd5b6108328282610fee565b505050565b6000805160206125f78339815191526108508133610d97565b1580156108655750610863600033610d97565b155b156108855733604051631df76f7d60e21b81526004016107cd9190611efc565b61088d611066565b50565b6000805160206126178339815191526108a98133610d97565b1580156108be57506108bc600033610d97565b155b156108de5733604051631df76f7d60e21b81526004016107cd9190611efc565b6108e66110bd565b60006108f183610ac0565b1115610912578160405163149d80a360e11b81526004016107cd9190611efc565b600061091c6110e5565b8054909150600090828261092f836122da565b91905055905061078e8482611109565b61083283838360405180602001604052806000815250610724565b6000805160206125978339815191526109738133610d97565b1580156109885750610986600033610d97565b155b156109a85733604051631df76f7d60e21b81526004016107cd9190611efc565b6109b06110bd565b6109b982611123565b5050565b6109c561115e565b6109ce82611203565b6109b98282611251565b6000806109e3610efb565b90506109ed61073d565b8310610a115760008360405163295f44f760e21b81526004016107cd9291906122ab565b806002018381548110610a2657610a266122f3565b9060005260206000200154915050919050565b6000610a43611305565b506000805160206125d783398151915290565b6000610a6181610f43565b6000610a6b6110e5565b905060018101610a7c84868361236c565b5050505050565b600080610a8e61134e565b5460ff1692915050565b600061066882610e9a565b60606000610aaf6110e5565b905080600101805461068b90612271565b600080610acb610e76565b90506001600160a01b038316610af75760006040516322718ad960e21b81526004016107cd9190611efc565b6001600160a01b039092166000908152600390920160205250604090205490565b6000610b22611372565b805490915060ff600160401b82041615906001600160401b0316600081158015610b495750825b90506000826001600160401b03166001148015610b655750303b155b905081158015610b73575080155b15610b915760405163f92ee8a960e01b815260040160405180910390fd5b84546001600160401b03191660011785558315610bba57845460ff60401b1916600160401b1785555b610c046040518060400160405280600d81526020016c2c1922b0b93721b932b0ba37b960991b8152506040518060400160405280600381526020016258324360e81b815250611396565b610c0c6113a8565b610c146113b8565b610c1c6113b8565b610c246113b8565b6000610c2e6110e5565b905087610c7d5760405162461bcd60e51b815260206004820152601f60248201527f58324561726e43726561746f723a206261736555524920697320656d7074790060448201526064016107cd565b60018101610c8c898b8361236c565b506001600160a01b038716610ce15760405162461bcd60e51b815260206004820152601b60248201527a58324561726e43726561746f723a207a65726f206164647265737360281b60448201526064016107cd565b610cec600088610f4d565b50600190558315610d3757845460ff60401b19168555604051600181527fc7f505b2f371ae2175ee4913f4499e1f2633a7b5936321eed1cdaeb6115181d29060200160405180910390a15b5050505050505050565b6000805160206125f7833981519152610d5a8133610d97565b158015610d6f5750610d6d600033610d97565b155b15610d8f5733604051631df76f7d60e21b81526004016107cd9190611efc565b61088d6113c0565b600080610da2610f1f565b6000948552602090815260408086206001600160a01b03959095168652939052505090205460ff1690565b60606000610aaf610e76565b6060610de482610e9a565b506000610def610aa3565b9392505050565b610dff82610752565b610e0881610f43565b61078e8383610fee565b600080610e1d610e76565b6001600160a01b03948516600090815260059190910160209081526040808320959096168252939093525050205460ff1690565b60006001600160e01b03198216637965db0b60e01b1480610668575061066882611407565b7f80bb2b638cc20bc4d0a60d66940f3ab4a00c1d7b313497ca82fb0b4ab007930090565b600080610ea68361142c565b90506001600160a01b03811661066857604051637e27328960e01b8152600481018490526024016107cd565b600080610edd610e76565b6000938452600401602052505060409020546001600160a01b031690565b7f645e039705490088daad89bae25049a34f4a9072d398537b1ab2425f24cbed0090565b7f02dd7bc7dec4dceedda775e58dd541e08a116c6c53815c0bd028192f7b62680090565b61088d8133611455565b600080610f58610f1f565b9050610f648484610d97565b610fe4576000848152602082815260408083206001600160a01b03871684529091529020805460ff19166001179055610f9a3390565b6001600160a01b0316836001600160a01b0316857f2f8788117e7eff1d82e926ec794901d17c78024a50270940304540a733656f0d60405160405180910390a46001915050610668565b6000915050610668565b600080610ff9610f1f565b90506110058484610d97565b15610fe4576000848152602082815260408083206001600160a01b0387168085529252808320805460ff1916905551339287917ff6391f5c32d9c69d2a47ea670b442974b53935d1edc7fd64eb21e047a839171b9190a46001915050610668565b61106e611480565b600061107861134e565b805460ff1916815590507f5db9ee0a495bf2e6ff9c91a7834c1ba4fdd244a5e8aa4e537bd38aeae4b073aa335b6040516110b29190611efc565b60405180910390a150565b6110c5610a83565b156110e35760405163d93c066560e01b815260040160405180910390fd5b565b7faf8fa2a2e81e5e00a4ef8747fbca475174c33b675ca2c56fe05a83bfd2d8fc0090565b6109b98282604051806020016040528060008152506114a5565b600061113260008360006114bc565b90506001600160a01b0381166109b957604051637e27328960e01b8152600481018390526024016107cd565b306001600160a01b037f00000000000000000000000000000000000000000000000000000000000000001614806111e557507f00000000000000000000000000000000000000000000000000000000000000006001600160a01b03166111d96000805160206125d7833981519152546001600160a01b031690565b6001600160a01b031614155b156110e35760405163703e46dd60e11b815260040160405180910390fd5b6000805160206125b783398151915261121c8133610d97565b158015611231575061122f600033610d97565b155b156109b95733604051631df76f7d60e21b81526004016107cd9190611efc565b816001600160a01b03166352d1902d6040518163ffffffff1660e01b8152600401602060405180830381865afa9250505080156112ab575060408051601f3d908101601f191682019092526112a891810190612425565b60015b6112ca5781604051634c9c8ce360e01b81526004016107cd9190611efc565b6000805160206125d783398151915281146112fb57604051632a87526960e21b8152600481018290526024016107cd565b61083283836114d1565b306001600160a01b037f000000000000000000000000000000000000000000000000000000000000000016146110e35760405163703e46dd60e11b815260040160405180910390fd5b7fcd5ed15c6e187e77e9aee88184c21f4f2182ab5827cb3b7e07fbedcd63f0330090565b7ff0c57e16840df040f15088dc2f81fe391c3923bec73e23a9662efc9c229c6a0090565b61139e611527565b6109b9828261154c565b6113b0611527565b6110e361157a565b6110e3611527565b6113c86110bd565b60006113d261134e565b805460ff1916600117815590507f62e78cea01bee320cd4e420270b5ea74000d11b0c9f74754ebdbfc544b05a2586110a53390565b60006001600160e01b0319821663780e9d6360e01b1480610668575061066882611597565b600080611437610e76565b6000938452600201602052505060409020546001600160a01b031690565b61145f8282610d97565b6109b957808260405163e2517d3f60e01b81526004016107cd9291906122ab565b611488610a83565b6110e357604051638dfc202b60e01b815260040160405180910390fd5b6114af83836115e7565b610832600084848461164c565b60006114c984848461175c565b949350505050565b6114da826117ea565b6040516001600160a01b038316907fbc7cd75a20ee27fd9adebab32041f755214dbc6bffa90cc0225b39da2e5c2d3b90600090a280511561151f576108328282611846565b6109b96118bc565b61152f6118db565b6110e357604051631afcd79f60e31b815260040160405180910390fd5b611554611527565b600061155e610e76565b90508061156b848261243e565b506001810161078e838261243e565b611582611527565b600061158c61134e565b805460ff1916905550565b60006001600160e01b031982166380ac58cd60e01b14806115c857506001600160e01b03198216635b5e139f60e01b145b8061066857506301ffc9a760e01b6001600160e01b0319831614610668565b6001600160a01b038216611611576000604051633250574960e11b81526004016107cd9190611efc565b600061161f838360006114bc565b90506001600160a01b038116156108325760006040516339e3563760e11b81526004016107cd9190611efc565b6001600160a01b0383163b1561078e57604051630a85bd0160e11b81526001600160a01b0384169063150b7a029061168e9033908890879087906004016124f7565b6020604051808303816000875af19250505080156116c9575060408051601f3d908101601f191682019092526116c691810190612534565b60015b611729573d8080156116f7576040519150601f19603f3d011682016040523d82523d6000602084013e6116fc565b606091505b5080516000036117215783604051633250574960e11b81526004016107cd9190611efc565b805181602001fd5b6001600160e01b03198116630a85bd0160e11b14610a7c5783604051633250574960e11b81526004016107cd9190611efc565b60008061176a8585856118f5565b90506001600160a01b038116611788576117838461190a565b6117ab565b846001600160a01b0316816001600160a01b0316146117ab576117ab8185611943565b6001600160a01b0385166117c7576117c2846119e4565b6114c9565b846001600160a01b0316816001600160a01b0316146114c9576114c98585611aad565b806001600160a01b03163b6000036118175780604051634c9c8ce360e01b81526004016107cd9190611efc565b6000805160206125d783398151915280546001600160a01b0319166001600160a01b0392909216919091179055565b6060600080846001600160a01b0316846040516118639190612551565b600060405180830381855af49150503d806000811461189e576040519150601f19603f3d011682016040523d82523d6000602084013e6118a3565b606091505b50915091506118b3858383611b05565b95945050505050565b34156110e35760405163b398979f60e01b815260040160405180910390fd5b60006118e5611372565b54600160401b900460ff16919050565b60006118ff6110bd565b6114c9848484611b58565b6000611914610efb565b600281018054600085815260039093016020908152604084208290556001820183559183529120019190915550565b600061194d610efb565b9050600061195a84610ac0565b60008481526001840160205260409020549091508082146119af576001600160a01b03851660009081526020848152604080832085845282528083205484845281842081905583526001860190915290208190555b50600092835260018201602090815260408085208590556001600160a01b039095168452918252838320908352905290812055565b60006119ee610efb565b6002810154909150600090611a059060019061256d565b6000848152600384016020526040812054600285018054939450909284908110611a3157611a316122f3565b9060005260206000200154905080846002018381548110611a5457611a546122f3565b600091825260208083209091019290925582815260038601909152604080822084905586825281205560028401805480611a9057611a90612580565b600190038181906000526020600020016000905590555050505050565b6000611ab7610efb565b905060006001611ac685610ac0565b611ad0919061256d565b6001600160a01b0390941660009081526020838152604080832087845282528083208690559482526001909301909252502055565b606082611b1a57611b1582611c5f565b610def565b8151158015611b3157506001600160a01b0384163b155b15611b515783604051639996b31560e01b81526004016107cd9190611efc565b5080610def565b600080611b63610e76565b90506000611b708561142c565b90506001600160a01b03841615611b8c57611b8c818587611c88565b6001600160a01b03811615611bcc57611ba9600086600080611cde565b6001600160a01b0381166000908152600383016020526040902080546000190190555b6001600160a01b03861615611bfd576001600160a01b03861660009081526003830160205260409020805460010190555b600085815260028301602052604080822080546001600160a01b0319166001600160a01b038a811691821790925591518893918516917fddf252ad1be2c89b69c2b068fc378daa952ba7f163c4a11628f55a4df523b3ef91a495945050505050565b805115611c6f5780518082602001fd5b604051630a12f52160e11b815260040160405180910390fd5b611c93838383611de8565b610832576001600160a01b038316611cc157604051637e27328960e01b8152600481018290526024016107cd565b818160405163177e802f60e01b81526004016107cd9291906122ab565b6000611ce8610e76565b90508180611cfe57506001600160a01b03831615155b15611db7576000611d0e85610e9a565b90506001600160a01b03841615801590611d3a5750836001600160a01b0316816001600160a01b031614155b8015611d4d5750611d4b8185610e12565b155b15611d6d578360405163a9fbf51f60e01b81526004016107cd9190611efc565b8215611db55784866001600160a01b0316826001600160a01b03167f8c5be1e5ebec7d5bd14f71427d1e84f3dd0314c0f7b2291e5b200ac8c7c3b92560405160405180910390a45b505b600093845260040160205250506040902080546001600160a01b0319166001600160a01b0392909216919091179055565b60006001600160a01b038316158015906114c95750826001600160a01b0316846001600160a01b03161480611e225750611e228484610e12565b806114c95750826001600160a01b0316611e3b83610ed2565b6001600160a01b031614949350505050565b6001600160e01b03198116811461088d57600080fd5b600060208284031215611e7557600080fd5b8135610def81611e4d565b60005b83811015611e9b578181015183820152602001611e83565b50506000910152565b60008151808452611ebc816020860160208601611e80565b601f01601f19169290920160200192915050565b602081526000610def6020830184611ea4565b600060208284031215611ef557600080fd5b5035919050565b6001600160a01b0391909116815260200190565b80356001600160a01b0381168114611f2757600080fd5b919050565b60008060408385031215611f3f57600080fd5b611f4883611f10565b946020939093013593505050565b600080600060608486031215611f6b57600080fd5b611f7484611f10565b9250611f8260208501611f10565b9150604084013590509250925092565b60008060408385031215611fa557600080fd5b82359150611fb560208401611f10565b90509250929050565b600060208284031215611fd057600080fd5b610def82611f10565b634e487b7160e01b600052604160045260246000fd5b600082601f83011261200057600080fd5b81356001600160401b038082111561201a5761201a611fd9565b604051601f8301601f19908116603f0116810190828211818310171561204257612042611fd9565b8160405283815286602085880101111561205b57600080fd5b836020870160208301376000602085830101528094505050505092915050565b6000806040838503121561208e57600080fd5b61209783611f10565b915060208301356001600160401b038111156120b257600080fd5b6120be85828601611fef565b9150509250929050565b60008083601f8401126120da57600080fd5b5081356001600160401b038111156120f157600080fd5b60208301915083602082850101111561210957600080fd5b9250929050565b6000806020838503121561212357600080fd5b82356001600160401b0381111561213957600080fd5b612145858286016120c8565b90969095509350505050565b60008060006040848603121561216657600080fd5b83356001600160401b0381111561217c57600080fd5b612188868287016120c8565b909450925061219b905060208501611f10565b90509250925092565b600080604083850312156121b757600080fd5b6121c083611f10565b9150602083013580151581146121d557600080fd5b809150509250929050565b600080600080608085870312156121f657600080fd5b6121ff85611f10565b935061220d60208601611f10565b92506040850135915060608501356001600160401b0381111561222f57600080fd5b61223b87828801611fef565b91505092959194509250565b6000806040838503121561225a57600080fd5b61226383611f10565b9150611fb560208401611f10565b600181811c9082168061228557607f821691505b6020821081036122a557634e487b7160e01b600052602260045260246000fd5b50919050565b6001600160a01b03929092168252602082015260400190565b634e487b7160e01b600052601160045260246000fd5b6000600182016122ec576122ec6122c4565b5060010190565b634e487b7160e01b600052603260045260246000fd5b601f82111561083257600081815260208120601f850160051c810160208610156123305750805b601f850160051c820191505b8181101561234f5782815560010161233c565b505050505050565b600019600383901b1c191660019190911b1790565b6001600160401b0383111561238357612383611fd9565b612397836123918354612271565b83612309565b6000601f8411600181146123c557600085156123b35750838201355b6123bd8682612357565b845550610a7c565b600083815260209020601f19861690835b828110156123f657868501358255602094850194600190920191016123d6565b50868210156124135760001960f88860031b161c19848701351681555b505060018560011b0183555050505050565b60006020828403121561243757600080fd5b5051919050565b81516001600160401b0381111561245757612457611fd9565b61246b816124658454612271565b84612309565b602080601f83116001811461249a57600084156124885750858301515b6124928582612357565b86555061234f565b600085815260208120601f198616915b828110156124c9578886015182559484019460019091019084016124aa565b50858210156124e75787850151600019600388901b60f8161c191681555b5050505050600190811b01905550565b6001600160a01b038581168252841660208201526040810183905260806060820181905260009061252a90830184611ea4565b9695505050505050565b60006020828403121561254657600080fd5b8151610def81611e4d565b60008251612563818460208701611e80565b9190910192915050565b81810381811115610668576106686122c4565b634e487b7160e01b600052603160045260246000fdfe3c11d16cbaffd01df69ce1c404f6340ee057498f5f00246190ea54220576a848189ab7a9244df0848122154315af71fe140f3db0fe014031783b0946b8c9d2e3360894a13ba1a3210667c828492db98dca3e2076cc3735a920a3ca505d382bbc65d7a28e3265b37a6474929f336521b332c1681b933f6cb9f3376673440d862a9f2df0fed2c77648de5860a4cc508cd0818c85b8b8a1ab4ceeef8d981c8956a6a2646970667358221220c5a14799846d4cfa25109182d2a5bcf380d47f86729dd49b0e7248a8459ed22d64736f6c63430008140033",
  "linkReferences": {},
  "deployedLinkReferences": {}
}