{
  "_format": "hh-sol-artifact-1",
  "contractName": "B3TRGovernorV2",
  "sourceName": "contracts/deprecated/V2/B3TRGovernorV2.sol",
  "abi": [
    {
      "inputs": [],
      "stateMutability": "nonpayable",
      "type": "constructor"
    },
    {
      "inputs": [],
      "name": "AccessControlBadConfirmation",
      "type": "error"
    },
    {
      "inputs": [
        {
          "internalType": "address",
          "name": "account",
          "type": "address"
        },
        {
          "internalType": "bytes32",
          "name": "neededRole",
          "type": "bytes32"
        }
      ],
      "name": "AccessControlUnauthorizedAccount",
      "type": "error"
    },
    {
      "inputs": [
        {
          "internalType": "address",
          "name": "target",
          "type": "address"
        }
      ],
      "name": "AddressEmptyCode",
      "type": "error"
    },
    {
      "inputs": [
        {
          "internalType": "address",
          "name": "implementation",
          "type": "address"
        }
      ],
      "name": "ERC1967InvalidImplementation",
      "type": "error"
    },
    {
      "inputs": [],
      "name": "ERC1967NonPayable",
      "type": "error"
    },
    {
      "inputs": [],
      "name": "EnforcedPause",
      "type": "error"
    },
    {
      "inputs": [],
      "name": "ExpectedPause",
      "type": "error"
    },
    {
      "inputs": [],
      "name": "FailedInnerCall",
      "type": "error"
    },
    {
      "inputs": [
        {
          "internalType": "address",
          "name": "voter",
          "type": "address"
        }
      ],
      "name": "GovernorAlreadyCastVote",
      "type": "error"
    },
    {
      "inputs": [
        {
          "internalType": "uint256",
          "name": "proposalId",
          "type": "uint256"
        }
      ],
      "name": "GovernorAlreadyQueuedProposal",
      "type": "error"
    },
    {
      "inputs": [
        {
          "internalType": "uint256",
          "name": "depositThreshold",
          "type": "uint256"
        }
      ],
      "name": "GovernorDepositThresholdNotInRange",
      "type": "error"
    },
    {
      "inputs": [],
      "name": "GovernorDisabledDeposit",
      "type": "error"
    },
    {
      "inputs": [
        {
          "internalType": "address",
          "name": "proposer",
          "type": "address"
        },
        {
          "internalType": "uint256",
          "name": "votes",
          "type": "uint256"
        },
        {
          "internalType": "uint256",
          "name": "threshold",
          "type": "uint256"
        }
      ],
      "name": "GovernorInsufficientProposerVotes",
      "type": "error"
    },
    {
      "inputs": [],
      "name": "GovernorInvalidDepositAmount",
      "type": "error"
    },
    {
      "inputs": [
        {
          "internalType": "uint256",
          "name": "targets",
          "type": "uint256"
        },
        {
          "internalType": "uint256",
          "name": "calldatas",
          "type": "uint256"
        },
        {
          "internalType": "uint256",
          "name": "values",
          "type": "uint256"
        }
      ],
      "name": "GovernorInvalidProposalLength",
      "type": "error"
    },
    {
      "inputs": [
        {
          "internalType": "uint256",
          "name": "quorumNumerator",
          "type": "uint256"
        },
        {
          "internalType": "uint256",
          "name": "quorumDenominator",
          "type": "uint256"
        }
      ],
      "name": "GovernorInvalidQuorumFraction",
      "type": "error"
    },
    {
      "inputs": [
        {
          "internalType": "uint256",
          "name": "roundId",
          "type": "uint256"
        }
      ],
      "name": "GovernorInvalidStartRound",
      "type": "error"
    },
    {
      "inputs": [],
      "name": "GovernorInvalidVoteType",
      "type": "error"
    },
    {
      "inputs": [
        {
          "internalType": "uint256",
          "name": "votingPeriod",
          "type": "uint256"
        }
      ],
      "name": "GovernorInvalidVotingPeriod",
      "type": "error"
    },
    {
      "inputs": [
        {
          "internalType": "uint256",
          "name": "proposalId",
          "type": "uint256"
        },
        {
          "internalType": "address",
          "name": "depositer",
          "type": "address"
        }
      ],
      "name": "GovernorNoDepositToWithdraw",
      "type": "error"
    },
    {
      "inputs": [
        {
          "internalType": "uint256",
          "name": "proposalId",
          "type": "uint256"
        }
      ],
      "name": "GovernorNonexistentProposal",
      "type": "error"
    },
    {
      "inputs": [
        {
          "internalType": "uint256",
          "name": "proposalId",
          "type": "uint256"
        }
      ],
      "name": "GovernorNotQueuedProposal",
      "type": "error"
    },
    {
      "inputs": [
        {
          "internalType": "address",
          "name": "account",
          "type": "address"
        }
      ],
      "name": "GovernorOnlyExecutor",
      "type": "error"
    },
    {
      "inputs": [
        {
          "internalType": "address",
          "name": "account",
          "type": "address"
        }
      ],
      "name": "GovernorOnlyExecutor",
      "type": "error"
    },
    {
      "inputs": [
        {
          "internalType": "address",
          "name": "account",
          "type": "address"
        }
      ],
      "name": "GovernorOnlyProposer",
      "type": "error"
    },
    {
      "inputs": [],
      "name": "GovernorQueueNotImplemented",
      "type": "error"
    },
    {
      "inputs": [
        {
          "internalType": "address",
          "name": "proposer",
          "type": "address"
        }
      ],
      "name": "GovernorRestrictedProposer",
      "type": "error"
    },
    {
      "inputs": [
        {
          "internalType": "uint256",
          "name": "proposalId",
          "type": "uint256"
        },
        {
          "internalType": "enum GovernorTypesV1.ProposalState",
          "name": "current",
          "type": "uint8"
        },
        {
          "internalType": "bytes32",
          "name": "expectedStates",
          "type": "bytes32"
        }
      ],
      "name": "GovernorUnexpectedProposalState",
      "type": "error"
    },
    {
      "inputs": [
        {
          "internalType": "uint256",
          "name": "threshold",
          "type": "uint256"
        },
        {
          "internalType": "uint256",
          "name": "votes",
          "type": "uint256"
        }
      ],
      "name": "GovernorVotingThresholdNotMet",
      "type": "error"
    },
    {
      "inputs": [],
      "name": "InvalidInitialization",
      "type": "error"
    },
    {
      "inputs": [],
      "name": "NotInitializing",
      "type": "error"
    },
    {
      "inputs": [],
      "name": "QueueEmpty",
      "type": "error"
    },
    {
      "inputs": [],
      "name": "UUPSUnauthorizedCallContext",
      "type": "error"
    },
    {
      "inputs": [
        {
          "internalType": "bytes32",
          "name": "slot",
          "type": "bytes32"
        }
      ],
      "name": "UUPSUnsupportedProxiableUUID",
      "type": "error"
    },
    {
      "inputs": [
        {
          "internalType": "address",
          "name": "user",
          "type": "address"
        }
      ],
      "name": "UnauthorizedAccess",
      "type": "error"
    },
    {
      "anonymous": false,
      "inputs": [
        {
          "indexed": true,
          "internalType": "address",
          "name": "target",
          "type": "address"
        },
        {
          "indexed": true,
          "internalType": "bytes4",
          "name": "functionSelector",
          "type": "bytes4"
        },
        {
          "indexed": false,
          "internalType": "bool",
          "name": "isWhitelisted",
          "type": "bool"
        }
      ],
      "name": "FunctionWhitelisted",
      "type": "event"
    },
    {
      "anonymous": false,
      "inputs": [
        {
          "indexed": false,
          "internalType": "uint64",
          "name": "version",
          "type": "uint64"
        }
      ],
      "name": "Initialized",
      "type": "event"
    },
    {
      "anonymous": false,
      "inputs": [
        {
          "indexed": false,
          "internalType": "address",
          "name": "account",
          "type": "address"
        }
      ],
      "name": "Paused",
      "type": "event"
    },
    {
      "anonymous": false,
      "inputs": [
        {
          "indexed": false,
          "internalType": "uint256",
          "name": "proposalId",
          "type": "uint256"
        }
      ],
      "name": "ProposalCanceled",
      "type": "event"
    },
    {
      "anonymous": false,
      "inputs": [
        {
          "indexed": true,
          "internalType": "uint256",
          "name": "proposalId",
          "type": "uint256"
        },
        {
          "indexed": true,
          "internalType": "address",
          "name": "proposer",
          "type": "address"
        },
        {
          "indexed": false,
          "internalType": "address[]",
          "name": "targets",
          "type": "address[]"
        },
        {
          "indexed": false,
          "internalType": "uint256[]",
          "name": "values",
          "type": "uint256[]"
        },
        {
          "indexed": false,
          "internalType": "string[]",
          "name": "signatures",
          "type": "string[]"
        },
        {
          "indexed": false,
          "internalType": "bytes[]",
          "name": "calldatas",
          "type": "bytes[]"
        },
        {
          "indexed": false,
          "internalType": "string",
          "name": "description",
          "type": "string"
        },
        {
          "indexed": true,
          "internalType": "uint256",
          "name": "roundIdVoteStart",
          "type": "uint256"
        },
        {
          "indexed": false,
          "internalType": "uint256",
          "name": "depositThreshold",
          "type": "uint256"
        }
      ],
      "name": "ProposalCreated",
      "type": "event"
    },
    {
      "anonymous": false,
      "inputs": [
        {
          "indexed": true,
          "internalType": "address",
          "name": "depositor",
          "type": "address"
        },
        {
          "indexed": true,
          "internalType": "uint256",
          "name": "proposalId",
          "type": "uint256"
        },
        {
          "indexed": false,
          "internalType": "uint256",
          "name": "amount",
          "type": "uint256"
        }
      ],
      "name": "ProposalDeposit",
      "type": "event"
    },
    {
      "anonymous": false,
      "inputs": [
        {
          "indexed": false,
          "internalType": "uint256",
          "name": "proposalId",
          "type": "uint256"
        }
      ],
      "name": "ProposalExecuted",
      "type": "event"
    },
    {
      "anonymous": false,
      "inputs": [
        {
          "indexed": false,
          "internalType": "uint256",
          "name": "proposalId",
          "type": "uint256"
        },
        {
          "indexed": false,
          "internalType": "uint256",
          "name": "etaSeconds",
          "type": "uint256"
        }
      ],
      "name": "ProposalQueued",
      "type": "event"
    },
    {
      "anonymous": false,
      "inputs": [
        {
          "indexed": false,
          "internalType": "uint256",
          "name": "oldNumerator",
          "type": "uint256"
        },
        {
          "indexed": false,
          "internalType": "uint256",
          "name": "newNumerator",
          "type": "uint256"
        }
      ],
      "name": "QuorumNumeratorUpdated",
      "type": "event"
    },
    {
      "anonymous": false,
      "inputs": [
        {
          "indexed": true,
          "internalType": "bytes32",
          "name": "role",
          "type": "bytes32"
        },
        {
          "indexed": true,
          "internalType": "bytes32",
          "name": "previousAdminRole",
          "type": "bytes32"
        },
        {
          "indexed": true,
          "internalType": "bytes32",
          "name": "newAdminRole",
          "type": "bytes32"
        }
      ],
      "name": "RoleAdminChanged",
      "type": "event"
    },
    {
      "anonymous": false,
      "inputs": [
        {
          "indexed": true,
          "internalType": "bytes32",
          "name": "role",
          "type": "bytes32"
        },
        {
          "indexed": true,
          "internalType": "address",
          "name": "account",
          "type": "address"
        },
        {
          "indexed": true,
          "internalType": "address",
          "name": "sender",
          "type": "address"
        }
      ],
      "name": "RoleGranted",
      "type": "event"
    },
    {
      "anonymous": false,
      "inputs": [
        {
          "indexed": true,
          "internalType": "bytes32",
          "name": "role",
          "type": "bytes32"
        },
        {
          "indexed": true,
          "internalType": "address",
          "name": "account",
          "type": "address"
        },
        {
          "indexed": true,
          "internalType": "address",
          "name": "sender",
          "type": "address"
        }
      ],
      "name": "RoleRevoked",
      "type": "event"
    },
    {
      "anonymous": false,
      "inputs": [
        {
          "indexed": false,
          "internalType": "address",
          "name": "oldTimelock",
          "type": "address"
        },
        {
          "indexed": false,
          "internalType": "address",
          "name": "newTimelock",
          "type": "address"
        }
      ],
      "name": "TimelockChange",
      "type": "event"
    },
    {
      "anonymous": false,
      "inputs": [
        {
          "indexed": false,
          "internalType": "address",
          "name": "account",
          "type": "address"
        }
      ],
      "name": "Unpaused",
      "type": "event"
    },
    {
      "anonymous": false,
      "inputs": [
        {
          "indexed": true,
          "internalType": "address",
          "name": "implementation",
          "type": "address"
        }
      ],
      "name": "Upgraded",
      "type": "event"
    },
    {
      "anonymous": false,
      "inputs": [
        {
          "indexed": true,
          "internalType": "address",
          "name": "voter",
          "type": "address"
        },
        {
          "indexed": true,
          "internalType": "uint256",
          "name": "proposalId",
          "type": "uint256"
        },
        {
          "indexed": false,
          "internalType": "uint8",
          "name": "support",
          "type": "uint8"
        },
        {
          "indexed": false,
          "internalType": "uint256",
          "name": "weight",
          "type": "uint256"
        },
        {
          "indexed": false,
          "internalType": "uint256",
          "name": "power",
          "type": "uint256"
        },
        {
          "indexed": false,
          "internalType": "string",
          "name": "reason",
          "type": "string"
        }
      ],
      "name": "VoteCast",
      "type": "event"
    },
    {
      "inputs": [],
      "name": "CLOCK_MODE",
      "outputs": [
        {
          "internalType": "string",
          "name": "",
          "type": "string"
        }
      ],
      "stateMutability": "view",
      "type": "function"
    },
    {
      "inputs": [],
      "name": "CONTRACTS_ADDRESS_MANAGER_ROLE",
      "outputs": [
        {
          "internalType": "bytes32",
          "name": "",
          "type": "bytes32"
        }
      ],
      "stateMutability": "view",
      "type": "function"
    },
    {
      "inputs": [],
      "name": "COUNTING_MODE",
      "outputs": [
        {
          "internalType": "string",
          "name": "",
          "type": "string"
        }
      ],
      "stateMutability": "pure",
      "type": "function"
    },
    {
      "inputs": [],
      "name": "DEFAULT_ADMIN_ROLE",
      "outputs": [
        {
          "internalType": "bytes32",
          "name": "",
          "type": "bytes32"
        }
      ],
      "stateMutability": "view",
      "type": "function"
    },
    {
      "inputs": [],
      "name": "GOVERNOR_FUNCTIONS_SETTINGS_ROLE",
      "outputs": [
        {
          "internalType": "bytes32",
          "name": "",
          "type": "bytes32"
        }
      ],
      "stateMutability": "view",
      "type": "function"
    },
    {
      "inputs": [],
      "name": "PAUSER_ROLE",
      "outputs": [
        {
          "internalType": "bytes32",
          "name": "",
          "type": "bytes32"
        }
      ],
      "stateMutability": "view",
      "type": "function"
    },
    {
      "inputs": [],
      "name": "PROPOSAL_EXECUTOR_ROLE",
      "outputs": [
        {
          "internalType": "bytes32",
          "name": "",
          "type": "bytes32"
        }
      ],
      "stateMutability": "view",
      "type": "function"
    },
    {
      "inputs": [],
      "name": "UPGRADE_INTERFACE_VERSION",
      "outputs": [
        {
          "internalType": "string",
          "name": "",
          "type": "string"
        }
      ],
      "stateMutability": "view",
      "type": "function"
    },
    {
      "inputs": [],
      "name": "b3tr",
      "outputs": [
        {
          "internalType": "contract IB3TR",
          "name": "",
          "type": "address"
        }
      ],
      "stateMutability": "view",
      "type": "function"
    },
    {
      "inputs": [],
      "name": "canProposalStartInNextRound",
      "outputs": [
        {
          "internalType": "bool",
          "name": "",
          "type": "bool"
        }
      ],
      "stateMutability": "view",
      "type": "function"
    },
    {
      "inputs": [
        {
          "internalType": "address[]",
          "name": "targets",
          "type": "address[]"
        },
        {
          "internalType": "uint256[]",
          "name": "values",
          "type": "uint256[]"
        },
        {
          "internalType": "bytes[]",
          "name": "calldatas",
          "type": "bytes[]"
        },
        {
          "internalType": "bytes32",
          "name": "descriptionHash",
          "type": "bytes32"
        }
      ],
      "name": "cancel",
      "outputs": [
        {
          "internalType": "uint256",
          "name": "",
          "type": "uint256"
        }
      ],
      "stateMutability": "nonpayable",
      "type": "function"
    },
    {
      "inputs": [
        {
          "internalType": "uint256",
          "name": "proposalId",
          "type": "uint256"
        },
        {
          "internalType": "uint8",
          "name": "support",
          "type": "uint8"
        }
      ],
      "name": "castVote",
      "outputs": [
        {
          "internalType": "uint256",
          "name": "",
          "type": "uint256"
        }
      ],
      "stateMutability": "nonpayable",
      "type": "function"
    },
    {
      "inputs": [
        {
          "internalType": "uint256",
          "name": "proposalId",
          "type": "uint256"
        },
        {
          "internalType": "uint8",
          "name": "support",
          "type": "uint8"
        },
        {
          "internalType": "string",
          "name": "reason",
          "type": "string"
        }
      ],
      "name": "castVoteWithReason",
      "outputs": [
        {
          "internalType": "uint256",
          "name": "",
          "type": "uint256"
        }
      ],
      "stateMutability": "nonpayable",
      "type": "function"
    },
    {
      "inputs": [],
      "name": "clock",
      "outputs": [
        {
          "internalType": "uint48",
          "name": "",
          "type": "uint48"
        }
      ],
      "stateMutability": "view",
      "type": "function"
    },
    {
      "inputs": [
        {
          "internalType": "uint256",
          "name": "amount",
          "type": "uint256"
        },
        {
          "internalType": "uint256",
          "name": "proposalId",
          "type": "uint256"
        }
      ],
      "name": "deposit",
      "outputs": [],
      "stateMutability": "nonpayable",
      "type": "function"
    },
    {
      "inputs": [],
      "name": "depositThreshold",
      "outputs": [
        {
          "internalType": "uint256",
          "name": "",
          "type": "uint256"
        }
      ],
      "stateMutability": "view",
      "type": "function"
    },
    {
      "inputs": [],
      "name": "depositThresholdPercentage",
      "outputs": [
        {
          "internalType": "uint256",
          "name": "",
          "type": "uint256"
        }
      ],
      "stateMutability": "view",
      "type": "function"
    },
    {
      "inputs": [
        {
          "internalType": "address[]",
          "name": "targets",
          "type": "address[]"
        },
        {
          "internalType": "uint256[]",
          "name": "values",
          "type": "uint256[]"
        },
        {
          "internalType": "bytes[]",
          "name": "calldatas",
          "type": "bytes[]"
        },
        {
          "internalType": "bytes32",
          "name": "descriptionHash",
          "type": "bytes32"
        }
      ],
      "name": "execute",
      "outputs": [
        {
          "internalType": "uint256",
          "name": "",
          "type": "uint256"
        }
      ],
      "stateMutability": "payable",
      "type": "function"
    },
    {
      "inputs": [
        {
          "internalType": "uint256",
          "name": "proposalId",
          "type": "uint256"
        }
      ],
      "name": "getProposalDeposits",
      "outputs": [
        {
          "internalType": "uint256",
          "name": "",
          "type": "uint256"
        }
      ],
      "stateMutability": "view",
      "type": "function"
    },
    {
      "inputs": [
        {
          "internalType": "address",
          "name": "account",
          "type": "address"
        },
        {
          "internalType": "uint256",
          "name": "timepoint",
          "type": "uint256"
        }
      ],
      "name": "getQuadraticVotingPower",
      "outputs": [
        {
          "internalType": "uint256",
          "name": "",
          "type": "uint256"
        }
      ],
      "stateMutability": "view",
      "type": "function"
    },
    {
      "inputs": [
        {
          "internalType": "bytes32",
          "name": "role",
          "type": "bytes32"
        }
      ],
      "name": "getRoleAdmin",
      "outputs": [
        {
          "internalType": "bytes32",
          "name": "",
          "type": "bytes32"
        }
      ],
      "stateMutability": "view",
      "type": "function"
    },
    {
      "inputs": [
        {
          "internalType": "uint256",
          "name": "proposalId",
          "type": "uint256"
        }
      ],
      "name": "getTimelockId",
      "outputs": [
        {
          "internalType": "bytes32",
          "name": "",
          "type": "bytes32"
        }
      ],
      "stateMutability": "view",
      "type": "function"
    },
    {
      "inputs": [
        {
          "internalType": "uint256",
          "name": "proposalId",
          "type": "uint256"
        },
        {
          "internalType": "address",
          "name": "user",
          "type": "address"
        }
      ],
      "name": "getUserDeposit",
      "outputs": [
        {
          "internalType": "uint256",
          "name": "",
          "type": "uint256"
        }
      ],
      "stateMutability": "view",
      "type": "function"
    },
    {
      "inputs": [
        {
          "internalType": "address",
          "name": "account",
          "type": "address"
        },
        {
          "internalType": "uint256",
          "name": "timepoint",
          "type": "uint256"
        }
      ],
      "name": "getVotes",
      "outputs": [
        {
          "internalType": "uint256",
          "name": "",
          "type": "uint256"
        }
      ],
      "stateMutability": "view",
      "type": "function"
    },
    {
      "inputs": [
        {
          "internalType": "bytes32",
          "name": "role",
          "type": "bytes32"
        },
        {
          "internalType": "address",
          "name": "account",
          "type": "address"
        }
      ],
      "name": "grantRole",
      "outputs": [],
      "stateMutability": "nonpayable",
      "type": "function"
    },
    {
      "inputs": [
        {
          "internalType": "bytes32",
          "name": "role",
          "type": "bytes32"
        },
        {
          "internalType": "address",
          "name": "account",
          "type": "address"
        }
      ],
      "name": "hasRole",
      "outputs": [
        {
          "internalType": "bool",
          "name": "",
          "type": "bool"
        }
      ],
      "stateMutability": "view",
      "type": "function"
    },
    {
      "inputs": [
        {
          "internalType": "uint256",
          "name": "proposalId",
          "type": "uint256"
        },
        {
          "internalType": "address",
          "name": "account",
          "type": "address"
        }
      ],
      "name": "hasVoted",
      "outputs": [
        {
          "internalType": "bool",
          "name": "",
          "type": "bool"
        }
      ],
      "stateMutability": "view",
      "type": "function"
    },
    {
      "inputs": [
        {
          "internalType": "address",
          "name": "user",
          "type": "address"
        }
      ],
      "name": "hasVotedOnce",
      "outputs": [
        {
          "internalType": "bool",
          "name": "",
          "type": "bool"
        }
      ],
      "stateMutability": "view",
      "type": "function"
    },
    {
      "inputs": [
        {
          "internalType": "address[]",
          "name": "targets",
          "type": "address[]"
        },
        {
          "internalType": "uint256[]",
          "name": "values",
          "type": "uint256[]"
        },
        {
          "internalType": "bytes[]",
          "name": "calldatas",
          "type": "bytes[]"
        },
        {
          "internalType": "bytes32",
          "name": "descriptionHash",
          "type": "bytes32"
        }
      ],
      "name": "hashProposal",
      "outputs": [
        {
          "internalType": "uint256",
          "name": "",
          "type": "uint256"
        }
      ],
      "stateMutability": "pure",
      "type": "function"
    },
    {
      "inputs": [
        {
          "components": [
            {
              "internalType": "contract IVOT3",
              "name": "vot3Token",
              "type": "address"
            },
            {
              "internalType": "contract TimelockControllerUpgradeable",
              "name": "timelock",
              "type": "address"
            },
            {
              "internalType": "contract IXAllocationVotingGovernor",
              "name": "xAllocationVoting",
              "type": "address"
            },
            {
              "internalType": "contract IB3TR",
              "name": "b3tr",
              "type": "address"
            },
            {
              "internalType": "uint256",
              "name": "quorumPercentage",
              "type": "uint256"
            },
            {
              "internalType": "uint256",
              "name": "initialDepositThreshold",
              "type": "uint256"
            },
            {
              "internalType": "uint256",
              "name": "initialMinVotingDelay",
              "type": "uint256"
            },
            {
              "internalType": "uint256",
              "name": "initialVotingThreshold",
              "type": "uint256"
            },
            {
              "internalType": "contract IVoterRewards",
              "name": "voterRewards",
              "type": "address"
            },
            {
              "internalType": "bool",
              "name": "isFunctionRestrictionEnabled",
              "type": "bool"
            }
          ],
          "internalType": "struct GovernorTypesV1.InitializationData",
          "name": "data",
          "type": "tuple"
        },
        {
          "components": [
            {
              "internalType": "address",
              "name": "governorAdmin",
              "type": "address"
            },
            {
              "internalType": "address",
              "name": "pauser",
              "type": "address"
            },
            {
              "internalType": "address",
              "name": "contractsAddressManager",
              "type": "address"
            },
            {
              "internalType": "address",
              "name": "proposalExecutor",
              "type": "address"
            },
            {
              "internalType": "address",
              "name": "governorFunctionSettingsRoleAddress",
              "type": "address"
            }
          ],
          "internalType": "struct GovernorTypesV1.InitializationRolesData",
          "name": "rolesData",
          "type": "tuple"
        }
      ],
      "name": "initialize",
      "outputs": [],
      "stateMutability": "nonpayable",
      "type": "function"
    },
    {
      "inputs": [
        {
          "internalType": "address",
          "name": "target",
          "type": "address"
        },
        {
          "internalType": "bytes4",
          "name": "functionSelector",
          "type": "bytes4"
        }
      ],
      "name": "isFunctionWhitelisted",
      "outputs": [
        {
          "internalType": "bool",
          "name": "",
          "type": "bool"
        }
      ],
      "stateMutability": "view",
      "type": "function"
    },
    {
      "inputs": [],
      "name": "minVotingDelay",
      "outputs": [
        {
          "internalType": "uint256",
          "name": "",
          "type": "uint256"
        }
      ],
      "stateMutability": "view",
      "type": "function"
    },
    {
      "inputs": [],
      "name": "name",
      "outputs": [
        {
          "internalType": "string",
          "name": "",
          "type": "string"
        }
      ],
      "stateMutability": "view",
      "type": "function"
    },
    {
      "inputs": [
        {
          "internalType": "address",
          "name": "",
          "type": "address"
        },
        {
          "internalType": "address",
          "name": "",
          "type": "address"
        },
        {
          "internalType": "uint256[]",
          "name": "",
          "type": "uint256[]"
        },
        {
          "internalType": "uint256[]",
          "name": "",
          "type": "uint256[]"
        },
        {
          "internalType": "bytes",
          "name": "",
          "type": "bytes"
        }
      ],
      "name": "onERC1155BatchReceived",
      "outputs": [
        {
          "internalType": "bytes4",
          "name": "",
          "type": "bytes4"
        }
      ],
      "stateMutability": "nonpayable",
      "type": "function"
    },
    {
      "inputs": [
        {
          "internalType": "address",
          "name": "",
          "type": "address"
        },
        {
          "internalType": "address",
          "name": "",
          "type": "address"
        },
        {
          "internalType": "uint256",
          "name": "",
          "type": "uint256"
        },
        {
          "internalType": "uint256",
          "name": "",
          "type": "uint256"
        },
        {
          "internalType": "bytes",
          "name": "",
          "type": "bytes"
        }
      ],
      "name": "onERC1155Received",
      "outputs": [
        {
          "internalType": "bytes4",
          "name": "",
          "type": "bytes4"
        }
      ],
      "stateMutability": "nonpayable",
      "type": "function"
    },
    {
      "inputs": [
        {
          "internalType": "address",
          "name": "",
          "type": "address"
        },
        {
          "internalType": "address",
          "name": "",
          "type": "address"
        },
        {
          "internalType": "uint256",
          "name": "",
          "type": "uint256"
        },
        {
          "internalType": "bytes",
          "name": "",
          "type": "bytes"
        }
      ],
      "name": "onERC721Received",
      "outputs": [
        {
          "internalType": "bytes4",
          "name": "",
          "type": "bytes4"
        }
      ],
      "stateMutability": "nonpayable",
      "type": "function"
    },
    {
      "inputs": [],
      "name": "pause",
      "outputs": [],
      "stateMutability": "nonpayable",
      "type": "function"
    },
    {
      "inputs": [],
      "name": "paused",
      "outputs": [
        {
          "internalType": "bool",
          "name": "",
          "type": "bool"
        }
      ],
      "stateMutability": "view",
      "type": "function"
    },
    {
      "inputs": [
        {
          "internalType": "uint256",
          "name": "proposalId",
          "type": "uint256"
        }
      ],
      "name": "proposalDeadline",
      "outputs": [
        {
          "internalType": "uint256",
          "name": "",
          "type": "uint256"
        }
      ],
      "stateMutability": "view",
      "type": "function"
    },
    {
      "inputs": [
        {
          "internalType": "uint256",
          "name": "proposalId",
          "type": "uint256"
        }
      ],
      "name": "proposalDepositReached",
      "outputs": [
        {
          "internalType": "bool",
          "name": "",
          "type": "bool"
        }
      ],
      "stateMutability": "view",
      "type": "function"
    },
    {
      "inputs": [
        {
          "internalType": "uint256",
          "name": "proposalId",
          "type": "uint256"
        }
      ],
      "name": "proposalDepositThreshold",
      "outputs": [
        {
          "internalType": "uint256",
          "name": "",
          "type": "uint256"
        }
      ],
      "stateMutability": "view",
      "type": "function"
    },
    {
      "inputs": [
        {
          "internalType": "uint256",
          "name": "proposalId",
          "type": "uint256"
        }
      ],
      "name": "proposalEta",
      "outputs": [
        {
          "internalType": "uint256",
          "name": "",
          "type": "uint256"
        }
      ],
      "stateMutability": "view",
      "type": "function"
    },
    {
      "inputs": [
        {
          "internalType": "uint256",
          "name": "proposalId",
          "type": "uint256"
        }
      ],
      "name": "proposalNeedsQueuing",
      "outputs": [
        {
          "internalType": "bool",
          "name": "",
          "type": "bool"
        }
      ],
      "stateMutability": "view",
      "type": "function"
    },
    {
      "inputs": [
        {
          "internalType": "uint256",
          "name": "proposalId",
          "type": "uint256"
        }
      ],
      "name": "proposalProposer",
      "outputs": [
        {
          "internalType": "address",
          "name": "",
          "type": "address"
        }
      ],
      "stateMutability": "view",
      "type": "function"
    },
    {
      "inputs": [
        {
          "internalType": "uint256",
          "name": "proposalId",
          "type": "uint256"
        }
      ],
      "name": "proposalSnapshot",
      "outputs": [
        {
          "internalType": "uint256",
          "name": "",
          "type": "uint256"
        }
      ],
      "stateMutability": "view",
      "type": "function"
    },
    {
      "inputs": [
        {
          "internalType": "uint256",
          "name": "proposalId",
          "type": "uint256"
        }
      ],
      "name": "proposalStartRound",
      "outputs": [
        {
          "internalType": "uint256",
          "name": "",
          "type": "uint256"
        }
      ],
      "stateMutability": "view",
      "type": "function"
    },
    {
      "inputs": [
        {
          "internalType": "uint256",
          "name": "proposalId",
          "type": "uint256"
        }
      ],
      "name": "proposalTotalVotes",
      "outputs": [
        {
          "internalType": "uint256",
          "name": "",
          "type": "uint256"
        }
      ],
      "stateMutability": "view",
      "type": "function"
    },
    {
      "inputs": [
        {
          "internalType": "uint256",
          "name": "proposalId",
          "type": "uint256"
        }
      ],
      "name": "proposalVotes",
      "outputs": [
        {
          "internalType": "uint256",
          "name": "againstVotes",
          "type": "uint256"
        },
        {
          "internalType": "uint256",
          "name": "forVotes",
          "type": "uint256"
        },
        {
          "internalType": "uint256",
          "name": "abstainVotes",
          "type": "uint256"
        }
      ],
      "stateMutability": "view",
      "type": "function"
    },
    {
      "inputs": [
        {
          "internalType": "address[]",
          "name": "targets",
          "type": "address[]"
        },
        {
          "internalType": "uint256[]",
          "name": "values",
          "type": "uint256[]"
        },
        {
          "internalType": "bytes[]",
          "name": "calldatas",
          "type": "bytes[]"
        },
        {
          "internalType": "string",
          "name": "description",
          "type": "string"
        },
        {
          "internalType": "uint256",
          "name": "startRoundId",
          "type": "uint256"
        },
        {
          "internalType": "uint256",
          "name": "depositAmount",
          "type": "uint256"
        }
      ],
      "name": "propose",
      "outputs": [
        {
          "internalType": "uint256",
          "name": "",
          "type": "uint256"
        }
      ],
      "stateMutability": "nonpayable",
      "type": "function"
    },
    {
      "inputs": [],
      "name": "proxiableUUID",
      "outputs": [
        {
          "internalType": "bytes32",
          "name": "",
          "type": "bytes32"
        }
      ],
      "stateMutability": "view",
      "type": "function"
    },
    {
      "inputs": [
        {
          "internalType": "address[]",
          "name": "targets",
          "type": "address[]"
        },
        {
          "internalType": "uint256[]",
          "name": "values",
          "type": "uint256[]"
        },
        {
          "internalType": "bytes[]",
          "name": "calldatas",
          "type": "bytes[]"
        },
        {
          "internalType": "bytes32",
          "name": "descriptionHash",
          "type": "bytes32"
        }
      ],
      "name": "queue",
      "outputs": [
        {
          "internalType": "uint256",
          "name": "",
          "type": "uint256"
        }
      ],
      "stateMutability": "nonpayable",
      "type": "function"
    },
    {
      "inputs": [
        {
          "internalType": "uint256",
          "name": "blockNumber",
          "type": "uint256"
        }
      ],
      "name": "quorum",
      "outputs": [
        {
          "internalType": "uint256",
          "name": "",
          "type": "uint256"
        }
      ],
      "stateMutability": "view",
      "type": "function"
    },
    {
      "inputs": [],
      "name": "quorumDenominator",
      "outputs": [
        {
          "internalType": "uint256",
          "name": "",
          "type": "uint256"
        }
      ],
      "stateMutability": "pure",
      "type": "function"
    },
    {
      "inputs": [
        {
          "internalType": "uint256",
          "name": "timepoint",
          "type": "uint256"
        }
      ],
      "name": "quorumNumerator",
      "outputs": [
        {
          "internalType": "uint256",
          "name": "",
          "type": "uint256"
        }
      ],
      "stateMutability": "view",
      "type": "function"
    },
    {
      "inputs": [],
      "name": "quorumNumerator",
      "outputs": [
        {
          "internalType": "uint256",
          "name": "",
          "type": "uint256"
        }
      ],
      "stateMutability": "view",
      "type": "function"
    },
    {
      "inputs": [
        {
          "internalType": "uint256",
          "name": "proposalId",
          "type": "uint256"
        }
      ],
      "name": "quorumReached",
      "outputs": [
        {
          "internalType": "bool",
          "name": "",
          "type": "bool"
        }
      ],
      "stateMutability": "view",
      "type": "function"
    },
    {
      "inputs": [
        {
          "internalType": "address",
          "name": "target",
          "type": "address"
        },
        {
          "internalType": "uint256",
          "name": "value",
          "type": "uint256"
        },
        {
          "internalType": "bytes",
          "name": "data",
          "type": "bytes"
        }
      ],
      "name": "relay",
      "outputs": [],
      "stateMutability": "payable",
      "type": "function"
    },
    {
      "inputs": [
        {
          "internalType": "bytes32",
          "name": "role",
          "type": "bytes32"
        },
        {
          "internalType": "address",
          "name": "callerConfirmation",
          "type": "address"
        }
      ],
      "name": "renounceRole",
      "outputs": [],
      "stateMutability": "nonpayable",
      "type": "function"
    },
    {
      "inputs": [
        {
          "internalType": "bytes32",
          "name": "role",
          "type": "bytes32"
        },
        {
          "internalType": "address",
          "name": "account",
          "type": "address"
        }
      ],
      "name": "revokeRole",
      "outputs": [],
      "stateMutability": "nonpayable",
      "type": "function"
    },
    {
      "inputs": [
        {
          "internalType": "uint256",
          "name": "newDepositThreshold",
          "type": "uint256"
        }
      ],
      "name": "setDepositThresholdPercentage",
      "outputs": [],
      "stateMutability": "nonpayable",
      "type": "function"
    },
    {
      "inputs": [
        {
          "internalType": "bool",
          "name": "isEnabled",
          "type": "bool"
        }
      ],
      "name": "setIsFunctionRestrictionEnabled",
      "outputs": [],
      "stateMutability": "nonpayable",
      "type": "function"
    },
    {
      "inputs": [
        {
          "internalType": "uint256",
          "name": "newMinVotingDelay",
          "type": "uint256"
        }
      ],
      "name": "setMinVotingDelay",
      "outputs": [],
      "stateMutability": "nonpayable",
      "type": "function"
    },
    {
      "inputs": [
        {
          "internalType": "contract IVoterRewards",
          "name": "newVoterRewards",
          "type": "address"
        }
      ],
      "name": "setVoterRewards",
      "outputs": [],
      "stateMutability": "nonpayable",
      "type": "function"
    },
    {
      "inputs": [
        {
          "internalType": "uint256",
          "name": "newVotingThreshold",
          "type": "uint256"
        }
      ],
      "name": "setVotingThreshold",
      "outputs": [],
      "stateMutability": "nonpayable",
      "type": "function"
    },
    {
      "inputs": [
        {
          "internalType": "address",
          "name": "target",
          "type": "address"
        },
        {
          "internalType": "bytes4",
          "name": "functionSelector",
          "type": "bytes4"
        },
        {
          "internalType": "bool",
          "name": "isWhitelisted",
          "type": "bool"
        }
      ],
      "name": "setWhitelistFunction",
      "outputs": [],
      "stateMutability": "nonpayable",
      "type": "function"
    },
    {
      "inputs": [
        {
          "internalType": "address",
          "name": "target",
          "type": "address"
        },
        {
          "internalType": "bytes4[]",
          "name": "functionSelectors",
          "type": "bytes4[]"
        },
        {
          "internalType": "bool",
          "name": "isWhitelisted",
          "type": "bool"
        }
      ],
      "name": "setWhitelistFunctions",
      "outputs": [],
      "stateMutability": "nonpayable",
      "type": "function"
    },
    {
      "inputs": [
        {
          "internalType": "contract IXAllocationVotingGovernor",
          "name": "newXAllocationVoting",
          "type": "address"
        }
      ],
      "name": "setXAllocationVoting",
      "outputs": [],
      "stateMutability": "nonpayable",
      "type": "function"
    },
    {
      "inputs": [
        {
          "internalType": "uint256",
          "name": "proposalId",
          "type": "uint256"
        }
      ],
      "name": "state",
      "outputs": [
        {
          "internalType": "enum GovernorTypesV1.ProposalState",
          "name": "",
          "type": "uint8"
        }
      ],
      "stateMutability": "view",
      "type": "function"
    },
    {
      "inputs": [
        {
          "internalType": "bytes4",
          "name": "interfaceId",
          "type": "bytes4"
        }
      ],
      "name": "supportsInterface",
      "outputs": [
        {
          "internalType": "bool",
          "name": "",
          "type": "bool"
        }
      ],
      "stateMutability": "pure",
      "type": "function"
    },
    {
      "inputs": [],
      "name": "timelock",
      "outputs": [
        {
          "internalType": "address",
          "name": "",
          "type": "address"
        }
      ],
      "stateMutability": "view",
      "type": "function"
    },
    {
      "inputs": [
        {
          "internalType": "bytes32",
          "name": "descriptionHash",
          "type": "bytes32"
        }
      ],
      "name": "timelockSalt",
      "outputs": [
        {
          "internalType": "bytes32",
          "name": "",
          "type": "bytes32"
        }
      ],
      "stateMutability": "view",
      "type": "function"
    },
    {
      "inputs": [],
      "name": "token",
      "outputs": [
        {
          "internalType": "contract IVOT3",
          "name": "",
          "type": "address"
        }
      ],
      "stateMutability": "view",
      "type": "function"
    },
    {
      "inputs": [],
      "name": "unpause",
      "outputs": [],
      "stateMutability": "nonpayable",
      "type": "function"
    },
    {
      "inputs": [
        {
          "internalType": "uint256",
          "name": "newQuorumNumerator",
          "type": "uint256"
        }
      ],
      "name": "updateQuorumNumerator",
      "outputs": [],
      "stateMutability": "nonpayable",
      "type": "function"
    },
    {
      "inputs": [
        {
          "internalType": "contract TimelockControllerUpgradeable",
          "name": "newTimelock",
          "type": "address"
        }
      ],
      "name": "updateTimelock",
      "outputs": [],
      "stateMutability": "nonpayable",
      "type": "function"
    },
    {
      "inputs": [
        {
          "internalType": "address",
          "name": "newImplementation",
          "type": "address"
        },
        {
          "internalType": "bytes",
          "name": "data",
          "type": "bytes"
        }
      ],
      "name": "upgradeToAndCall",
      "outputs": [],
      "stateMutability": "payable",
      "type": "function"
    },
    {
      "inputs": [],
      "name": "version",
      "outputs": [
        {
          "internalType": "string",
          "name": "",
          "type": "string"
        }
      ],
      "stateMutability": "pure",
      "type": "function"
    },
    {
      "inputs": [],
      "name": "voterRewards",
      "outputs": [
        {
          "internalType": "contract IVoterRewards",
          "name": "",
          "type": "address"
        }
      ],
      "stateMutability": "view",
      "type": "function"
    },
    {
      "inputs": [],
      "name": "votingPeriod",
      "outputs": [
        {
          "internalType": "uint256",
          "name": "",
          "type": "uint256"
        }
      ],
      "stateMutability": "view",
      "type": "function"
    },
    {
      "inputs": [],
      "name": "votingThreshold",
      "outputs": [
        {
          "internalType": "uint256",
          "name": "",
          "type": "uint256"
        }
      ],
      "stateMutability": "view",
      "type": "function"
    },
    {
      "inputs": [
        {
          "internalType": "uint256",
          "name": "proposalId",
          "type": "uint256"
        },
        {
          "internalType": "address",
          "name": "depositor",
          "type": "address"
        }
      ],
      "name": "withdraw",
      "outputs": [],
      "stateMutability": "nonpayable",
      "type": "function"
    },
    {
      "inputs": [],
      "name": "xAllocationVoting",
      "outputs": [
        {
          "internalType": "contract IXAllocationVotingGovernor",
          "name": "",
          "type": "address"
        }
      ],
      "stateMutability": "view",
      "type": "function"
    },
    {
      "stateMutability": "payable",
      "type": "receive"
    }
  ],
  "bytecode": "0x60a0604052306080523480156200001557600080fd5b506200002062000026565b620000da565b7ff0c57e16840df040f15088dc2f81fe391c3923bec73e23a9662efc9c229c6a00805468010000000000000000900460ff1615620000775760405163f92ee8a960e01b815260040160405180910390fd5b80546001600160401b0390811614620000d75780546001600160401b0319166001600160401b0390811782556040519081527fc7f505b2f371ae2175ee4913f4499e1f2633a7b5936321eed1cdaeb6115181d29060200160405180910390a15b50565b6080516145006200010460003960008181612a3001528181612a590152612bae01526145006000f3fe60806040526004361061039c5760003560e01c8062f714ce146103e557806301ffc9a71461040557806302a251a31461043a57806306f3f9e61461045d57806306fdde031461047d5780630d23b1271461049f578063143489d0146104b4578063150b7a02146104e1578063160cbed71461051a578063248a9ca31461053a5780632656227d1461055a57806329ff98361461056d5780632d63f6931461058d5780632f2ff15d146105ad57806336568abe146105cd57806336d23a4c146105ed5780633d47fe941461060f5780633e4f49e61461062f5780633f4ba83a1461065c5780634385963214610671578063452115d6146106915780634bf5d7e9146106b15780634c5ead08146106c65780634e055244146106e65780634f1ef2861461070657806352d1902d14610719578063544ffc9c1461072e57806354fd4d501461075d5780635678138814610787578063582a486a146107a757806358c839bc146107bc5780635a847f52146107dc5780635c573d44146107fc5780635c975abb1461081c57806360463d681461083157806360c4247f146108515780636282773314610871578063734daaa11461088657806374a55a511461089b5780637a4cce6d146108bb5780637b3c71d3146108db57806381ab2353146108fb578063836761e0146109105780638456cb591461093057806388fb07a5146109455780638ced2a11146109655780638d5a3f67146109855780638e828cb4146109a557806391d14854146109c557806391ddadf4146109e5578063952f213314610a1157806397c3d33414610a335780639aeb962b14610a47578063a217fddf14610a67578063a3844e1114610a7c578063a7713a7014610a91578063a890c91014610aa6578063a9a9529414610ac6578063ab58fb8e14610ae6578063ad3cb1cc14610b06578063b26a950914610b37578063b69d417b14610b57578063bc197c8114610b77578063bd5aefea14610b97578063be9bd92b14610bb9578063c01f9e3714610bd9578063c220f2f514610bf9578063c28bc2fa14610c19578063c40ffbf614610c2c578063c59057e414610c41578063d33219b414610c61578063d4a8dd9814610c76578063d547741f14610c96578063dd4e2ba514610cb6578063e205aeb014610ccb578063e2bbb15814610ce0578063e63ab1e914610d00578063eb9019d414610d22578063f23a6e6114610d42578063f744f11914610d62578063f8ce560a14610d82578063fc0c546a14610da257600080fd5b366103e05760006103ab610db7565b9050306103b782610ddb565b6001600160a01b0316146103de57604051637485328f60e11b815260040160405180910390fd5b005b600080fd5b3480156103f157600080fd5b506103de6104003660046132e6565b610deb565b34801561041157600080fd5b50610425610420366004613333565b610e77565b60405190151581526020015b60405180910390f35b34801561044657600080fd5b5061044f610ec9565b604051908152602001610431565b34801561046957600080fd5b506103de61047836600461334e565b610f55565b34801561048957600080fd5b50610492610ffb565b60405161043191906133b7565b3480156104ab57600080fd5b5061044f61109c565b3480156104c057600080fd5b506104d46104cf36600461334e565b6110b1565b60405161043191906133ca565b3480156104ed57600080fd5b506105016104fc3660046134ca565b6110e1565b6040516001600160e01b03199091168152602001610431565b34801561052657600080fd5b5061044f6105353660046136a1565b611131565b34801561054657600080fd5b5061044f61055536600461334e565b6111d4565b61044f6105683660046136a1565b6111f4565b34801561057957600080fd5b506103de6105883660046137ef565b6112c0565b34801561059957600080fd5b5061044f6105a836600461334e565b61156e565b3480156105b957600080fd5b506103de6105c83660046132e6565b6115f6565b3480156105d957600080fd5b506103de6105e83660046132e6565b611618565b3480156105f957600080fd5b5061044f60008051602061440383398151915281565b34801561061b57600080fd5b506103de61062a3660046138c3565b611650565b34801561063b57600080fd5b5061064f61064a36600461334e565b6116c9565b60405161043191906138e0565b34801561066857600080fd5b506103de611750565b34801561067d57600080fd5b5061042561068c3660046132e6565b611773565b34801561069d57600080fd5b5061044f6106ac3660046136a1565b6117b5565b3480156106bd57600080fd5b5061049261180f565b3480156106d257600080fd5b506103de6106e1366004613908565b611896565b3480156106f257600080fd5b5061044f6107013660046132e6565b611916565b6103de610714366004613925565b61194e565b34801561072557600080fd5b5061044f61196d565b34801561073a57600080fd5b5061074e61074936600461334e565b61198a565b60405161043193929190613974565b34801561076957600080fd5b506040805180820190915260018152601960f91b6020820152610492565b34801561079357600080fd5b5061044f6107a236600461399b565b6119c0565b3480156107b357600080fd5b506104d4611a67565b3480156107c857600080fd5b5061044f6107d73660046139c7565b611a85565b3480156107e857600080fd5b506103de6107f736600461334e565b611b2c565b34801561080857600080fd5b5061044f61081736600461334e565b611b97565b34801561082857600080fd5b50610425611bae565b34801561083d57600080fd5b5061044f61084c36600461334e565b611bc3565b34801561085d57600080fd5b5061044f61086c36600461334e565b611be3565b34801561087d57600080fd5b5061044f611c2a565b34801561089257600080fd5b5061044f611c3f565b3480156108a757600080fd5b506104256108b6366004613a85565b611c9e565b3480156108c757600080fd5b506103de6108d63660046138c3565b611ce4565b3480156108e757600080fd5b5061044f6108f6366004613af9565b611d5d565b34801561090757600080fd5b50610425611dac565b34801561091c57600080fd5b506103de61092b36600461334e565b611e2e565b34801561093c57600080fd5b506103de611e99565b34801561095157600080fd5b5061044f61096036600461334e565b611eb9565b34801561097157600080fd5b5061044f61098036600461334e565b611ee0565b34801561099157600080fd5b506104256109a036600461334e565b611f07565b3480156109b157600080fd5b506103de6109c0366004613b52565b611f37565b3480156109d157600080fd5b506104256109e03660046132e6565b611fec565b3480156109f157600080fd5b506109fa612022565b60405165ffffffffffff9091168152602001610431565b348015610a1d57600080fd5b5061044f60008051602061448383398151915281565b348015610a3f57600080fd5b50606461044f565b348015610a5357600080fd5b50610425610a623660046138c3565b6120a4565b348015610a7357600080fd5b5061044f600081565b348015610a8857600080fd5b506104d46120d5565b348015610a9d57600080fd5b5061044f6120f8565b348015610ab257600080fd5b506103de610ac13660046138c3565b61213e565b348015610ad257600080fd5b50610425610ae136600461334e565b6121a9565b348015610af257600080fd5b5061044f610b0136600461334e565b612231565b348015610b1257600080fd5b50610492604051806040016040528060058152602001640352e302e360dc1b81525081565b348015610b4357600080fd5b506103de610b5236600461334e565b612267565b348015610b6357600080fd5b5061044f610b72366004613c0e565b6122d2565b348015610b8357600080fd5b50610501610b92366004613c3a565b61232e565b348015610ba357600080fd5b5061044f60008051602061446383398151915281565b348015610bc557600080fd5b506103de610bd4366004613ce7565b61237f565b348015610be557600080fd5b5061044f610bf436600461334e565b61241e565b348015610c0557600080fd5b5061044f610c1436600461334e565b612465565b6103de610c27366004613d30565b61248c565b348015610c3857600080fd5b5061044f61252b565b348015610c4d57600080fd5b5061044f610c5c3660046136a1565b612540565b348015610c6d57600080fd5b506104d4612557565b348015610c8257600080fd5b50610425610c9136600461334e565b612575565b348015610ca257600080fd5b506103de610cb13660046132e6565b6125bc565b348015610cc257600080fd5b506104926125d8565b348015610cd757600080fd5b506104d46125f8565b348015610cec57600080fd5b506103de610cfb366004613d73565b612616565b348015610d0c57600080fd5b5061044f60008051602061444383398151915281565b348015610d2e57600080fd5b5061044f610d3d366004613c0e565b61265e565b348015610d4e57600080fd5b50610501610d5d366004613d95565b612676565b348015610d6e57600080fd5b5061044f610d7d36600461334e565b6126c7565b348015610d8e57600080fd5b5061044f610d9d36600461334e565b6126eb565b348015610dae57600080fd5b506104d4612732565b7fd09a0aaf4ab3087bae7fa25ef74ddd4e5a4950980903ce417e66228cf7dc7b0090565b600601546001600160a01b031690565b6000610df5610db7565b604051638ef7ac7560e01b815260048101829052602481018590526001600160a01b038416604482015290915073__$cf1b8dfaacb54a38b3e5a54f2d88c62263$__90638ef7ac75906064015b60006040518083038186803b158015610e5a57600080fd5b505af4158015610e6e573d6000803e3d6000fd5b50505050505050565b60006001600160e01b031982166337bb5be560e21b1480610ea857506001600160e01b03198216630271189760e51b145b80610ec357506001600160e01b031982166301ffc9a760e01b145b92915050565b600080610ed4610db7565b905080600a0160009054906101000a90046001600160a01b03166001600160a01b03166302a251a36040518163ffffffff1660e01b8152600401602060405180830381865afa158015610f2b573d6000803e3d6000fd5b505050506040513d601f19601f82011682018060405250810190610f4f9190613dfd565b91505090565b600080610f60610db7565b9050610f6c8233611fec565b610f7f57610f7f81335b60003630612750565b6000610f89610db7565b60405163368659c360e11b815290915073__$54d25e9bee080e32db9d865d8d4dd5766c$__90636d0cb38690610fc59084908890600401613e16565b60006040518083038186803b158015610fdd57600080fd5b505af4158015610ff1573d6000803e3d6000fd5b5050505050505050565b60606000611007610db7565b905080600001805461101890613e24565b80601f016020809104026020016040519081016040528092919081815260200182805461104490613e24565b80156110915780601f1061106657610100808354040283529160200191611091565b820191906000526020600020905b81548152906001019060200180831161107457829003601f168201915b505050505091505090565b6000806110a7610db7565b600e015492915050565b6000806110bc610db7565b60008481526001820160205260409020549091506001600160a01b03165b9392505050565b6000806110ec610db7565b9050306110f882610ddb565b6001600160a01b03161461111f57604051637485328f60e11b815260040160405180910390fd5b50630a85bd0160e11b95945050505050565b600061113b6127e6565b6000611145610db7565b604051630dea024160e11b815290915073__$ad4bdefed830e2032898667d487aa11f6e$__90631bd404829061118990849030908b908b908b908b90600401613f27565b602060405180830381865af41580156111a6573d6000803e3d6000fd5b505050506040513d601f19601f820116820180604052508101906111ca9190613dfd565b9695505050505050565b6000806111df61280e565b60009384526020525050604090206001015490565b60006111fe6127e6565b600080516020614403833981519152611218816000611fec565b611226576112268133612832565b6000611230610db7565b60405163d7cb022b60e01b815290915073__$ad4bdefed830e2032898667d487aa11f6e$__9063d7cb022b9061127490849030908c908c908c908c90600401613f27565b602060405180830381865af4158015611291573d6000803e3d6000fd5b505050506040513d601f19601f820116820180604052508101906112b59190613dfd565b979650505050505050565b60006112ca61285d565b805490915060ff600160401b82041615906001600160401b03166000811580156112f15750825b90506000826001600160401b0316600114801561130d5750303b155b90508115801561131b575080155b156113395760405163f92ee8a960e01b815260040160405180910390fd5b84546001600160401b0319166001178555831561136257845460ff60401b1916600160401b1785555b611390876040518060400160405280600c81526020016b2119aa2923b7bb32b93737b960a11b815250612881565b611398612893565b6113a0612893565b6113a861289b565b60006113b2610db7565b608089015160405163368659c360e11b815291925073__$54d25e9bee080e32db9d865d8d4dd5766c$__91636d0cb386916113f291859190600401613e16565b60006040518083038186803b15801561140a57600080fd5b505af415801561141e573d6000803e3d6000fd5b505088516001600160a01b0316915061149c90505760405162461bcd60e51b815260206004820152603360248201527f42335452476f7665726e6f723a20676f7665726e6f722061646d696e20616464604482015272726573732063616e6e6f74206265207a65726f60681b60648201526084015b60405180910390fd5b86516114aa906000906128ab565b506114c760008051602061446383398151915288608001516128ab565b506114e460008051602061444383398151915288602001516128ab565b5061150160008051602061448383398151915288604001516128ab565b5061151e60008051602061440383398151915288606001516128ab565b50508315610e6e57845460ff60401b19168555604051600181527fc7f505b2f371ae2175ee4913f4499e1f2633a7b5936321eed1cdaeb6115181d29060200160405180910390a150505050505050565b600080611579610db7565b6040516394bb100760e01b815290915073__$ad4bdefed830e2032898667d487aa11f6e$__906394bb1007906115b59084908790600401613e16565b602060405180830381865af41580156115d2573d6000803e3d6000fd5b505050506040513d601f19601f820116820180604052508101906110da9190613dfd565b6115ff826111d4565b6116088161294c565b61161283836128ab565b50505050565b6001600160a01b03811633146116415760405163334bd91960e11b815260040160405180910390fd5b61164b8282612956565b505050565b6000805160206144838339815191526000611669610db7565b90506116758233611fec565b611683576116838133610f76565b600061168d610db7565b604051637cdbd6fb60e01b815290915073__$2aa8b6a55e6ebd5bf2f51c468286fcb1ad$__90637cdbd6fb90610fc59084908890600401613f8b565b6000806116d4610db7565b6040516274fe3160e61b815290915073__$d402ec64c8b81cb2dcc8a23055e434fbad$__90631d3f8c409061170f9084908790600401613e16565b602060405180830381865af415801561172c573d6000803e3d6000fd5b505050506040513d601f19601f820116820180604052508101906110da9190613fa2565b6000805160206144438339815191526117688161294c565b6117706129ce565b50565b60008061177e610db7565b6000858152600f8201602090815260408083206001600160a01b038816845260030190915290205490915060ff165b949350505050565b6000806117c0610db7565b905073__$ad4bdefed830e2032898667d487aa11f6e$__63c70dd94882336117e9600033611fec565b8a8a8a8a6040518863ffffffff1660e01b81526004016111899796959493929190613fc3565b6060600061181b610db7565b6040516357a1c89f60e01b81526004810182905290915073__$6b38614c5fa3db03e95950c8b348b70639$__906357a1c89f90602401600060405180830381865af415801561186e573d6000803e3d6000fd5b505050506040513d6000823e601f3d908101601f19168201604052610f4f9190810190614030565b60008051602061446383398151915260006118af610db7565b90506118bb8233611fec565b6118c9576118c98133610f76565b60006118d3610db7565b60405163631dc12b60e11b815260048101829052851515602482015290915073__$9b3104791a3179a9e175710a8443845734$__9063c63b825690604401610fc5565b600080611921610db7565b6000858152600d8201602090815260408083206001600160a01b03881684529091529020549091506117ad565b611956612a25565b61195f82612aca565b6119698282612aef565b5050565b6000611977612ba3565b5060008051602061442383398151915290565b600080600080611998610db7565b6000958652600f01602052505060409092208054600182015460029092015490949193509150565b6000806119cb610db7565b6040516358314b6f60e11b8152600481018290526024810186905233604482015260ff8516606482015260a06084820152600060a482015290915073__$bf9910ebe2ca61f0233d348e0b384a4e62$__9063b06296de9060c4015b602060405180830381865af4158015611a43573d6000803e3d6000fd5b505050506040513d601f19601f820116820180604052508101906117ad9190613dfd565b600080611a72610db7565b600b01546001600160a01b031692915050565b6000611a8f6127e6565b6000611a99610db7565b604051632ab03fc960e21b815290915073__$ad4bdefed830e2032898667d487aa11f6e$__9063aac0ff2490611adf9084908c908c908c908c908c908c9060040161409d565b602060405180830381865af4158015611afc573d6000803e3d6000fd5b505050506040513d601f19601f82011682018060405250810190611b209190613dfd565b98975050505050505050565b600080611b37610db7565b9050611b438233611fec565b611b5157611b518133610f76565b6000611b5b610db7565b604051636f302c2f60e11b815290915073__$2aa8b6a55e6ebd5bf2f51c468286fcb1ad$__9063de60585e90610fc59084908890600401613e16565b60006001600160601b03193060601b168218610ec3565b600080611bb9612bec565b5460ff1692915050565b600080611bce610db7565b60009384526011016020525050604090205490565b600080611bee610db7565b6040516312a8532760e31b815290915073__$54d25e9bee080e32db9d865d8d4dd5766c$__906395429938906115b59084908790600401613e16565b600080611c35610db7565b6012015492915050565b600080611c4a610db7565b604051635e8cf13b60e01b81526004810182905290915073__$cf1b8dfaacb54a38b3e5a54f2d88c62263$__90635e8cf13b906024015b602060405180830381865af4158015610f2b573d6000803e3d6000fd5b600080611ca9610db7565b6001600160a01b038516600090815260088201602090815260408083206001600160e01b03198816845290915290205490915060ff166117ad565b6000805160206144838339815191526000611cfd610db7565b9050611d098233611fec565b611d1757611d178133610f76565b6000611d21610db7565b60405163cacd870160e01b815290915073__$2aa8b6a55e6ebd5bf2f51c468286fcb1ad$__9063cacd870190610fc59084908890600401613f8b565b600080611d68610db7565b6040516358314b6f60e11b815290915073__$bf9910ebe2ca61f0233d348e0b384a4e62$__9063b06296de906111899084908a9033908b908b908b90600401614107565b600080611db7610db7565b6040516326c0988360e21b81526004810182905290915073__$ad4bdefed830e2032898667d487aa11f6e$__90639b02620c90602401602060405180830381865af4158015611e0a573d6000803e3d6000fd5b505050506040513d601f19601f82011682018060405250810190610f4f9190614160565b600080611e39610db7565b9050611e458233611fec565b611e5357611e538133610f76565b6000611e5d610db7565b604051639a5c19d560e01b815290915073__$2aa8b6a55e6ebd5bf2f51c468286fcb1ad$__90639a5c19d590610fc59084908890600401613e16565b600080516020614443833981519152611eb18161294c565b611770612c10565b600080611ec4610db7565b60008481526001820160205260409020600401549091506110da565b600080611eeb610db7565b60008481526001808301602052604090912001549091506110da565b600080611f12610db7565b60008481526001820160205260409020600481015460039091015491925011156110da565b6000805160206144638339815191526000611f50610db7565b9050611f5c8233611fec565b611f6a57611f6a8133610f76565b6000611f74610db7565b60405163e7a1a78d60e01b815290915073__$9b3104791a3179a9e175710a8443845734$__9063e7a1a78d90611fb49084908a908a908a9060040161417d565b60006040518083038186803b158015611fcc57600080fd5b505af4158015611fe0573d6000803e3d6000fd5b50505050505050505050565b600080611ff761280e565b6000948552602090815260408086206001600160a01b03959095168652939052505090205460ff1690565b60008061202d610db7565b60405163802ac04360e01b81526004810182905290915073__$6b38614c5fa3db03e95950c8b348b70639$__9063802ac04390602401602060405180830381865af4158015612080573d6000803e3d6000fd5b505050506040513d601f19601f82011682018060405250810190610f4f91906141f1565b6000806120af610db7565b6001600160a01b038416600090815260108201602052604090205490915060ff166110da565b6000806120e0610db7565b6009015461010090046001600160a01b031692915050565b600080612103610db7565b604051635f3c62f760e01b81526004810182905290915073__$54d25e9bee080e32db9d865d8d4dd5766c$__90635f3c62f790602401611c81565b600080612149610db7565b90506121558233611fec565b612163576121638133610f76565b600061216d610db7565b60405163233f232d60e01b815290915073__$2aa8b6a55e6ebd5bf2f51c468286fcb1ad$__9063233f232d90610fc59084908890600401613f8b565b6000806121b4610db7565b6040516306d1fc8b60e31b815290915073__$ad4bdefed830e2032898667d487aa11f6e$__9063368fe458906121f09084908790600401613e16565b602060405180830381865af415801561220d573d6000803e3d6000fd5b505050506040513d601f19601f820116820180604052508101906110da9190614160565b60008061223c610db7565b6000848152600182016020526040902060020154909150600160381b900465ffffffffffff166110da565b600080612272610db7565b905061227e8233611fec565b61228c5761228c8133610f76565b6000612296610db7565b604051635b46034d60e11b815290915073__$2aa8b6a55e6ebd5bf2f51c468286fcb1ad$__9063b68c069a90610fc59084908890600401613e16565b6000806122dd610db7565b60405163235b433160e01b8152600481018290526001600160a01b03861660248201526044810185905290915073__$bf9910ebe2ca61f0233d348e0b384a4e62$__9063235b433190606401611a26565b600080612339610db7565b90503061234582610ddb565b6001600160a01b03161461236c57604051637485328f60e11b815260040160405180910390fd5b5063bc197c8160e01b9695505050505050565b6000805160206144638339815191526000612398610db7565b90506123a48233611fec565b6123b2576123b28133610f76565b60006123bc610db7565b604051631ccb53d560e01b8152600481018290526001600160a01b03881660248201526001600160e01b031987166044820152851515606482015290915073__$9b3104791a3179a9e175710a8443845734$__90631ccb53d590608401611fb4565b600080612429610db7565b6040516303fa86f760e31b815290915073__$ad4bdefed830e2032898667d487aa11f6e$__90631fd437b8906115b59084908790600401613e16565b600080612470610db7565b60008481526001820160205260409020600301549091506110da565b600080612497610db7565b90506124a38233611fec565b6124b1576124b18133610f76565b600080876001600160a01b03168787876040516124cf929190614219565b60006040518083038185875af1925050503d806000811461250c576040519150601f19603f3d011682016040523d82523d6000602084013e612511565b606091505b50915091506125208282612c57565b505050505050505050565b600080612536610db7565b6004015492915050565b600061254e85858585612c73565b95945050505050565b600080612562610db7565b600601546001600160a01b031692915050565b600080612580610db7565b60405163fa3be62160e01b815290915073__$54d25e9bee080e32db9d865d8d4dd5766c$__9063fa3be621906121f09084908790600401613e16565b6125c5826111d4565b6125ce8161294c565b6116128383612956565b60606040518060600160405280602881526020016144a360289139905090565b600080612603610db7565b600a01546001600160a01b031692915050565b6000612620610db7565b60405163068a0fcf60e01b815290915073__$cf1b8dfaacb54a38b3e5a54f2d88c62263$__9063068a0fcf90610e4290849087908790600401613974565b600080612669610db7565b90506117ad818585612cad565b600080612681610db7565b90503061268d82610ddb565b6001600160a01b0316146126b457604051637485328f60e11b815260040160405180910390fd5b5063f23a6e6160e01b9695505050505050565b6000806126d2610db7565b60008481526007820160205260409020549091506110da565b6000806126f6610db7565b604051631508de2360e11b815290915073__$54d25e9bee080e32db9d865d8d4dd5766c$__90632a11bc46906115b59084908790600401613e16565b60008061273d610db7565b600c01546001600160a01b031692915050565b836001600160a01b031661276386610ddb565b6001600160a01b03161461278c57836040516347096e4760e01b815260040161149391906133ca565b806001600160a01b031661279f86610ddb565b6001600160a01b0316146127df57600083836040516127bf929190614219565b604051809103902090505b806127d787600201612cff565b036127ca575b505b5050505050565b6127ee611bae565b1561280c5760405163d93c066560e01b815260040160405180910390fd5b565b7f02dd7bc7dec4dceedda775e58dd541e08a116c6c53815c0bd028192f7b62680090565b61283c8282611fec565b61196957808260405163e2517d3f60e01b8152600401611493929190614229565b7ff0c57e16840df040f15088dc2f81fe391c3923bec73e23a9662efc9c229c6a0090565b612889612d74565b6119698282612d99565b61280c612d74565b6128a3612d74565b61280c6130bb565b6000806128b661280e565b90506128c28484611fec565b612942576000848152602082815260408083206001600160a01b03871684529091529020805460ff191660011790556128f83390565b6001600160a01b0316836001600160a01b0316857f2f8788117e7eff1d82e926ec794901d17c78024a50270940304540a733656f0d60405160405180910390a46001915050610ec3565b6000915050610ec3565b6117708133612832565b60008061296161280e565b905061296d8484611fec565b15612942576000848152602082815260408083206001600160a01b0387168085529252808320805460ff1916905551339287917ff6391f5c32d9c69d2a47ea670b442974b53935d1edc7fd64eb21e047a839171b9190a46001915050610ec3565b6129d66130d8565b60006129e0612bec565b805460ff1916815590507f5db9ee0a495bf2e6ff9c91a7834c1ba4fdd244a5e8aa4e537bd38aeae4b073aa335b604051612a1a91906133ca565b60405180910390a150565b306001600160a01b037f0000000000000000000000000000000000000000000000000000000000000000161480612aac57507f00000000000000000000000000000000000000000000000000000000000000006001600160a01b0316612aa0600080516020614423833981519152546001600160a01b031690565b6001600160a01b031614155b1561280c5760405163703e46dd60e11b815260040160405180910390fd5b600080612ad5610db7565b9050612ae18233611fec565b61164b5761164b8133610f76565b816001600160a01b03166352d1902d6040518163ffffffff1660e01b8152600401602060405180830381865afa925050508015612b49575060408051601f3d908101601f19168201909252612b4691810190613dfd565b60015b612b685781604051634c9c8ce360e01b815260040161149391906133ca565b6000805160206144238339815191528114612b9957604051632a87526960e21b815260048101829052602401611493565b61164b83836130fd565b306001600160a01b037f0000000000000000000000000000000000000000000000000000000000000000161461280c5760405163703e46dd60e11b815260040160405180910390fd5b7fcd5ed15c6e187e77e9aee88184c21f4f2182ab5827cb3b7e07fbedcd63f0330090565b612c186127e6565b6000612c22612bec565b805460ff1916600117815590507f62e78cea01bee320cd4e420270b5ea74000d11b0c9f74754ebdbfc544b05a258612a0d3390565b606082612c6c57612c6782613153565b610ec3565b5080610ec3565b600084848484604051602001612c8c9493929190614242565b60408051601f19818403018152919052805160209091012095945050505050565b600c830154604051630748d63560e31b81526000916001600160a01b031690633a46b1a890612ce29086908690600401614229565b602060405180830381865afa158015611a43573d6000803e3d6000fd5b80546000906001600160801b0380821691600160801b9004168103612d37576040516375e52f4f60e01b815260040160405180910390fd5b6001600160801b038181166000908152600185810160205260408220805492905585546001600160801b0319169301909116919091179092555090565b612d7c61317c565b61280c57604051631afcd79f60e31b815260040160405180910390fd5b612da1612d74565b6000612dab610db7565b60208401519091506001600160a01b0316612e1e5760405162461bcd60e51b815260206004820152602d60248201527f42335452476f7665726e6f723a2074696d656c6f636b2061646472657373206360448201526c616e6e6f74206265207a65726f60981b6064820152608401611493565b60208301516006820180546001600160a01b0319166001600160a01b0392831617905561012084015160098301805460ff1916911515919091179055606084015116612ebe5760405162461bcd60e51b815260206004820152602960248201527f42335452476f7665726e6f723a204233545220616464726573732063616e6e6f60448201526874206265207a65726f60b81b6064820152608401611493565b82516001600160a01b0316612f275760405162461bcd60e51b815260206004820152602960248201527f42335452476f7665726e6f723a20566f743320616464726573732063616e6e6f60448201526874206265207a65726f60b81b6064820152608401611493565b60408301516001600160a01b0316612fa05760405162461bcd60e51b815260206004820152603660248201527f42335452476f7665726e6f723a2078416c6c6f636174696f6e566f74696e6720604482015275616464726573732063616e6e6f74206265207a65726f60501b6064820152608401611493565b6101008301516001600160a01b03166130155760405162461bcd60e51b815260206004820152603160248201527f42335452476f7665726e6f723a20766f7465725265776172647320616464726560448201527073732063616e6e6f74206265207a65726f60781b6064820152608401611493565b610100808401516009830180546001600160a01b03928316909302610100600160a81b0319909316929092179091556040840151600a830180549183166001600160a01b03199283161790556060850151600b840180549184169183169190911790558451600c84018054919093169116179055806130948382614327565b5060c0830151600482015560a0830151600e82015560e09092015160129092019190915550565b6130c3612d74565b60006130cd612bec565b805460ff1916905550565b6130e0611bae565b61280c57604051638dfc202b60e01b815260040160405180910390fd5b61310682613196565b6040516001600160a01b038316907fbc7cd75a20ee27fd9adebab32041f755214dbc6bffa90cc0225b39da2e5c2d3b90600090a280511561314b5761164b82826131f2565b61196961325f565b8051156131635780518082602001fd5b604051630a12f52160e11b815260040160405180910390fd5b600061318661285d565b54600160401b900460ff16919050565b806001600160a01b03163b6000036131c35780604051634c9c8ce360e01b815260040161149391906133ca565b60008051602061442383398151915280546001600160a01b0319166001600160a01b0392909216919091179055565b6060600080846001600160a01b03168460405161320f91906143e6565b600060405180830381855af49150503d806000811461324a576040519150601f19603f3d011682016040523d82523d6000602084013e61324f565b606091505b509150915061254e85838361327e565b341561280c5760405163b398979f60e01b815260040160405180910390fd5b6060826132935761328e82613153565b6110da565b81511580156132aa57506001600160a01b0384163b155b156132ca5783604051639996b31560e01b815260040161149391906133ca565b50806110da565b6001600160a01b038116811461177057600080fd5b600080604083850312156132f957600080fd5b82359150602083013561330b816132d1565b809150509250929050565b80356001600160e01b03198116811461332e57600080fd5b919050565b60006020828403121561334557600080fd5b6110da82613316565b60006020828403121561336057600080fd5b5035919050565b60005b8381101561338257818101518382015260200161336a565b50506000910152565b600081518084526133a3816020860160208601613367565b601f01601f19169290920160200192915050565b6020815260006110da602083018461338b565b6001600160a01b0391909116815260200190565b634e487b7160e01b600052604160045260246000fd5b60405161014081016001600160401b0381118282101715613417576134176133de565b60405290565b604051601f8201601f191681016001600160401b0381118282101715613445576134456133de565b604052919050565b60006001600160401b03821115613466576134666133de565b50601f01601f191660200190565b600082601f83011261348557600080fd5b81356134986134938261344d565b61341d565b8181528460208386010111156134ad57600080fd5b816020850160208301376000918101602001919091529392505050565b600080600080608085870312156134e057600080fd5b84356134eb816132d1565b935060208501356134fb816132d1565b92506040850135915060608501356001600160401b0381111561351d57600080fd5b61352987828801613474565b91505092959194509250565b60006001600160401b0382111561354e5761354e6133de565b5060051b60200190565b600082601f83011261356957600080fd5b8135602061357961349383613535565b82815260059290921b8401810191818101908684111561359857600080fd5b8286015b848110156135bc5780356135af816132d1565b835291830191830161359c565b509695505050505050565b600082601f8301126135d857600080fd5b813560206135e861349383613535565b82815260059290921b8401810191818101908684111561360757600080fd5b8286015b848110156135bc578035835291830191830161360b565b600082601f83011261363357600080fd5b8135602061364361349383613535565b82815260059290921b8401810191818101908684111561366257600080fd5b8286015b848110156135bc5780356001600160401b038111156136855760008081fd5b6136938986838b0101613474565b845250918301918301613666565b600080600080608085870312156136b757600080fd5b84356001600160401b03808211156136ce57600080fd5b6136da88838901613558565b955060208701359150808211156136f057600080fd5b6136fc888389016135c7565b9450604087013591508082111561371257600080fd5b5061371f87828801613622565b949793965093946060013593505050565b803561332e816132d1565b801515811461177057600080fd5b803561332e8161373b565b600060a0828403121561376657600080fd5b60405160a081016001600160401b0381118282101715613788576137886133de565b6040529050808235613799816132d1565b815260208301356137a9816132d1565b602082015260408301356137bc816132d1565b604082015260608301356137cf816132d1565b606082015260808301356137e2816132d1565b6080919091015292915050565b6000808284036101e081121561380457600080fd5b6101408082121561381457600080fd5b61381c6133f4565b915061382785613730565b825261383560208601613730565b602083015261384660408601613730565b604083015261385760608601613730565b60608301526080850135608083015260a085013560a083015260c085013560c083015260e085013560e0830152610100613892818701613730565b908301526101206138a4868201613749565b81840152508193506138b886828701613754565b925050509250929050565b6000602082840312156138d557600080fd5b81356110da816132d1565b602081016008831061390257634e487b7160e01b600052602160045260246000fd5b91905290565b60006020828403121561391a57600080fd5b81356110da8161373b565b6000806040838503121561393857600080fd5b8235613943816132d1565b915060208301356001600160401b0381111561395e57600080fd5b61396a85828601613474565b9150509250929050565b9283526020830191909152604082015260600190565b803560ff8116811461332e57600080fd5b600080604083850312156139ae57600080fd5b823591506139be6020840161398a565b90509250929050565b60008060008060008060c087890312156139e057600080fd5b86356001600160401b03808211156139f757600080fd5b613a038a838b01613558565b97506020890135915080821115613a1957600080fd5b613a258a838b016135c7565b96506040890135915080821115613a3b57600080fd5b613a478a838b01613622565b95506060890135915080821115613a5d57600080fd5b50613a6a89828a01613474565b9350506080870135915060a087013590509295509295509295565b60008060408385031215613a9857600080fd5b8235613aa3816132d1565b91506139be60208401613316565b60008083601f840112613ac357600080fd5b5081356001600160401b03811115613ada57600080fd5b602083019150836020828501011115613af257600080fd5b9250929050565b60008060008060608587031215613b0f57600080fd5b84359350613b1f6020860161398a565b925060408501356001600160401b03811115613b3a57600080fd5b613b4687828801613ab1565b95989497509550505050565b600080600060608486031215613b6757600080fd5b8335613b72816132d1565b92506020848101356001600160401b03811115613b8e57600080fd5b8501601f81018713613b9f57600080fd5b8035613bad61349382613535565b81815260059190911b82018301908381019089831115613bcc57600080fd5b928401925b82841015613bf157613be284613316565b82529284019290840190613bd1565b8096505050505050613c0560408501613749565b90509250925092565b60008060408385031215613c2157600080fd5b8235613c2c816132d1565b946020939093013593505050565b600080600080600060a08688031215613c5257600080fd5b8535613c5d816132d1565b94506020860135613c6d816132d1565b935060408601356001600160401b0380821115613c8957600080fd5b613c9589838a016135c7565b94506060880135915080821115613cab57600080fd5b613cb789838a016135c7565b93506080880135915080821115613ccd57600080fd5b50613cda88828901613474565b9150509295509295909350565b600080600060608486031215613cfc57600080fd5b8335613d07816132d1565b9250613d1560208501613316565b91506040840135613d258161373b565b809150509250925092565b60008060008060608587031215613d4657600080fd5b8435613d51816132d1565b93506020850135925060408501356001600160401b03811115613b3a57600080fd5b60008060408385031215613d8657600080fd5b50508035926020909101359150565b600080600080600060a08688031215613dad57600080fd5b8535613db8816132d1565b94506020860135613dc8816132d1565b9350604086013592506060860135915060808601356001600160401b03811115613df157600080fd5b613cda88828901613474565b600060208284031215613e0f57600080fd5b5051919050565b918252602082015260400190565b600181811c90821680613e3857607f821691505b602082108103613e5857634e487b7160e01b600052602260045260246000fd5b50919050565b600081518084526020808501945080840160005b83811015613e975781516001600160a01b031687529582019590820190600101613e72565b509495945050505050565b600081518084526020808501945080840160005b83811015613e9757815187529582019590820190600101613eb6565b600081518084526020808501808196508360051b8101915082860160005b85811015613f1a578284038952613f0884835161338b565b98850198935090840190600101613ef0565b5091979650505050505050565b8681526001600160a01b038616602082015260c060408201819052600090613f5190830187613e5e565b8281036060840152613f638187613ea2565b90508281036080840152613f778186613ed2565b9150508260a0830152979650505050505050565b9182526001600160a01b0316602082015260400190565b600060208284031215613fb457600080fd5b8151600881106110da57600080fd5b8781526001600160a01b0387166020820152851515604082015260e060608201819052600090613ff590830187613e5e565b82810360808401526140078187613ea2565b905082810360a084015261401b8186613ed2565b9150508260c083015298975050505050505050565b60006020828403121561404257600080fd5b81516001600160401b0381111561405857600080fd5b8201601f8101841361406957600080fd5b80516140776134938261344d565b81815285602083850101111561408c57600080fd5b61254e826020830160208601613367565b87815260e0602082015260006140b660e0830189613e5e565b82810360408401526140c88189613ea2565b905082810360608401526140dc8188613ed2565b905082810360808401526140f0818761338b565b60a0840195909552505060c0015295945050505050565b868152602081018690526001600160a01b038516604082015260ff8416606082015260a0608082018190528101829052818360c0830137600081830160c090810191909152601f909201601f1916010195945050505050565b60006020828403121561417257600080fd5b81516110da8161373b565b8481526001600160a01b03841660208083019190915260806040830181905284519083018190526000918581019160a0850190845b818110156141d85784516001600160e01b031916835293830193918301916001016141b2565b5050809350505050821515606083015295945050505050565b60006020828403121561420357600080fd5b815165ffffffffffff811681146110da57600080fd5b8183823760009101908152919050565b6001600160a01b03929092168252602082015260400190565b6080808252855190820181905260009060209060a0840190828901845b828110156142845781516001600160a01b03168452928401929084019060010161425f565b5050508381038285015286518082528783019183019060005b818110156142b95783518352928401929184019160010161429d565b505084810360408601526142cd8188613ed2565b935050505082606083015295945050505050565b601f82111561164b57600081815260208120601f850160051c810160208610156143085750805b601f850160051c820191505b818110156127dd57828155600101614314565b81516001600160401b03811115614340576143406133de565b6143548161434e8454613e24565b846142e1565b602080601f83116001811461438957600084156143715750858301515b600019600386901b1c1916600185901b1785556127dd565b600085815260208120601f198616915b828110156143b857888601518255948401946001909101908401614399565b50858210156143d65787850151600019600388901b60f8161c191681555b5050505050600190811b01905550565b600082516143f8818460208701613367565b919091019291505056fe6575630003027b0b2fc4a48bc39dbc3eba9cf56588c696a6f5717e167a0ce731360894a13ba1a3210667c828492db98dca3e2076cc3735a920a3ca505d382bbc65d7a28e3265b37a6474929f336521b332c1681b933f6cb9f3376673440d862a87e72189a3ea069796dab5c7d3826581f957cb5c882c1e6dae7acacec49ca48e56af926aa3845d4dc63a6c773ed36f51794728c97ebcd1bf845bcecb16eeb6b7737570706f72743d627261766f2671756f72756d3d666f722c6162737461696e2c616761696e7374a2646970667358221220b6b07af0d19d391bda98fc58af4d5f1c9aea8a72aefe728bd30cba79aef17cef64736f6c63430008140033",
  "linkReferences": {
    "contracts/deprecated/V1/governance/libraries/GovernorClockLogicV1.sol": {
      "GovernorClockLogicV1": [
        {
          "length": 20,
          "start": 6456
        },
        {
          "length": 20,
          "start": 8522
        }
      ]
    },
    "contracts/deprecated/V1/governance/libraries/GovernorConfiguratorV1.sol": {
      "GovernorConfiguratorV1": [
        {
          "length": 20,
          "start": 6051
        },
        {
          "length": 20,
          "start": 7281
        },
        {
          "length": 20,
          "start": 7735
        },
        {
          "length": 20,
          "start": 8051
        },
        {
          "length": 20,
          "start": 8835
        },
        {
          "length": 20,
          "start": 9132
        }
      ]
    },
    "contracts/deprecated/V1/governance/libraries/GovernorDepositLogicV1.sol": {
      "GovernorDepositLogicV1": [
        {
          "length": 20,
          "start": 3880
        },
        {
          "length": 20,
          "start": 7527
        },
        {
          "length": 20,
          "start": 10038
        }
      ]
    },
    "contracts/deprecated/V1/governance/libraries/GovernorFunctionRestrictionsLogicV1.sol": {
      "GovernorFunctionRestrictionsLogicV1": [
        {
          "length": 20,
          "start": 6648
        },
        {
          "length": 20,
          "start": 8330
        },
        {
          "length": 20,
          "start": 9472
        }
      ]
    },
    "contracts/deprecated/V1/governance/libraries/GovernorProposalLogicV1.sol": {
      "GovernorProposalLogicV1": [
        {
          "length": 20,
          "start": 4699
        },
        {
          "length": 20,
          "start": 4934
        },
        {
          "length": 20,
          "start": 5775
        },
        {
          "length": 20,
          "start": 6344
        },
        {
          "length": 20,
          "start": 7087
        },
        {
          "length": 20,
          "start": 7892
        },
        {
          "length": 20,
          "start": 8906
        },
        {
          "length": 20,
          "start": 9535
        }
      ]
    },
    "contracts/deprecated/V1/governance/libraries/GovernorQuorumLogicV1.sol": {
      "GovernorQuorumLogicV1": [
        {
          "length": 20,
          "start": 4255
        },
        {
          "length": 20,
          "start": 5325
        },
        {
          "length": 20,
          "start": 7428
        },
        {
          "length": 20,
          "start": 8736
        },
        {
          "length": 20,
          "start": 9878
        },
        {
          "length": 20,
          "start": 10252
        }
      ]
    },
    "contracts/deprecated/V1/governance/libraries/GovernorStateLogicV1.sol": {
      "GovernorStateLogicV1": [
        {
          "length": 20,
          "start": 6121
        }
      ]
    },
    "contracts/deprecated/V1/governance/libraries/GovernorVotesLogicV1.sol": {
      "GovernorVotesLogicV1": [
        {
          "length": 20,
          "start": 6924
        },
        {
          "length": 20,
          "start": 7806
        },
        {
          "length": 20,
          "start": 9232
        }
      ]
    }
  },
  "deployedLinkReferences": {
    "contracts/deprecated/V1/governance/libraries/GovernorClockLogicV1.sol": {
      "GovernorClockLogicV1": [
        {
          "length": 20,
          "start": 6196
        },
        {
          "length": 20,
          "start": 8262
        }
      ]
    },
    "contracts/deprecated/V1/governance/libraries/GovernorConfiguratorV1.sol": {
      "GovernorConfiguratorV1": [
        {
          "length": 20,
          "start": 5791
        },
        {
          "length": 20,
          "start": 7021
        },
        {
          "length": 20,
          "start": 7475
        },
        {
          "length": 20,
          "start": 7791
        },
        {
          "length": 20,
          "start": 8575
        },
        {
          "length": 20,
          "start": 8872
        }
      ]
    },
    "contracts/deprecated/V1/governance/libraries/GovernorDepositLogicV1.sol": {
      "GovernorDepositLogicV1": [
        {
          "length": 20,
          "start": 3620
        },
        {
          "length": 20,
          "start": 7267
        },
        {
          "length": 20,
          "start": 9778
        }
      ]
    },
    "contracts/deprecated/V1/governance/libraries/GovernorFunctionRestrictionsLogicV1.sol": {
      "GovernorFunctionRestrictionsLogicV1": [
        {
          "length": 20,
          "start": 6388
        },
        {
          "length": 20,
          "start": 8070
        },
        {
          "length": 20,
          "start": 9212
        }
      ]
    },
    "contracts/deprecated/V1/governance/libraries/GovernorProposalLogicV1.sol": {
      "GovernorProposalLogicV1": [
        {
          "length": 20,
          "start": 4439
        },
        {
          "length": 20,
          "start": 4674
        },
        {
          "length": 20,
          "start": 5515
        },
        {
          "length": 20,
          "start": 6084
        },
        {
          "length": 20,
          "start": 6827
        },
        {
          "length": 20,
          "start": 7632
        },
        {
          "length": 20,
          "start": 8646
        },
        {
          "length": 20,
          "start": 9275
        }
      ]
    },
    "contracts/deprecated/V1/governance/libraries/GovernorQuorumLogicV1.sol": {
      "GovernorQuorumLogicV1": [
        {
          "length": 20,
          "start": 3995
        },
        {
          "length": 20,
          "start": 5065
        },
        {
          "length": 20,
          "start": 7168
        },
        {
          "length": 20,
          "start": 8476
        },
        {
          "length": 20,
          "start": 9618
        },
        {
          "length": 20,
          "start": 9992
        }
      ]
    },
    "contracts/deprecated/V1/governance/libraries/GovernorStateLogicV1.sol": {
      "GovernorStateLogicV1": [
        {
          "length": 20,
          "start": 5861
        }
      ]
    },
    "contracts/deprecated/V1/governance/libraries/GovernorVotesLogicV1.sol": {
      "GovernorVotesLogicV1": [
        {
          "length": 20,
          "start": 6664
        },
        {
          "length": 20,
          "start": 7546
        },
        {
          "length": 20,
          "start": 8972
        }
      ]
    }
  }
}