{
  "_format": "hh-sol-artifact-1",
  "contractName": "B3TR",
  "sourceName": "contracts/B3TR.sol",
  "abi": [
    {
      "inputs": [
        {
          "internalType": "address",
          "name": "_admin",
          "type": "address"
        },
        {
          "internalType": "address",
          "name": "_defaultMinter",
          "type": "address"
        },
        {
          "internalType": "address",
          "name": "_pauser",
          "type": "address"
        }
      ],
      "stateMutability": "nonpayable",
      "type": "constructor"
    },
    {
      "inputs": [],
      "name": "AccessControlBadConfirmation",
      "type": "error"
    },
    {
      "inputs": [
        {
          "internalType": "address",
          "name": "account",
          "type": "address"
        },
        {
          "internalType": "bytes32",
          "name": "neededRole",
          "type": "bytes32"
        }
      ],
      "name": "AccessControlUnauthorizedAccount",
      "type": "error"
    },
    {
      "inputs": [
        {
          "internalType": "uint256",
          "name": "increasedSupply",
          "type": "uint256"
        },
        {
          "internalType": "uint256",
          "name": "cap",
          "type": "uint256"
        }
      ],
      "name": "ERC20ExceededCap",
      "type": "error"
    },
    {
      "inputs": [
        {
          "internalType": "address",
          "name": "spender",
          "type": "address"
        },
        {
          "internalType": "uint256",
          "name": "allowance",
          "type": "uint256"
        },
        {
          "internalType": "uint256",
          "name": "needed",
          "type": "uint256"
        }
      ],
      "name": "ERC20InsufficientAllowance",
      "type": "error"
    },
    {
      "inputs": [
        {
          "internalType": "address",
          "name": "sender",
          "type": "address"
        },
        {
          "internalType": "uint256",
          "name": "balance",
          "type": "uint256"
        },
        {
          "internalType": "uint256",
          "name": "needed",
          "type": "uint256"
        }
      ],
      "name": "ERC20InsufficientBalance",
      "type": "error"
    },
    {
      "inputs": [
        {
          "internalType": "address",
          "name": "approver",
          "type": "address"
        }
      ],
      "name": "ERC20InvalidApprover",
      "type": "error"
    },
    {
      "inputs": [
        {
          "internalType": "uint256",
          "name": "cap",
          "type": "uint256"
        }
      ],
      "name": "ERC20InvalidCap",
      "type": "error"
    },
    {
      "inputs": [
        {
          "internalType": "address",
          "name": "receiver",
          "type": "address"
        }
      ],
      "name": "ERC20InvalidReceiver",
      "type": "error"
    },
    {
      "inputs": [
        {
          "internalType": "address",
          "name": "sender",
          "type": "address"
        }
      ],
      "name": "ERC20InvalidSender",
      "type": "error"
    },
    {
      "inputs": [
        {
          "internalType": "address",
          "name": "spender",
          "type": "address"
        }
      ],
      "name": "ERC20InvalidSpender",
      "type": "error"
    },
    {
      "inputs": [],
      "name": "EnforcedPause",
      "type": "error"
    },
    {
      "inputs": [],
      "name": "ExpectedPause",
      "type": "error"
    },
    {
      "anonymous": false,
      "inputs": [
        {
          "indexed": true,
          "internalType": "address",
          "name": "owner",
          "type": "address"
        },
        {
          "indexed": true,
          "internalType": "address",
          "name": "spender",
          "type": "address"
        },
        {
          "indexed": false,
          "internalType": "uint256",
          "name": "value",
          "type": "uint256"
        }
      ],
      "name": "Approval",
      "type": "event"
    },
    {
      "anonymous": false,
      "inputs": [
        {
          "indexed": false,
          "internalType": "address",
          "name": "account",
          "type": "address"
        }
      ],
      "name": "Paused",
      "type": "event"
    },
    {
      "anonymous": false,
      "inputs": [
        {
          "indexed": true,
          "internalType": "bytes32",
          "name": "role",
          "type": "bytes32"
        },
        {
          "indexed": true,
          "internalType": "bytes32",
          "name": "previousAdminRole",
          "type": "bytes32"
        },
        {
          "indexed": true,
          "internalType": "bytes32",
          "name": "newAdminRole",
          "type": "bytes32"
        }
      ],
      "name": "RoleAdminChanged",
      "type": "event"
    },
    {
      "anonymous": false,
      "inputs": [
        {
          "indexed": true,
          "internalType": "bytes32",
          "name": "role",
          "type": "bytes32"
        },
        {
          "indexed": true,
          "internalType": "address",
          "name": "account",
          "type": "address"
        },
        {
          "indexed": true,
          "internalType": "address",
          "name": "sender",
          "type": "address"
        }
      ],
      "name": "RoleGranted",
      "type": "event"
    },
    {
      "anonymous": false,
      "inputs": [
        {
          "indexed": true,
          "internalType": "bytes32",
          "name": "role",
          "type": "bytes32"
        },
        {
          "indexed": true,
          "internalType": "address",
          "name": "account",
          "type": "address"
        },
        {
          "indexed": true,
          "internalType": "address",
          "name": "sender",
          "type": "address"
        }
      ],
      "name": "RoleRevoked",
      "type": "event"
    },
    {
      "anonymous": false,
      "inputs": [
        {
          "indexed": true,
          "internalType": "address",
          "name": "from",
          "type": "address"
        },
        {
          "indexed": true,
          "internalType": "address",
          "name": "to",
          "type": "address"
        },
        {
          "indexed": false,
          "internalType": "uint256",
          "name": "value",
          "type": "uint256"
        }
      ],
      "name": "Transfer",
      "type": "event"
    },
    {
      "anonymous": false,
      "inputs": [
        {
          "indexed": false,
          "internalType": "address",
          "name": "account",
          "type": "address"
        }
      ],
      "name": "Unpaused",
      "type": "event"
    },
    {
      "inputs": [],
      "name": "DEFAULT_ADMIN_ROLE",
      "outputs": [
        {
          "internalType": "bytes32",
          "name": "",
          "type": "bytes32"
        }
      ],
      "stateMutability": "view",
      "type": "function"
    },
    {
      "inputs": [],
      "name": "MINTER_ROLE",
      "outputs": [
        {
          "internalType": "bytes32",
          "name": "",
          "type": "bytes32"
        }
      ],
      "stateMutability": "view",
      "type": "function"
    },
    {
      "inputs": [],
      "name": "PAUSER_ROLE",
      "outputs": [
        {
          "internalType": "bytes32",
          "name": "",
          "type": "bytes32"
        }
      ],
      "stateMutability": "view",
      "type": "function"
    },
    {
      "inputs": [
        {
          "internalType": "address",
          "name": "owner",
          "type": "address"
        },
        {
          "internalType": "address",
          "name": "spender",
          "type": "address"
        }
      ],
      "name": "allowance",
      "outputs": [
        {
          "internalType": "uint256",
          "name": "",
          "type": "uint256"
        }
      ],
      "stateMutability": "view",
      "type": "function"
    },
    {
      "inputs": [
        {
          "internalType": "address",
          "name": "spender",
          "type": "address"
        },
        {
          "internalType": "uint256",
          "name": "value",
          "type": "uint256"
        }
      ],
      "name": "approve",
      "outputs": [
        {
          "internalType": "bool",
          "name": "",
          "type": "bool"
        }
      ],
      "stateMutability": "nonpayable",
      "type": "function"
    },
    {
      "inputs": [
        {
          "internalType": "address",
          "name": "account",
          "type": "address"
        }
      ],
      "name": "balanceOf",
      "outputs": [
        {
          "internalType": "uint256",
          "name": "",
          "type": "uint256"
        }
      ],
      "stateMutability": "view",
      "type": "function"
    },
    {
      "inputs": [],
      "name": "cap",
      "outputs": [
        {
          "internalType": "uint256",
          "name": "",
          "type": "uint256"
        }
      ],
      "stateMutability": "view",
      "type": "function"
    },
    {
      "inputs": [],
      "name": "decimals",
      "outputs": [
        {
          "internalType": "uint8",
          "name": "",
          "type": "uint8"
        }
      ],
      "stateMutability": "view",
      "type": "function"
    },
    {
      "inputs": [
        {
          "internalType": "bytes32",
          "name": "role",
          "type": "bytes32"
        }
      ],
      "name": "getRoleAdmin",
      "outputs": [
        {
          "internalType": "bytes32",
          "name": "",
          "type": "bytes32"
        }
      ],
      "stateMutability": "view",
      "type": "function"
    },
    {
      "inputs": [
        {
          "internalType": "bytes32",
          "name": "role",
          "type": "bytes32"
        },
        {
          "internalType": "address",
          "name": "account",
          "type": "address"
        }
      ],
      "name": "grantRole",
      "outputs": [],
      "stateMutability": "nonpayable",
      "type": "function"
    },
    {
      "inputs": [
        {
          "internalType": "bytes32",
          "name": "role",
          "type": "bytes32"
        },
        {
          "internalType": "address",
          "name": "account",
          "type": "address"
        }
      ],
      "name": "hasRole",
      "outputs": [
        {
          "internalType": "bool",
          "name": "",
          "type": "bool"
        }
      ],
      "stateMutability": "view",
      "type": "function"
    },
    {
      "inputs": [
        {
          "internalType": "address",
          "name": "to",
          "type": "address"
        },
        {
          "internalType": "uint256",
          "name": "amount",
          "type": "uint256"
        }
      ],
      "name": "mint",
      "outputs": [],
      "stateMutability": "nonpayable",
      "type": "function"
    },
    {
      "inputs": [],
      "name": "name",
      "outputs": [
        {
          "internalType": "string",
          "name": "",
          "type": "string"
        }
      ],
      "stateMutability": "view",
      "type": "function"
    },
    {
      "inputs": [],
      "name": "pause",
      "outputs": [],
      "stateMutability": "nonpayable",
      "type": "function"
    },
    {
      "inputs": [],
      "name": "paused",
      "outputs": [
        {
          "internalType": "bool",
          "name": "",
          "type": "bool"
        }
      ],
      "stateMutability": "view",
      "type": "function"
    },
    {
      "inputs": [
        {
          "internalType": "bytes32",
          "name": "role",
          "type": "bytes32"
        },
        {
          "internalType": "address",
          "name": "callerConfirmation",
          "type": "address"
        }
      ],
      "name": "renounceRole",
      "outputs": [],
      "stateMutability": "nonpayable",
      "type": "function"
    },
    {
      "inputs": [
        {
          "internalType": "bytes32",
          "name": "role",
          "type": "bytes32"
        },
        {
          "internalType": "address",
          "name": "account",
          "type": "address"
        }
      ],
      "name": "revokeRole",
      "outputs": [],
      "stateMutability": "nonpayable",
      "type": "function"
    },
    {
      "inputs": [
        {
          "internalType": "bytes4",
          "name": "interfaceId",
          "type": "bytes4"
        }
      ],
      "name": "supportsInterface",
      "outputs": [
        {
          "internalType": "bool",
          "name": "",
          "type": "bool"
        }
      ],
      "stateMutability": "view",
      "type": "function"
    },
    {
      "inputs": [],
      "name": "symbol",
      "outputs": [
        {
          "internalType": "string",
          "name": "",
          "type": "string"
        }
      ],
      "stateMutability": "view",
      "type": "function"
    },
    {
      "inputs": [],
      "name": "tokenDetails",
      "outputs": [
        {
          "internalType": "string",
          "name": "",
          "type": "string"
        },
        {
          "internalType": "string",
          "name": "",
          "type": "string"
        },
        {
          "internalType": "uint8",
          "name": "",
          "type": "uint8"
        },
        {
          "internalType": "uint256",
          "name": "",
          "type": "uint256"
        },
        {
          "internalType": "uint256",
          "name": "",
          "type": "uint256"
        }
      ],
      "stateMutability": "view",
      "type": "function"
    },
    {
      "inputs": [],
      "name": "totalSupply",
      "outputs": [
        {
          "internalType": "uint256",
          "name": "",
          "type": "uint256"
        }
      ],
      "stateMutability": "view",
      "type": "function"
    },
    {
      "inputs": [
        {
          "internalType": "address",
          "name": "to",
          "type": "address"
        },
        {
          "internalType": "uint256",
          "name": "value",
          "type": "uint256"
        }
      ],
      "name": "transfer",
      "outputs": [
        {
          "internalType": "bool",
          "name": "",
          "type": "bool"
        }
      ],
      "stateMutability": "nonpayable",
      "type": "function"
    },
    {
      "inputs": [
        {
          "internalType": "address",
          "name": "from",
          "type": "address"
        },
        {
          "internalType": "address",
          "name": "to",
          "type": "address"
        },
        {
          "internalType": "uint256",
          "name": "value",
          "type": "uint256"
        }
      ],
      "name": "transferFrom",
      "outputs": [
        {
          "internalType": "bool",
          "name": "",
          "type": "bool"
        }
      ],
      "stateMutability": "nonpayable",
      "type": "function"
    },
    {
      "inputs": [],
      "name": "unpause",
      "outputs": [],
      "stateMutability": "nonpayable",
      "type": "function"
    }
  ],
  "bytecode": "0x60a06040523480156200001157600080fd5b506040516200127b3803806200127b833981016040819052620000349162000275565b6200004c633b9e7fd2670de0b6b3a7640000620002bf565b6040805180820182526004808252632119aa2960e11b60208084018290528451808601909552918452908301529060036200008883826200038a565b5060046200009782826200038a565b50505080600003620000c45760405163392e1e2760e01b8152600060048201526024015b60405180910390fd5b6080526005805460ff191690556001600160a01b038316620001345760405162461bcd60e51b815260206004820152602260248201527f423354523a2061646d696e20616464726573732063616e6e6f74206265207a65604482015261726f60f01b6064820152608401620000bb565b62000141600084620001a5565b506200016e7f9f2df0fed2c77648de5860a4cc508cd0818c85b8b8a1ab4ceeef8d981c8956a683620001a5565b506200019b7f65d7a28e3265b37a6474929f336521b332c1681b933f6cb9f3376673440d862a82620001a5565b5050505062000456565b60008281526006602090815260408083206001600160a01b038516845290915281205460ff166200024e5760008381526006602090815260408083206001600160a01b03861684529091529020805460ff19166001179055620002053390565b6001600160a01b0316826001600160a01b0316847f2f8788117e7eff1d82e926ec794901d17c78024a50270940304540a733656f0d60405160405180910390a450600162000252565b5060005b92915050565b80516001600160a01b03811681146200027057600080fd5b919050565b6000806000606084860312156200028b57600080fd5b620002968462000258565b9250620002a66020850162000258565b9150620002b66040850162000258565b90509250925092565b80820281158282048414176200025257634e487b7160e01b600052601160045260246000fd5b634e487b7160e01b600052604160045260246000fd5b600181811c908216806200031057607f821691505b6020821081036200033157634e487b7160e01b600052602260045260246000fd5b50919050565b601f8211156200038557600081815260208120601f850160051c81016020861015620003605750805b601f850160051c820191505b8181101562000381578281556001016200036c565b5050505b505050565b81516001600160401b03811115620003a657620003a6620002e5565b620003be81620003b78454620002fb565b8462000337565b602080601f831160018114620003f65760008415620003dd5750858301515b600019600386901b1c1916600185901b17855562000381565b600085815260208120601f198616915b82811015620004275788860151825594840194600190910190840162000406565b5085821015620004465787850151600019600388901b60f8161c191681555b5050505050600190811b01905550565b608051610e096200047260003960006104280152610e096000f3fe608060405234801561001057600080fd5b50600436106101285760003560e01c806301ffc9a71461012d57806306fdde0314610155578063095ea7b31461016a57806318160ddd1461017d57806323b872dd1461018f578063248a9ca3146101a25780632f2ff15d146101b5578063313ce567146101ca578063355274ea146101d957806336568abe146101e15780633f4ba83a146101f457806340c10f19146101fc5780635c975abb1461020f57806370a082311461021a5780638456cb591461024357806391d148541461024b57806395d89b411461025e578063a217fddf14610266578063a9059cbb1461026e578063d539139314610281578063d547741f14610296578063d6abe110146102a9578063dd62ed3e146102c2578063e63ab1e9146102d5575b600080fd5b61014061013b366004610b27565b6102ea565b60405190151581526020015b60405180910390f35b61015d610321565b60405161014c9190610b9e565b610140610178366004610bcd565b6103b3565b6002545b60405190815260200161014c565b61014061019d366004610bf7565b6103cb565b6101816101b0366004610c33565b6103ef565b6101c86101c3366004610c4c565b610404565b005b6040516012815260200161014c565b610181610426565b6101c86101ef366004610c4c565b61044a565b6101c8610482565b6101c861020a366004610bcd565b6104a5565b60055460ff16610140565b610181610228366004610c78565b6001600160a01b031660009081526020819052604090205490565b6101c86104c7565b610140610259366004610c4c565b6104e7565b61015d610512565b610181600081565b61014061027c366004610bcd565b610521565b610181600080516020610db483398151915281565b6101c86102a4366004610c4c565b61052f565b6102b161054b565b60405161014c959493929190610c93565b6101816102d0366004610cd9565b610581565b610181600080516020610d9483398151915281565b60006001600160e01b03198216637965db0b60e01b148061031b57506301ffc9a760e01b6001600160e01b03198316145b92915050565b60606003805461033090610d03565b80601f016020809104026020016040519081016040528092919081815260200182805461035c90610d03565b80156103a95780601f1061037e576101008083540402835291602001916103a9565b820191906000526020600020905b81548152906001019060200180831161038c57829003601f168201915b5050505050905090565b6000336103c18185856105ac565b5060019392505050565b6000336103d98582856105b9565b6103e485858561060f565b506001949350505050565b60009081526006602052604090206001015490565b61040d826103ef565b6104168161066e565b6104208383610678565b50505050565b7f000000000000000000000000000000000000000000000000000000000000000090565b6001600160a01b03811633146104735760405163334bd91960e11b815260040160405180910390fd5b61047d828261070c565b505050565b600080516020610d9483398151915261049a8161066e565b6104a2610779565b50565b600080516020610db48339815191526104bd8161066e565b61047d83836107c5565b600080516020610d948339815191526104df8161066e565b6104a26107ff565b60009182526006602090815260408084206001600160a01b0393909316845291905290205460ff1690565b60606004805461033090610d03565b6000336103c181858561060f565b610538826103ef565b6105418161066e565b610420838361070c565b606080600080600061055b610321565b610563610512565b6012600254610570610426565b945094509450945094509091929394565b6001600160a01b03918216600090815260016020908152604080832093909416825291909152205490565b61047d838383600161083c565b60006105c58484610581565b90506000198114610420578181101561060057828183604051637dc7a0d960e11b81526004016105f793929190610d3d565b60405180910390fd5b6104208484848403600061083c565b6001600160a01b038316610639576000604051634b637e8f60e11b81526004016105f79190610d5e565b6001600160a01b03821661066357600060405163ec442f0560e01b81526004016105f79190610d5e565b61047d838383610911565b6104a2813361091c565b600061068483836104e7565b6107045760008381526006602090815260408083206001600160a01b03861684529091529020805460ff191660011790556106bc3390565b6001600160a01b0316826001600160a01b0316847f2f8788117e7eff1d82e926ec794901d17c78024a50270940304540a733656f0d60405160405180910390a450600161031b565b50600061031b565b600061071883836104e7565b156107045760008381526006602090815260408083206001600160a01b0386168085529252808320805460ff1916905551339286917ff6391f5c32d9c69d2a47ea670b442974b53935d1edc7fd64eb21e047a839171b9190a450600161031b565b610781610955565b6005805460ff191690557f5db9ee0a495bf2e6ff9c91a7834c1ba4fdd244a5e8aa4e537bd38aeae4b073aa335b6040516107bb9190610d5e565b60405180910390a1565b6001600160a01b0382166107ef57600060405163ec442f0560e01b81526004016105f79190610d5e565b6107fb60008383610911565b5050565b61080761097a565b6005805460ff191660011790557f62e78cea01bee320cd4e420270b5ea74000d11b0c9f74754ebdbfc544b05a2586107ae3390565b6001600160a01b03841661086657600060405163e602df0560e01b81526004016105f79190610d5e565b6001600160a01b038316610890576000604051634a1406b160e11b81526004016105f79190610d5e565b6001600160a01b038085166000908152600160209081526040808320938716835292905220829055801561042057826001600160a01b0316846001600160a01b03167f8c5be1e5ebec7d5bd14f71427d1e84f3dd0314c0f7b2291e5b200ac8c7c3b9258460405161090391815260200190565b60405180910390a350505050565b61047d83838361099e565b61092682826104e7565b6107fb5760405163e2517d3f60e01b81526001600160a01b0382166004820152602481018390526044016105f7565b60055460ff1661097857604051638dfc202b60e01b815260040160405180910390fd5b565b60055460ff16156109785760405163d93c066560e01b815260040160405180910390fd5b6109a661097a565b61047d8383836109b7838383610a10565b6001600160a01b03831661047d5760006109cf610426565b905060006109dc60025490565b905081811115610a095760405163279e7e1560e21b815260048101829052602481018390526044016105f7565b5050505050565b6001600160a01b038316610a3b578060026000828254610a309190610d72565b90915550610a9a9050565b6001600160a01b03831660009081526020819052604090205481811015610a7b5783818360405163391434e360e21b81526004016105f793929190610d3d565b6001600160a01b03841660009081526020819052604090209082900390555b6001600160a01b038216610ab657600280548290039055610ad5565b6001600160a01b03821660009081526020819052604090208054820190555b816001600160a01b0316836001600160a01b03167fddf252ad1be2c89b69c2b068fc378daa952ba7f163c4a11628f55a4df523b3ef83604051610b1a91815260200190565b60405180910390a3505050565b600060208284031215610b3957600080fd5b81356001600160e01b031981168114610b5157600080fd5b9392505050565b6000815180845260005b81811015610b7e57602081850181015186830182015201610b62565b506000602082860101526020601f19601f83011685010191505092915050565b602081526000610b516020830184610b58565b80356001600160a01b0381168114610bc857600080fd5b919050565b60008060408385031215610be057600080fd5b610be983610bb1565b946020939093013593505050565b600080600060608486031215610c0c57600080fd5b610c1584610bb1565b9250610c2360208501610bb1565b9150604084013590509250925092565b600060208284031215610c4557600080fd5b5035919050565b60008060408385031215610c5f57600080fd5b82359150610c6f60208401610bb1565b90509250929050565b600060208284031215610c8a57600080fd5b610b5182610bb1565b60a081526000610ca660a0830188610b58565b8281036020840152610cb88188610b58565b60ff9690961660408401525050606081019290925260809091015292915050565b60008060408385031215610cec57600080fd5b610cf583610bb1565b9150610c6f60208401610bb1565b600181811c90821680610d1757607f821691505b602082108103610d3757634e487b7160e01b600052602260045260246000fd5b50919050565b6001600160a01b039390931683526020830191909152604082015260600190565b6001600160a01b0391909116815260200190565b8082018082111561031b57634e487b7160e01b600052601160045260246000fdfe65d7a28e3265b37a6474929f336521b332c1681b933f6cb9f3376673440d862a9f2df0fed2c77648de5860a4cc508cd0818c85b8b8a1ab4ceeef8d981c8956a6a2646970667358221220beb0977e8a0a81f0897daefe687454477fa7bdaecd06796a3d74909b9fac788664736f6c63430008140033",
  "linkReferences": {},
  "deployedLinkReferences": {}
}