{
  "_format": "hh-sol-artifact-1",
  "contractName": "Pausable",
  "sourceName": "contracts/mocks/VechainNodes/utility/Pausable.sol",
  "abi": [
    {
      "anonymous": false,
      "inputs": [
        {
          "indexed": true,
          "internalType": "address",
          "name": "previousOwner",
          "type": "address"
        },
        {
          "indexed": true,
          "internalType": "address",
          "name": "newOwner",
          "type": "address"
        }
      ],
      "name": "OwnershipTransferred",
      "type": "event"
    },
    {
      "anonymous": false,
      "inputs": [],
      "name": "Pause",
      "type": "event"
    },
    {
      "anonymous": false,
      "inputs": [],
      "name": "Unpause",
      "type": "event"
    },
    {
      "inputs": [],
      "name": "owner",
      "outputs": [
        {
          "internalType": "address",
          "name": "",
          "type": "address"
        }
      ],
      "stateMutability": "view",
      "type": "function"
    },
    {
      "inputs": [],
      "name": "pause",
      "outputs": [
        {
          "internalType": "bool",
          "name": "",
          "type": "bool"
        }
      ],
      "stateMutability": "nonpayable",
      "type": "function"
    },
    {
      "inputs": [],
      "name": "paused",
      "outputs": [
        {
          "internalType": "bool",
          "name": "",
          "type": "bool"
        }
      ],
      "stateMutability": "view",
      "type": "function"
    },
    {
      "inputs": [
        {
          "internalType": "address",
          "name": "newOwner",
          "type": "address"
        }
      ],
      "name": "transferOwnership",
      "outputs": [],
      "stateMutability": "nonpayable",
      "type": "function"
    },
    {
      "inputs": [],
      "name": "unpause",
      "outputs": [
        {
          "internalType": "bool",
          "name": "",
          "type": "bool"
        }
      ],
      "stateMutability": "nonpayable",
      "type": "function"
    }
  ],
  "bytecode": "0x60806040526000805460ff60a01b1916905534801561001d57600080fd5b50600080546001600160a01b031916331790556103a68061003f6000396000f3fe608060405234801561001057600080fd5b50600436106100575760003560e01c80633f4ba83a1461005c5780635c975abb146100795780638456cb591461008d5780638da5cb5b14610095578063f2fde38b146100c0575b600080fd5b6100646100d5565b60405190151581526020015b60405180910390f35b60005461006490600160a01b900460ff1681565b610064610194565b6000546100a8906001600160a01b031681565b6040516001600160a01b039091168152602001610070565b6100d36100ce36600461031c565b61024f565b005b600080546001600160a01b031633146101095760405162461bcd60e51b81526004016101009061034c565b60405180910390fd5b600054600160a01b900460ff1661015a5760405162461bcd60e51b81526020600482015260156024820152741b9959591cc81c1c9bdd1bd8dbdb081c185d5cd959605a1b6044820152606401610100565b6000805460ff60a01b191681556040517f7805862f689e2f13df9f062ff482ad3ad112aca9e0847911ed832e158c525b339190a150600190565b600080546001600160a01b031633146101bf5760405162461bcd60e51b81526004016101009061034c565b600054600160a01b900460ff161561020f5760405162461bcd60e51b81526020600482015260136024820152721c1c9bdd1bd8dbdb081a185cc81c185d5cd959606a1b6044820152606401610100565b6000805460ff60a01b1916600160a01b1781556040517f6985a02210a168e66602d3235cb6db0e70f92b3ba4d376a33c0f3d9434bff6259190a150600190565b6000546001600160a01b031633146102795760405162461bcd60e51b81526004016101009061034c565b6001600160a01b0381166102c15760405162461bcd60e51b815260206004820152600f60248201526e696e76616c6964206164647265737360881b6044820152606401610100565b600080546040516001600160a01b03808516939216917f8be0079c531659141344cd1fd0a4f28419497f9722a3daafe3b4186f6b6457e091a3600080546001600160a01b0319166001600160a01b0392909216919091179055565b60006020828403121561032e57600080fd5b81356001600160a01b038116811461034557600080fd5b9392505050565b6020808252600a908201526937b7363c9037bbb732b960b11b60408201526060019056fea26469706673582212204173d07a4ff83ed3a4b2a7a257a2c8b767c04173bdfe3c95933215b3156298bf64736f6c63430008140033",
  "linkReferences": {},
  "deployedLinkReferences": {}
}