{
  "_format": "hh-sol-artifact-1",
  "contractName": "ClockAuctionBase",
  "sourceName": "contracts/mocks/VechainNodes/auction/ClockAuctionBase.sol",
  "abi": [
    {
      "anonymous": false,
      "inputs": [
        {
          "indexed": false,
          "internalType": "uint8",
          "name": "_newPercent",
          "type": "uint8"
        }
      ],
      "name": "FeePercentUpdated",
      "type": "event"
    },
    {
      "anonymous": false,
      "inputs": [
        {
          "indexed": false,
          "internalType": "address",
          "name": "_newFeePoolAddr",
          "type": "address"
        }
      ],
      "name": "FeePoolAddressUpdated",
      "type": "event"
    },
    {
      "anonymous": false,
      "inputs": [
        {
          "indexed": true,
          "internalType": "address",
          "name": "previousOwner",
          "type": "address"
        },
        {
          "indexed": true,
          "internalType": "address",
          "name": "newOwner",
          "type": "address"
        }
      ],
      "name": "OwnershipTransferred",
      "type": "event"
    },
    {
      "anonymous": false,
      "inputs": [],
      "name": "Pause",
      "type": "event"
    },
    {
      "anonymous": false,
      "inputs": [],
      "name": "Unpause",
      "type": "event"
    },
    {
      "inputs": [],
      "name": "VIP181",
      "outputs": [
        {
          "internalType": "contract IVIP181",
          "name": "",
          "type": "address"
        }
      ],
      "stateMutability": "view",
      "type": "function"
    },
    {
      "inputs": [],
      "name": "feePercnt",
      "outputs": [
        {
          "internalType": "uint8",
          "name": "",
          "type": "uint8"
        }
      ],
      "stateMutability": "view",
      "type": "function"
    },
    {
      "inputs": [],
      "name": "feePool",
      "outputs": [
        {
          "internalType": "address payable",
          "name": "",
          "type": "address"
        }
      ],
      "stateMutability": "view",
      "type": "function"
    },
    {
      "inputs": [],
      "name": "owner",
      "outputs": [
        {
          "internalType": "address",
          "name": "",
          "type": "address"
        }
      ],
      "stateMutability": "view",
      "type": "function"
    },
    {
      "inputs": [],
      "name": "pause",
      "outputs": [
        {
          "internalType": "bool",
          "name": "",
          "type": "bool"
        }
      ],
      "stateMutability": "nonpayable",
      "type": "function"
    },
    {
      "inputs": [],
      "name": "paused",
      "outputs": [
        {
          "internalType": "bool",
          "name": "",
          "type": "bool"
        }
      ],
      "stateMutability": "view",
      "type": "function"
    },
    {
      "inputs": [
        {
          "internalType": "uint8",
          "name": "_newPercent",
          "type": "uint8"
        }
      ],
      "name": "setFeePercent",
      "outputs": [],
      "stateMutability": "nonpayable",
      "type": "function"
    },
    {
      "inputs": [
        {
          "internalType": "address payable",
          "name": "_newFeePoolAddr",
          "type": "address"
        }
      ],
      "name": "setFeePoolAddress",
      "outputs": [],
      "stateMutability": "nonpayable",
      "type": "function"
    },
    {
      "inputs": [
        {
          "internalType": "address",
          "name": "newOwner",
          "type": "address"
        }
      ],
      "name": "transferOwnership",
      "outputs": [],
      "stateMutability": "nonpayable",
      "type": "function"
    },
    {
      "inputs": [],
      "name": "unpause",
      "outputs": [
        {
          "internalType": "bool",
          "name": "",
          "type": "bool"
        }
      ],
      "stateMutability": "nonpayable",
      "type": "function"
    }
  ],
  "bytecode": "0x60806040526000805460ff60a01b1990811690915560028054909116905534801561002957600080fd5b50600080546001600160a01b031916331790556105f48061004b6000396000f3fe608060405234801561001057600080fd5b506004361061008e5760003560e01c80633f4ba83a146100935780635c975abb146100b057806379b2f3e2146100c45780638456cb59146100ea5780638da5cb5b146100f2578063ae2e933b14610112578063d94969ad14610125578063eaae34ac1461013a578063f2fde38b1461014d578063f483817614610160575b600080fd5b61009b610173565b60405190151581526020015b60405180910390f35b60005461009b90600160a01b900460ff1681565b6002546100d890600160a01b900460ff1681565b60405160ff90911681526020016100a7565b61009b610232565b600054610105906001600160a01b031681565b6040516100a791906104fe565b600254610105906001600160a01b031681565b61013861013336600461052a565b6102ed565b005b600154610105906001600160a01b031681565b61013861015b36600461052a565b610393565b61013861016e36600461054e565b61043e565b600080546001600160a01b031633146101a75760405162461bcd60e51b815260040161019e90610571565b60405180910390fd5b600054600160a01b900460ff166101f85760405162461bcd60e51b81526020600482015260156024820152741b9959591cc81c1c9bdd1bd8dbdb081c185d5cd959605a1b604482015260640161019e565b6000805460ff60a01b191681556040517f7805862f689e2f13df9f062ff482ad3ad112aca9e0847911ed832e158c525b339190a150600190565b600080546001600160a01b0316331461025d5760405162461bcd60e51b815260040161019e90610571565b600054600160a01b900460ff16156102ad5760405162461bcd60e51b81526020600482015260136024820152721c1c9bdd1bd8dbdb081a185cc81c185d5cd959606a1b604482015260640161019e565b6000805460ff60a01b1916600160a01b1781556040517f6985a02210a168e66602d3235cb6db0e70f92b3ba4d376a33c0f3d9434bff6259190a150600190565b6000546001600160a01b031633146103175760405162461bcd60e51b815260040161019e90610571565b6001600160a01b03811661033d5760405162461bcd60e51b815260040161019e90610595565b600280546001600160a01b0319166001600160a01b0383161790556040517f312fa19ef5a9485ab359ba34a61604a129b5985dd0e6244029a1f37b434ac035906103889083906104fe565b60405180910390a150565b6000546001600160a01b031633146103bd5760405162461bcd60e51b815260040161019e90610571565b6001600160a01b0381166103e35760405162461bcd60e51b815260040161019e90610595565b600080546040516001600160a01b03808516939216917f8be0079c531659141344cd1fd0a4f28419497f9722a3daafe3b4186f6b6457e091a3600080546001600160a01b0319166001600160a01b0392909216919091179055565b6000546001600160a01b031633146104685760405162461bcd60e51b815260040161019e90610571565b60648160ff16106104b05760405162461bcd60e51b815260206004820152601260248201527106d757374206c657373207468616e203130360741b604482015260640161019e565b6002805460ff60a01b1916600160a01b60ff8416908102919091179091556040519081527fca5f0f3d67e5c9c5f03ff4d3f035bf42e7319f25f21258e214df338832a8941a90602001610388565b6001600160a01b0391909116815260200190565b6001600160a01b038116811461052757600080fd5b50565b60006020828403121561053c57600080fd5b813561054781610512565b9392505050565b60006020828403121561056057600080fd5b813560ff8116811461054757600080fd5b6020808252600a908201526937b7363c9037bbb732b960b11b604082015260600190565b6020808252600f908201526e696e76616c6964206164647265737360881b60408201526060019056fea26469706673582212202dd05d226355b0135563dfc39ff52b29a5a42ca776c293a749359ec907a757b764736f6c63430008140033",
  "linkReferences": {},
  "deployedLinkReferences": {}
}